:100000000213A5021FF8752A2112189D4319200218
:1000100019B2320217BFE4F564F565752A3012187B
:100020009D5319E04319031219B2752A3112189D14
:10003000756400851965752A3212189DE519FEEE62
:100040004264AE64AF657C007D0512096C8E648FDE
:10005000652222020012E4F55BF55CF55DF55EF5C4
:100060005FF563F562F561F560F51AF51B752027FC
:10007000752110121F2D121F45121DD38F42121D04
:10008000F98F43121D2A8F40121D568F412086077B
:100090001200168E5E8F5FAF50AE4FAD4EAC4D125C
:1000A00008EB8E118F12E527602EE4FFFE7DC87CE1
:1000B00042AB50AA4FA94EA84D1208345015050E58
:1000C000E50E7002050D94D0E50D9407400A121F4D
:1000D000938005E4F50DF50EE54320E00BD3E541F3
:1000E000940074809480401DAC5EAD5FE41208B251
:1000F000A804A905AA06AB07AF50AE4FAD4EAC4D54
:10010000120599803DE54330E13FC3E55F9464E526
:100110005E94005015050EE50E7002050D940AE57B
:100120000D9400400A121F938005E4F50DF50EAC06
:100130005EAD5FE41208B2AB50AA4FA94EA84D12B3
:10014000059D1208EB8E118F12851125851226AEA2
:1001500011AF127C007D051209D38E118F12121778
:100160003C8F2E8E2D8D2C8C2B7F4A7E0C7DAA7C75
:1001700040AB2EAA2DA92CA82B120834601A4018C7
:100180007F197E047D037C42AB2EAA2DA92CA82BBF
:100190001208345003E4F534E5407017E54170135C
:1001A000E527700FE54264026009E54364026003DD
:1001B0000202E7E527700FE54264026009E5436447
:1001C000026003020261755B02D3E5129400E5113F
:1001D000648094804008E4FDAF12AE118019C3E53D
:1001E00011648094805013C3E49512F512E49511C4
:1001F000F5117D01AF12FE121C257FCB7EA17D651E
:100200007C40AB2EAA2DA92CA82B12083450030237
:1002100002B17F777E3E7D117C42AB2EAA2DA92CA8
:10022000A82B120834600540030202B17F4A7E0CFD
:100230007DAA7C40AB2EAA2DA92CA82B12083460D5
:100240000250030202F87F197E047D037C42AB2E2C
:10025000AA2DA92CA82B12083440030202F802028E
:10026000E2E4F50DF50E755B01C3E5116480948041
:100270005013C3E49512F512E49511F5117D01AF09
:1002800012FE121C257FA27E457D1E7C40AB2EAA4D
:100290002DA92CA82B12083440177F487E617D5E63
:1002A0007C42AB2EAA2DA92CA82B12083460074043
:1002B0000575340180427FDD7E247D3E7C40AB2E7F
:1002C000AA2DA92CA82B120834602D402B7FC37EA9
:1002D000F57D297C42AB2EAA2DA92CA82B1208341F
:1002E0005016E4F5348011E4F50DF50E752AA412CC
:1002F00018FC5319F7121A09E54030E003435C017A
:10030000E54130E703435C02E54130E503435C042B
:10031000E55C650F607E855C0FE55C24FE6019146A
:10032000602C14602114604324FE605C2406706419
:10033000E53C6441605E8056E53D642D6056753D48
:100340002D121CC4804EE517641E6048802FE53CCA
:1003500064416006753C41120052E53D641E603404
:10036000753D1EE4F517121CF78029E53C644160D9
:1003700006753C41120052E517641E601775171E82
:10038000E4F53D121FFF800CE53C64416006753CBE
:1003900041120052121C918E2F8F307C007D07126B
:1003A000096C8E2F8F30852F38853039E5346036D3
:1003B000752401E4F53FAF35FED3EF943274809499
:1003C000804008753533E4F5498013EF4E7002F52F
:1003D00049E53575F00584E5F070036349FF05359F
:1003E000121FB1021F84E4F535E52464017008F59D
:1003F00024121EC5121EA7121FDD8F1F1215F6AC88
:1004000075AD76E41208B2E4FBFA79C878421206B8
:100410008EC004C005C006C007AC6FAD70E4120802
:10042000B2A804A905AA06AB07D007D006D005D00C
:1004300004120797E4FBFAF9783F12059D8F638E4B
:10044000628D618C60E4FFFE7D487C43AB50AA4F17
:10045000A94EA84D120834600D400BE4F563F56217
:100460007561C4756042752800851F29AF63AE624F
:10047000AD61AC601208EBAD5B120A17E572B571A5
:100480001CE533B52917E4B52813E545B5760EE527
:1004900044B57509E51C6518700302055885383A9E
:1004A00085393B85754485764585717285181C7F35
:1004B00049121EF77F3A121EF7AF26AE25121C5CBA
:1004C0007F0D121EF77F0A121EF77F56121EF77F4E
:1004D0003A121EF7AF39AE38121C5C7F0D121EF7B0
:1004E0007F0A121EF77F6D121EF77F57121EF77FCD
:1004F0003A121EF7AF70AE6F121C5C7F0D121EF722
:100500007F0A121EF77F6D121EF77F57121EF77FAC
:100510003A121EF7AF76AE75121C5C7F0D121EF7F5
:100520007F0A121EF77F44121EF77F3A121EF7AFA2
:1005300029AE28121C5C7F20121EF7AF717E0012BC
:100540001C5C7F20121EF7AF187E00121C5C7F0D12
:10055000121EF77F0A121EF730860830A005754676
:10056000018003E4F546E5466004E527600AE51BE3
:10057000451A7004F51DF51EE5466004E527600C7C
:10058000E51B451A7006E55A64027004E4FF800218
:100590007F0112123322020957E86480F8E933E838
:1005A0003360110460F0ED33EC337009E8FCE9FDD1
:1005B000EAFEEBFF220460DED3EB9FEA9EE99DE8B2
:1005C000C2E78CF0C2F795F0400CE8CCF8E9CDF921
:1005D000EACEFAEBCFFB12092285D0F05804700363
:1005E00020D5B3E80470075002B2D502096192D554
:1005F000EC0460F7E4CCC0E0C398F8603B9418606A
:1006000008400DD0E0FB020939E4FBFAC9FC802860
:10061000E830E406E4C9FBE4CAFCE830E305E4C9D9
:10062000CACBFCE854076010F8C3E913F9EA13FADF
:10063000EB13FBEC13FCD8F130F52FC3E49CFCEF7B
:100640009BFFEE9AFEED99FDD0E0FBEF4E4D4C7016
:100650001222DB0302095EEC2CFCEF33FFEE33FECB
:10066000ED33FDED30E7EB020939EF2BFFEE3AFEFB
:10067000ED39FDD0E0FB50130BBB0003020961ED27
:1006800013FDEE13FEEF13FFEC13FC020939EC4DE2
:100690006011E8497017ED33EC3304600DE4FCFFA2
:1006A000FEFD22E933E8330470F8020957120922EB
:1006B00058046009E4CC24815006285009020961DD
:1006C00028400302095EC0E0EB4A7044B98006D0BE
:1006D000E0FB02094DEF4E701CBD8008EBFFEAFE07
:1006E000E9FD80EBE98DF0A4FEE5F0020777E9CDA6
:1006F000F9EAFEEBFFEF89F0A4FCE5F0CE89F0A467
:100700002EFFE435F0CD89F0A42DFEE435F08067AE
:10071000EF4E7005BD80D780C3EF8BF0A4ACF0EE38
:100720008BF0A42CFCE435F0F8EF8AF0A42CE5F073
:1007300038FCE433CB8DF0A42CFCE5F03BF8EE8ADA
:10074000F0A42CFCE5F038F8E433CF89F0A42CFCBD
:10075000E5F038CF3400CE89F0A42FFFE5F03EFE5F
:10076000E433C98DF0A42EFEE5F039CD8AF0A42F34
:10077000FFE5F03EFEE43DFD33D0E0FB50070BBB50
:10078000000F020961EC2CFCEF33FFEE33FEED337A
:10079000FD020939020961EC5D046005E859047045
:1007A00003020957120922580460F6EC4860F2EC83
:1007B0007004FDFEFF22C860DB2481C85009C39885
:1007C0006002500602095E9850CAF582E9294B4A38
:1007D0007005AB8202094D75F0007C1A7880C3EF7A
:1007E0009BEE9AED99400DC3EF9BFFEE9AFEED99BB
:1007F000FDE842F0DC23ACF0D0E0FFD0E0FED0E03A
:10080000FDAB8220E7101BEB60BAEC2CFCEF33FF52
:10081000EE33FEED33FD020939E803F830E705C099
:10082000F075F000EF2FFFEE33FEED33FD40B830F2
:10083000E7C280AA74F8CC6480CCC86480C8F58212
:1008400004604FC3EB9FF5F0EA9E42F0E99D42F051
:10085000E89C45F0603C501DE5825FFFE582D313C4
:10086000CB5BCBF42B5582FB50280ABA002409B984
:10087000002008801DE5825BFBE582D313CF5FCFAC
:10088000F4C3132F5582FF50090EBE00050DBD00A5
:10089000010CC3EB9FF5F0EA9E42F0E99D42F0E8BF
:1008A0009C45F06007CC4820E701B3EC2275F020AE
:1008B000800E75F010800575F0087D007E007F00C9
:1008C0003392D530D503120A09EC334010EF33FFD1
:1008D000EE33FEED33FDEC33FCD5F0ED22E5F024F4
:1008E0007EA2D513CC92E7CDCEFF22EDD2E7CD3359
:1008F000EC3392D524814006E4FFFEFDFC22FCE4AB
:10090000CFCECDCC24E0501174FF80EDC3CC13CCFE
:10091000CD13CDCE13CECF13CF0470F030D5DE0281
:100920000A09E9D2E7C933E833F892D5EDD2E7CD29
:1009300033EC33FC5002B2D522EC30E7100FBF008D
:100940000C0EBE00080DBD00040BEB6014A2D5EB2D
:1009500013FCED92E7FD2274FFFCFDFEFF22E48014
:10096000F8A2D574FF13FC7D80E480EFEF8DF0A436
:10097000A8F0CF8CF0A428CE8DF0A42EFE22BC00CF
:100980000BBE0029EF8DF084FFADF022E4CCF875AA
:10099000F008EF2FFFEE33FEEC33FCEE9DEC9840B9
:1009A00005FCEE9DFE0FD5F0E9E4CEFD22EDF8F555
:1009B000F0EE8420D21CFEADF075F008EF2FFFEDB5
:1009C00033FD4007985006D5F0F222C398FD0FD5AD
:1009D000F0EA22C2D5EC30E709B2D5E4C39DFDE4CC
:1009E0009CFCEE30E715B2D5E4C39FFFE49EFE12F7
:1009F000097EC3E49DFDE49CFC800312097E30D592
:100A000007C3E49FFFE49EFE22C3E49FFFE49EFE33
:100A1000E49DFDE49CFC228F64E4F565F566F567D2
:100A2000ED64026003020B32E5405420FB7A007053
:100A300006E54154A46003E4F53FAF3FEF64016075
:100A400005EF64027019C3E5149410E51394274070
:100A50000E751327751410E4F549753F02FF22AF98
:100A6000647E00C3EF9464748094805003756501C4
:100A7000D3EF940AEE6480948050157518015349A1
:100A8000FB5349F75349EF434920434940020BE9DF
:100A9000D3EF941EEE648094805018751802434979
:100AA000025349F75349EF434920434940756703CF
:100AB000020C3BD3EF943CEE648094805018751880
:100AC000034349024349045349EF43492043494002
:100AD000756704020C3BC3EF9463EE64809480500E
:100AE00018751804434902434904434908434920FF
:100AF000434940756705020C3B751805434902439D
:100B00004904434908434910434920434940AF3F02
:100B1000EF600464037005E4F513F514EB4A700C00
:100B2000E54154A47006753F01020C3BE4F53F0219
:100B30000C3BC3E53F940274809480400AED70073B
:100B4000753F03F549FF22E4F53F752A1512189DFC
:100B5000851966E56630E415752AA41218FC531948
:100B6000FC431908431904121A09121FA2D3E51FE6
:100B7000940074809480504E75200B7521B85349B1
:100B800020E4F518752A181218FCE51920E205E58D
:100B90006630E415752A158566191219B2752A2171
:100BA0001218FC431920121A09752A1812189DE50B
:100BB0001954096003120006751A00751B01756748
:100BC000017565018075AF647E00D3EF940A74806F
:100BD0009480501A7518015349FB5349F75349EF54
:100BE000434920434940756501756702804DD3EF45
:100BF000941EEE648094805011751802434902439C
:100C000049045349F75349EF802BD3EF943CEE64EA
:100C100080948050117518034349024349044349A5
:100C2000085349EF800F75180443490243490443B0
:100C30004908434910434920434940E5656071E450
:100C4000F565050BE50B7002050AE567650C6008A4
:100C500085670CE4F50AF50BAF677E00EF64017061
:100C600015D3E50B9402E50A94004044E4F50AF537
:100C70000B634920803AD3E50B9405E50A940040C4
:100C80002FE4F50AF50BEF64024E7005634902800C
:100C90001FEF64034E70056349048014EF64044E33
:100CA00070056349088009EF64054E7003634910BD
:100CB0007F0122752AFFE4F5191219B2752A231251
:100CC000189D4319011219B27F107E27121F5D75FE
:100CD0002A247519201219B27519401219B2751902
:100CE000801219B2752AFFE4F5191219B2752A2576
:100CF00012189D4319801219B2752A1512189D12E7
:100D000019B2121FE6752A0812189D7519DC1219FE
:100D1000B2752A1612189D4319101219B2752A1BA2
:100D200012189D53193F4319801219B2752A0312E4
:100D3000189D5319F04319071219B2752A0D12188C
:100D40009D53193F4319801219B2752A3212189D0A
:100D50005319FC4319011219B2752A5512189D43F3
:100D600019801219B2752A5612189D431901431998
:100D7000024319041219B2752A1812189D5319E367
:100D80001219B2752A19E4F51943190143190843D8
:100D900019204319401219B2752A3512189D4319AA
:100DA000014319081219B2752A3412189D43190407
:100DB0004319104319201219B2752A40E4F519435A
:100DC00019804319641219B2E4F52A12189D5319B7
:100DD0007F53198F4319101219B2752A0112189DE9
:100DE00053193F1219B2752A5012189D4319014325
:100DF00019024319041219B2752A5112189D431988
:100E0000701219B2752A2312189DE4F519431901BD
:100E10004319024319044319401219B2752A2212C8
:100E2000189D53193F4319401219B2752A2D1218F3
:100E30009D4319084319101219B2752A2E12189DD4
:100E400053198043193C1219B2752A2F12189D5359
:100E5000198043193C1219B2121FEF752A4012185B
:100E60009D4319024319044319801219B2752A4689
:100E700012189D7519911219B2752A4712189D53AF
:100E800019E04319051219B2752A4512189D531914
:100E90008043192D1219B2752A4F12189D531980CB
:100EA00043192D0219B2752AFFE4F519121A0975B2
:100EB0002A231218FC431901121A097F107E2712E7
:100EC0001F5D752A24751920121A09751940121A06
:100ED00009751980121A09752AFFE4F519121A0901
:100EE000752A251218FC431980121A09121FCB7596
:100EF0002A081218FC7519DC121A09752A1612181C
:100F0000FC431910121A09752A031218FC5319F020
:100F1000431907121A09E4F52A1218FC53197F53D2
:100F2000198F431910121A09752A0D1218FC53193A
:100F30003F431980121A09752A4B1218FC53193FA6
:100F4000431940121A09752A551218FC43198012C8
:100F50001A09752A561218FC43190143190243193C
:100F600004121A09752A181218FC5319FB121A09CF
:100F7000752A191218FC5319F8431901121A097528
:100F80002A351218FC431901431908121A09752A47
:100F9000341218FC431904431910431920121A097A
:100FA000752A40E4F519431980431964121A09752A
:100FB0002A231218FCE4F5194319014319024319B5
:100FC00004431940121A09752A501218FC431901DA
:100FD000431902431904121A09752A511218FC43C5
:100FE0001970121A09752A221218FC53193F431955
:100FF00040121A09752A2D1218FC431908431910BA
:10100000121A09752A2E1218FC53198043193C1222
:101010001A09752A2F1218FC53198043193C121A09
:1010200009121FD4752A401218FC431902431904EF
:10103000431980121A09752A461218FC7519911263
:101040001A09752A471218FC5319E0431905121A98
:1010500009752A451218FC531980431941121A09BF
:10106000752A4F1218FC531980431941021A09902E
:10107000902074A5F0A3E09000FFF0E054F0F0E0C1
:101080004402F0E0909021F0909020745AF074A502
:10109000F0A37402F0909020745AF075A67C75A6A7
:1010A0007C75A2C3439D01D2E9D2EFD2EF7F407E8F
:1010B00042121F5D7F407E42121F5D121478121E85
:1010C00044752A2312189D4319011219B27F107E0C
:1010D00027121F5D752A247519201219B27519403F
:1010E0001219B27519801219B2752AD97519201200
:1010F00019B27519401219B27519801219B2752AF0
:1011000024751920121A09751940121A09751980C7
:10111000121A09752AD9751920121A09751940125F
:101120001A09751980121A09120CB3120EA6121E92
:101130001F7F31121EF77F31121EF77F31121EF70B
:10114000758420E4F52775202775211075855A12BE
:10115000195B1216A0D3E5239464E522940040ECB9
:10116000E4F522F52330A10302121E121838AB5009
:10117000AA4FA94EA84DAF54AE53AD52AC51120573
:1011800099E4FBFA794878431208345017E4FFFEDB
:101190007D487C42AB50AA4FA94EA84D120834504E
:1011A00003754C01AB54AA53A952A851AF50AE4F8E
:1011B000AD4EAC4D120599E4FBFA7948784312081C
:1011C000345019E4FFFE7D167C43AB50AA4FA94E64
:1011D000A84D12083460054003E4F54C8550548551
:1011E0004F53854E52854D51E54C64016003752780
:1011F00001752701E5346004C2948002D294E55958
:1012000064016029755901121FCB752A4B1218FC15
:1012100053193F431940121A09121FD4800FE4F5E5
:101220004CF550F54FF54EF54DC294F5271200568A
:1012300002114CEF600302139FC3E51E9521E51DCB
:1012400095205009E55A640260030213A4E4F54AAC
:10125000F54BF549F53FF546F51DF51EF535120040
:1012600006752A211218FC431920121A09752AA49E
:101270001218FC5319F7121A09752A2312189D53D4
:1012800019FE1219B2752A231218FC5319FE121AEC
:1012900009C297C292C291C28053E17F438C20431E
:1012A0008C40909101E054DFF0E054BFF0C295C251
:1012B00096538CFEE04401F0538B7F909100E04404
:1012C00080F0538BBFE04440F0538BDFE04420F0CC
:1012D00053A27F75855AE527700630860320A00C3F
:1012E000E51B451A7006E55A6402701EE4F55A9033
:1012F000902074A5F09090277418F0909020745A64
:10130000F07587507587017587A043A280439D01C2
:1013100075855AE4F55AF51AF51B7F107E27121FC2
:101320005D752A231218FC431901121A09752A2324
:1013300012189D4319011219B2D2807F107E271214
:101340001F5D538CDF538CBF909101E054DFF0E0C0
:1013500054BFF0E4F549F51DF51E43E180752A24DC
:101360007519201219B27519401219B27519801227
:1013700019B2752A24751920121A09751940121A02
:1013800009751980121A09752A2012189D4319012E
:101390001219B2752A201218FC431901021A09E425
:1013A000F508F5092275841078FFE4F6D8FD900061
:1013B000007F007E01E4F0A3DFFCDEFA75817E9001
:1013C000908074A5F0908020740093909082F074C7
:1013D00030909083F09090F0E04480F0758AA09077
:1013E0008027740093F58A908026740093F5899085
:1013F0009080745AF002143302106FE493A3F8E45F
:1014000093A34003F68001F208DFF48029E493A35C
:10141000F85407240CC8C333C4540F4420C8834075
:1014200004F456800146F6DFE4800B010204081044
:10143000204080901F73E47E019360BCA3FF543F63
:1014400030E509541FFEE493A360010ECF54C0257C
:10145000E060A840B8E493A3FAE493A3F8E493A36C
:10146000C8C582C8CAC583CAF0A3C8C582C8CAC5D0
:1014700083CADFE9DEE780BE909100E04440F0439C
:101480008E40C29E909184E054BFF0909182E044DF
:1014900040F0909180E04440F0909102E04401F0EF
:1014A000439101C298909185E04401F0909182E0CF
:1014B0004401F0909180E04401F0909101E04408F3
:1014C000F0438F08C29B909184E04408F090918291
:1014D000E04408F0909180E04408F0D2E890910256
:1014E000E04402F0439102C299909185E04402F0F9
:1014F000909182E04402F0909180E04402F0438CAD
:1015000080438C04438C02909101E0547FF0E054BE
:10151000FBF0E054FDF0438B01438B02438B04430B
:101520008B08909100E054FEF0E054FDF0E054FB95
:10153000F0E054F7F0438C10A3E054EFF0C294D2E3
:1015400080C281C282C28322C3E536940050030266
:1015500015F5E4F536F537538C7F909101E0547F13
:10156000F0538CFBE0547FF0538CFDE0547FF0058A
:1015700048E5489405748094804003E4F548E548C4
:1015800014602714603A14605114605A2404706582
:10159000E54930E205438C02D291E54930E6054346
:1015A0008C04D292438C80C29722E54930E50543F2
:1015B0008C80D297E54930E437438C02D291803059
:1015C000E54930E105438C80D297E54930E3054396
:1015D0008C04D292438C02C29122E54930E5164335
:1015E0008C80D297800AE54930E50A438C80D297F7
:1015F000438C04C29222E4F56FF570752A861218A6
:10160000FC756F00851970752A871218FCE519FEA4
:10161000EE426FAC6FAD70E41208B27B9F7A1C791A
:10162000A3784312068E1208EB8E6F8F70E4F57567
:10163000F576752A881218FC756D0085196E752A65
:10164000891218FC757500851976752A8A1218FC9E
:10165000E519FEEE4275AC6DAD6EE41208B27B4C3E
:101660007A1A79A3783D12068EC004C005C006C060
:1016700007AC75AD76E41208B27B327A7779A2783E
:101680004112068ED003D002D001D00012059D1267
:1016900008EB8E758F76752A941218FC85197122C5
:1016A000E55A64027020120006752A211218FC43C4
:1016B0001920121A09752AA41218FC5319F7121AC4
:1016C00009E4F55A8037E55A64017031F55AF53F5F
:1016D000F535E53E7025753E01F531F532F547F5F6
:1016E0001DF51E752A2012189D4319011219B27595
:1016F0002A201218FC431901121A090547D3E532B2
:1017000094DCE5319405502AC3E547940574809430
:10171000804028E55964026015755902121FCB7587
:101720002A4B1218FC53193F121A09121FD4E4F560
:101730004722E4F53EF531F532F54722E4F564F54C
:1017400065909101E054DFF0E054BFF0538CBF533B
:101750008CDF75EFEB43E18053E20F43E22075E34A
:101760003B53E1E043E10B7FE87E03121F5D43E161
:101770004020C00575855A80F8AFE5EFADE4F5640B
:10178000EDF565C2C0AC64E41208B2E4FBFA794C32
:10179000784212068EC004C005C006C007C3E558D3
:1017A0009565FDE5579564FCE41208B2A804A90507
:1017B000AA06AB07D007D006D005D004020797C011
:1017C000E0C0F0C083C082C0D075D000C000C001AE
:1017D000C002C003C004C005C006C00730A83E0553
:1017E00023E52370020522051EE51E7002051D0576
:1017F00037E537700205360514E514700205130548
:1018000079E579700205780577121BEEE53E6008F0
:101810000532E53270020531121548C2A8D007D052
:1018200006D005D004D003D002D001D000D0D0D053
:1018300082D083D0F0D0E032909101E054DFF0E02C
:1018400054BFF0538CBF538CDF75EFEB43E18053F3
:10185000E20F43E28075E33B75EFEB53E1E043E1D8
:101860000A7FE87E03121F5D43E14020C0057585B5
:101870005A80F8AFE5EFADE4F555EDF556C2C0ACD2
:1018800055E41208B27BAE7A477981783F12068E12
:101890008F508E4F8D4E8C4DAE55AF5622E4F5686D
:1018A000121DAB7F78121A60121B7AEF600FC3E52E
:1018B000689432748094805004056880E3AF2A12E3
:1018C0001A60121B7AEF600FC3E56894327480943B
:1018D000805004056880C9121DAB7F79121A60120E
:1018E0001B7AEF600FC3E5689432748094805004D3
:1018F000056880AC121AF68F19021EFDE4F5681215
:101900001D827F78121AAB121BB4EF600FC3E5681B
:101910009402748094805004056880E3AF2A121A00
:10192000AB121BB4EF600FC3E5689402748094801F
:101930005004056880C9121D827F79121AAB121BF0
:10194000B4EF600FC3E5689402748094805004057E
:101950006880AC121B388F19021F15909101E0545A
:10196000DFF0E054BFF0538CBF538CDF75EFEB43D7
:10197000E18053E20F43E22075E33B53E1E043E1B2
:10198000117FE87E03121F5D43E14020C00575858D
:101990005A80F8AFE5EFADE4F557EDF558AE57785E
:1019A00002C333CE33CED8F9F5588E57C2C0E4FE09
:1019B000FF22E4F568121DAB7F78121A60121B7AC1
:1019C000EF600FC3E568943274809480500405681A
:1019D00080E3AF2A121A60121B7AEF600FC3E5682A
:1019E0009464748094805004056880C9AF19121AF9
:1019F00060121B7AEF600FC3E56894967480948040
:101A00005004056880AF021EFDE4F568121D827F58
:101A100078121AAB121BB4EF600FC3E5689402741E
:101A20008094805004056880E3AF2A121AAB121B21
:101A3000B4EF600FC3E5689402748094805004058D
:101A40006880C9AF19121AAB121BB4EF600FC3E55F
:101A5000689402748094805004056880AF021F155A
:101A60008F69438B20909100E054DFF0C284E4F54D
:101A70006AC3E56A940874809480502EE56930E763
:101A800004D2858002C285E56925E0F5697F037E81
:101A900000121F5DD2847F037E00121F5DC2847F0F
:101AA000037E00121F5D056A80C7228F69438C0187
:101AB000909101E054FEF0C287E4F56AC3E56A94B0
:101AC0000874809480502EE56930E704D29080023B
:101AD000C290E56925E0F5697F037E00121F5DD2A3
:101AE000877F037E00121F5DC2877F037E00121F67
:101AF0005D056A80C722E4F56A538BDF909100E0B0
:101B00004420F0E4F569C3E569940874809480503A
:101B100021C2847F037E00121F5DD284E56A25E026
:101B2000F56A308502056A7F037E00121F5D056934
:101B300080D4121E65AF6A22E4F56A538CFE909140
:101B400001E04401F0E4F569C3E569940874809408
:101B5000805021C2877F037E00121F5DD287E56A15
:101B600025E0F56A309002056A7F037E00121F5D52
:101B7000056980D4121E86AF6A22E4F569D28553C6
:101B80008BDF909100E04420F07F037E00121F5D08
:101B9000D2847F037E00121F5D3085130569D3E573
:101BA0006994FA7480948040F0121EFD7F0122C275
:101BB000847F0022E4F569D290538CFE909101E07D
:101BC0004401F07F037E00121F5DD2877F037E00F9
:101BD000121F5D3090130569D3E56994FA748094FF
:101BE0008040F0121F157F0122C2877F00222093C0
:101BF00015054BE54B7002054AD39410E54A94272E
:101C00004022755A0222C3E54B9405E54A940040F0
:101C10000ED3E54B94F4E54A94015003755A01E460
:101C2000F54AF54B228E648F658D66752AA41218CD
:101C3000FC5319FC431908E5666005431904800349
:101C40005319FB121A09752AA5E565F519121A0927
:101C5000752AA6E564540FF519021A09AB07AA06FE
:101C60007C277D1012097EEF2430FF121EF77C03C3
:101C70007DE8121EE57D64121EE37D0A121EE3AEAE
:101C800002AF037C007D0A12097EED2430FF021EA4
:101C9000F7E4F564F565752A301218FC5319E04332
:101CA0001902121A09752A311218FC756400851977
:101CB00065752A321218FCE519540FFEEE4264AE27
:101CC00064AF6522121FE6752A40E4F519431980B6
:101CD00043195A1219B2121FEF752A4F12189D5349
:101CE000198043192D1219B2752A2E12189D5319F5
:101CF000F04319010219B2121FE6752A40E4F519E2
:101D000043198043193C1219B2121FEF752A4F1262
:101D1000189D53198043191E1219B2752A2E1218D4
:101D20009D5319F04319010219B2E4F564752A1D97
:101D30001218FCE5195431F564752A2B1218FC852C
:101D4000196BE51930E403120EA6752A2C1218FC43
:101D500085196CAF6422E4F564752A1D12189DE59F
:101D60001954F7F564752A2B12189D85197BE5190E
:101D700030E403120CB3752A2C12189D85197CAF20
:101D80006422438B80909100E0547FF0438C01A348
:101D9000E054FEF0D290D2877F037E00121F5DC216
:101DA000907F037E00121F5DC28722438B109091AB
:101DB00000E054EFF0438B20E054DFF0D285D28472
:101DC0007F037E00121F5DC2857F037E00121F5DB0
:101DD000C28422E4F564752A191218FC531930E5FF
:101DE000195430FF7E0064207003436401EF6410D7
:101DF0004E7003436402AF6422E4F564752A19123D
:101E0000189D5319C0E51954C0FF7E00648070030B
:101E1000436401EF64404E7003436402AF6422D216
:101E200082909131E054F0F0E04402F0438B04756D
:101E3000D50175D7027F227E00121FC0439F01D2B9
:101E4000EDD2EF22909101E054DFF0E054BFF05367
:101E50008CBF538CDF75EFEB43E18053E20F43E21D
:101E60002075E33B22C284438B20909100E054DF35
:101E7000F0D2857F037E00121F5DD2847F037E0037
:101E8000121F5DC28422C287438C01909101E054ED
:101E9000FEF0D2907F037E00121F5DD2877F037E0B
:101EA00000121F5DC28722752A281218FC5319FBE5
:101EB0005319F7121A09752A2E1218FC5319F043F8
:101EC0001902021A09752A2812189D5319FB531971
:101ED000F71219B2752A2E12189D5319F0431902E0
:101EE0000219B27C00AF03AE0212097E7C007D0AAB
:101EF00012097EED2430FF30B9FD8FD922438B20AB
:101F0000909100E054DFF0C285D2847F037E0012FE
:101F10001F5DD28522438C01909101E054FEF0C2F6
:101F200090D2877F037E00121F5DD29022752A25F2
:101F30001218FCE5195480700B0574E574700205E5
:101F400073120EA622752A2512189DE51954807069
:101F50000B057EE57E7002057D120CB322E4FDFCCC
:101F6000C3ED9FEC9E5008000DBD00010C80F17583
:101F7000855A22014700024A00000149000142003F
:101F800001430000752A281218FC4319044319085C
:101F9000021A09752AA41218FC4319025319FE02E9
:101FA0001A09752AA41218FC4319015319FD021AC3
:101FB00009752A2812189D4319044319080219B2F9
:101FC000AD07AC06ECFF8DD38FD422752A2475198A
:101FD00081021A09752AFFE4F519021A09752A996E
:101FE0001218FCAF1922752A247519810219B275CD
:101FF0002AFFE4F5190219B2757A017598003222A8
:00000001FF
