:10000000020E0902170575202812117D43140402FF
:100010001233220210B20202BEE86480F8E933E82B
:100020003360110460F0ED33EC337009E8FCE9FD56
:10003000EAFEEBFF220460DED3EB9FEA9EE99DE837
:10004000C2E78CF0C2F795F0400CE8CCF8E9CDF9A6
:10005000EACEFAEBCFFB12028985D0F05804700388
:1000600020D5B3E80470075002B2D50202C892D579
:10007000EC0460F7E4CCC0E0C398F8603B941860EF
:1000800008400DD0E0FB0202A0E4FBFAC9FC802886
:10009000E830E406E4C9FBE4CAFCE830E305E4C95F
:1000A000CACBFCE854076010F8C3E913F9EA13FA65
:1000B000EB13FBEC13FCD8F130F52FC3E49CFCEF01
:1000C0009BFFEE9AFEED99FDD0E0FBEF4E4D4C709C
:1000D0001222DB030202C5EC2CFCEF33FFEE33FEF1
:1000E000ED33FDED30E7EB0202A0EF2BFFEE3AFE21
:1000F000ED39FDD0E0FB50130BBB00030202C8ED4D
:1001000013FDEE13FEEF13FFEC13FC0202A0EC4D07
:100110006011E8497017ED33EC3304600DE4FCFF27
:10012000FEFD22E933E8330470F80202BE120289B0
:1001300058046009E4CC248150062850090202C802
:100140002840030202C5C0E0EB4A7044B98006D0E3
:10015000E0FB0202B4EF4E701CBD8008EBFFEAFE2C
:10016000E9FD80EBE98DF0A4FEE5F00201F7E9CDB1
:10017000F9EAFEEBFFEF89F0A4FCE5F0CE89F0A4EC
:100180002EFFE435F0CD89F0A42DFEE435F0806734
:10019000EF4E7005BD80D780C3EF8BF0A4ACF0EEBE
:1001A0008BF0A42CFCE435F0F8EF8AF0A42CE5F0F9
:1001B00038FCE433CB8DF0A42CFCE5F03BF8EE8A60
:1001C000F0A42CFCE5F038F8E433CF89F0A42CFC43
:1001D000E5F038CF3400CE89F0A42FFFE5F03EFEE5
:1001E000E433C98DF0A42EFEE5F039CD8AF0A42FBA
:1001F000FFE5F03EFEE43DFD33D0E0FB50070BBBD6
:10020000000F0202C8EC2CFCEF33FFEE33FEED339F
:10021000FD0202A075F020800E75F010800575F0CB
:10022000087D007E007F003392D530D50312031B7A
:10023000EC334010EF33FFEE33FEED33FDEC33FCD7
:10024000D5F0ED22E5F0247EA2D513CC92E7CDCEF9
:10025000FF22EDD2E7CD33EC3392D524814006E482
:10026000FFFEFDFC22FCE4CFCECDCC24E050117487
:10027000FF80EDC3CC13CCCD13CDCE13CECF13CF97
:100280000470F030D5DE02031BE9D2E7C933E8334E
:10029000F892D5EDD2E7CD33EC33FC5002B2D52243
:1002A000EC30E7100FBF000C0EBE00080DBD0004BF
:1002B0000BEB6014A2D5EB13FCED92E7FD2274FF6B
:1002C000FCFDFEFF22E480F8A2D574FF13FC7D80C4
:1002D000E480EFEF8DF0A4A8F0CF8CF0A428CE8DB1
:1002E000F0A42EFE22C2D5EC30E709B2D5E4C39DBE
:1002F000FDE49CFCEE30E715B2D5E4C39FFFE49E1D
:10030000FE120329C3E49DFDE49CFC800312032933
:1003100030D507C3E49FFFE49EFE22C3E49FFFE4C1
:100320009EFEE49DFDE49CFC22BC000BBE0029EF78
:100330008DF084FFADF022E4CCF875F008EF2FFFCC
:10034000EE33FEEC33FCEE9DEC984005FCEE9DFE9A
:100350000FD5F0E9E4CEFD22EDF8F5F0EE8420D2E1
:100360001CFEADF075F008EF2FFFED33FD40079850
:100370005006D5F0F222C398FD0FD5F0EA22E4F53D
:1003800031F532F533F5341217641217741215DB98
:100390008F2C1216018F2D1217A28F2A1217B08FD1
:1003A0002B2086071214748E338F34AF44AE43ADC6
:1003B00042AC411202528E358F36E52D30E01DAC35
:1003C00033AD34E4120219A804A905AA06AB07AF9D
:1003D00044AE43AD42AC411200198018E52D30E126
:1003E0001AAC33AD34E4120219AB44AA43A942A8B3
:1003F0004112001D1202528E358F36AE35AF367C5B
:10040000007D051202E58E358F361214378E458F2A
:1004100046E52A7017E52B7013E51F700FE52C6475
:10042000026009E52D640260030204FAE51F700C06
:10043000E52C64026006E52D6402705EC3E5356458
:100440008094804008E4FDAF36AE358010C3E4955B
:1004500036F536E49535F5357D01AF36FE1213F7E6
:100460008F19753101C3E54694FAE5459401406B57
:10047000D3E5469401E545940C4002805ED3E54601
:1004800094DCE54594025003020542E5469447E5B5
:1004900045940B4003020542805BE513451260035F
:1004A000020542C3E53564809480500BC3E4953661
:1004B000F536E49535F5357D01AF36AE351213F7D7
:1004C0008F19E4F531C3E5469467E5459401400B87
:1004D000D3E54694E6E545940F4005752301806217
:1004E000D3E54694B3E54594014057E54694F8E5D5
:1004F00045940D504DE4F5238048C3E5469467E5E7
:10050000459401400BD3E54694E6E545940F40053C
:100510007523018018D3E54694B3E5459401400D59
:10052000E54694F8E545940D5003E4F523E5296488
:100530000170037531017520A412117D5314F71257
:100540001233E5236009751E01121793021784E523
:100550001E64017008F51E1216E71216AB308608ED
:1005600030A005752E018007E4F517F518F52EADBE
:1005700031AF191206D1AF2C7E00C3EF9402748004
:100580009480500BC3E52D940274809480404FC337
:10059000EF9402EE648094804021E50E64017003C4
:1005A0000206B9750E01E527642D600675272D1228
:1005B00015241217CA1217BE0206B9C3E52D9402FC
:1005C0007480948050030206B9E50E640270030241
:1005D00006B9750E021200061217D60206B9E50E0C
:1005E0006009E4F50E1217BE1217D6E52A30E003B3
:1005F000433201E52B30E703433202E52B30E503BC
:10060000433204E532600AE51345127004F517F52C
:100610001820A11EE526641E600675261E12168D82
:10062000E527641E70030206B975271E1216C9025B
:1006300006B9E532650C70030206B985320CE53265
:1006400024FE601914602C14602114604324FE60A1
:100650005C24067064E5266441605E8056E527648C
:100660002D605675272D121524804EE511641E60ED
:1006700048802FE52664416006752641120012E588
:1006800027641E603475271EE4F511121557802962
:10069000E52664416006752641120012E511641ECC
:1006A000601775111EE4F527121810800CE52664FA
:1006B000416006752641120012E52E6004E51F60B8
:1006C00006E51645156004E4FF80027F01120BFE6B
:1006D00022E4FEFC751A27751B10F512F513ED7058
:1006E000030207E6E52964017016C3E5109410E5DE
:1006F0000F9427400B750F27751010E4F540FF226B
:10070000E4F517F518EFFB7A00C3946474809480C5
:1007100050027E01C3EA64809480401FD3EB940AA8
:10072000EA6480948050145340FB5340F75340EFE9
:100730004340204340407C020208B5C3EB940BEADF
:1007400064809480401FD3EB941EEA6480948050B0
:10075000144340025340F75340EF4340204340408E
:100760007C030208B5C3EB941FEA64809480401FA9
:10077000D3EB943CEA64809480501443400243409D
:10078000045340EF4340204340407C040208B5C37B
:10079000EB943DEA64809480401EEB9463EA6480AD
:1007A0009480501443400243400443400843402097
:1007B0004340407C050208B5C3EB9463EA6480942F
:1007C0008050030208B543400243400443400843BD
:1007D0004010434020434040E5297004F50FF510D8
:1007E0007529010208B5E4F529EFFB7A00D39400DE
:1007F00074809480501C751200751301751A0B7566
:100800001BB85340207515007516017C017E01024E
:1008100008B5C3EB9401EA648094804013D3EB9451
:100820000AEA6480948050084340025340FB801CD5
:10083000C3EB940BEA648094804016D3EB941EEAD9
:1008400064809480500B4340024340045340F7803F
:100850001FC3EB941FEA648094804019D3EB943C4F
:10086000EA64809480500E434002434004434008B1
:100870005340EF803AC3EB943DEA64809480401883
:10088000EB9463EA64809480500E4340024340043A
:100890004340084340108017C3EB9463EA6480949C
:1008A0008040124340024340044340084340104309
:1008B0004020434040EE605FE4FE050BE50B700214
:1008C000050AECFF64017015D3E50B9402E50A9468
:1008D000004044E4F50AF50B634020803AD3E50B71
:1008E0009405E50A9400402FE4F50AF50BEF640245
:1008F0004E7005634002801FEF64034E7005634035
:10090000048014EF64044E70056340088009EF64AE
:10091000054E70036340107F012275202312111EC3
:100920004314011211DC7F107E2712174E7520240C
:100930007514201211DC7514401211DC751480122C
:1009400011DC75202512111E4314801211DC752054
:100950004012111E4314044314801211DC7520450B
:1009600012111E53148043142D1211DC75204F12E6
:10097000111E53148043142D1211DC1217FE752022
:100980001612111E4314101211DC75200312111ED1
:100990005314F04314071211DC75200D12111E536D
:1009A000143F4314801211DC75205512111E43149C
:1009B000801211DC75205612111E431401431402DB
:1009C0004314041211DC75201812111E5314E31283
:1009D00011DC752019E4F514431408431420121196
:1009E000DC75203512111E4314014314081211DC6A
:1009F00075203412111E43140443141043142012A2
:100A000011DC752040E4F514431480431464121182
:100A1000DC75200112111E53143F4314801211DCA7
:100A200075205012111E4314014314024314041282
:100A300011DC75205112111E4314701211DC752047
:100A40002312111EE4F51443140143140243140449
:100A50004314401211DC75202212111E53143F431F
:100A600014401211DC75202D12111E43140843147A
:100A7000101211DC75202E12111E53148043143CE9
:100A80001211DC75202F12111E53148043143C12D6
:100A900011DC02180775202312117D431401121274
:100AA000337F107E2712174E7520247514201212E2
:100AB00033751440121233751480121233752025C9
:100AC00012117D43148012123375204012117D43A0
:100AD000140443148012123375204512117D5314EF
:100AE0008043144112123375204F12117D5314802C
:100AF0004314411212331217EC75201612117D4364
:100B0000141012123375200312117D5314F0431484
:100B10000712123375200D12117D53143F431480B8
:100B200012123375205512117D4314801212337541
:100B3000205612117D43140143140243140412126F
:100B40003375201812117D5314FB121233752019BE
:100B500012117D5314F812123375203512117D4392
:100B6000140143140812123375203412117D4314FA
:100B700004431410431420121233752040E4F5147A
:100B800043148043146412123375202312117DE440
:100B9000F514431401431402431404431440121285
:100BA0003375205012117D43140143140243140481
:100BB00012123375205112117D43147012123375C5
:100BC000202212117D53143F43144012123375201A
:100BD0002D12117D43140843141012123375202E68
:100BE00012117D53148043143C12123375202F12BE
:100BF000117D53148043143C1212330217F5EF6039
:100C000003020D01C3E518951BE517951A50030261
:100C10000D06E4F540F529F51FF52EF517F51875C5
:100C2000202312111E5314FE1211DC752023121101
:100C30007D5314FE1212337520A412117D5314F744
:100C4000121233C297C292C291538C7F909101E0ED
:100C50004480F0538CFBE04404F0538CFDE04402EC
:100C6000F053E17F438C20438C40E054DFF0E054AC
:100C7000BFF0C295C296538CFEE04401F0538B7FC7
:100C8000909100E04480F0538BBFE04440F0538BE0
:100C9000DFE04420F053A27F75855A90902074A520
:100CA000F09090277418F0909020745AF075875047
:100CB0007587017587A07F647E0012174E7520230B
:100CC00012117D43140112123375202312111E4399
:100CD00014011211DC7F107E2712174E43A28043AD
:100CE0009D01538CDF538CBF909101E054DFF0E005
:100CF00054BFF0E4F540F517F51875855A43E180C7
:100D000022E4F508F50922C3E52494005003020EFD
:100D100008E4F524F525053DE53D940574809480AF
:100D20004003E4F53D538C7F909101E04480F05303
:100D30008CFBE04404F0538CFDE04402F0E53D14EC
:100D4000603A146063147003020DD4147003020D32
:100D5000EE24046003020E08438C80909101E0545D
:100D60007FF0C297E54030E209438C02E054FDF089
:100D7000D291E54020E603020E08804B438C04909C
:100D80009101E054FBF0C292E54030E509438C80CC
:100D9000E0547FF0D297E54030E46D438C029091AF
:100DA00001E054FDF0D29122438C02909101E05475
:100DB000FDF0C291E54030E109438C80E0547FF0C2
:100DC000D297E54030E341438C04909101E054FB1D
:100DD000F0D29222438C04909101E054FBF0C29235
:100DE000E54030E509438C80E0547FF0D297438C96
:100DF00004909101E054FBF0C292E54030E50943D4
:100E00008C80E0547FF0D2972275841078FFE4F64E
:100E1000D8FD9000007F007E01E4F0A3DFFCDEFA45
:100E200075814A90908074A5F09080207400939012
:100E30009082F07430909083F09090F0E04480F0D5
:100E4000758AA0908027740093F58A90802674009C
:100E500093F589909080745AF0020E97020FA3E4E4
:100E600093A3F8E493A34003F68001F208DFF48033
:100E700029E493A3F85407240CC8C333C4540F4483
:100E800020C8834004F456800146F6DFE4800B015D
:100E9000020408102040809017E2E47E019360BCB9
:100EA000A3FF543F30E509541FFEE493A360010EF5
:100EB000CF54C025E060A840B8E493A3FAE493A31C
:100EC000F8E493A3C8C582C8CAC583CAF0A3C8C53D
:100ED00082C8CAC583CADFE9DEE780BE909100E020
:100EE0004440F0438E40C29E909184E054BFF09005
:100EF0009182E04440F0909180E04440F090910273
:100F0000E04401F0439101C298909185E04401F0E2
:100F1000909182E04401F0909180E04401F0909142
:100F200001E04408F0438F08C29B909184E044089C
:100F3000F0909182E04408F0909180E04408F0D273
:100F4000E8909102E04402F0439102C299909185A9
:100F5000E04402F0909182E04402F0909180E044FD
:100F600002F0438C80438C04438C02909101E05446
:100F70007FF0E054FBF0E054FDF0438B01438B0223
:100F8000438B04909100E054FEF0E054FDF0E054F7
:100F9000FBF0438C10A3E054EFF0C294C280C281F6
:100FA000C2822290902074A5F0A3E09000FFF0E0B0
:100FB00054F0F0E04402F0E0909021F09090207422
:100FC0005AF074A5F0A37402F0909020745AF07552
:100FD000A67C75A67C75A2C3439D01D2E9D2EFD24F
:100FE000EF7F407E4212174E120EDC1216271209B6
:100FF0001A120A95758420E4F51FF512F513751A77
:1010000027751B107D01FFFE1213F78F1975855A86
:1010100020A10A751F01D29412128A800DE4F544B2
:10102000F543F542F541C294F51F121042D3E51D78
:101030009464E51C940040D5E4F51CF51D12037E74
:1010400080CBE528606B309368E4F528D3E52294E3
:10105000B8E521940B402075490275202112111E1C
:101060004314201211DC75202112117D431420122B
:1010700012337523018035D3E5229405E5219400D0
:10108000402AE52294F4E52194015020754901E4B9
:10109000F512F51375202012111E4314011211DCF4
:1010A00075202012117D431401121233E4F521F54D
:1010B0002222C0E0C0F0C083C082C0D075D000C082
:1010C00000C001C002C003C004C005C006C0073094
:1010D000A831051DE51D7002051C0518E5187002F4
:1010E00005170525E525700205240510E510700299
:1010F000050FE52860080522E52270020521120D82
:1011000007C2A8D007D006D005D004D003D002D0A3
:1011100001D000D0D0D082D083D0F0D0E032E4F53E
:10112000391215B37F781212DD1214B0EF600FC3BD
:10113000E5399432748094805004053980E3AF20FF
:101140001212DD1214B0EF600FC3E53994327480CF
:1011500094805004053980C91215B37F791212DDCD
:101160001214B0EF600FC3E539943274809480504C
:1011700004053980AC1213738F1402171EE4F53A7C
:1011800012158A7F781213281214EAEF600FC3E554
:101190003A9432748094805004053A80E3AF201270
:1011A00013281214EAEF600FC3E53A943274809466
:1011B000805004053A80C912158A7F7912132812CB
:1011C00014EAEF600FC3E53A9432748094805004BF
:1011D000053A80AC1213B58F14021736E4F53912B4
:1011E00015B37F781212DD1214B0EF600FC3E5392A
:1011F0009432748094805004053980E3AF20121239
:10120000DD1214B0EF600FC3E539946474809480EC
:101210005004053980C9AF141212DD1214B0EF600A
:101220000FC3E5399496748094805004053980AFDB
:1012300002171EE4F53A12158A7F78121328121449
:10124000EAEF600FC3E53A9432748094805004054D
:101250003A80E3AF201213281214EAEF600FC3E5BF
:101260003A9464748094805004053A80C9AF141293
:1012700013281214EAEF600FC3E53A949674809431
:10128000805004053A80AF02173653E1E043E10A8B
:101290007FE87E0312174E43E14020C00575855A52
:1012A00080F8AFE57547008F48E548754800F54779
:1012B000AFE4EF2548F548E43547F547C2C0FCAD3B
:1012C00048E41202197B0E7A2D7982783F12010EC2
:1012D0008F448E438D428C41AE47AF48228F3A43B4
:1012E0008B20909100E054DFF0C284E4F53BC3E52D
:1012F0003B940874809480502EE53A30E704D28500
:101300008002C285E53A25E0F53A7F037E00121798
:101310004ED2847F037E0012174EC2847F037E006C
:1013200012174E053B80C7228F3B438C01909101E1
:10133000E054FEF0C287E4F53CC3E53C94087480B9
:101340009480502EE53B30E704D2908002C290E5B5
:101350003B25E0F53B7F037E0012174ED2877F03CB
:101360007E0012174EC2877F037E0012174E053C87
:1013700080C722E4F53B538BDF909100E04420F0DE
:10138000E4F53AC3E53A9408748094805021C2840D
:101390007F037E0012174ED284E53B25E0F53B30FB
:1013A0008502053B7F037E0012174E053A80D4125A
:1013B000164BAF3B22E4F53C538CFE909101E04488
:1013C00001F0E4F53BC3E53B940874809480502120
:1013D000C2877F037E0012174ED287E53C25E0F5D9
:1013E0003C309002053C7F037E0012174E053B8087
:1013F000D412166CAF3C228E378F388D397520A4ED
:1014000012117D5314FC431408E53960054314049C
:1014100080035314FB1212337520A5E538F514121E
:1014200012337520A6E537540FF5141212337520C8
:101430009912117DAF142253E1E043E10B7FE87E66
:101440000312174E43E14020C00575855A80F8AF5E
:10145000E57545008F46E546754600F545AFE4EF76
:101460002546F546E43545F545C2C0F53E85463F7F
:10147000FEAF4622E4F537F53875203012111E53C1
:1014800014E04314031211DC75203112111E75375C
:101490000085143875203212111EE514FEEE423715
:1014A000AE37AF387C007D051202D38E378F3822DD
:1014B000E4F53AD285538BDF909100E04420F07F31
:1014C000037E0012174ED2847F037E0012174E3027
:1014D0008513053AD3E53A94FA7480948040F0126B
:1014E000171E7F0122C2847F0022E4F53BD2905375
:1014F0008CFE909101E04401F07F037E0012174EB4
:10150000D2877F037E0012174E309013053BD3E540
:101510003B94FA7480948040F01217367F0122C207
:10152000877F00221217FE752040E4F514431480D3
:1015300043145A1211DC12180775204F12111E5352
:10154000148043142D1211DC75202E12111E531419
:10155000F04314010211DC1217FE752040E4F5146B
:1015600043148043143C1211DC12180775204F12EB
:10157000111E53148043141E1211DC75202E1211FB
:101580001E5314F04314010211DC438B8090910030
:10159000E0547FF0438C01A3E054FEF0D290D28758
:1015A0007F037E0012174EC2907F037E0012174EFB
:1015B000C28722438B10909100E054EFF0438B20C0
:1015C000E054DFF0D285D2847F037E0012174EC232
:1015D000857F037E0012174EC28422E4F537752002
:1015E0001912117D531430E5145430FF7E0064202D
:1015F0007003433701EF64104E7003433702AF3777
:1016000022E4F53775201912111E5314C0E5145445
:10161000C0FF7E0064807003433701EF64404E706A
:1016200003433702AF3722909101E054DFF0E054DA
:10163000BFF0538CBF538CDF75EFEB43E18053E277
:101640000F43E28075E33B75EFEB22C284438B20AE
:10165000909100E054DFF0D2857F037E0012174E98
:10166000D2847F037E0012174EC28422C287438C2D
:1016700001909101E054FEF0D2907F037E0012179A
:101680004ED2877F037E0012174EC28722752045F7
:1016900012117D53148043141E12123375202E1222
:1016A000117D5314F04314010212337520281211D6
:1016B0007D5314FB5314F712123375202E12117D33
:1016C0005314F043140202123375204512111E53B5
:1016D000148043141E1211DC75202E12111E531497
:1016E000F04314010211DC75202812111E5314FB63
:1016F0005314F71211DC75202E12111E5314F043EF
:1017000014020211DCC0E0E59830E3097528017588
:101710002100752200754A01759800D0E032438B94
:1017200020909100E054DFF0C285D2847F037E00D8
:1017300012174ED28522438C01909101E054FEF0A5
:10174000C290D2877F037E0012174ED29022E4FD12
:10175000FCC3ED9FEC9E5008000DBD00010C80F114
:1017600075855A2275202512117DE5145480700369
:10177000120A952275202512111EE514548070035B
:1017800012091A2275202812117D431404431408EB
:1017900002123375202812111E4314044314080248
:1017A00011DCE4FF75201D12117DE5145431FF2278
:1017B000E4FF75201D12111EE51454F7FF22752059
:1017C0002812117D5314FB02123375202812111EAA
:1017D0004314040211DC75202812111E5314FB025D
:1017E00011DC014000012C00012D00007520247542
:1017F00014810212337520FFE4F5140212337520B0
:10180000247514810211DC7520FFE4F5140211DC4B
:0118100022B5
:00000001FF
