:1000000002130C021F51752B211217F64318200200
:10001000190B32021718E4F553F554752B301217EB
:10002000F65318E043180312190B752B311217F60B
:10003000755300851854752B321217F6E518FEEE2D
:100040004253AE53AF547C007D0512095C8E538F32
:10005000542222020012E4F54AF54BF54CF54DF519
:100060004EF552F551F550F54FF519F51A751F2754
:10007000752010121E86121E9E121D2C8F45121DF9
:10008000528F46121C838F43121CAF8F4420860769
:100090001200168E4D8F4EAF62AE61AD60AC5F1236
:1000A00008DB8E108F11E528602EE4FFFE7DC87CF2
:1000B00042AB62AA61A960A85F1208245015050E20
:1000C000E50E7002050D94D0E50D9407400A121E4E
:1000D000EC8005E4F50DF50EE54620E00BD3E54494
:1000E000940074809480401DAC4DAD4EE41208A283
:1000F000A804A905AA06AB07AF62AE61AD60AC5F0C
:10010000120589803DE54630E13FC3E54E9464E544
:100110004D94005015050EE50E7002050D940AE58C
:100120000D9400400A121EEC8005E4F50DF50EACAE
:100130004DAD4EE41208A2AB62AA61A960A85F129D
:10014000058D1208DB8E108F11851026851127AEC4
:1001500010AF117C007D051209C38E108F1112168D
:10016000958F2F8E2E8D2D8C2C7F4A7E0C7DAA7C18
:1001700040AB2FAA2EA92DA82C120824601A4018D3
:100180007F197E047D037C42AB2FAA2EA92DA82CBB
:100190001208245003E4F535E5437017E544701365
:1001A000E528700FE54564026009E54664026003D6
:1001B0000202E7E528700FE54564026009E5466440
:1001C000026003020261754A02D3E5119400E51052
:1001D000648094804008E4FDAF11AE108019C3E53F
:1001E00010648094805013C3E49511F511E49510C8
:1001F000F5107D01AF11FE121B7E7FCB7EA17D65C8
:100200007C40AB2FAA2EA92DA82C12082450030243
:1002100002B17F777E3E7D117C42AB2FAA2EA92DA5
:10022000A82C120824600540030202B17F4A7E0C0C
:100230007DAA7C40AB2FAA2EA92DA82C12082460E1
:100240000250030202F87F197E047D037C42AB2F2B
:10025000AA2EA92DA82C12082440030202F802029B
:10026000E2E4F50DF50E754A01C3E5106480948053
:100270005013C3E49511F511E49510F5107D01AF0D
:1002800011FE121B7E7FA27E457D1E7C40AB2FAAF5
:100290002EA92DA82C12082440177F487E617D5E70
:1002A0007C42AB2FAA2EA92DA82C1208246007404F
:1002B0000575350180427FDD7E247D3E7C40AB2F7D
:1002C000AA2EA92DA82C120824602D402B7FC37EB6
:1002D000F57D297C42AB2FAA2EA92DA82C1208242B
:1002E0005016E4F5358011E4F50DF50E752BA412CA
:1002F00018555318F7121962E54330E003434B01D8
:10030000E54430E703434B02E54430E503434B0447
:10031000E54B650F607E854B0FE54B24FE6019149D
:10032000602C14602114604324FE605C2406706419
:10033000E53F6441605E8056E540642D605675403F
:100340002D121C1D804EE516641E6048802FE53F6F
:1003500064416006753F41120052E540641E6034FE
:1003600075401EE4F516121C508029E53F6441607B
:1003700006753F41120052E516641E601775161E81
:10038000E4F540121F58800CE53F64416006753F5C
:1003900041120052121BEA8E308F317C007D071211
:1003A000095C8E308F3185303B85313CE5356036D8
:1003B000752501E4F542AF38FED3EF943274809492
:1003C000804008753833E4F55C8013EF4E7002F519
:1003D0005CE53875F00584E5F07003635CFF053873
:1003E000121F0A021EDDE4F538E52564017008F5E8
:1003F00025121E1E121E00121F368F1E1215F9AC7A
:1004000070AD71E41208A2E4FBFA79C878421206D2
:100410007EC004C005C006C007AC6CAD6DE4120818
:10042000A2A804A905AA06AB07D007D006D005D01C
:1004300004120787E4FBFAF9783F12058D8F528E7C
:10044000518D508C4FE4FFFE7D747C42AB52AA511B
:10045000A950A84F12082460234021E4FFFE7D48E4
:100460007C43AB62AA61A960A85F120824600D40BA
:100470000BE4F552F5517550C4754F42752900854E
:100480001E2AAF52AE51AD50AC4F1208DBAD4A122E
:100490000A07E548B57119E547B57014E51BB517AE
:1004A0000FE53765277004E53665267003020548B9
:1004B000852636852737853B3D853C3E85704785BB
:1004C0007148856C21856D2285171B7F49121E504E
:1004D0007F3A121E50AF27AE26121BB57F0D121E9B
:1004E000507F0A121E507F56121E507F3A121E5025
:1004F000AF3CAE3B121BB57F0D121E507F0A121E81
:10050000507F6D121E507F57121E507F3A121E50A0
:10051000AF6DAE6C121BB57F0D121E507F0A121EFE
:10052000507F6D121E507F57121E507F3A121E5080
:10053000AF71AE70121BB57F0D121E507F0A121ED6
:1005400050AF177E00121BB530860830A0057549E4
:10055000018003E4F549E5496004E528600AE51AED
:1005600045197004F51CF51DE5496004E528600C8B
:10057000E51A45197006E56864027004E4FF80021C
:100580007F0112105F22020947E86480F8E933E82E
:100590003360110460F0ED33EC337009E8FCE9FDE1
:1005A000EAFEEBFF220460DED3EB9FEA9EE99DE8C2
:1005B000C2E78CF0C2F795F0400CE8CCF8E9CDF931
:1005C000EACEFAEBCFFB12091285D0F05804700383
:1005D00020D5B3E80470075002B2D502095192D574
:1005E000EC0460F7E4CCC0E0C398F8603B9418607A
:1005F00008400DD0E0FB020929E4FBFAC9FC802881
:10060000E830E406E4C9FBE4CAFCE830E305E4C9E9
:10061000CACBFCE854076010F8C3E913F9EA13FAEF
:10062000EB13FBEC13FCD8F130F52FC3E49CFCEF8B
:100630009BFFEE9AFEED99FDD0E0FBEF4E4D4C7026
:100640001222DB0302094EEC2CFCEF33FFEE33FEEB
:10065000ED33FDED30E7EB020929EF2BFFEE3AFE1B
:10066000ED39FDD0E0FB50130BBB0003020951ED47
:1006700013FDEE13FEEF13FFEC13FC020929EC4D02
:100680006011E8497017ED33EC3304600DE4FCFFB2
:10069000FEFD22E933E8330470F80209471209121B
:1006A00058046009E4CC24815006285009020951FD
:1006B00028400302094EC0E0EB4A7044B98006D0DE
:1006C000E0FB02093DEF4E701CBD8008EBFFEAFE27
:1006D000E9FD80EBE98DF0A4FEE5F0020767E9CDC6
:1006E000F9EAFEEBFFEF89F0A4FCE5F0CE89F0A477
:1006F0002EFFE435F0CD89F0A42DFEE435F08067BF
:10070000EF4E7005BD80D780C3EF8BF0A4ACF0EE48
:100710008BF0A42CFCE435F0F8EF8AF0A42CE5F083
:1007200038FCE433CB8DF0A42CFCE5F03BF8EE8AEA
:10073000F0A42CFCE5F038F8E433CF89F0A42CFCCD
:10074000E5F038CF3400CE89F0A42FFFE5F03EFE6F
:10075000E433C98DF0A42EFEE5F039CD8AF0A42F44
:10076000FFE5F03EFEE43DFD33D0E0FB50070BBB60
:10077000000F020951EC2CFCEF33FFEE33FEED339A
:10078000FD020929020951EC5D046005E859047075
:1007900003020947120912580460F6EC4860F2ECB3
:1007A0007004FDFEFF22C860DB2481C85009C39895
:1007B0006002500602094E9850CAF582E9294B4A58
:1007C0007005AB8202093D75F0007C1A7880C3EF9A
:1007D0009BEE9AED99400DC3EF9BFFEE9AFEED99CB
:1007E000FDE842F0DC23ACF0D0E0FFD0E0FED0E04A
:1007F000FDAB8220E7101BEB60BAEC2CFCEF33FF63
:10080000EE33FEED33FD020929E803F830E705C0B9
:10081000F075F000EF2FFFEE33FEED33FD40B83002
:10082000E7C280AA74F8CC6480CCC86480C8F58222
:1008300004604FC3EB9FF5F0EA9E42F0E99D42F061
:10084000E89C45F0603C501DE5825FFFE582D313D4
:10085000CB5BCBF42B5582FB50280ABA002409B994
:10086000002008801DE5825BFBE582D313CF5FCFBC
:10087000F4C3132F5582FF50090EBE00050DBD00B5
:10088000010CC3EB9FF5F0EA9E42F0E99D42F0E8CF
:100890009C45F06007CC4820E701B3EC2275F020BE
:1008A000800E75F010800575F0087D007E007F00D9
:1008B0003392D530D5031209F9EC334010EF33FFF2
:1008C000EE33FEED33FDEC33FCD5F0ED22E5F02404
:1008D0007EA2D513CC92E7CDCEFF22EDD2E7CD3369
:1008E000EC3392D524814006E4FFFEFDFC22FCE4BB
:1008F000CFCECDCC24E0501174FF80EDC3CC13CC0F
:10090000CD13CDCE13CECF13CF0470F030D5DE0291
:1009100009F9E9D2E7C933E833F892D5EDD2E7CD4A
:1009200033EC33FC5002B2D522EC30E7100FBF009D
:100930000C0EBE00080DBD00040BEB6014A2D5EB3D
:1009400013FCED92E7FD2274FFFCFDFEFF22E48024
:10095000F8A2D574FF13FC7D80E480EFEF8DF0A446
:10096000A8F0CF8CF0A428CE8DF0A42EFE22BC00DF
:100970000BBE0029EF8DF084FFADF022E4CCF875BA
:10098000F008EF2FFFEE33FEEC33FCEE9DEC9840C9
:1009900005FCEE9DFE0FD5F0E9E4CEFD22EDF8F565
:1009A000F0EE8420D21CFEADF075F008EF2FFFEDC5
:1009B00033FD4007985006D5F0F222C398FD0FD5BD
:1009C000F0EA22C2D5EC30E709B2D5E4C39DFDE4DC
:1009D0009CFCEE30E715B2D5E4C39FFFE49EFE1207
:1009E000096EC3E49DFDE49CFC800312096E30D5C2
:1009F00007C3E49FFFE49EFE22C3E49FFFE49EFE44
:100A0000E49DFDE49CFC228F53E4F554F555F55626
:100A1000ED64026003020B22E5435420FB7A007070
:100A200006E54454A46003E4F542AF42EF6401607C
:100A300005EF64027019C3E5139410E51294274082
:100A40000E751227751310E4F55C754202FF22AF94
:100A5000537E00C3EF9464748094805003755401F6
:100A6000D3EF940AEE648094805015751701535C9F
:100A7000FB535CF7535CEF435C20435C40020BD9B3
:100A8000D3EF941EEE648094805018751702435C77
:100A900002535CF7535CEF435C20435C40755603A4
:100AA000020C2BD3EF943CEE6480948050187517A1
:100AB00003435C02435C04535CEF435C20435C40B3
:100AC000755604020C2BC3EF9463EE64809480503F
:100AD00018751704435C02435C04435C08435C20C4
:100AE000435C40755605020C2B751705435C0243A9
:100AF0005C04435C08435C10435C20435C40AF42B1
:100B0000EF600464037005E4F512F513EB4A700C12
:100B1000E54454A47006754201020C2BE4F5420230
:100B20000C2BC3E542940274809480400AED700758
:100B3000754203F55CFF22E4F542752B151217F69A
:100B4000851855E55530E415752BA4121855531822
:100B5000FC431808431804121962121EFBD3E51E49
:100B6000940074809480504E751F0B7520B8535CB0
:100B700020E4F517752B18121855E51820E205E545
:100B80005530E415752B1585551812190B752B2149
:100B9000121855431820121962752B181217F6E512
:100BA0001854096003120006751900751A0175566C
:100BB000017554018075AF537E00D3EF940A7480A1
:100BC0009480501A751701535CFB535CF7535CEF2C
:100BD000435C20435C40755401755602804DD3EF51
:100BE000941EEE648094805011751702435C02439A
:100BF0005C04535CF7535CEF802BD3EF943CEE64C2
:100C00008094805011751703435C02435C04435C7D
:100C100008535CEF800F751704435C02435C044388
:100C20005C08435C10435C20435C40E5546071E425
:100C3000F554050BE50B7002050AE556650C6008D6
:100C400085560CE4F50AF50BAF567E00EF64017093
:100C500015D3E50B9402E50A94004044E4F50AF547
:100C60000B635C20803AD3E50B9405E50A940040C1
:100C70002FE4F50AF50BEF64024E7005635C028009
:100C80001FEF64034E7005635C048014EF64044E30
:100C90007005635C088009EF64054E7003635C10A7
:100CA0007F0122752BFFE4F51812190B752B231207
:100CB00017F643180112190B7F107E27121EB67506
:100CC0002B2475182012190B75184012190B751862
:100CD0008012190B752BFFE4F51812190B752B25D3
:100CE0001217F643188012190B752B151217F612EE
:100CF000190B121F3F752B081217F67518DC121905
:100D00000B752B161217F643181012190B752B1BA7
:100D10001217F653183F43188012190B752B031244
:100D200017F65318F043180712190B752B0D1217ED
:100D3000F653183F43188012190B752B321217F611
:100D40005318FC43180112190B752B551217F64353
:100D5000188012190B752B561217F64318014318F9
:100D60000243180412190B752B181217F65318E3C7
:100D700012190B752B19E4F5184318014318084391
:100D8000182043184012190B752B351217F643180B
:100D90000143180812190B752B341217F643180467
:100DA00043181043182012190B752B40E4F5184313
:100DB000188043186412190BE4F52B1217F6531818
:100DC0007F53188F43181012190B752B011217F649
:100DD00053183F12190B752B501217F64318014385
:100DE000180243180412190B752B511217F64318E9
:100DF0007012190B752B231217F6E4F5184318011E
:100E000043180243180443184012190B752B221281
:100E100017F653183F43184012190B752B2D121754
:100E2000F643180843181012190B752B2E1217F6DB
:100E300053188043183C12190B752B2F1217F653B9
:100E4000188043183C12190B121F48752B401217BB
:100E5000F643180243180443188012190B752B46E9
:100E60001217F675189112190B752B471217F653B6
:100E700018E043180512190B752B451217F6531875
:100E80008043182D12190B752B4F1217F65318802B
:100E900043182D02190B752BFFE4F5181219627512
:100EA0002B231218554318011219627F107E271246
:100EB0001EB6752B24751820121962751840121968
:100EC00062751880121962752BFFE4F51812196209
:100ED000752B25121855431880121962121F24759C
:100EE0002B081218557518DC121962752B1612187A
:100EF00055431810121962752B031218555318F028
:100F0000431807121962E4F52B12185553187F5332
:100F1000188F431810121962752B0D12185553189B
:100F20003F431880121962752B4B12185553183F06
:100F3000431840121962752B551218554318801228
:100F40001962752B5612185543180143180243189D
:100F500004121962752B181218555318FB121962D6
:100F6000752B191218555318F84318011219627588
:100F70002B35121855431801431808121962752BA6
:100F800034121855431804431810431820121962DC
:100F9000752B40E4F51843188043186412196275E4
:100FA0002B23121855E4F51843180143180243186F
:100FB00004431840121962752B501218554318013A
:100FC000431802431804121962752B511218554325
:100FD0001870121962752B2212185553183F4318B6
:100FE00040121962752B2D1218554318084318101A
:100FF000121962752B2E12185553188043183C1283
:101000001962752B2F12185553188043183C12196A
:1010100062121F2D752B40121855431802431804F5
:10102000431880121962752B4612185575189112C3
:101030001962752B471218555318E04318051219F9
:1010400062752B45121855531880431841121962C6
:10105000752B4F121855531880431841021962EF2F
:1010600060030211CBC3E51D9520E51C951F5009B7
:10107000E568640260030211D0E4F55DF55EF55C9D
:10108000F542F549F51CF51DF538120006752B21C2
:10109000121855431820121962752BA412185553B3
:1010A00018F7121962752B231217F65318FE12192E
:1010B0000B752B231218555318FE121962C297C2D2
:1010C00092C291C28053E17F438C20438C40909127
:1010D00001E054DFF0E054BFF0C295C296538CFE9D
:1010E000E04401F0538B7F909100E04480F0538BFB
:1010F000BFE04440F0538BDFE04420F053A27F7503
:10110000855AE528700630860320A00CE51A45199B
:101110007006E5686402701EE4F56890902074A57E
:10112000F09090277418F0909020745AF0758750C2
:101130007587017587A043A280439D0175855AE498
:10114000F568F519F51A7F107E27121EB6752B2348
:10115000121855431801121962752B231217F64302
:10116000180112190BD2807F107E27121EB6538CE5
:10117000DF538CBF909101E054DFF0E054BFF0E406
:10118000F55CF51CF51D43E180752B2475182012C4
:10119000190B75184012190B75188012190B752B45
:1011A000247518201219627518401219627518807A
:1011B000121962752B201217F643180112190B75BC
:1011C0002B20121855431801021962E4F508F5099D
:1011D0002290902074A5F0A3E09000FFF0E054F07E
:1011E000F0E04402F0E0909021F0909020745AF0EA
:1011F00074A5F0A37402F0909020745AF075A67C48
:1012000075A67C75A2C3439D01D2E9D2EFD2EF7FD0
:10121000407E42121EB67F407E42121EB61213DF7F
:10122000121D9D752B231217F643180112190B7FFF
:10123000107E27121EB6752B2475182012190B75F7
:10124000184012190B75188012190B752BD97518C7
:101250002012190B75184012190B75188012190BF2
:10126000752B2475182012196275184012196275B1
:101270001880121962752BD9751820121962751809
:1012800040121962751880121962120CA3120E9680
:10129000121D787F31121E507F31121E507F311285
:1012A0001E50758420E4F528751F2775201075855C
:1012B0005A1218B412155DD3E5249464E523940002
:1012C00040ECE4F523F52420A13012179175280194
:1012D000E5356004C2948002D294E567640160271A
:1012E000756701121F24752B4B12185553183F4375
:1012F0001840121962121F2D800DE4F562F561F598
:1013000060F55FC294F52812005680A275841078AB
:10131000FFE4F6D8FD9000007F007E01E4F0A3DF3B
:10132000FCDEFA75817990908074A5F0908020742D
:101330000093909082F07430909083F09090F0E061
:101340004480F0758AA0908027740093F58A90807D
:1013500026740093F589909080745AF002139A02D3
:1013600011D1E493A3F8E493A34003F68001F208BB
:10137000DFF48029E493A3F85407240CC8C333C4D2
:10138000540F4420C8834004F456800146F6DFE43D
:10139000800B0102040810204080901ECCE47E01E6
:1013A0009360BCA3FF543F30E509541FFEE493A3B0
:1013B00060010ECF54C025E060A840B8E493A3FAC2
:1013C000E493A3F8E493A3C8C582C8CAC583CAF04E
:1013D000A3C8C582C8CAC583CADFE9DEE780BE905C
:1013E0009100E04440F0438E40C29E909184E054CE
:1013F000BFF0909182E04440F0909180E04440F052
:10140000909102E04401F0439101C298909185E0EF
:101410004401F0909182E04401F0909180E0440119
:10142000F0909101E04408F0438F08C29B909184B2
:10143000E04408F0909182E04408F0909180E0440C
:1014400008F0D2E8909102E04402F0439102C29980
:10145000909185E04402F0909182E04402F09091F6
:1014600080E04402F0438C80438C04438C029091D2
:1014700001E0547FF0E054FBF0E054FDF0438B01B9
:10148000438B02438B04438B08909100E054FEF0A1
:10149000E054FDF0E054FBF0E054F7F0438C10A36F
:1014A000E054EFF0C294D280C281C282C28322C3D0
:1014B000E5399400500302155CE4F539F53A538C94
:1014C0007F909101E0547FF0538CFBE0547FF05308
:1014D0008CFDE0547FF0055BE55B9405748094809F
:1014E0004003E4F55BE55B14602714603A14605137
:1014F00014605A24047065E55C30E205438C02D226
:1015000091E55C30E605438C04D292438C80C2970F
:1015100022E55C30E505438C80D297E55C30E4370A
:10152000438C02D2918030E55C30E105438C80D25F
:1015300097E55C30E305438C04D292438C02C29160
:1015400022E55C30E516438C80D297800AE55C305A
:10155000E50A438C80D297438C04C29222E56864EA
:10156000027020120006752B211218554318201204
:101570001962752BA41218555318F7121962E4F565
:10158000688037E56864017031F568F542F538E543
:10159000417025754101F532F533F55AF51CF51DFD
:1015A000752B201217F643180112190B752B2012F8
:1015B0001855431801121962055AD3E53394DCE536
:1015C000329405502AC3E55A9405748094804028CB
:1015D000E56764026015756702121F24752B4B12B4
:1015E000185553183F121962121F2DE4F55A22E4C0
:1015F000F541F532F533F55A22E4F56CF56D752BAE
:1016000086121855756C0085186D752B8712185544
:10161000E518FEEE426CAC6CAD6DE41208A27B4C9A
:101620007A7D7902784212067E1208DB8E6C8F6D0D
:10163000E4F570F571752B8812185585186B752BAC
:1016400089121855757000851871752B8A121855F6
:10165000E518FEEE4270AC70AD71E41208A27BF5A5
:101660007AF87901784012067EC004C005C006C031
:1016700007AC6BE41208A77B707A7B7902783C1286
:10168000067ED003D002D001D00012058D1208DBF7
:101690008E708F7122E4F553F554909101E054DF80
:1016A000F0E054BFF0538CBF538CDF75EFEB43E198
:1016B0008053E20F43E22075E33B53E1E043E10B4B
:1016C0007FE87E03121EB643E14020C00575855AAF
:1016D00080F8AFE5EFADE4F553EDF554C2C0AC537F
:1016E000E41208A2E4FBFA794C784212067EC004A8
:1016F000C005C006C007C3E5669554FDE565955372
:10170000FCE41208A2A804A905AA06AB07D007D0DA
:1017100006D005D004020787C0E0C0F0C083C082B5
:10172000C0D075D000C000C001C002C003C004C05A
:1017300005C006C00730A83E0524E5247002052335
:10174000051DE51D7002051C053AE53A70020539D4
:101750000513E513700205120574E5747002057334
:101760000572121B47E54160080533E53370020539
:10177000321214AFC2A8D007D006D005D004D003CF
:10178000D002D001D000D0D0D082D083D0F0D0E031
:1017900032909101E054DFF0E054BFF0538CBF531E
:1017A0008CDF75EFEB43E18053E20F43E28075E39A
:1017B0003B75EFEB53E1E043E10A7FE87E03121E45
:1017C000B643E14020C00575855A80F8AFE5EFAD1E
:1017D000E4F563EDF564C2C0AC63E41208A27BAE2D
:1017E0007A477981783F12067E8F628E618D608C98
:1017F0005FAE63AF6422E4F557121D047F781219BF
:10180000B9121AD3EF600FC3E557943274809480F5
:101810005004055780E3AF2B1219B9121AD3EF60A9
:101820000FC3E5579432748094805004055780C9E3
:10183000121D047F791219B9121AD3EF600FC3E594
:10184000579432748094805004055780AC121A4F1C
:101850008F18021E56E4F557121CDB7F78121A040B
:10186000121B0DEF600FC3E55794027480948050F3
:1018700004055780E3AF2B121A04121B0DEF600F03
:10188000C3E5579402748094805004055780C912B0
:101890001CDB7F79121A04121B0DEF600FC3E55792
:1018A0009402748094805004055780AC121A918F72
:1018B00018021E6E909101E054DFF0E054BFF05327
:1018C0008CBF538CDF75EFEB43E18053E20F43E2B3
:1018D0002075E33B53E1E043E1117FE87E03121EF4
:1018E000B643E14020C00575855A80F8AFE5EFADFD
:1018F000E4F565EDF566AE657802C333CE33CED838
:10190000F9F5668E65C2C0E4FEFF22E4F557121DAC
:10191000047F781219B9121AD3EF600FC3E55794F8
:1019200032748094805004055780E3AF2B1219B9AC
:10193000121AD3EF600FC3E55794647480948050FB
:1019400004055780C9AF181219B9121AD3EF600FE6
:10195000C3E5579496748094805004055780AF0275
:101960001E56E4F557121CDB7F78121A04121B0D69
:10197000EF600FC3E55794027480948050040557BC
:1019800080E3AF2B121A04121B0DEF600FC3E55753
:101990009402748094805004055780C9AF18121ABD
:1019A00004121B0DEF600FC3E557940274809480FE
:1019B0005004055780AF021E6E8F58438B209091C4
:1019C00000E054DFF0C284E4F559C3E5599408748B
:1019D000809480502EE55830E704D2858002C2857D
:1019E000E55825E0F5587F037E00121EB6D2847FAD
:1019F000037E00121EB6C2847F037E00121EB6054F
:101A00005980C7228F58438C01909101E054FEF019
:101A1000C287E4F559C3E559940874809480502E28
:101A2000E55830E704D2908002C290E55825E0F5F1
:101A3000587F037E00121EB6D2877F037E00121EDF
:101A4000B6C2877F037E00121EB6055980C722E406
:101A5000F559538BDF909100E04420F0E4F558C332
:101A6000E5589408748094805021C2847F037E00DE
:101A7000121EB6D284E55925E0F559308502055984
:101A80007F037E00121EB6055880D4121DBEAF59CA
:101A900022E4F559538CFE909101E04401F0E4F505
:101AA00058C3E5589408748094805021C2877F03FE
:101AB0007E00121EB6D287E55925E0F55930900216
:101AC00005597F037E00121EB6055880D4121DDF13
:101AD000AF5922E4F558D285538BDF909100E04452
:101AE00020F07F037E00121EB6D2847F037E001298
:101AF0001EB63085130558D3E55894FA7480948047
:101B000040F0121E567F0122C2847F0022E4F55865
:101B1000D290538CFE909101E04401F07F037E004F
:101B2000121EB6D2877F037E00121EB630901305B8
:101B300058D3E55894FA7480948040F0121E6E7F5A
:101B40000122C2877F0022209315055EE55E7002A8
:101B5000055DD39410E55D9427402275680222C389
:101B6000E55E9405E55D9400400ED3E55E94F4E5F2
:101B70005D94015003756801E4F55DF55E228E53B6
:101B80008F548D55752BA41218555318FC43180803
:101B9000E555600543180480035318FB121962755C
:101BA0002BA5E554F518121962752BA6E553540FB1
:101BB000F518021962AB07AA067C277D1012096E80
:101BC000EF2430FF121E507C037DE8121E3E7D6420
:101BD000121E3C7D0A121E3CAE02AF037C007D0A41
:101BE00012096EED2430FF021E50E4F553F55475D2
:101BF0002B301218555318E0431802121962752B36
:101C000031121855755300851854752B321218551A
:101C1000E518540FFEEE4253AE53AF5422121F3F4D
:101C2000752B40E4F51843188043185A12190B120B
:101C30001F48752B4F1217F653188043182D121991
:101C40000B752B2E1217F65318F043180102190BBF
:101C5000121F3F752B40E4F51843188043183C12BF
:101C6000190B121F48752B4F1217F6531880431883
:101C70001E12190B752B2E1217F65318F04318016C
:101C800002190BE4F553752B1D121855E518543144
:101C9000F553752B2B121855851869E51830E40398
:101CA000120E96752B2C12185585186AAF5322E424
:101CB000F553752B1D1217F6E51854F7F553752BD0
:101CC0002B1217F6851876E51830E403120CA3756D
:101CD0002B2C1217F6851877AF5322438B809091E7
:101CE00000E0547FF0438C01A3E054FEF0D290D288
:101CF000877F037E00121EB6C2907F037E00121EF5
:101D0000B6C28722438B10909100E054EFF0438BD2
:101D100020E054DFF0D285D2847F037E00121EB60D
:101D2000C2857F037E00121EB6C28422E4F553757D
:101D30002B19121855531830E5185430FF7E0064E3
:101D4000207003435301EF64104E7003435302AFFE
:101D50005322E4F553752B191217F65318C0E518E2
:101D600054C0FF7E0064807003435301EF64404E13
:101D70007003435302AF5322D282909131E054F06A
:101D8000F0E04402F0438B0475D50175D7027F2241
:101D90007E00121F19439F01D2EDD2EF22909101D4
:101DA000E054DFF0E054BFF0538CBF538CDF75EF8D
:101DB000EB43E18053E20F43E22075E33B22C28410
:101DC000438B20909100E054DFF0D2857F037E00AA
:101DD000121EB6D2847F037E00121EB6C28422C2B7
:101DE00087438C01909101E054FEF0D2907F037EF6
:101DF00000121EB6D2877F037E00121EB6C2872253
:101E0000752B281218555318FB5318F712196275C1
:101E10002B2E1218555318F0431802021962752B15
:101E2000281217F65318FB5318F712190B752B2E9F
:101E30001217F65318F043180202190B7C00AF0377
:101E4000AE0212096E7C007D0A12096EED2430FF8D
:101E500030B9FD8FD922438B20909100E054DFF000
:101E6000C285D2847F037E00121EB6D28522438CA7
:101E700001909101E054FEF0C290D2877F037E0072
:101E8000121EB6D29022752B25121855E5185480D3
:101E9000700B056FE56F7002056E120E9622752BA2
:101EA000251217F6E5185480700B0579E579700254
:101EB0000578120CA322E4FDFCC3ED9FEC9E5008B4
:101EC000000DBD00010C80F175855A22015A0002F7
:101ED0005D0000015C0001450001460000752B28F3
:101EE000121855431804431808021962752BA412DE
:101EF00018554318025318FE021962752BA41218C4
:101F0000554318015318FD021962752B281217F654
:101F100043180443180802190BAD07AC06ECFF8DFB
:101F2000D38FD422752B24751881021962752BFF6B
:101F3000E4F518021962752B99121855AF1822751D
:101F40002B2475188102190B752BFFE4F518021963
:091F50000B757501759800322231
:00000001FF
