:100000000212B5021E4C752F2812189D431B0402C4
:10001000195332021697E4F568F569752F301218F6
:100020003E531BE0431B031218FC752F3112183E80
:10003000756800851B69752F3212183EE51BFEEEB0
:100040004268AE68AF697C007D051209DD8E688F5D
:10005000692222020012E4F563F564F565F566F5A0
:1000600067F51CF51D752327752410121E95121EA9
:10007000AD121CE68F49121D0C8F4AAD4AAF4912D2
:10008000161E121C3D8F47121C698F4820860712CE
:1000900000168E668F67AF59AE58AD57AC56120931
:1000A0005C8E128F1385122A85132B85661985673E
:1000B0001AE52C602EE4FFFE7DC87C42AB59AA589D
:1000C000A957A8561208A55015050FE50F7002058F
:1000D0000E940AE50E9400400A121F058005E4F50F
:1000E0000EF50FE54A30E01DAC66AD67E41209235A
:1000F000A804A905AA06AB07AF59AE58AD57AC5630
:1001000012060A803DE54A30E13FC3E5679464E5A5
:100110006694005015050FE50F7002050E940AE570
:100120000E9400400A121F058005E4F50EF50FAC91
:1001300066AD67E4120923AB59AA58A957A856120D
:10014000060E12095C8E128F13AE12AF137C007D67
:1001500005120A448E128F131215068F338E328DBC
:10016000318C307F4A7E0C7DAA7C40AB33AA32A909
:1001700031A8301208A5601A40187F197E047D034B
:100180007C42AB33AA32A931A8301208A55003E44F
:10019000F539E5477017E5487013E52C700FE54910
:1001A00064026009E54A640260030202E1E52C7022
:1001B0000FE54964026009E54A6402600302025BDC
:1001C000756302D3E5139400E512648094804008BF
:1001D000E4FDAF13AE128019C3E512648094805021
:1001E00013C3E49513F513E49512F5127D01AF13D3
:1001F000FE121B387FCB7EA17D657C40AB33AA32DB
:10020000A931A8301208A550030202AB7F777E3EC9
:100210007D117C42AB33AA32A931A8301208A56007
:100220000540030202AB7F4A7E0C7DAA7C40AB33C3
:10023000AA32A931A8301208A5600250030202F2C6
:100240007F197E047D037C42AB33AA32A931A830EA
:100250001208A540030202F20202DCE4F50EF50FDB
:10026000756301C3E512648094805013C3E4951351
:10027000F513E49512F5127D01AF13FE121B387FC2
:10028000A27E457D1E7C40AB33AA32A931A8301234
:1002900008A540177F487E617D5E7C42AB33AA3261
:1002A000A931A8301208A5600740057539018042C0
:1002B0007FDD7E247D3E7C40AB33AA32A931A8305D
:1002C0001208A5602D402B7FC37EF57D297C42ABB3
:1002D00033AA32A931A8301208A55016E4F53980A6
:1002E00011E4F50EF50F752FA412189D531BF7128C
:1002F0001953AF497E00C3EF940274809480500B71
:10030000C3E54A940274809480407CC3EF9402EE6B
:10031000648094804022E54A94027480948040185E
:10032000E5116003020454751101E544642D602B4E
:1003300075442D121BD78023C3E549940274809421
:10034000804021E51164017003020454751101E538
:1003500044642D600675442D121BD7121F1D121EFA
:10036000F9020454C3E54A94027480948050030255
:100370000454E51164027003020454751102120062
:1003800006121F29020454E5116009E4F511121E3A
:10039000F9121F29E54730E003436401E54830E7DF
:1003A00003436402E54830E503436404E52C64013B
:1003B000701EE543641E600675431E121DBAE544B7
:1003C000641E700302045475441E121DF602045488
:1003D000E5646510607E856410E56424FE60191490
:1003E000602C14602114604324FE605C2406706459
:1003F000E5436441605E8056E544642D6056754473
:100400002D121BD7804EE518641E6048802FE543EF
:1004100064416006754341120052E544641E603435
:1004200075441EE4F518121C0A8029E543644160F6
:1004300006754341120052E518641E601775181EB8
:10044000E4F544121F83800CE54364416006754364
:1004500041120052E5626401700AF562F546F51E2C
:10046000F51FF53C121BA48E348F357C007D0712DE
:1004700009DD8E348F3585343F853540E53960366A
:10048000752901E4F546AF3CFED3EF9432748094B5
:10049000804008753C33E4F5548013EF4E7002F54C
:1004A00054E53C75F00584E5F070036354FF053CAA
:1004B000121EEA021EDBE4F53CE52964017008F532
:1004C00029121E14121DD8121F688F22752D008F3D
:1004D0002EAD63120A8812159DE53BB52B32E53A25
:1004E000B52A2DE542B54028E541B53F23E521B5C4
:1004F0001A1EE520B51919E54CB57814E54BB5770A
:100500000FE52665747004E525657370030205C95F
:10051000852A3A852B3B853F4185404285774B852F
:10052000784C857325857426851920851A217F4985
:10053000121E467F3A121E46AF2BAE2A121B6F7F49
:100540000D121E467F0A121E467F49121E467F3A32
:10055000121E46AF1AAE19121B6F7F0D121E467F78
:100560000A121E467F20121E467F56121E467F3AF2
:10057000121E46AF40AE3F121B6F7F0D121E467F0C
:100580000A121E467F20121E467F6D121E467F579E
:10059000121E467F3A121E46AF74AE73121B6F7F57
:1005A0000D121E467F0A121E467F6D121E467F5791
:1005B000121E467F3A121E46AF78AE77121B6F7F2F
:1005C0000D121E467F0A121E4630860830A00575A1
:1005D0004D018003E4F54DE54D6004E52C600AE52E
:1005E0001D451C7004F51EF51FE54D6004E52C60EB
:1005F0000CE51D451C7006E56264027004E4FF8092
:10060000027F0112119B220209C8E86480F8E933D5
:10061000E83360110460F0ED33EC337009E8FCE975
:10062000FDEAFEEBFF220460DED3EB9FEA9EE99D2C
:10063000E8C2E78CF0C2F795F0400CE8CCF8E9CDC1
:10064000F9EACEFAEBCFFB12099385D0F05804708B
:100650000320D5B3E80470075002B2D50209D29244
:10066000D5EC0460F7E4CCC0E0C398F8603B941884
:100670006008400DD0E0FB0209AAE4FBFAC9FC8047
:1006800028E830E406E4C9FBE4CAFCE830E305E40A
:10069000C9CACBFCE854076010F8C3E913F9EA13A0
:1006A000FAEB13FBEC13FCD8F130F52FC3E49CFC00
:1006B000EF9BFFEE9AFEED99FDD0E0FBEF4E4D4C27
:1006C000701222DB030209CFEC2CFCEF33FFEE3378
:1006D000FEED33FDED30E7EB0209AAEF2BFFEE3A1A
:1006E000FEED39FDD0E0FB50130BBB00030209D235
:1006F000ED13FDEE13FEEF13FFEC13FC0209AAEC61
:100700004D6011E8497017ED33EC3304600DE4FCE3
:10071000FFFEFD22E933E8330470F80209C812092C
:100720009358046009E4CC2481500628500902093A
:10073000D22840030209CFC0E0EB4A7044B98006DA
:10074000D0E0FB0209BEEF4E701CBD8008EBFFEA53
:10075000FEE9FD80EBE98DF0A4FEE5F00207E8E993
:10076000CDF9EAFEEBFFEF89F0A4FCE5F0CE89F0CD
:10077000A42EFFE435F0CD89F0A42DFEE435F08001
:1007800067EF4E7005BD80D780C3EF8BF0A4ACF04F
:10079000EE8BF0A42CFCE435F0F8EF8AF0A42CE505
:1007A000F038FCE433CB8DF0A42CFCE5F03BF8EE04
:1007B0008AF0A42CFCE5F038F8E433CF89F0A42CBF
:1007C000FCE5F038CF3400CE89F0A42FFFE5F03EF1
:1007D000FEE433C98DF0A42EFEE5F039CD8AF0A4F5
:1007E0002FFFE5F03EFEE43DFD33D0E0FB50070B6C
:1007F000BB000F0209D2EC2CFCEF33FFEE33FEED11
:1008000033FD0209AA0209D2EC5D046005E859042F
:1008100070030209C8120993580460F6EC4860F2AC
:10082000EC7004FDFEFF22C860DB2481C85009C3C0
:1008300098600250060209CF9850CAF582E9294B08
:100840004A7005AB820209BE75F0007C1A7880C33D
:10085000EF9BEE9AED99400DC3EF9BFFEE9AFEEDF4
:1008600099FDE842F0DC23ACF0D0E0FFD0E0FED010
:10087000E0FDAB8220E7101BEB60BAEC2CFCEF3301
:10088000FFEE33FEED33FD0209AAE803F830E70579
:10089000C0F075F000EF2FFFEE33FEED33FD40B8F2
:1008A00030E7C280AA74F8CC6480CCC86480C8F5F4
:1008B0008204604FC3EB9FF5F0EA9E42F0E99D424F
:1008C000F0E89C45F0603C501DE5825FFFE582D377
:1008D00013CB5BCBF42B5582FB50280ABA002409BA
:1008E000B9002008801DE5825BFBE582D313CF5F52
:1008F000CFF4C3132F5582FF50090EBE00050DBD66
:1009000000010CC3EB9FF5F0EA9E42F0E99D42F036
:10091000E89C45F06007CC4820E701B3EC2275F075
:1009200020800E75F010800575F0087D007E007F38
:10093000003392D530D503120A7AEC334010EF33EE
:10094000FFEE33FEED33FDEC33FCD5F0ED22E5F0A8
:10095000247EA2D513CC92E7CDCEFF22EDD2E7CDF7
:1009600033EC3392D524814006E4FFFEFDFC22FCEB
:10097000E4CFCECDCC24E0501174FF80EDC3CC1376
:10098000CCCD13CDCE13CECF13CF0470F030D5DE47
:10099000020A7AE9D2E7C933E833F892D5EDD2E713
:1009A000CD33EC33FC5002B2D522EC30E7100FBF50
:1009B000000C0EBE00080DBD00040BEB6014A2D5A8
:1009C000EB13FCED92E7FD2274FFFCFDFEFF22E439
:1009D00080F8A2D574FF13FC7D80E480EFEF8DF0EA
:1009E000A4A8F0CF8CF0A428CE8DF0A42EFE22BCBB
:1009F000000BBE0029EF8DF084FFADF022E4CCF8AF
:100A000075F008EF2FFFEE33FEEC33FCEE9DEC9813
:100A10004005FCEE9DFE0FD5F0E9E4CEFD22EDF899
:100A2000F5F0EE8420D21CFEADF075F008EF2FFF3C
:100A3000ED33FD4007985006D5F0F222C398FD0F24
:100A4000D5F0EA22C2D5EC30E709B2D5E4C39DFD6A
:100A5000E49CFCEE30E715B2D5E4C39FFFE49EFEB4
:100A60001209EFC3E49DFDE49CFC80031209EF3002
:100A7000D507C3E49FFFE49EFE22C3E49FFFE49EEC
:100A8000FEE49DFDE49CFC228F68E4F569F56AF5BF
:100A90006BEDFB7A0064026003020B78AF46EF64F3
:100AA000016005EF64027019C3E5159410E5149414
:100AB00027400E751427751510E4F554754602FF8E
:100AC00022AF687E00C3EF946474809480500375F5
:100AD0006901D3EF9407EE6480948050155354FB62
:100AE0005354F75354EF435420435440756B020260
:100AF0000C52D3EF9419EE64809480501543540245
:100B00005354F75354EF435420435440756B03023E
:100B10000C52D3EF9434EE64809480501543540209
:100B20004354045354EF435420435440756B040220
:100B30000C52C3EF9463EE648094805015435402CA
:100B4000435404435408435420435440756B0502F6
:100B50000C52435402435404435408435410435426
:100B600020435440AF46EF600464037005E4F5147D
:100B7000F515754601020C52C3E546940274809443
:100B800080400BEB4A7007754603F554FF22E4F5ED
:100B900046752F1512183E851B6AE56A30E403126C
:100BA0001F11D3E568940074809480504B75230B1B
:100BB0007524B8535420752F1812189DE51B20E298
:100BC00005E56A30E415752F15856A1B1218FC754A
:100BD0002F2112189D431B20121953752F1812181C
:100BE0003EE51B54096003121F35751C00751D017D
:100BF000756B01756901805AAF687E00D3EF94046C
:100C00007480948050084354025354FB8011D3EFF6
:100C10009416EE64809480500E435402435404535F
:100C200054F75354EF8025D3EF9436EE64809480CC
:100C3000500E4354024354044354085354EF800C61
:100C40004354024354044354084354104354204330
:100C50005440E5696071E4F569050BE50B70020528
:100C60000AE56B650C6008856B0CE4F50AF50BAFC3
:100C70006B7E00EF64017015D3E50B9402E50A94D6
:100C8000004044E4F50AF50B635420803AD3E50BA9
:100C90009405E50A9400402FE4F50AF50BEF640291
:100CA0004E7005635402801FEF64034E7005635459
:100CB000048014EF64044E70056354088009EF64E7
:100CC000054E70036354107F0122752FFFE4F51B5E
:100CD0001218FC752F2312183E431B011218FC7FBB
:100CE000107E27121EC5752F24751B201218FC7547
:100CF0001B401218FC751B801218FC752FFFE4F5C1
:100D00001B1218FC752F2512183E431B801218FC6D
:100D1000752F1512183E1218FC121F71752F08122C
:100D2000183E751BDC1218FC752F1612183E431B5B
:100D3000101218FC752F0312183E531BF0431B07AB
:100D40001218FC752F0D12183E531B3F431B8012C7
:100D500018FC752F5512183E431B801218FC752F76
:100D60005612183E431B01431B02431B041218FC7E
:100D7000752F1812183E531BE31218FC752F19E437
:100D8000F51B431B01431B08431B20431B40121848
:100D9000FC752F3512183E431B01431B081218FC2B
:100DA000752F3412183E431B04431B10431B2012A3
:100DB00018FC752F40E4F51B431B80431B6412187D
:100DC000FC752F0112183E531B3F531BCF431B10C2
:100DD0001218FC752F5012183E431B01431B02438F
:100DE0001B041218FC752F5112183E431B70121869
:100DF000FC752F2312183EE4F51B431B01431B0215
:100E0000431B04431B401218FC752F2212183E533B
:100E10001B3F431B401218FC752F2D12183E431B1D
:100E200008431B101218FC752F2E12183E531B80FE
:100E3000431B3C1218FC752F2F12183E531B804386
:100E40001B3C1218FC121F7A752F4012183E431BD0
:100E500002431B04431B801218FC752F4612183ED8
:100E6000751B911218FC752F4712183E531BE04357
:100E70001B051218FC752F4512183E531B80431B8F
:100E80002D1218FC752F4F12183E531B80431B2D3B
:100E90000218FC752FFFE4F51B121953752F23124E
:100EA000189D431B011219537F107E27121EC57512
:100EB0002F24751B20121953751B40121953751BD3
:100EC00080121953752FFFE4F51B121953752F2546
:100ED00012189D431B80121953121F56752F0812AA
:100EE000189D751BDC121953752F1612189D431B84
:100EF00010121953752F0312189D531BF0431B0733
:100F0000121953752F0112189D531BCF431B10123A
:100F10001953752F0D12189D531B3F431B80121937
:100F200053752F5512189D431B80121953752F5658
:100F300012189D431B01431B02431B0412195375D6
:100F40002F1812189D531BFB121953752F191218C5
:100F50009D531BF8431B01121953752F3512189D11
:100F6000431B01431B08121953752F3412189D435C
:100F70001B04431B10431B20121953752F40E4F52B
:100F80001B431B80431B64121953752F2312189D9A
:100F9000E4F51B431B01431B02431B04431B40128C
:100FA0001953752F5012189D431B01431B02431BFD
:100FB00004121953752F5112189D431B70121953A7
:100FC000752F2212189D531B3F431B401219537556
:100FD0002F2D12189D431B08431B10121953752FF8
:100FE0002E12189D531B80431B3C121953752F4E14
:100FF00012189D531B7F431B10121953752F2F126C
:10100000189D531B80431B3C121953121F5F752FF1
:101010004012189D431B02431B04431B80121953AB
:10102000752F4612189D751B91121953752F471273
:10103000189D531BE0431B05121953752F451218B9
:101040009D531B80431B41121953752F4F12189D3E
:10105000531B80431B4102195390902074A5F0A3A9
:10106000E09000FFF0E054F0F0E04402F0E09090F7
:1010700021F0909020745AF074A5F0A37402F090BF
:101080009020745AF075A67C75A67C75A2C3439D0A
:1010900001D2E9D2EFD2EF7F407E42121EC57F40DF
:1010A0007E42121EC5121388121D57120CCA120E50
:1010B00093121D327F31121E467F31121E467F3140
:1010C000121E46758420E4F52C75232775241075AF
:1010D000855A12177B1217DDD3E5289464E527940F
:1010E0000040ECE4F527F52830A103021186121721
:1010F0000BAB59AA58A957A856AF5DAE5CAD5BAC17
:101100005A12060AE4FBFA794878431208A55017E8
:10111000E4FFFE7D487C42AB59AA58A957A8561255
:1011200008A55003755501AB5DAA5CA95BA85AAF31
:1011300059AE58AD57AC5612060AE4FBFA79487816
:10114000431208A55019E4FFFE7D167C43AB59AA53
:1011500058A957A8561208A560054003E4F555851F
:10116000595D85585C85575B85565AE55564017015
:101170000EF559F558F557F556F52CC294801675AD
:101180002C01D294800FE4F555F559F558F557F533
:1011900056C294F52C1200560210CFEF60030212D3
:1011A000AFC3E51F9524E51E95235009E56264024F
:1011B00060030212B4E4F554F546F54DF51EF51F33
:1011C000F53C752FA412189D531BF7121953752F58
:1011D0002312183E531BFE1218FC752F2312189D64
:1011E000531BFE121953C297C292C291C28053E19F
:1011F0007F438C20438C40909101E054DFF0E05419
:10120000BFF0C295C296538CFEE04401F0538B7F31
:10121000909100E04480F0538BBFE04440F0538B4A
:10122000DFE04420F053A27F75855AE52C7006302C
:10123000860320A00CE51D451C7006E56264027063
:101240001B90902074A5F09090277418F090902037
:10125000745AF07587507587017587A0E4F562F5BB
:101260001CF51D7F64FE121EC5752F2312189D43A9
:101270001B01121953752F2312183E431B0112181C
:10128000FCD2807F107E27121EC543A280439D01A1
:10129000538CDF538CBF909101E054DFF0E054BFDA
:1012A000F0E4F554F51EF51F75855A43E18022E4FC
:1012B000F508F5092275841078FFE4F6D8FD900052
:1012C000007F007E01E4F0A3DFFCDEFA75817F90F1
:1012D000908074A5F0908020740093909082F074B8
:1012E00030909083F09090F0E04480F0758AA09068
:1012F0008027740093F58A908026740093F5899076
:101300009080745AF0021343021059E493A3F8E456
:1013100093A34003F68001F208DFF48029E493A34D
:10132000F85407240CC8C333C4540F4420C8834066
:1013300004F456800146F6DFE4800B010204081035
:10134000204080901F4CE47E019360BCA3FF543F7B
:1013500030E509541FFEE493A360010ECF54C0256D
:10136000E060A840B8E493A3FAE493A3F8E493A35D
:10137000C8C582C8CAC583CAF0A3C8C582C8CAC5C1
:1013800083CADFE9DEE780BE909100E04440F0438D
:101390008E40C29E909184E054BFF0909182E044D0
:1013A00040F0909180E04440F0909102E04401F0E0
:1013B000439101C298909185E04401F0909182E0C0
:1013C0004401F0909180E04401F0909101E04408E4
:1013D000F0438F08C29B909184E04408F090918282
:1013E000E04408F0909180E04408F0D2E890910247
:1013F000E04402F0439102C299909185E04402F0EA
:10140000909182E04402F0909180E04402F0438C9D
:1014100080438C04438C02909101E0547FF0E054AF
:10142000FBF0E054FDF0438B01438B02438B0443FC
:101430008B08909100E054FEF0E054FDF0E054FB86
:10144000F0E054F7F0438C10A3E054EFF0C294D2D4
:1014500080C281C282C28322C3E53D940050030250
:101460001505E4F53DF53E538C7F909101E0547FE6
:10147000F0538CFBE0547FF0538CFDE0547FF0057B
:101480004FE54F9405748094804003E4F54FE54F99
:1014900014602714603A14605114605A2404706573
:1014A000E55430E205438C02D291E55430E6054321
:1014B0008C04D292438C80C29722E55430E50543D8
:1014C0008C80D297E55430E437438C02D29180303F
:1014D000E55430E105438C80D297E55430E3054371
:1014E0008C04D292438C02C29122E55430E516431B
:1014F0008C80D297800AE55430E50A438C80D297DD
:10150000438C04C29222E4F568F569909101E0549D
:10151000DFF0E054BFF0538CBF538CDF75EFEB432B
:10152000E18053E20F43E22075E33B53E1E043E106
:101530000B7FE87E03121EC543E14020C005758580
:101540005A80F8AFE57568008F69E569756900F53F
:1015500068AFE4EF4269E4C2C0AC68AD6912092328
:10156000E4FBFA794C78421206FFC004C005C006BD
:10157000C007C3E5619569FDE5609568FCE4120963
:1015800023A804A905AA06AB07D007D006D005D02A
:10159000041208088F538E528D518C5022E4F5733B
:1015A000F574752F8612189D757300851B74752F41
:1015B0008712189DE51BFEEE4273AC73AD74E41206
:1015C00009237B9F7A1C79A378431206FF12095CDA
:1015D0008E738F74E4F577F578752F8812189D75E2
:1015E0007700851B78752F8912189D757700851BEC
:1015F00078752F8A12189D757100851B72E572FE31
:10160000EE4277AC77AD78E41209237B327A7779B2
:10161000A278411206FF12095C8E778F78228F68BC
:101620008D69E50D14602C14606324027068E56810
:101630004569FF6008E4F57DF57E750D01EF6403F3
:101640007054752F2112189D431B20121953121F1D
:10165000358036C3E57E94F4E57D94015020E5683D
:10166000456964037030752F2112189D431B2012A9
:101670001953121F35750D02E4F57DF57E22D3E571
:101680007E94F4E57D9401400D750D0222E56845D8
:10169000696003E4F50D22C0E0C0F0C083C082C0E1
:1016A000D075D000C000C001C002C003C004C00596
:1016B000C006C00730A8390528E5287002052705AF
:1016C0001FE51F7002051E053EE53E7002053D0543
:1016D00015E51570020514057EE57E7002057DE5B1
:1016E0004560080537E53770020536121458C2A860
:1016F000D007D006D005D004D003D002D001D0004E
:10170000D0D0D082D083D0F0D0E032909101E0549C
:10171000DFF0E054BFF0538CBF538CDF75EFEB4329
:10172000E18053E20F43E28075E33B75EFEB53E159
:10173000E043E10A7FE87E03121EC543E14020C07A
:101740000575855A80F8AFE5755E008F5FE55F75BA
:101750005F00F55EAFE4EF425FE4C2C0AC5EAD5F38
:101760001209237B617A54798A783F1206FF8F59D8
:101770008E588D578C56AE5EAF5F22909101E0542B
:10178000DFF0E054BFF0538CBF538CDF75EFEB43B9
:10179000E18053E20F43E22075E33B53E1E043E194
:1017A000117FE87E03121EC543E14020C005758508
:1017B0005A80F8AFE57560008F61E561756100F5ED
:1017C00060AFE4EF4261AE60E5617802C333CE33CF
:1017D000CED8F9F5618E60C2C0E4FEFF22E5456017
:1017E0005C309359E4F545D3E5379410E5369427FA
:1017F0004011756202121F35752F2112189D431B6F
:10180000208032D3E5379405E5369400402AE53749
:1018100094F4E53694015020756201E4F51EF51F3D
:10182000752F2012183E431B011218FC752F201231
:10183000189D431B01121953E4F536F53722E4F5E0
:101840006C121CBE7F781219AA121AC4EF600FC363
:10185000E56C9432748094805004056C80E3AF2F63
:101860001219AA121AC4EF600FC3E56C9432748087
:1018700094805004056C80C9121CBE7F791219AA8D
:10188000121AC4EF600FC3E56C94327480948050D8
:1018900004056C80AC121A408F1B021E65E4F56CC7
:1018A000121C957F781219F5121AFEEF600FC3E52E
:1018B0006C9402748094805004056C80E3AF2F1206
:1018C00019F5121AFEEF600FC3E56C940274809450
:1018D000805004056C80C9121C957F791219F5128D
:1018E0001AFEEF600FC3E56C94027480948050047C
:1018F000056C80AC121A828F1B021E7DE4F56C12FF
:101900001CBE7F781219AA121AC4EF600FC3E56CCF
:101910009432748094805004056C80E3AF2F1219C8
:10192000AA121AC4EF600FC3E56C946474809480AB
:101930005004056C80C9AF1B1219AA121AC4EF60BB
:101940000FC3E56C9496748094805004056C80AF4E
:10195000021E65E4F56C121C957F781219F5121AB7
:10196000FEEF600FC3E56C94027480948050040510
:101970006C80E3AF2F1219F5121AFEEF600FC3E56A
:101980006C9402748094805004056C80C9AF1B1263
:1019900019F5121AFEEF600FC3E56C94027480947F
:1019A000805004056C80AF021E7D8F6D438B2090AC
:1019B0009100E054DFF0C284E4F56EC3E56E940854
:1019C00074809480502EE56D30E704D2858002C289
:1019D00085E56D25E0F56D7F037E00121EC5D2847E
:1019E0007F037E00121EC5C2847F037E00121EC5C7
:1019F000056E80C7228F6D438C01909101E054FEEB
:101A0000F0C287E4F56EC3E56E940874809480504C
:101A10002EE56D30E704D2908002C290E56D25E09E
:101A2000F56D7F037E00121EC5D2877F037E0012F4
:101A30001EC5C2877F037E00121EC5056E80C722A9
:101A4000E4F56E538BDF909100E04420F0E4F56DF7
:101A5000C3E56D9408748094805021C2847F037E16
:101A600000121EC5D284E56E25E0F56E30850205B4
:101A70006E7F037E00121EC5056D80D4121D78AFE7
:101A80006E22E4F56E538CFE909101E04401F0E487
:101A9000F56DC3E56D9408748094805021C2877FF2
:101AA000037E00121EC5D287E56E25E0F56E3090EC
:101AB00002056E7F037E00121EC5056D80D4121DC7
:101AC00099AF6E22E4F56DD285538BDF909100E0E3
:101AD0004420F07F037E00121EC5D2847F037E0067
:101AE000121EC5308513056DD3E56D94FA7480948C
:101AF0008040F0121E657F0122C2847F0022E4F53F
:101B00006DD290538CFE909101E04401F07F037EF2
:101B100000121EC5D2877F037E00121EC5309013AF
:101B2000056DD3E56D94FA7480948040F0121E7DAB
:101B30007F0122C2877F00228E688F698D6A752F90
:101B4000A412189D531BFC431B08E56A6005431B48
:101B5000048003531BFB121953752FA5E569F51B70
:101B6000121953752FA6E568540FF51B021953ABD4
:101B700007AA067C277D101209EFEF2430FF121E02
:101B8000467C037DE8121E347D64121E327D0A12EB
:101B90001E32AE02AF037C007D0A1209EFED243045
:101BA000FF021E46E4F568F569752F3012189D5343
:101BB0001BE0431B02121953752F3112189D7568D3
:101BC00000851B69752F3212189DE51B540FFEEE20
:101BD0004268AE68AF6922121F71752F40E4F51B91
:101BE000431B80431B5A1218FC121F7A752F4F1289
:101BF000183E531B80431B2D1218FC752F2E1218F4
:101C00003E531BF0431B010218FC121F71752F403D
:101C1000E4F51B431B80431B3C1218FC121F7A7512
:101C20002F4F12183E531B80431B1E1218FC752F9A
:101C30002E12183E531BF0431B010218FCE4F568FA
:101C4000752F1D12189DE51B5431F568752F2B1249
:101C5000189D851B6FE51B30E403120E93752F2C26
:101C600012189D851B70AF6822E4F568752F1D1250
:101C7000183EE51B54F7F568752F2B12183E851B8F
:101C800079E51B30E403120CCA752F2C12183E851F
:101C90001B7AAF6822438B80909100E0547FF04321
:101CA0008C01A3E054FEF0D290D2877F037E001215
:101CB0001EC5C2907F037E00121EC5C28722438BC1
:101CC00010909100E054EFF0438B20E054DFF0D20D
:101CD00085D2847F037E00121EC5C2857F037E00ED
:101CE000121EC5C28422E4F568752F1912189D537F
:101CF0001B30E51B5430FF7E0064207003436801F5
:101D0000EF64104E7003436802AF6822E4F5687513
:101D10002F1912183E531BC0E51B54C0FF7E0064F0
:101D2000807003436801EF64404E7003436802AF64
:101D30006822D282909131E054F0F0E04402F04306
:101D40008B0475D50175D7027F227E00121F414397
:101D50009F01D2EDD2EF22909101E054DFF0E054E8
:101D6000BFF0538CBF538CDF75EFEB43E18053E240
:101D70000F43E22075E33B22C284438B2090910005
:101D8000E054DFF0D2857F037E00121EC5D2847F2F
:101D9000037E00121EC5C28422C287438C0190912B
:101DA00001E054FEF0D2907F037E00121EC5D28760
:101DB0007F037E00121EC5C28722752F4512189D13
:101DC000531B80431B1E121953752F2E12189D533F
:101DD0001BF0431B01021953752F2812189D531B2A
:101DE000FB531BF7121953752F2E12189D531BF01E
:101DF000431B02021953752F4512183E531B804393
:101E00001B1E1218FC752F2E12183E531BF0431B7D
:101E1000010218FC752F2812183E531BFB531BF7A9
:101E20001218FC752F2E12183E531BF0431B020292
:101E300018FC7C00AF03AE021209EF7C007D0A1291
:101E400009EFED2430FF30B9FD8FD922C0E0E598CD
:101E500030E309754501753600753700757F0175EA
:101E60009800D0E032438B20909100E054DFF0C224
:101E700085D2847F037E00121EC5D28522438C0149
:101E8000909101E054FEF0C290D2877F037E001251
:101E90001EC5D29022752F2512189DE51B54807007
:101EA0000B0576E57670020575120E9322752F25C7
:101EB00012183EE51B5480700B057CE57C70020512
:101EC0007B120CCA22E4FDFCC3ED9FEC9E5008007F
:101ED0000DBD00010C80F175855A22752F2812184E
:101EE0009D431B04431B08021953752F2812183EEB
:101EF000431B04431B080218FC752F2812189D531E
:101F00001BFB021953752FA412189D431B020219C3
:101F100053752FA412189D431B01021953752F28C6
:101F200012183E431B040218FC752F2812183E534A
:101F30001BFB0218FC752F2112183E431B200218B0
:101F4000FCAD07AC06ECFF8DD38FD4220154000109
:101F50004900014A0000752F24751B810219537531
:101F60002FFFE4F51B021953752F9912189DAF1B13
:101F700022752F24751B810218FC752FFFE4F51BB9
:041F80000218FC2225
:00000001FF
