:1000000002138B021FDE752A211218834319200266
:100010001998320217A5E4F564F565752A301218AF
:10002000835319E0431903121998752A3112188362
:10003000756400851965752A32121883E519FEEE7C
:100040004264AE64AF657C007D051209528E648FF8
:10005000652222020012E4F55BF55CF55DF55EF5C4
:100060005FF563F562F561F560F51AF51B752027FC
:10007000752110121F13121F2B121DB98F42121D52
:10008000DF8F43121D108F40121D3C8F41208607C9
:100090001200168E5E8F5FAF50AE4FAD4EAC4D125C
:1000A00008D18E118F12E527602EE4FFFE7DC87CFB
:1000B00042AB50AA4FA94EA84D12081A5015050E72
:1000C000E50E7002050D94D0E50D9407400A121F4D
:1000D000798005E4F50DF50EE54320E00BD3E5410D
:1000E000940074809480401DAC5EAD5FE41208986B
:1000F000A804A905AA06AB07AF50AE4FAD4EAC4D54
:1001000012057F803DE54330E13FC3E55F9464E540
:100110005E94005015050EE50E7002050D940AE57B
:100120000D9400400A121F798005E4F50DF50EAC20
:100130005EAD5FE4120898AB50AA4FA94EA84D12CD
:1001400005831208D18E118F12851125851226AED6
:1001500011AF127C007D051209B98E118F12121792
:10016000228F2E8E2D8D2C8C2B7F4A7E0C7DAA7C8F
:1001700040AB2EAA2DA92CA82B12081A601A4018E1
:100180007F197E047D037C42AB2EAA2DA92CA82BBF
:1001900012081A5003E4F534E5407017E541701376
:1001A000E527700FE54264026009E54364026003DD
:1001B0000202E7E527700FE54264026009E5436447
:1001C000026003020261755B02D3E5129400E5113F
:1001D000648094804008E4FDAF12AE118019C3E53D
:1001E00011648094805013C3E49512F512E49511C4
:1001F000F5117D01AF12FE121C0B7FCB7EA17D6538
:100200007C40AB2EAA2DA92CA82B12081A50030251
:1002100002B17F777E3E7D117C42AB2EAA2DA92CA8
:10022000A82B12081A600540030202B17F4A7E0C17
:100230007DAA7C40AB2EAA2DA92CA82B12081A60EF
:100240000250030202F87F197E047D037C42AB2E2C
:10025000AA2DA92CA82B12081A40030202F80202A8
:10026000E2E4F50DF50E755B01C3E5116480948041
:100270005013C3E49512F512E49511F5117D01AF09
:1002800012FE121C0B7FA27E457D1E7C40AB2EAA67
:100290002DA92CA82B12081A40177F487E617D5E7D
:1002A0007C42AB2EAA2DA92CA82B12081A6007405D
:1002B0000575340180427FDD7E247D3E7C40AB2E7F
:1002C000AA2DA92CA82B12081A602D402B7FC37EC3
:1002D000F57D297C42AB2EAA2DA92CA82B12081A39
:1002E0005016E4F5348011E4F50DF50E752AA412CC
:1002F00018E25319F71219EFE54030E003435C01AF
:10030000E54130E703435C02E54130E503435C042B
:10031000E55C650F607E855C0FE55C24FE6019146A
:10032000602C14602114604324FE605C2406706419
:10033000E53C6441605E8056E53D642D6056753D48
:100340002D121CAA804EE517641E6048802FE53CE4
:1003500064416006753C41120052E53D641E603404
:10036000753D1EE4F517121CDD8029E53C644160F3
:1003700006753C41120052E517641E601775171E82
:10038000E4F53D121FE5800CE53C64416006753CD8
:1003900041120052121C778E2F8F307C007D071285
:1003A00009528E2F8F30852F38853039E5346036ED
:1003B000752401E4F53FAF35FED3EF943274809499
:1003C000804008753533E4F5498013EF4E7002F52F
:1003D00049E53575F00584E5F070036349FF05359F
:1003E000121F97021F6AE4F535E52464017008F5D1
:1003F00024121EAB121E8D121FC38F1F1215DCACF0
:1004000075AD76E4120898E4FBFA79C878421206D2
:1004100074C004C005C006C007AC6FAD70E412081C
:1004200098A804A905AA06AB07D007D006D005D026
:100430000412077DE4FBFAF9783F1205838F638E7F
:10044000628D618C60E4FFFE7D487C43AB50AA4F17
:10045000A94EA84D12081A600D400BE4F563F56231
:100460007561C4756042752800851F29AF63AE624F
:10047000AD61AC601208D1AD5B1209FDE572B571DA
:100480001CE533B52917E4B52813E545B5760EE527
:1004900044B57509E51C6518700302053E85383AB8
:1004A00085393B8529338575448576458571728507
:1004B000181C7F49121EDD7F3A121EDDAF26AE25C5
:1004C000121C427F0D121EDD7F0A121EDD7F5612A6
:1004D0001EDD7F3A121EDDAF39AE38121C427F0D91
:1004E000121EDD7F0A121EDD7F6D121EDD7F571288
:1004F0001EDD7F3A121EDDAF70AE6F121C427F0D03
:10050000121EDD7F0A121EDD7F6D121EDD7F571267
:100510001EDD7F3A121EDDAF76AE75121C427F0DD6
:10052000121EDD7F0A121EDD7F44121EDD7F3A128D
:100530001EDDAF29AE28121C427F20121EDD308640
:100540000830A0057546018003E4F546E5466004E1
:10055000E527600AE51B451A7004F51DF51EE54602
:100560006004E527600CE51B451A7006E55A640235
:100570007004E4FF80027F011212192202093DE893
:100580006480F8E933E83360110460F0ED33EC3354
:100590007009E8FCE9FDEAFEEBFF220460DED3EB24
:1005A0009FEA9EE99DE8C2E78CF0C2F795F0400C07
:1005B000E8CCF8E9CDF9EACEFAEBCFFB12090885D1
:1005C000D0F05804700320D5B3E80470075002B28D
:1005D000D502094792D5EC0460F7E4CCC0E0C3989B
:1005E000F8603B94186008400DD0E0FB02091FE45E
:1005F000FBFAC9FC8028E830E406E4C9FBE4CAFC45
:10060000E830E305E4C9CACBFCE854076010F8C33E
:10061000E913F9EA13FAEB13FBEC13FCD8F130F50C
:100620002FC3E49CFCEF9BFFEE9AFEED99FDD0E01A
:10063000FBEF4E4D4C701222DB03020944EC2CFC04
:10064000EF33FFEE33FEED33FDED30E7EB02091F34
:10065000EF2BFFEE3AFEED39FDD0E0FB50130BBB64
:100660000003020947ED13FDEE13FEEF13FFEC1339
:10067000FC02091FEC4D6011E8497017ED33EC33B3
:1006800004600DE4FCFFFEFD22E933E8330470F85A
:1006900002093D12090858046009E4CC248150067F
:1006A000285009020947284003020944C0E0EB4AE8
:1006B0007044B98006D0E0FB020933EF4E701CBDD8
:1006C0008008EBFFEAFEE9FD80EBE98DF0A4FEE592
:1006D000F002075DE9CDF9EAFEEBFFEF89F0A4FC3B
:1006E000E5F0CE89F0A42EFFE435F0CD89F0A42DFD
:1006F000FEE435F08067EF4E7005BD80D780C3EF14
:100700008BF0A4ACF0EE8BF0A42CFCE435F0F8EF09
:100710008AF0A42CE5F038FCE433CB8DF0A42CFC5B
:10072000E5F03BF8EE8AF0A42CFCE5F038F8E43371
:10073000CF89F0A42CFCE5F038CF3400CE89F0A4AA
:100740002FFFE5F03EFEE433C98DF0A42EFEE5F068
:1007500039CD8AF0A42FFFE5F03EFEE43DFD33D015
:10076000E0FB50070BBB000F020947EC2CFCEF33FA
:10077000FFEE33FEED33FD02091F020947EC5D0475
:100780006005E85904700302093D12090858046025
:10079000F6EC4860F2EC7004FDFEFF22C860DB243A
:1007A00081C85009C398600250060209449850CA93
:1007B000F582E9294B4A7005AB8202093375F000D6
:1007C0007C1A7880C3EF9BEE9AED99400DC3EF9BA6
:1007D000FFEE9AFEED99FDE842F0DC23ACF0D0E0AC
:1007E000FFD0E0FED0E0FDAB8220E7101BEB60BA4B
:1007F000EC2CFCEF33FFEE33FEED33FD02091FE876
:1008000003F830E705C0F075F000EF2FFFEE33FE80
:10081000ED33FD40B830E7C280AA74F8CC6480CCD8
:10082000C86480C8F58204604FC3EB9FF5F0EA9E70
:1008300042F0E99D42F0E89C45F0603C501DE582A5
:100840005FFFE582D313CB5BCBF42B5582FB5028A3
:100850000ABA002409B9002008801DE5825BFBE587
:1008600082D313CF5FCFF4C3132F5582FF50090EED
:10087000BE00050DBD00010CC3EB9FF5F0EA9E42E2
:10088000F0E99D42F0E89C45F06007CC4820E70184
:10089000B3EC2275F020800E75F010800575F0081D
:1008A0007D007E007F003392D530D5031209EFEC36
:1008B000334010EF33FFEE33FEED33FDEC33FCD568
:1008C000F0ED22E5F0247EA2D513CC92E7CDCEFF49
:1008D00022EDD2E7CD33EC3392D524814006E4FFFC
:1008E000FEFDFC22FCE4CFCECDCC24E0501174FF01
:1008F00080EDC3CC13CCCD13CDCE13CECF13CF040C
:1009000070F030D5DE0209EFE9D2E7C933E833F8F9
:1009100092D5EDD2E7CD33EC33FC5002B2D522ECC8
:1009200030E7100FBF000C0EBE00080DBD00040B19
:10093000EB6014A2D5EB13FCED92E7FD2274FFFCF3
:10094000FDFEFF22E480F8A2D574FF13FC7D80E455
:1009500080EFEF8DF0A4A8F0CF8CF0A428CE8DF01E
:10096000A42EFE22BC000BBE0029EF8DF084FFAD4B
:10097000F022E4CCF875F008EF2FFFEE33FEEC33F5
:10098000FCEE9DEC984005FCEE9DFE0FD5F0E9E4F1
:10099000CEFD22EDF8F5F0EE8420D21CFEADF07510
:1009A000F008EF2FFFED33FD4007985006D5F0F229
:1009B00022C398FD0FD5F0EA22C2D5EC30E709B288
:1009C000D5E4C39DFDE49CFCEE30E715B2D5E4C34D
:1009D0009FFFE49EFE120964C3E49DFDE49CFC803D
:1009E0000312096430D507C3E49FFFE49EFE22C3CF
:1009F000E49FFFE49EFEE49DFDE49CFC228F64E402
:100A0000F565F566F567ED64026003020B18E540D5
:100A10005420FB7A007006E54154A46003E4F53FDE
:100A2000AF3FEF64016005EF64027019C3E51494F1
:100A300010E5139427400E751327751410E4F5493B
:100A4000753F02FF22AF647E00C3EF94647480940C
:100A5000805003756501D3EF940AEE648094805052
:100A6000157518015349FB5349F75349EF43492082
:100A7000434940020BCFD3EF941EEE648094805024
:100A8000187518024349025349F75349EF43492067
:100A9000434940756703020C21D3EF943CEE648018
:100AA000948050187518034349024349045349EF91
:100AB000434920434940756704020C21C3EF946306
:100AC000EE64809480501875180443490243490429
:100AD000434908434920434940756705020C217585
:100AE000180543490243490443490843491043490F
:100AF00020434940AF3FEF600464037005E4F51301
:100B0000F514EB4A700CE54154A47006753F0102E0
:100B10000C21E4F53F020C21C3E53F94027480945C
:100B200080400AED7007753F03F549FF22E4F53F69
:100B3000752A15121883851966E56630E415752A3D
:100B4000A41218E25319FC4319084319041219EFAF
:100B5000121F88D3E51F940074809480504E752036
:100B60000B7521B8534920E4F518752A181218E2BC
:100B7000E51920E205E56630E415752A1585661944
:100B8000121998752A211218E24319201219EF75CB
:100B90002A18121883E51954096003120006751A01
:100BA00000751B017567017565018075AF647E0076
:100BB000D3EF940A74809480501A7518015349FB3E
:100BC0005349F75349EF434920434940756501753F
:100BD0006702804DD3EF941EEE64809480501175AF
:100BE00018024349024349045349F75349EF802B04
:100BF000D3EF943CEE648094805011751803434900
:100C0000024349044349085349EF800F75180443D0
:100C10004902434904434908434910434920434991
:100C200040E5656071E4F565050BE50B7002050AAA
:100C3000E567650C600885670CE4F50AF50BAF679E
:100C40007E00EF64017015D3E50B9402E50A940071
:100C50004044E4F50AF50B634920803AD3E50B9450
:100C600005E50A9400402FE4F50AF50BEF64024E07
:100C70007005634902801FEF64034E7005634904E9
:100C80008014EF64044E70056349088009EF640521
:100C90004E70036349107F0122752AFFE4F5191293
:100CA0001998752A231218834319011219987F1075
:100CB0007E27121F43752A24751920121998751959
:100CC00040121998751980121998752AFFE4F519C0
:100CD000121998752A2512188343198012199875CC
:100CE0002A15121883121998121FCC752A08121887
:100CF000837519DC121998752A1612188343191076
:100D0000121998752A1B12188353193F4319801220
:100D10001998752A031218835319F04319071219E9
:100D200098752A0D12188353193F43198012199888
:100D3000752A321218835319FC4319011219987538
:100D40002A55121883431980121998752A561218B9
:100D500083431901431902431904121998752A187B
:100D60001218835319E3121998752A19E4F51943D7
:100D70001901431908431920431940121998752A7B
:100D800035121883431901431908121998752A342A
:100D90001218834319044319104319201219987526
:100DA0002A40E4F519431980431964121998E4F5AF
:100DB0002A12188353197F53198F43191012199847
:100DC000752A0112188353193F121998752A501267
:100DD0001883431901431902431904121998752AFB
:100DE00051121883431970121998752A2312188307
:100DF000E4F5194319014319024319044319401238
:100E00001998752A2212188353193F431940121951
:100E100098752A2D1218834319084319101219982E
:100E2000752A2E12188353198043193C121998758C
:100E30002A2F12188353198043193C121998121F34
:100E4000D5752A40121883431902431904431980A7
:100E5000121998752A4612188375199112199875E6
:100E60002A471218835319E0431905121998752A55
:100E70004512188353198043192D121998752A4F5A
:100E800012188353198043192D021998752AFFE40B
:100E9000F5191219EF752A231218E24319011219D4
:100EA000EF7F107E27121F43752A2475192012190F
:100EB000EF7519401219EF7519801219EF752AFF95
:100EC000E4F5191219EF752A251218E24319801258
:100ED00019EF121FB1752A081218E27519DC1219E0
:100EE000EF752A161218E24319101219EF752A032A
:100EF0001218E25319F04319071219EFE4F52A12F8
:100F000018E253197F53198F4319101219EF752ADC
:100F10000D1218E253193F4319801219EF752A4B2D
:100F20001218E253193F4319401219EF752A55124E
:100F300018E24319801219EF752A561218E2431964
:100F4000014319024319041219EF752A181218E205
:100F50005319FB1219EF752A191218E25319F843A5
:100F600019011219EF752A351218E24319014319B4
:100F7000081219EF752A341218E2431904431910A4
:100F80004319201219EF752A40E4F51943198043DB
:100F900019641219EF752A231218E2E4F51943199E
:100FA000014319024319044319401219EF752A50DD
:100FB0001218E24319014319024319041219EF757B
:100FC0002A511218E24319701219EF752A221218C9
:100FD000E253193F4319401219EF752A2D1218E2F6
:100FE0004319084319101219EF752A2E1218E253EB
:100FF000198043193C1219EF752A2F1218E2531960
:101000008043193C1219EF121FBA752A401218E2D8
:101010004319024319044319801219EF752A461225
:1010200018E27519911219EF752A471218E253192F
:10103000E04319051219EF752A451218E253198079
:101040004319411219EF752A4F1218E253198043C0
:1010500019410219EF90902074A5F0A3E09000FFD1
:10106000F0E054F0F0E04402F0E0909021F0909035
:1010700020745AF074A5F0A37402F0909020745A72
:10108000F075A67C75A67C75A2C3439D01D2E9D2FA
:10109000EFD2EF7F407E42121F437F407E42121FFD
:1010A0004312145E121E2A752A2312188343190153
:1010B0001219987F107E27121F43752A2475192054
:1010C0001219987519401219987519801219987586
:1010D0002AD975192012199875194012199875197D
:1010E00080121998752A247519201219EF75194064
:1010F0001219EF7519801219EF752AD97519201276
:1011000019EF7519401219EF7519801219EF120CA9
:1011100099120E8C121E057F31121EDD7F31121EB8
:10112000DD7F31121EDD758420E4F52775202775DB
:10113000211075855A121941121686D3E52394643D
:10114000E522940040ECE4F522F52330A1030212DD
:101150000412181EAB50AA4FA94EA84DAF54AE535F
:10116000AD52AC5112057FE4FBFA7948784312087E
:101170001A5017E4FFFE7D487C42AB50AA4FA94E9F
:10118000A84D12081A5003754C01AB54AA53A9522A
:10119000A851AF50AE4FAD4EAC4D12057FE4FBFAF7
:1011A0007948784312081A5019E4FFFE7D167C43F3
:1011B000AB50AA4FA94EA84D12081A60054003E48F
:1011C000F54C855054854F53854E52854D51E54C15
:1011D00064016003752701752701E5346004C2943A
:1011E0008002D294E55964016029755901121FB13A
:1011F000752A4B1218E253193F4319401219EF1286
:101200001FBA800FE4F54CF550F54FF54EF54DC281
:1012100094F527120056021132EF6003021385C3C2
:10122000E51E9521E51D95205009E55A64026003ED
:1012300002138AE4F54AF54BF549F53FF546F51DED
:10124000F51EF535120006752A211218E243192001
:101250001219EF752AA41218E25319F71219EF7533
:101260002A231218835319FE121998752A2312186B
:10127000E25319FE1219EFC297C292C291C2805373
:10128000E17F438C20438C40909101E054DFF0E0FB
:1012900054BFF0C295C296538CFEE04401F0538BCC
:1012A0007F909100E04480F0538BBFE04440F053C6
:1012B0008BDFE04420F053A27F75855AE527700646
:1012C00030860320A00CE51B451A7006E55A64021F
:1012D000701EE4F55A90902074A5F0909027741831
:1012E000F0909020745AF07587507587017587A02B
:1012F00043A280439D0175855AE4F55AF51AF51B02
:101300007F107E27121F43752A231218E24319010A
:101310001219EF752A23121883431901121998D252
:10132000807F107E27121F43538CDF538CBF909118
:1013300001E054DFF0E054BFF0E4F549F51DF51E7F
:1013400043E180752A2475192012199875194012E5
:101350001998751980121998752A2475192012196F
:10136000EF7519401219EF7519801219EF752A20BF
:10137000121883431901121998752A201218E24392
:1013800019010219EFE4F508F5092275841078FFB8
:10139000E4F6D8FD9000007F007E01E4F0A3DFFCBE
:1013A000DEFA75817E90908074A5F09080207400A4
:1013B00093909082F07430909083F09090F0E0449D
:1013C00080F0758AA0908027740093F58A9080261B
:1013D000740093F589909080745AF00214190210E9
:1013E00055E493A3F8E493A34003F68001F208DFE9
:1013F000F48029E493A3F85407240CC8C333C454DD
:101400000F4420C8834004F456800146F6DFE48090
:101410000B0102040810204080901F59E47E0193C4
:1014200060BCA3FF543F30E509541FFEE493A36062
:10143000010ECF54C025E060A840B8E493A3FAE4BD
:1014400093A3F8E493A3C8C582C8CAC583CAF0A30E
:10145000C8C582C8CAC583CADFE9DEE780BE9091ED
:1014600000E04440F0438E40C29E909184E054BF1F
:10147000F0909182E04440F0909180E04440F09000
:101480009102E04401F0439101C298909185E044BB
:1014900001F0909182E04401F0909180E04401F0ED
:1014A000909101E04408F0438F08C29B909184E042
:1014B0004408F0909182E04408F0909180E0440864
:1014C000F0D2E8909102E04402F0439102C2999078
:1014D0009185E04402F0909182E04402F090918086
:1014E000E04402F0438C80438C04438C02909101D1
:1014F000E0547FF0E054FBF0E054FDF0438B0143F7
:101500008B02438B04438B08909100E054FEF0E083
:1015100054FDF0E054FBF0E054F7F0438C10A3E0EE
:1015200054EFF0C294D280C281C282C28322C3E54A
:1015300036940050030215DBE4F536F537538C7F03
:10154000909101E0547FF0538CFBE0547FF0538C7A
:10155000FDE0547FF00548E5489405748094804090
:1015600003E4F548E54814602714603A1460511408
:10157000605A24047065E54930E205438C02D2913B
:10158000E54930E605438C04D292438C80C2972211
:10159000E54930E505438C80D297E54930E437438F
:1015A0008C02D2918030E54930E105438C80D2979E
:1015B000E54930E305438C04D292438C02C2912268
:1015C000E54930E516438C80D297800AE54930E53D
:1015D0000A438C80D297438C04C29222E4F56FF5C3
:1015E00070752A861218E2756F00851970752A8742
:1015F0001218E2E519FEEE426FAC6FAD70E412080E
:10160000987B9F7A1C79A378431206741208D18EB6
:101610006F8F70E4F575F576752A881218E2756D8E
:101620000085196E752A891218E27575008519767C
:10163000752A8A1218E2E519FEEE4275AC6DAD6EA0
:10164000E41208987B4C7A1A79A3783D120674C08C
:1016500004C005C006C007AC75AD76E41208987BDF
:10166000327A7779A27841120674D003D002D00181
:10167000D0001205831208D18E758F76752A9412C8
:1016800018E285197122E55A64027020120006756D
:101690002A211218E24319201219EF752AA41218F0
:1016A000E25319F71219EFE4F55A8037E55A64014D
:1016B0007031F55AF53FF535E53E7025753E01F57B
:1016C00031F532F547F51DF51E752A2012188343B2
:1016D0001901121998752A201218E24319011219DA
:1016E000EF0547D3E53294DCE5319405502AC3E594
:1016F000479405748094804028E55964026015750C
:101700005902121FB1752A4B1218E253193F1219D0
:10171000EF121FBAE4F54722E4F53EF531F532F554
:101720004722E4F564F565909101E054DFF0E05460
:10173000BFF0538CBF538CDF75EFEB43E18053E276
:101740000F43E22075E33B53E1E043E10B7FE87E8A
:1017500003121F4343E14020C00575855A80F8AF4E
:10176000E5EFADE4F564EDF565C2C0AC64E41208E4
:1017700098E4FBFA794C7842120674C004C005C0A4
:1017800006C007C3E5589565FDE5579564FCE4126E
:101790000898A804A905AA06AB07D007D006D0056B
:1017A000D00402077DC0E0C0F0C083C082C0D07505
:1017B000D000C000C001C002C003C004C005C00604
:1017C000C00730A83E0523E52370020522051EE56B
:1017D0001E7002051D0537E537700205360514E554
:1017E00014700205130579E5797002057805771202
:1017F0001BD4E53E60080532E53270020531121552
:101800002EC2A8D007D006D005D004D003D002D075
:1018100001D000D0D0D082D083D0F0D0E0329091EF
:1018200001E054DFF0E054BFF0538CBF538CDF7500
:10183000EFEB43E18053E20F43E28075E33B75EF4A
:10184000EB53E1E043E10A7FE87E03121F4343E1EB
:101850004020C00575855A80F8AFE5EFADE4F55539
:10186000EDF556C2C0AC55E41208987BAE7A4779C4
:1018700081783F1206748F508E4F8D4E8C4DAE5531
:10188000AF5622E4F568121D917F78121A46121B9A
:1018900060EF600FC3E56894327480948050040553
:1018A0006880E3AF2A121A46121B60EF600FC3E58F
:1018B000689432748094805004056880C9121D9128
:1018C0007F79121A46121B60EF600FC3E5689432ED
:1018D000748094805004056880AC121ADC8F190261
:1018E0001EE3E4F568121D687F78121A91121B9AA4
:1018F000EF600FC3E568940274809480500405681B
:1019000080E3AF2A121A91121B9AEF600FC3E568A9
:101910009402748094805004056880C9121D687F09
:1019200079121A91121B9AEF600FC3E56894027442
:101930008094805004056880AC121B1E8F19021E13
:10194000FB909101E054DFF0E054BFF0538CBF53A3
:101950008CDF75EFEB43E18053E20F43E22075E348
:101960003B53E1E043E1117FE87E03121F4343E173
:101970004020C00575855A80F8AFE5EFADE4F55716
:10198000EDF558AE577802C333CE33CED8F9F558BB
:101990008E57C2C0E4FEFF22E4F568121D917F78E5
:1019A000121A46121B60EF600FC3E5689432748010
:1019B00094805004056880E3AF2A121A46121B6017
:1019C000EF600FC3E56894647480948050040568E8
:1019D00080C9AF19121A46121B60EF600FC3E56889
:1019E0009496748094805004056880AF021EE3E4EE
:1019F000F568121D687F78121A91121B9AEF600F1A
:101A0000C3E5689402748094805004056880E3AF55
:101A10002A121A91121B9AEF600FC3E568940274A0
:101A20008094805004056880C9AF19121A91121B66
:101A30009AEF600FC3E568940274809480500405A7
:101A40006880AF021EFB8F69438B20909100E054A9
:101A5000DFF0C284E4F56AC3E56A94087480948078
:101A6000502EE56930E704D2858002C285E56925FC
:101A7000E0F5697F037E00121F43D2847F037E005E
:101A8000121F43C2847F037E00121F43056A80C772
:101A9000228F69438C01909101E054FEF0C287E4EB
:101AA000F56AC3E56A940874809480502EE5693025
:101AB000E704D2908002C290E56925E0F5697F03D2
:101AC0007E00121F43D2877F037E00121F43C2870E
:101AD0007F037E00121F43056A80C722E4F56A5324
:101AE0008BDF909100E04420F0E4F569C3E5699450
:101AF00008748094805021C2847F037E00121F43AB
:101B0000D284E56A25E0F56A308502056A7F037EA6
:101B100000121F43056980D4121E4BAF6A22E4F500
:101B20006A538CFE909101E04401F0E4F569C3E54D
:101B3000699408748094805021C2877F037E0012CC
:101B40001F43D287E56A25E0F56A309002056A7F77
:101B5000037E00121F43056980D4121E6CAF6A22F7
:101B6000E4F569D285538BDF909100E04420F07F4B
:101B7000037E00121F43D2847F037E00121F433076
:101B800085130569D3E56994FA7480948040F01256
:101B90001EE37F0122C2847F0022E4F569D29053C4
:101BA0008CFE909101E04401F07F037E00121F4300
:101BB000D2877F037E00121F433090130569D3E55F
:101BC0006994FA7480948040F0121EFB7F0122C257
:101BD000877F0022209315054BE54B7002054AD301
:101BE0009410E54A94274022755A0222C3E54B948B
:101BF00005E54A9400400ED3E54B94F4E54A940180
:101C00005003755A01E4F54AF54B228E648F658DB9
:101C100066752AA41218E25319FC431908E5666098
:101C20000543190480035319FB1219EF752AA5E522
:101C300065F5191219EF752AA6E564540FF5190216
:101C400019EFAB07AA067C277D10120964EF243038
:101C5000FF121EDD7C037DE8121ECB7D64121EC9BF
:101C60007D0A121EC9AE02AF037C007D0A12096410
:101C7000ED2430FF021EDDE4F564F565752A3012AF
:101C800018E25319E04319021219EF752A3112189C
:101C9000E2756400851965752A321218E2E5195457
:101CA0000FFEEE4264AE64AF6522121FCC752A406F
:101CB000E4F51943198043195A121998121FD57562
:101CC0002A4F12188353198043192D121998752A17
:101CD0002E1218835319F0431901021998121FCCC0
:101CE000752A40E4F51943198043193C12199812DA
:101CF0001FD5752A4F12188353198043191E1219C4
:101D000098752A2E1218835319F043190102199855
:101D1000E4F564752A1D1218E2E5195431F564756D
:101D20002A2B1218E285196BE51930E403120E8C88
:101D3000752A2C1218E285196CAF6422E4F56475DB
:101D40002A1D121883E51954F7F564752A2B121809
:101D50008385197BE51930E403120C99752A2C123E
:101D6000188385197CAF6422438B80909100E054E6
:101D70007FF0438C01A3E054FEF0D290D2877F0322
:101D80007E00121F43C2907F037E00121F43C28752
:101D900022438B10909100E054EFF0438B20E054ED
:101DA000DFF0D285D2847F037E00121F43C2857F7D
:101DB000037E00121F43C28422E4F564752A1912BF
:101DC00018E2531930E5195430FF7E006420700387
:101DD000436401EF64104E7003436402AF6422E475
:101DE000F564752A191218835319C0E51954C0FFF8
:101DF0007E0064807003436401EF64404E700343CF
:101E00006402AF6422D282909131E054F0F0E04459
:101E100002F0438B0475D50175D7027F227E001234
:101E20001FA6439F01D2EDD2EF22909101E054DF33
:101E3000F0E054BFF0538CBF538CDF75EFEB43E100
:101E40008053E20F43E22075E33B22C284438B20A0
:101E5000909100E054DFF0D2857F037E00121F4393
:101E6000D2847F037E00121F43C28422C287438C28
:101E700001909101E054FEF0D2907F037E00121F8A
:101E800043D2877F037E00121F43C28722752A2810
:101E90001218E25319FB5319F71219EF752A2E1273
:101EA00018E25319F04319020219EF752A28121883
:101EB000835319FB5319F7121998752A2E12188398
:101EC0005319F04319020219987C00AF03AE0212B5
:101ED00009647C007D0A120964ED2430FF30B9FDED
:101EE0008FD922438B20909100E054DFF0C285D23D
:101EF000847F037E00121F43D28522438C01909180
:101F000001E054FEF0C290D2877F037E00121F438F
:101F1000D29022752A251218E2E5195480700B051B
:101F200074E57470020573120E8C22752A2512183E
:101F300083E5195480700B057EE57E7002057D12E5
:101F40000C9922E4FDFCC3ED9FEC9E5008000DBDF2
:101F500000010C80F175855A22014700024A0000F9
:101F600001490001420001430000752A281218E2CD
:101F70004319044319080219EF752AA41218E24301
:101F800019025319FE0219EF752AA41218E2431917
:101F9000015319FD0219EF752A28121883431904F9
:101FA000431908021998AD07AC06ECFF8DD38FD406
:101FB00022752A247519810219EF752AFFE4F51993
:101FC0000219EF752A991218E2AF1922752A2475A1
:101FD0001981021998752AFFE4F519021998757A82
:061FE00001759800322299
:00000001FF
