:100000000212FC021F4F752BA4121859431A020248
:1000100019663202171CE4F565F566752B30121768
:10002000FA531AE0431A0312190F752B311217FAFB
:10003000756500851A66752B321217FAE51AFEEE01
:100040004265AE65AF667C007D051209358E658F11
:10005000662222020012E4F55CF55DF55EF55FF5BF
:1000600060F564F563F562F561F51BF51C752127F4
:10007000752210121E8A121EA2121D308F43121DED
:10008000568F44121C878F41121CB38F4220860763
:100090001200168E5F8F60AF51AE50AD4FAC4E1256
:1000A00008B48E128F13E528602EE4FFFE7DC87C15
:1000B00042AB51AA50A94FA84E1207FD5015050F8B
:1000C000E50F7002050E94C8E50E9400400A120078
:1000D000068005E4F50EF50FE54430E01DAC5FAD9C
:1000E00060E412087BA804A905AA06AB07AF51AECD
:1000F00050AD4FAC4E120562803DE54430E13FC348
:10010000E5609464E55F94005015050FE50F7002FB
:10011000050E940AE50E9400400A1200068005E4DC
:10012000F50EF50FAC5FAD60E412087BAB51AA5041
:10013000A94FA84E1205661208B48E128F138512AD
:1001400026851327AE12AF137C007D0512099C8E05
:10015000128F131216998F2F8E2E8D2D8C2C7F4A75
:100160007E0C7DAA7C40AB2FAA2EA92DA82C1207AD
:10017000FD601A40187F197E047D037C42AB2FAAD4
:100180002EA92DA82C1207FD5003E4F535E541708A
:1001900017E5427013E528700FE54364026009E536
:1001A00044640260030202DCE528700FE543640248
:1001B0006009E54464026003020256755C02D3E5FF
:1001C000139400E512648094804008E4FDAF13AE00
:1001D000128019C3E512648094805013C3E4951310
:1001E000F513E49512F5127D01AF13FE121B827F09
:1001F000CB7EA17D657C40AB2FAA2EA92DA82C1209
:1002000007FD50030202A67F777E3E7D117C42AB44
:100210002FAA2EA92DA82C1207FD6005400302026B
:10022000A67F4A7E0C7DAA7C40AB2FAA2EA92DA8C2
:100230002C1207FD600250030202ED7F197E047D3F
:10024000037C42AB2FAA2EA92DA82C1207FD400338
:100250000202ED0202D7E4F50EF50F755C01C3E56D
:1002600012648094805013C3E49513F513E495123F
:10027000F5127D01AF13FE121B827FA27E457D1E0B
:100280007C40AB2FAA2EA92DA82C1207FD40177F6A
:10029000487E617D5E7C42AB2FAA2EA92DA82C1230
:1002A00007FD6007400575350180427FDD7E247DB6
:1002B0003E7C40AB2FAA2EA92DA82C1207FD602D45
:1002C000402B7FC37EF57D297C42AB2FAA2EA92D22
:1002D000A82C1207FD5016E4F5358011E4F50EF553
:1002E0000F752BA4121859531AF7121966E54130ED
:1002F000E003435D01E54230E703435D02E5423040
:10030000E503435D04E55D6510607E855D10E55D98
:1003100024FE601914602C14602114604324FE60D4
:100320005C24067064E53D6441605E8056E53E6491
:100330002D6056753E2D121C21804EE518641E60FE
:1003400048802FE53D64416006753D41120052E54D
:100350003E641E6034753E1EE4F518121C5480295C
:10036000E53D64416006753D41120052E518641E8A
:10037000601775181EE4F53E121F56800CE53D64AB
:10038000416006753D41120052121BEE8E308F31D6
:100390007C007D071209358E308F318530398531EB
:1003A0003AE5356036752501E4F540AF36FED3EF0A
:1003B0009432748094804008753633E4F54C801391
:1003C000EF4E7002F54CE53675F00584E5F07003EC
:1003D000634CFF0536121EF0021EE1E4F536E525FA
:1003E00064017008F525121E22121E04121F348F9C
:1003F0002012154DAC76AD77E412087BE4FBFA7958
:10040000C87842120657C004C005C006C007AC70C9
:10041000AD71E412087BA804A905AA06AB07D007B2
:10042000D006D005D004120760E4FBFAF9783F1239
:1004300005668F648E638D628C6175290085202A24
:100440001208B4AD5C1209E0E573B5721CE534B571
:100450002A17E4B52913E546B5770EE545B57609C3
:10046000E51D6519700302052785393B853A3C85F2
:100470002A3485764585774685727385191D7F49AF
:10048000121E547F3A121E54AF27AE26121BB97F9C
:100490000D121E547F0A121E547F56121E547F3AAC
:1004A000121E54AF3AAE39121BB97F0D121E547F83
:1004B0000A121E547F6D121E547F57121E547F3A2B
:1004C000121E54AF71AE70121BB97F0D121E547FF5
:1004D0000A121E547F6D121E547F57121E547F3A0B
:1004E000121E54AF77AE76121BB97F0D121E547FC9
:1004F0000A121E547F44121E547F3A121E54AF2A11
:10050000AE29121BB97F20121E54AF727E00121B3F
:10051000B97F20121E54AF197E00121BB97F0D1235
:100520001E547F0A121E5430860830A005754701FC
:100530008003E4F547E5476004E528600AE51C45CB
:100540001B7004F51EF51FE5476004E5286006E50D
:100550001C451B6004E4FF80027F011211EA2202A5
:100560000920E86480F8E933E83360110460F0EDB5
:1005700033EC337009E8FCE9FDEAFEEBFF2204608E
:10058000DED3EB9FEA9EE99DE8C2E78CF0C2F795C7
:10059000F0400CE8CCF8E9CDF9EACEFAEBCFFB124B
:1005A00008EB85D0F05804700320D5B3E804700739
:1005B0005002B2D502092A92D5EC0460F7E4CCC00F
:1005C000E0C398F8603B94186008400DD0E0FB024F
:1005D0000902E4FBFAC9FC8028E830E406E4C9FB20
:1005E000E4CAFCE830E305E4C9CACBFCE854076080
:1005F00010F8C3E913F9EA13FAEB13FBEC13FCD878
:10060000F130F52FC3E49CFCEF9BFFEE9AFEED99D1
:10061000FDD0E0FBEF4E4D4C701222DB03020927A8
:10062000EC2CFCEF33FFEE33FEED33FDED30E7EB6A
:10063000020902EF2BFFEE3AFEED39FDD0E0FB5050
:10064000130BBB000302092AED13FDEE13FEEF139B
:10065000FFEC13FC020902EC4D6011E8497017ED44
:1006600033EC3304600DE4FCFFFEFD22E933E83394
:100670000470F80209201208EB58046009E4CC2445
:1006800081500628500902092A284003020927C080
:10069000E0EB4A7044B98006D0E0FB020916EF4E49
:1006A000701CBD8008EBFFEAFEE9FD80EBE98DF0F0
:1006B000A4FEE5F0020740E9CDF9EAFEEBFFEF8981
:1006C000F0A4FCE5F0CE89F0A42EFFE435F0CD894E
:1006D000F0A42DFEE435F08067EF4E7005BD80D7A5
:1006E00080C3EF8BF0A4ACF0EE8BF0A42CFCE435CF
:1006F000F0F8EF8AF0A42CE5F038FCE433CB8DF071
:10070000A42CFCE5F03BF8EE8AF0A42CFCE5F038D4
:10071000F8E433CF89F0A42CFCE5F038CF3400CED8
:1007200089F0A42FFFE5F03EFEE433C98DF0A42E3E
:10073000FEE5F039CD8AF0A42FFFE5F03EFEE43D62
:10074000FD33D0E0FB50070BBB000F02092AEC2C55
:10075000FCEF33FFEE33FEED33FD02090202092AFE
:10076000EC5D046005E8590470030209201208EBEF
:10077000580460F6EC4860F2EC7004FDFEFF22C8FD
:1007800060DB2481C85009C3986002500602092723
:100790009850CAF582E9294B4A7005AB82020916C6
:1007A00075F0007C1A7880C3EF9BEE9AED99400DAE
:1007B000C3EF9BFFEE9AFEED99FDE842F0DC23AC1F
:1007C000F0D0E0FFD0E0FED0E0FDAB8220E7101BD0
:1007D000EB60BAEC2CFCEF33FFEE33FEED33FD02A1
:1007E0000902E803F830E705C0F075F000EF2FFFCD
:1007F000EE33FEED33FD40B830E7C280AA74F8CC8A
:100800006480CCC86480C8F58204604FC3EB9FF558
:10081000F0EA9E42F0E99D42F0E89C45F0603C50D1
:100820001DE5825FFFE582D313CB5BCBF42B5582B2
:10083000FB50280ABA002409B9002008801DE5826F
:100840005BFBE582D313CF5FCFF4C3132F5582FF39
:1008500050090EBE00050DBD00010CC3EB9FF5F065
:10086000EA9E42F0E99D42F0E89C45F06007CC48E2
:1008700020E701B3EC2275F020800E75F0108005A2
:1008800075F0087D007E007F003392D530D50312CD
:1008900009D2EC334010EF33FFEE33FEED33FDECC5
:1008A00033FCD5F0ED22E5F0247EA2D513CC92E7FF
:1008B000CDCEFF22EDD2E7CD33EC3392D52481406B
:1008C00006E4FFFEFDFC22FCE4CFCECDCC24E050BC
:1008D0001174FF80EDC3CC13CCCD13CDCE13CECF8E
:1008E00013CF0470F030D5DE0209D2E9D2E7C93364
:1008F000E833F892D5EDD2E7CD33EC33FC5002B2B9
:10090000D522EC30E7100FBF000C0EBE00080DBD65
:1009100000040BEB6014A2D5EB13FCED92E7FD2273
:1009200074FFFCFDFEFF22E480F8A2D574FF13FCE7
:100930007D80E480EFEF8DF0A4A8F0CF8CF0A428A8
:10094000CE8DF0A42EFE22BC000BBE0029EF8DF050
:1009500084FFADF022E4CCF875F008EF2FFFEE3302
:10096000FEEC33FCEE9DEC984005FCEE9DFE0FD5B1
:10097000F0E9E4CEFD22EDF8F5F0EE8420D21CFE85
:10098000ADF075F008EF2FFFED33FD4007985006EE
:10099000D5F0F222C398FD0FD5F0EA22C2D5EC3093
:1009A000E709B2D5E4C39DFDE49CFCEE30E715B247
:1009B000D5E4C39FFFE49EFE120947C3E49DFDE416
:1009C0009CFC800312094730D507C3E49FFFE49ED7
:1009D000FE22C3E49FFFE49EFEE49DFDE49CFC2216
:1009E0008F65E4F566F567F568ED64026003020A59
:1009F000FBE5415420FB7A007006E54254A46003F5
:100A0000E4F540AF40EF64016005EF64027019C384
:100A1000E5159410E5149427400E751427751510EC
:100A2000E4F54C754002FF22AF657E00C3EF94648D
:100A3000748094805003756601D3EF940AEE64804D
:100A400094805015751901534CFB534CF7534CEFE0
:100A5000434C20434C40020BA0D3EF941EEE648025
:100A600094805018751902434C02534CF7534CEFC5
:100A7000434C20434C40756803020BF2D3EF943C87
:100A8000EE648094805018751903434C02434C0463
:100A9000534CEF434C20434C40756804020BF2C3A7
:100AA000EF9463EE648094805018751904434C02EF
:100AB000434C04434C08434C20434C4075680502AA
:100AC0000BF2751905434C02434C04434C08434C4C
:100AD00010434C20434C40AF40EF6004640370056A
:100AE000E4F514F515EB4A700CE54254A470067554
:100AF0004001020BF2E4F540020BF2C3E540940220
:100B000074809480400AED7007754003F54CFF2215
:100B1000E4F540752B151217FA851A67E56730E47E
:100B200003121EFFD3E520940074809480504E750C
:100B3000210B7522B8534C20E4F519752B181218A7
:100B400059E51A20E205E56730E415752B15856730
:100B50001A12190F752B21121859431A20121966EF
:100B6000752B181217FAE51A54096003121F0B753A
:100B70001B00751C017568017566018075AF657E87
:100B800000D3EF940A74809480501A751901534C65
:100B9000FB534CF7534CEF434C20434C40756601DC
:100BA000756802804DD3EF941EEE648094805011DE
:100BB000751902434C02434C04534CF7534CEF80DD
:100BC0002BD3EF943CEE648094805011751903434D
:100BD0004C02434C04434C08534CEF800F751904EE
:100BE000434C02434C04434C08434C10434C2043B9
:100BF0004C40E5666071E4F566050BE50B70020597
:100C00000AE568650C600885680CE4F50AF50BAF29
:100C1000687E00EF64017015D3E50B9402E50A9439
:100C2000004044E4F50AF50B634C20803AD3E50B11
:100C30009405E50A9400402FE4F50AF50BEF6402F1
:100C40004E7005634C02801FEF64034E7005634CC9
:100C5000048014EF64044E7005634C088009EF644F
:100C6000054E7003634C107F0122752BFFE4F51ACB
:100C700012190F752B231217FA431A0112190F7F3D
:100C8000107E27121EBA752B24751A2012190F75A3
:100C90001A4012190F751A8012190F752BFFE4F5FF
:100CA0001A12190F752B251217FA431A8012190FF1
:100CB000752B151217FA12190F121F3D752B0812FA
:100CC00017FA751ADC12190F752B161217FA431A38
:100CD0001012190F752B1B1217FA531A3F431A8063
:100CE00012190F752B031217FA531AF0431A071231
:100CF000190F752B0D1217FA531A3F431A80121948
:100D00000F752B321217FA531AFC431A0112190FDE
:100D1000752B551217FA431A8012190F752B56129C
:100D200017FA431A01431A02431A0412190F752BBA
:100D3000181217FA531AE312190F752B19E4F51A42
:100D4000431A01431A08431A20431A4012190F7517
:100D50002B351217FA431A01431A0812190F752B73
:100D6000341217FA431A04431A10431A2012190FA7
:100D7000752B40E4F51A431A80431A6412190FE4E4
:100D8000F52B1217FA531A7F531A8F431A101219A0
:100D90000F752B011217FA531A3F12190F752B50AA
:100DA0001217FA431A01431A02431A0412190F7553
:100DB0002B511217FA431A7012190F752B231217A1
:100DC000FAE4F51A431A01431A02431A04431A407B
:100DD00012190F752B221217FA531A3F431A401299
:100DE000190F752B2D1217FA431A08431A101219EE
:100DF0000F752B2E1217FA531A80431A3C12190F33
:100E0000752B2F1217FA531A80431A3C12190F121E
:100E10001F46752B401217FA431A02431A04431A4D
:100E20008012190F752B461217FA751A9112190FA5
:100E3000752B471217FA531AE0431A0512190F754A
:100E40002B451217FA531A80431A2D12190F752BBE
:100E50004F1217FA531A80431A2D02190F752BFFE0
:100E6000E4F51A121966752B23121859431A011248
:100E700019667F107E27121EBA752B24751A201250
:100E80001966751A40121966751A80121966752B43
:100E9000FFE4F51A121966752B25121859431A80AA
:100EA000121966121F22752B08121859751ADC12B6
:100EB0001966752B16121859431A10121966752BDC
:100EC00003121859531AF0431A07121966E4F52B46
:100ED000121859531A7F531A8F431A101219667534
:100EE0002B0D121859531A3F431A80121966752B8D
:100EF0004B121859531A3F431A40121966752B5555
:100F0000121859431A80121966752B561218594334
:100F10001A01431A02431A04121966752B18121883
:100F200059531AFB121966752B19121859531AF8CE
:100F3000431A01121966752B35121859431A0143C9
:100F40001A08121966752B34121859431A04431AD9
:100F500010431A20121966752B40E4F51A431A80C3
:100F6000431A64121966752B23121859E4F51A43B3
:100F70001A01431A02431A04431A40121966752BC8
:100F800050121859431A01431A02431A04121966DF
:100F9000752B51121859431A70121966752B2212AB
:100FA0001859531A3F431A40121966752B2D1218FF
:100FB00059431A08431A10121966752B2E12185924
:100FC000531A80431A3C121966752B2F1218595365
:100FD0001A80431A3C121966121F2B752B401218E7
:100FE00059431A02431A04431A80121966752B4694
:100FF000121859751A91121966752B471218595300
:101000001AE0431A05121966752B45121859531A1E
:1010100080431A41121966752B4F121859531A80C2
:10102000431A4102196690902074A5F0A3E0900045
:10103000FFF0E054F0F0E04402F0E0909021F090F6
:101040009020745AF074A5F0A37402F0909020746C
:101050005AF075A67C75A67C75A2C3439D01D2E9A2
:10106000D2EFD2EF7F407E42121EBA7F407E421204
:101070001EBA1213CF121DA1752B231217FA431A91
:101080000112190F7F107E27121EBA752B24751AB4
:101090002012190F751A4012190F751A8012190FA4
:1010A000752BD9751A2012190F751A4012190F7560
:1010B0001A8012190F752B24751A20121966751AC9
:1010C00040121966751A80121966752BD9751A2087
:1010D000121966751A40121966751A80121966126D
:1010E0000C6A120E5D121D7C7F31121E547F31126C
:1010F0001E547F31121E54758420E4F52875212773
:1011000075221075855A1218B81215F7D3E5249474
:1011100064E523940040ECE4F523F52430A10302B8
:1011200011D5121795AB51AA50A94FA84EAF55AE85
:1011300054AD53AC52120562E4FBFA79487843127D
:1011400007FD5017E4FFFE7D487C42AB51AA50A931
:101150004FA84E1207FD5003754D01AB55AA54A977
:1011600053A852AF51AE50AD4FAC4E120562E4FBE6
:10117000FA794878431207FD5019E4FFFE7D167C8A
:1011800043AB51AA50A94FA84E1207FD600540037A
:10119000E4F54D855155855054854F53854E52E5A4
:1011A0004D64016003752801752801E5356004C2AE
:1011B000948002D294E55A64016029755A01121F85
:1011C00022752B4B121859531A3F431A40121966B5
:1011D000121F2B800FE4F54DF551F550F54FF54EEC
:1011E000C294F528120056021103EF60030212F6B2
:1011F000C3E51F9522E51E952150030212FBE4F57D
:101200004CF540F547F51EF51FF536752BA4121861
:1012100059531AF7121966752B231217FA531AFE2F
:1012200012190F752B23121859531AFE121966C280
:1012300097C292C291C28053E17F438C20438C407D
:10124000909101E054DFF0E054BFF0C295C2965394
:101250008CFEE04401F0538B7F909100E04480F0DD
:10126000538BBFE04440F0538BDFE04420F053A2A7
:101270007F75855AE528700630860320A00CE51C92
:10128000451B7006E55B6402701B90902074A5F00E
:101290009090277418F0909020745AF075875075CC
:1012A00087017587A0E4F51BF51C7F64FE121EBA4A
:1012B000752B23121859431A01121966752B231224
:1012C00017FA431A0112190FD2807F107E27121EBF
:1012D000BA43A280439D01538CDF538CBF90910190
:1012E000E054DFF0E054BFF0E4F54CF51EF51F7557
:1012F000855A43E18022E4F508F5092275841078C7
:10130000FFE4F6D8FD9000007F007E01E4F0A3DF4B
:10131000FCDEFA75817F90908074A5F09080207437
:101320000093909082F07430909083F09090F0E071
:101330004480F0758AA0908027740093F58A90808D
:1013400026740093F589909080745AF002138A02F3
:101350001026E493A3F8E493A34003F68001F20877
:10136000DFF48029E493A3F85407240CC8C333C4E2
:10137000540F4420C8834004F456800146F6DFE44D
:10138000800B0102040810204080901ED0E47E01F2
:101390009360BCA3FF543F30E509541FFEE493A3C0
:1013A00060010ECF54C025E060A840B8E493A3FAD2
:1013B000E493A3F8E493A3C8C582C8CAC583CAF05E
:1013C000A3C8C582C8CAC583CADFE9DEE780BE906C
:1013D0009100E04440F0438E40C29E909184E054DE
:1013E000BFF0909182E04440F0909180E04440F062
:1013F000909102E04401F0439101C298909185E000
:101400004401F0909182E04401F0909180E0440129
:10141000F0909101E04408F0438F08C29B909184C2
:10142000E04408F0909182E04408F0909180E0441C
:1014300008F0D2E8909102E04402F0439102C29990
:10144000909185E04402F0909182E04402F0909106
:1014500080E04402F0438C80438C04438C029091E2
:1014600001E0547FF0E054FBF0E054FDF0438B01C9
:10147000438B02438B04438B08909100E054FEF0B1
:10148000E054FDF0E054FBF0E054F7F0438C10A37F
:10149000E054EFF0C294D280C281C282C28322C3E0
:1014A000E5379400500302154CE4F537F538538CBA
:1014B0007F909101E0547FF0538CFBE0547FF05318
:1014C0008CFDE0547FF0054BE54B940574809480CF
:1014D0004003E4F54BE54B14602714603A14605167
:1014E00014605A24047065E54C30E205438C02D246
:1014F00091E54C30E605438C04D292438C80C29730
:1015000022E54C30E505438C80D297E54C30E4373A
:10151000438C02D2918030E54C30E105438C80D27F
:1015200097E54C30E305438C04D292438C02C29180
:1015300022E54C30E516438C80D297800AE54C308A
:10154000E50A438C80D297438C04C29222E4F57062
:10155000F571752B86121859757000851A71752BE7
:1015600087121859E51AFEEE4270AC70AD71E412A4
:10157000087B7B9F7A1C79A378431206571208B424
:101580008E708F71E4F576F577752B881218597582
:101590006E00851A6F752B89121859757600851A99
:1015A00077752B8A121859E51AFEEE4276AC6EADAD
:1015B0006FE412087B7B4C7A1A79A3783D120657A8
:1015C000C004C005C006C007AC76AD77E412087B46
:1015D0007B327A7779A27841120657D003D002D0B5
:1015E00001D0001205661208B48E768F77752B94A1
:1015F000121859851A7222E55B64027026121F0BBD
:10160000752B21121859431A20121966752BA41232
:101610001859531AF7121966C297C292C291E4F58B
:101620005B8037E55B64017031F55BF540F536E5CD
:101630003F7025753F01F532F533F548F51EF51F6E
:10164000752B201217FA431A0112190F752B20124D
:101650001859431A011219660548D3E53394DCE59D
:10166000329405502AC3E54894057480948040283C
:10167000E55A64026015755A02121F22752B4B122F
:101680001859531A3F121966121F2BE4F54822E429
:10169000F53FF532F533F54822E4F565F5669091AE
:1016A00001E054DFF0E054BFF0538CBF538CDF7582
:1016B000EFEB43E18053E20F43E22075E33B53E15C
:1016C000E043E10B7FE87E03121EBA43E14020C0F5
:1016D0000575855A80F8AFE5EFADE4F565EDF56683
:1016E000C2C0AC65E412087BE4FBFA794C78421284
:1016F0000657C004C005C006C007C3E5599566FD7E
:10170000E5589565FCE412087BA804A905AA06AB78
:1017100007D007D006D005D004020760C0E0C0F0B3
:10172000C083C082C0D075D000C000C001C002C05C
:1017300003C004C005C006C00730A83E0524E52448
:1017400070020523051FE51F7002051E0538E538E8
:10175000700205370515E51570020514057AE57A5E
:10176000700205790578121B4BE53F60080533E5EB
:10177000337002053212149FC2A8D007D006D005DC
:10178000D004D003D002D001D000D0D0D082D083FA
:10179000D0F0D0E032909101E054DFF0E054BFF09F
:1017A000538CBF538CDF75EFEB43E18053E20F4363
:1017B000E28075E33B75EFEB53E1E043E10A7FE83C
:1017C0007E03121EBA43E14020C00575855A80F899
:1017D000AFE5EFADE4F556EDF557C2C0AC56E412F7
:1017E000087B7BAE7A477981783F1206578F518EFE
:1017F000508D4F8C4EAE56AF5722E4F569121D083E
:101800007F781219BD121AD7EF600FC3E5699432C1
:10181000748094805004056980E3AF2B1219BD12C7
:101820001AD7EF600FC3E569943274809480500436
:10183000056980C9121D087F791219BD121AD7EFE8
:10184000600FC3E569943274809480500405698008
:10185000AC121A538F1A021E5AE4F569121CDF7F6C
:1018600078121A08121B11EF600FC3E56994027415
:101870008094805004056980E3AF2B121A08121B74
:1018800011EF600FC3E569940274809480500405E1
:101890006980C9121CDF7F79121A08121B11EF60D0
:1018A0000FC3E5699402748094805004056980AC8C
:1018B000121A958F1A021E72909101E054DFF0E027
:1018C00054BFF0538CBF538CDF75EFEB43E1805373
:1018D000E20F43E22075E33B53E1E043E1117FE88F
:1018E0007E03121EBA43E14020C00575855A80F878
:1018F000AFE5EFADE4F558EDF559AE587802C333D6
:10190000CE33CED8F9F5598E58C2C0E4FEFF22E49A
:10191000F569121D087F781219BD121AD7EF600FF2
:10192000C3E5699432748094805004056980E3AF04
:101930002B1219BD121AD7EF600FC3E569946474B6
:101940008094805004056980C9AF1A1219BD121A1B
:10195000D7EF600FC3E569949674809480500405B6
:101960006980AF021E5AE4F569121CDF7F78121AF3
:1019700008121B11EF600FC3E56994027480948014
:101980005004056980E3AF2B121A08121B11EF6097
:101990000FC3E5699402748094805004056980C97E
:1019A000AF1A121A08121B11EF600FC3E5699402F7
:1019B000748094805004056980AF021E728F6A4360
:1019C0008B20909100E054DFF0C284E4F56BC3E516
:1019D0006B940874809480502EE56A30E704D285B9
:1019E0008002C285E56A25E0F56A7F037E00121E4B
:1019F000BAD2847F037E00121EBAC2847F037E00A7
:101A0000121EBA056B80C7228F6A438C0190910128
:101A1000E054FEF0C287E4F56BC3E56B9408748074
:101A20009480502EE56A30E704D2908002C290E59F
:101A30006A25E0F56A7F037E00121EBAD2877F0313
:101A40007E00121EBAC2877F037E00121EBA056B8B
:101A500080C722E4F56B538BDF909100E04420F0C7
:101A6000E4F56AC3E56A9408748094805021C284C6
:101A70007F037E00121EBAD284E56B25E0F56B3041
:101A80008502056B7F037E00121EBA056A80D412A0
:101A90001DC2AF6B22E4F56B538CFE909101E044C4
:101AA00001F0E4F56AC3E56A9408748094805021DB
:101AB000C2877F037E00121EBAD287E56B25E0F550
:101AC0006B309002056B7F037E00121EBA056A80A0
:101AD000D4121DE3AF6B22E4F56AD285538BDF90FD
:101AE0009100E04420F07F037E00121EBAD2847F72
:101AF000037E00121EBA308513056AD3E56A94FA94
:101B00007480948040F0121E5A7F0122C2847F00AC
:101B100022E4F56AD290538CFE909101E04401F0EA
:101B20007F037E00121EBAD2877F037E00121EBA88
:101B3000309013056AD3E56A94FA7480948040F07B
:101B4000121E727F0122C2877F0022209315054A50
:101B5000E54A70020549D39410E54994274022755F
:101B60005B0222C3E54A9405E5499400400ED3E5A3
:101B70004A94F4E54994015003755B01E4F549F595
:101B80004A228E658F668D67752BA4121859531AD9
:101B9000FC431A08E5676005431A048003531AFBE7
:101BA000121966752BA5E566F51A121966752BA62E
:101BB000E565540FF51A021966AB07AA067C277D66
:101BC00010120947EF2430FF121E547C037DE812E7
:101BD0001E427D64121E407D0A121E40AE02AF03FB
:101BE0007C007D0A120947ED2430FF021E54E4F503
:101BF00065F566752B30121859531AE0431A021214
:101C00001966752B31121859756500851A66752B82
:101C100032121859E51A540FFEEE4265AE65AF66F2
:101C200022121F3D752B40E4F51A431A80431A5ABD
:101C300012190F121F46752B4F1217FA531A8043B1
:101C40001A2D12190F752B2E1217FA531AF0431A68
:101C50000102190F121F3D752B40E4F51A431A803B
:101C6000431A3C12190F121F46752B4F1217FA53C5
:101C70001A80431A1E12190F752B2E1217FA531AB7
:101C8000F0431A0102190FE4F565752B1D1218595E
:101C9000E51A5431F565752B2B121859851A6CE528
:101CA0001A30E403120E5D752B2C121859851A6D2B
:101CB000AF6522E4F565752B1D1217FAE51A54F786
:101CC000F565752B2B1217FA851A7CE51A30E4039B
:101CD000120C6A752B2C1217FA851A7DAF652243F8
:101CE0008B80909100E0547FF0438C01A3E054FE80
:101CF000F0D290D2877F037E00121EBAC2907F037B
:101D00007E00121EBAC28722438B10909100E054CD
:101D1000EFF0438B20E054DFF0D285D2847F037E46
:101D200000121EBAC2857F037E00121EBAC2842230
:101D3000E4F565752B19121859531A30E51A543009
:101D4000FF7E0064207003436501EF64104E700352
:101D5000436502AF6522E4F565752B191217FA5336
:101D60001AC0E51A54C0FF7E006480700343650109
:101D7000EF64404E7003436502AF6522D2829091BA
:101D800031E054F0F0E04402F0438B0475D5017566
:101D9000D7027F227E00121F17439F01D2EDD2EFA0
:101DA00022909101E054DFF0E054BFF0538CBF5318
:101DB0008CDF75EFEB43E18053E20F43E22075E3E4
:101DC0003B22C284438B20909100E054DFF0D28507
:101DD0007F037E00121EBAD2847F037E00121EBAD9
:101DE000C28422C287438C01909101E054FEF0D25C
:101DF000907F037E00121EBAD2877F037E00121EE0
:101E0000BAC28722752B28121859531AFB531AF796
:101E1000121966752B2E121859531AF0431A020222
:101E20001966752B281217FA531AFB531AF7121951
:101E30000F752B2E1217FA531AF0431A0202190FBC
:101E40007C00AF03AE021209477C007D0A120947ED
:101E5000ED2430FF30B9FD8FD922438B20909100C3
:101E6000E054DFF0C285D2847F037E00121EBAD216
:101E70008522438C01909101E054FEF0C290D287FC
:101E80007F037E00121EBAD29022752B251218599C
:101E9000E51A5480700B0575E57570020574120E15
:101EA0005D22752B251217FAE51A5480700B057FF9
:101EB000E57F7002057E120C6A22E4FDFCC3ED9FF3
:101EC000EC9E5008000DBD00010C80F175855A2272
:101ED00001480002490000014C0001430001440098
:101EE00000752B28121859431A04431A0802196660
:101EF000752B281217FA431A04431A0802190F7592
:101F00002BA4121859431A01021966752B211217B6
:101F1000FA431A2002190FAD07AC06ECFF8DD38FE0
:101F2000D422752B24751A81021966752BFFE4F5EE
:101F30001A021966752B99121859AF1A22752B249B
:101F4000751A8102190F752BFFE4F51A02190F7526
:071F50007B017598003222AD
:00000001FF
