:100000000211D3021E14752BA412171E431A0202EA
:10001000182B320215E1E4F565F566752B301216E2
:10002000BF531AE0431A031217D4752B311216BFAF
:10003000756500851A66752B321216BFE51AFEEE3D
:100040004265AE65AF667C007D0512091E8E658F28
:10005000662222020012E4F55CF55DF55EF55FF5BF
:1000600060F564F563F562F561F51BF51C752127F4
:10007000752210121D4F121D67121BF58F43121CA3
:100080001B8F44121B4C8F41121B788F4220860716
:100090001200168E5F8F60AF51AE50AD4FAC4E1256
:1000A000089D8E128F13E528602EE4FFFE7DC87C2C
:1000B00042AB51AA50A94FA84E1207E65015050FA2
:1000C000E50F7002050E94C8E50E9400400A120078
:1000D000068005E4F50EF50FE54430E01DAC5FAD9C
:1000E00060E4120864A804A905AA06AB07AF51AEE4
:1000F00050AD4FAC4E12054B803DE54430E13FC35F
:10010000E5609464E55F94005015050FE50F7002FB
:10011000050E940AE50E9400400A1200068005E4DC
:10012000F50EF50FAC5FAD60E4120864AB51AA5058
:10013000A94FA84E12054F12089D8E128F138512DB
:1001400026851327AE12AF137C007D051209858E1C
:10015000128F1312155E8F2F8E2E8D2D8C2C7F4AB1
:100160007E0C7DAA7C40AB2FAA2EA92DA82C1207AD
:10017000E6601A40187F197E047D037C42AB2FAAEB
:100180002EA92DA82C1207E65003E4F535E54170A1
:1001900017E5427013E528700FE54364026009E536
:1001A00044640260030202DCE528700FE543640248
:1001B0006009E54464026003020256755C02D3E5FF
:1001C000139400E512648094804008E4FDAF13AE00
:1001D000128019C3E512648094805013C3E4951310
:1001E000F513E49512F5127D01AF13FE121A477F45
:1001F000CB7EA17D657C40AB2FAA2EA92DA82C1209
:1002000007E650030202A67F777E3E7D117C42AB5B
:100210002FAA2EA92DA82C1207E660054003020282
:10022000A67F4A7E0C7DAA7C40AB2FAA2EA92DA8C2
:100230002C1207E6600250030202ED7F197E047D56
:10024000037C42AB2FAA2EA92DA82C1207E640034F
:100250000202ED0202D7E4F50EF50F755C01C3E56D
:1002600012648094805013C3E49513F513E495123F
:10027000F5127D01AF13FE121A477FA27E457D1E47
:100280007C40AB2FAA2EA92DA82C1207E640177F81
:10029000487E617D5E7C42AB2FAA2EA92DA82C1230
:1002A00007E66007400575350180427FDD7E247DCD
:1002B0003E7C40AB2FAA2EA92DA82C1207E6602D5C
:1002C000402B7FC37EF57D297C42AB2FAA2EA92D22
:1002D000A82C1207E65016E4F5358011E4F50EF56A
:1002E0000F752BA412171E531AF712182BE5413065
:1002F000E003435D01E54230E703435D02E5423040
:10030000E503435D04E55D6510607E855D10E55D98
:1003100024FE601914602C14602114604324FE60D4
:100320005C24067064E53D6441605E8056E53E6491
:100330002D6056753E2D121AE6804EE518641E603B
:1003400048802FE53D64416006753D41120052E54D
:100350003E641E6034753E1EE4F518121B19802998
:10036000E53D64416006753D41120052E518641E8A
:10037000601775181EE4F53E121E1B800CE53D64E7
:10038000416006753D41120052121AB38E308F3112
:100390007C007D0712091E8E308F31853039853102
:1003A0003AE5356036752501E4F540AF36FED3EF0A
:1003B0009432748094804008753633E4F54C801391
:1003C000EF4E7002F54CE53675F00584E5F07003EC
:1003D000634CFF0536121DB5021DA6E4F536E52572
:1003E00064017008F525121CE7121CC9121DF98F53
:1003F00020121424AC76AD77E4120864E4FBFA7999
:10040000C87842120640C004C005C006C007AC70E0
:10041000AD71E4120864A804A905AA06AB07D007C9
:10042000D006D005D004120749E4FBFAF9783F1250
:10043000054F8F648E638D628C6175290085202A3B
:1004400012089DAD5C1209C9E573B5721CE534B59F
:100450002A17E4B52913E546B5770EE545B57609C3
:10046000E51D6519700302052785393B853A3C85F2
:100470002A3485764585774685727385191D7F49AF
:10048000121D197F3A121D19AF27AE26121A7E7F50
:100490000D121D197F0A121D197F56121D197F3A60
:1004A000121D19AF3AAE39121A7E7F0D121D197F37
:1004B0000A121D197F6D121D197F57121D197F3ADF
:1004C000121D19AF71AE70121A7E7F0D121D197FA9
:1004D0000A121D197F6D121D197F57121D197F3ABF
:1004E000121D19AF77AE76121A7E7F0D121D197F7D
:1004F0000A121D197F44121D197F3A121D19AF2AC5
:10050000AE29121A7E7F20121D19AF727E00121AB8
:100510007E7F20121D19AF197E00121A7E7F0D12E8
:100520001D197F0A121D1930860830A00575470174
:100530008003E4F547E5476004E528600AE51C45CB
:100540001B7004F51EF51F22020909E86480F8E912
:1005500033E83360110460F0ED33EC337009E8FCEC
:10056000E9FDEAFEEBFF220460DED3EB9FEA9EE9A1
:100570009DE8C2E78CF0C2F795F0400CE8CCF8E9B2
:10058000CDF9EACEFAEBCFFB1208D485D0F05804AF
:10059000700320D5B3E80470075002B2D5020913E6
:1005A00092D5EC0460F7E4CCC0E0C398F8603B94CB
:1005B000186008400DD0E0FB0208EBE4FBFAC9FC30
:1005C0008028E830E406E4C9FBE4CAFCE830E3052F
:1005D000E4C9CACBFCE854076010F8C3E913F9EA90
:1005E00013FAEB13FBEC13FCD8F130F52FC3E49CAA
:1005F000FCEF9BFFEE9AFEED99FDD0E0FBEF4E4D38
:100600004C701222DB03020910EC2CFCEF33FFEEDE
:1006100033FEED33FDED30E7EB0208EBEF2BFFEEA1
:100620003AFEED39FDD0E0FB50130BBB000302098D
:1006300013ED13FDEE13FEEF13FFEC13FC0208EBBA
:10064000EC4D6011E8497017ED33EC3304600DE4B4
:10065000FCFFFEFD22E933E8330470F802090912B9
:1006600008D458046009E4CC2481500628500902BB
:100670000913284003020910C0E0EB4A7044B98016
:1006800006D0E0FB0208FFEF4E701CBD8008EBFFB8
:10069000EAFEE9FD80EBE98DF0A4FEE5F002072912
:1006A000E9CDF9EAFEEBFFEF89F0A4FCE5F0CE8995
:1006B000F0A42EFFE435F0CD89F0A42DFEE435F052
:1006C0008067EF4E7005BD80D780C3EF8BF0A4AC80
:1006D000F0EE8BF0A42CFCE435F0F8EF8AF0A42CBB
:1006E000E5F038FCE433CB8DF0A42CFCE5F03BF8CE
:1006F000EE8AF0A42CFCE5F038F8E433CF89F0A4BE
:100700002CFCE5F038CF3400CE89F0A42FFFE5F0C3
:100710003EFEE433C98DF0A42EFEE5F039CD8AF01B
:10072000A42FFFE5F03EFEE43DFD33D0E0FB500793
:100730000BBB000F020913EC2CFCEF33FFEE33FE72
:10074000ED33FD0208EB020913EC5D046005E85986
:100750000470030209091208D4580460F6EC4860DA
:10076000F2EC7004FDFEFF22C860DB2481C8500952
:10077000C398600250060209109850CAF582E92910
:100780004B4A7005AB820208FF75F0007C1A788036
:10079000C3EF9BEE9AED99400DC3EF9BFFEE9AFEDF
:1007A000ED99FDE842F0DC23ACF0D0E0FFD0E0FEB4
:1007B000D0E0FDAB8220E7101BEB60BAEC2CFCEF25
:1007C00033FFEE33FEED33FD0208EBE803F830E7CC
:1007D00005C0F075F000EF2FFFEE33FEED33FD4066
:1007E000B830E7C280AA74F8CC6480CCC86480C8F2
:1007F000F58204604FC3EB9FF5F0EA9E42F0E99D5D
:1008000042F0E89C45F0603C501DE5825FFFE582C8
:10081000D313CB5BCBF42B5582FB50280ABA0024B0
:1008200009B9002008801DE5825BFBE582D313CF68
:100830005FCFF4C3132F5582FF50090EBE00050D84
:10084000BD00010CC3EB9FF5F0EA9E42F0E99D422A
:10085000F0E89C45F06007CC4820E701B3EC227536
:10086000F020800E75F010800575F0087D007E0088
:100870007F003392D530D5031209BBEC334010EF23
:1008800033FFEE33FEED33FDEC33FCD5F0ED22E526
:10089000F0247EA2D513CC92E7CDCEFF22EDD2E795
:1008A000CD33EC3392D524814006E4FFFEFDFC22DB
:1008B000FCE4CFCECDCC24E0501174FF80EDC3CC4E
:1008C00013CCCD13CDCE13CECF13CF0470F030D5D3
:1008D000DE0209BBE9D2E7C933E833F892D5EDD29D
:1008E000E7CD33EC33FC5002B2D522EC30E7100FE9
:1008F000BF000C0EBE00080DBD00040BEB6014A27F
:10090000D5EB13FCED92E7FD2274FFFCFDFEFF2208
:10091000E480F8A2D574FF13FC7D80E480EFEF8DB6
:10092000F0A4A8F0CF8CF0A428CE8DF0A42EFE2247
:10093000BC000BBE0029EF8DF084FFADF022E4CCAB
:10094000F875F008EF2FFFEE33FEEC33FCEE9DEC74
:10095000984005FCEE9DFE0FD5F0E9E4CEFD22EDBA
:10096000F8F5F0EE8420D21CFEADF075F008EF2F04
:10097000FFED33FD4007985006D5F0F222C398FDF5
:100980000FD5F0EA22C2D5EC30E709B2D5E4C39D19
:10099000FDE49CFCEE30E715B2D5E4C39FFFE49E76
:1009A000FE120930C3E49DFDE49CFC800312093073
:1009B00030D507C3E49FFFE49EFE22C3E49FFFE41B
:1009C0009EFEE49DFDE49CFC228F65E4F566F567E0
:1009D000F568ED64026003020AE4E5415420FB7A05
:1009E000007006E54254A46003E4F540AF40EF64B4
:1009F000016005EF64027019C3E5159410E51494C5
:100A000027400E751427751510E4F54C754002FF4C
:100A100022AF657E00C3EF946474809480500375A8
:100A20006601D3EF940AEE64809480501575190125
:100A3000534CFB534CF7534CEF434C20434C400278
:100A40000B89D3EF941EEE648094805018751902C0
:100A5000434C02534CF7534CEF434C20434C4075EE
:100A60006803020BDBD3EF943CEE64809480501853
:100A7000751903434C02434C04534CEF434C204341
:100A80004C40756804020BDBC3EF9463EE64809402
:100A9000805018751904434C02434C04434C0843DE
:100AA0004C20434C40756805020BDB751905434C1F
:100AB00002434C04434C08434C10434C20434C40ED
:100AC000AF40EF600464037005E4F514F515EB4ADC
:100AD000700CE54254A47006754001020BDBE4F58E
:100AE00040020BDBC3E540940274809480400AED21
:100AF0007007754003F54CFF22E4F540752B151285
:100B000016BF851A67E56730E403121DC4D3E520DC
:100B1000940074809480504E75210B7522B8534C0C
:100B200020E4F519752B1812171EE51A20E205E5C9
:100B30006730E415752B1585671A1217D4752B21AC
:100B400012171E431A2012182B752B181216BFE508
:100B50001A54096003121DD0751B00751C017568BD
:100B6000017566018075AF657E00D3EF940A7480CD
:100B70009480501A751901534CFB534CF7534CEFAA
:100B8000434C20434C40756601756802804DD3EF9D
:100B9000941EEE648094805011751902434C0243F8
:100BA0004C04534CF7534CEF802BD3EF943CEE6442
:100BB0008094805011751903434C02434C04434CFC
:100BC00008534CEF800F751904434C02434C044307
:100BD0004C08434C10434C20434C40E5666071E4A4
:100BE000F566050BE50B7002050AE568650C600803
:100BF00085680CE4F50AF50BAF687E00EF640170C0
:100C000015D3E50B9402E50A94004044E4F50AF597
:100C10000B634C20803AD3E50B9405E50A94004021
:100C20002FE4F50AF50BEF64024E7005634C028069
:100C30001FEF64034E7005634C048014EF64044E90
:100C40007005634C088009EF64054E7003634C1017
:100C50007F0122752BFFE4F51A1217D4752B23128E
:100C600016BF431A011217D47F107E27121D7F75FD
:100C70002B24751A201217D4751A401217D4751A1E
:100C8000801217D4752BFFE4F51A1217D4752B2593
:100C90001216BF431A801217D4752B151216BF12E5
:100CA00017D4121E02752B081216BF751ADC121704
:100CB000D4752B161216BF431A101217D4752B1B9E
:100CC0001216BF531A3F431A801217D4752B031202
:100CD00016BF531AF0431A071217D4752B0D1216AC
:100CE000BF531A3F431A801217D4752B321216BF06
:100CF000531AFC431A011217D4752B551216BF4311
:100D00001A801217D4752B561216BF431A01431AB4
:100D100002431A041217D4752B181216BF531AE384
:100D20001217D4752B19E4F51A431A01431A084314
:100D30001A20431A401217D4752B351216BF431AC6
:100D400001431A081217D4752B341216BF431A0424
:100D5000431A10431A201217D4752B40E4F51A4396
:100D60001A80431A641217D4E4F52B1216BF531AD3
:100D70007F531A8F431A101217D4752B011216BF06
:100D8000531A3F1217D4752B501216BF431A014342
:100D90001A02431A041217D4752B511216BF431AA4
:100DA000701217D4752B231216BFE4F51A431A01DB
:100DB000431A02431A04431A401217D4752B221205
:100DC00016BF531A3F431A401217D4752B2D121613
:100DD000BF431A08431A101217D4752B2E1216BFD0
:100DE000531A80431A3C1217D4752B2F1216BF5377
:100DF0001A80431A3C1217D4121E0B752B40121680
:100E0000BF431A02431A04431A801217D4752B46A3
:100E10001216BF751A911217D4752B471216BF53AD
:100E20001AE0431A051217D4752B451216BF531A30
:100E300080431A2D1217D4752B4F1216BF531A80E8
:100E4000431A2D0217D4752BFFE4F51A12182B75CF
:100E50002B2312171E431A0112182B7F107E271204
:100E60001D7F752B24751A2012182B751A40121825
:100E70002B751A8012182B752BFFE4F51A12182BFC
:100E8000752B2512171E431A8012182B121DE77599
:100E90002B0812171E751ADC12182B752B16121739
:100EA0001E431A1012182B752B0312171E531AF01B
:100EB000431A0712182BE4F52B12171E531A7F53EF
:100EC0001A8F431A1012182B752B0D12171E531A56
:100ED0003F431A8012182B752B4B12171E531A3FC3
:100EE000431A4012182B752B5512171E431A8012E5
:100EF000182B752B5612171E431A01431A02431A58
:100F00000412182B752B1812171E531AFB12182BCC
:100F1000752B1912171E531AF8431A0112182B7544
:100F20002B3512171E431A01431A0812182B752B62
:100F30003412171E431A04431A10431A2012182B96
:100F4000752B40E4F51A431A80431A6412182B7566
:100F50002B2312171EE4F51A431A01431A02431AEF
:100F600004431A4012182B752B5012171E431A01F6
:100F7000431A02431A0412182B752B5112171E43E1
:100F80001A7012182B752B2212171E531A3F431A70
:100F90004012182B752B2D12171E431A08431A10D6
:100FA00012182B752B2E12171E531A80431A3C123F
:100FB000182B752B2F12171E531A80431A3C121828
:100FC0002B121DF0752B4012171E431A02431A04F0
:100FD000431A8012182B752B4612171E751A911280
:100FE000182B752B4712171E531AE0431A051218B7
:100FF0002B752B4512171E531A80431A4112182BBA
:10100000752B4F12171E531A80431A4102182B904A
:10101000902074A5F0A3E09000FFF0E054F0F0E021
:101020004402F0E0909021F0909020745AF074A562
:10103000F0A37402F0909020745AF075A67C75A607
:101040007C75A2C3439D01D2E9D2EFD2EF7F407EEF
:1010500042121D7F7F407E42121D7F1212A6121C7B
:1010600066752B231216BF431A011217D47F107E08
:1010700027121D7F752B24751A201217D4751A405C
:101080001217D4751A801217D4752BD9751A20121D
:1010900017D4751A401217D4751A801217D4752BED
:1010A00024751A2012182B751A4012182B751A80E5
:1010B00012182B752BD9751A2012182B751A40127D
:1010C000182B751A8012182B120C53120E46121C74
:1010D000417F31121D197F31121D197F31121D19E7
:1010E000758420E4F52875212775221075855A121C
:1010F000177D1214CED3E5249464E523940040ECCC
:10110000E4F523F52430A1030211BE12165AAB51A7
:10111000AA50A94FA84EAF55AE54AD53AC521205CC
:101120004BE4FBFA794878431207E65017E4FFFED8
:101130007D487C42AB51AA50A94FA84E1207E650F9
:1011400003754D01AB55AA54A953A852AF51AE50E7
:10115000AD4FAC4E12054BE4FBFA794878431207C9
:10116000E65019E4FFFE7D167C43AB51AA50A94F0F
:10117000A84E1207E660054003E4F54D85515585FC
:101180005054854F53854E52E54D640160037528D8
:1011900001752801E5356004C2948002D294E55AB5
:1011A00064016029755A01121DE7752B4B12171E39
:1011B000531A3F431A4012182B121DF0800FE4F50A
:1011C0004DF551F550F54FF54EC294F528120056E5
:1011D0000210EC75841078FFE4F6D8FD9000007FD3
:1011E000007E01E4F0A3DFFCDEFA75817F90908041
:1011F00074A5F0908020740093909082F0743090E9
:101200009083F09090F0E04480F0758AA090802761
:10121000740093F58A908026740093F589909080ED
:10122000745AF002126102100FE493A3F8E493A33E
:101230004003F68001F208DFF48029E493A3F85418
:1012400007240CC8C333C4540F4420C8834004F49B
:1012500056800146F6DFE4800B01020408102040AE
:1012600080901D95E47E019360BCA3FF543F30E560
:1012700009541FFEE493A360010ECF54C025E06023
:10128000A840B8E493A3FAE493A3F8E493A3C8C5F1
:1012900082C8CAC583CAF0A3C8C582C8CAC583CAE2
:1012A000DFE9DEE780BE909100E04440F0438E40ED
:1012B000C29E909184E054BFF0909182E04440F04F
:1012C000909180E04440F0909102E04401F043911D
:1012D00001C298909185E04401F0909182E0440130
:1012E000F0909180E04401F0909101E04408F043D7
:1012F0008F08C29B909184E04408F0909182E04472
:1013000008F0909180E04408F0D2E8909102E04427
:1013100002F0439102C299909185E04402F09091CD
:1013200082E04402F0909180E04402F0438C8043DC
:101330008C04438C02909101E0547FF0E054FBF068
:10134000E054FDF0438B01438B02438B04438B0835
:10135000909100E054FEF0E054FDF0E054FBF0E02A
:1013600054F7F0438C10A3E054EFF0C294D280C243
:1013700081C282C28322C3E5379400500302142342
:10138000E4F537F538538C7F909101E0547FF053AA
:101390008CFBE0547FF0538CFDE0547FF0054BE56F
:1013A0004B9405748094804003E4F54BE54B146046
:1013B0002714603A14605114605A24047065E54C97
:1013C00030E205438C02D291E54C30E605438C04B3
:1013D000D292438C80C29722E54C30E505438C8045
:1013E000D297E54C30E437438C02D2918030E54C03
:1013F00030E105438C80D297E54C30E305438C0403
:10140000D292438C02C29122E54C30E516438C8087
:10141000D297800AE54C30E50A438C80D297438C02
:1014200004C29222E4F570F571752B8612171E75B1
:101430007000851A71752B8712171EE51AFEEE4291
:1014400070AC70AD71E41208647B9F7A1C79A3784C
:101450004312064012089D8E708F71E4F576F57781
:10146000752B8812171E756E00851A6F752B8912E1
:10147000171E757600851A77752B8A12171EE51AC6
:10148000FEEE4276AC6EAD6FE41208647B4C7A1AC5
:1014900079A3783D120640C004C005C006C007AC61
:1014A00076AD77E41208647B327A7779A2784112BC
:1014B0000640D003D002D001D00012054F12089D83
:1014C0008E768F77752B9412171E851A7222E55B24
:1014D00064027014121DD0752B2112171E431A209E
:1014E00012182BE4F55B8037E55B64017031F55B26
:1014F000F540F536E53F7025753F01F532F533F5DA
:1015000048F51EF51F752B201216BF431A0112173E
:10151000D4752B2012171E431A0112182B0548D31D
:10152000E53394DCE5329405502AC3E5489405740C
:101530008094804028E55A64026015755A02121D95
:10154000E7752B4B12171E531A3F12182B121DF062
:10155000E4F54822E4F53FF532F533F54822E4F5A9
:1015600065F566909101E054DFF0E054BFF0538CD4
:10157000BF538CDF75EFEB43E18053E20F43E22072
:1015800075E33B53E1E043E10B7FE87E03121D7FEF
:1015900043E14020C00575855A80F8AFE5EFADE422
:1015A000F565EDF566C2C0AC65E4120864E4FBFACB
:1015B000794C7842120640C004C005C006C007C37B
:1015C000E5599566FDE5589565FCE4120864A804A4
:1015D000A905AA06AB07D007D006D005D00402079C
:1015E00049C0E0C0F0C083C082C0D075D000C00048
:1015F000C001C002C003C004C005C006C00730A8B7
:101600003E0524E52470020523051FE51F70020531
:101610001E0538E538700205370515E51570020519
:1016200014057AE57A700205790578121A10E53FFB
:1016300060080533E53370020532121376C2A8D074
:1016400007D006D005D004D003D002D001D000D0FE
:10165000D0D082D083D0F0D0E032909101E054DF3E
:10166000F0E054BFF0538CBF538CDF75EFEB43E1D8
:101670008053E20F43E28075E33B75EFEB53E1E00B
:1016800043E10A7FE87E03121D7F43E14020C0054D
:1016900075855A80F8AFE5EFADE4F556EDF557C224
:1016A000C0AC56E41208647BAE7A477981783F1269
:1016B00006408F518E508D4F8C4EAE56AF5722E460
:1016C000F569121BCD7F7812188212199CEF600FFA
:1016D000C3E5699432748094805004056980E3AF57
:1016E0002B12188212199CEF600FC3E569943274B3
:1016F0008094805004056980C9121BCD7F7912182F
:101700008212199CEF600FC3E56994327480948053
:101710005004056980AC1219188F1A021D1FE4F5D8
:1017200069121BA47F781218CD1219D6EF600FC36F
:10173000E5699402748094805004056980E3AF2BBE
:101740001218CD1219D6EF600FC3E56994027480A8
:1017500094805004056980C9121BA47F791218CDAA
:101760001219D6EF600FC3E569940274809480501B
:1017700004056980AC12195A8F1A021D3790910125
:10178000E054DFF0E054BFF0538CBF538CDF75EFB3
:10179000EB43E18053E20F43E22075E33B53E1E08A
:1017A00043E1117FE87E03121D7F43E14020C00525
:1017B00075855A80F8AFE5EFADE4F558EDF559AE13
:1017C000587802C333CE33CED8F9F5598E58C2C0FB
:1017D000E4FEFF22E4F569121BCD7F781218821215
:1017E000199CEF600FC3E5699432748094805004B3
:1017F000056980E3AF2B12188212199CEF600FC3AA
:10180000E5699464748094805004056980C9AF1AB6
:1018100012188212199CEF600FC3E56994967480C8
:1018200094805004056980AF021D1FE4F569121B06
:10183000A47F781218CD1219D6EF600FC3E5699412
:1018400002748094805004056980E3AF2B1218CD98
:101850001219D6EF600FC3E569940274809480502A
:1018600004056980C9AF1A1218CD1219D6EF600F9E
:10187000C3E5699402748094805004056980AF02C6
:101880001D378F6A438B20909100E054DFF0C284B3
:10189000E4F56BC3E56B940874809480502EE56A80
:1018A00030E704D2858002C285E56A25E0F56A7FCB
:1018B000037E00121D7FD2847F037E00121D7FC233
:1018C000847F037E00121D7F056B80C7228F6A43D1
:1018D0008C01909101E054FEF0C287E4F56BC3E502
:1018E0006B940874809480502EE56A30E704D2909F
:1018F0008002C290E56A25E0F56A7F037E00121D32
:101900007FD2877F037E00121D7FC2877F037E0008
:10191000121D7F056B80C722E4F56B538BDF90911E
:1019200000E04420F0E4F56AC3E56A94087480940A
:10193000805021C2847F037E00121D7FD284E56B1C
:1019400025E0F56B308502056B7F037E00121D7F5D
:10195000056A80D4121C87AF6B22E4F56B538CFEB2
:10196000909101E04401F0E4F56AC3E56A940874DB
:101970008094805021C2877F037E00121D7FD28712
:10198000E56B25E0F56B309002056B7F037E00125E
:101990001D7F056A80D4121CA8AF6B22E4F56AD2C1
:1019A00085538BDF909100E04420F07F037E00128E
:1019B0001D7FD2847F037E00121D7F308513056A50
:1019C000D3E56A94FA7480948040F0121D1F7F0161
:1019D00022C2847F0022E4F56AD290538CFE90915B
:1019E00001E04401F07F037E00121D7FD2877F0358
:1019F0007E00121D7F309013056AD3E56A94FA7455
:101A000080948040F0121D377F0122C2877F002220
:101A1000209315054AE54A70020549D39410E5491B
:101A200094274022755B0222C3E54A9405E5499458
:101A300000400ED3E54A94F4E54994015003755BE8
:101A400001E4F549F54A228E658F668D67752BA4F2
:101A500012171E531AFC431A08E5676005431A045F
:101A60008003531AFB12182B752BA5E566F51A1285
:101A7000182B752BA6E565540FF51A02182BAB072A
:101A8000AA067C277D10120930EF2430FF121D19A1
:101A90007C037DE8121D077D64121D057D0A121D61
:101AA00005AE02AF037C007D0A120930ED2430FF41
:101AB000021D19E4F565F566752B3012171E531AD1
:101AC000E0431A0212182B752B3112171E75650090
:101AD000851A66752B3212171EE51A540FFEEE4258
:101AE00065AE65AF6622121E02752B40E4F51A43FF
:101AF0001A80431A5A1217D4121E0B752B4F121646
:101B0000BF531A80431A2D1217D4752B2E1216BFED
:101B1000531AF0431A010217D4121E02752B40E427
:101B2000F51A431A80431A3C1217D4121E0B752B58
:101B30004F1216BF531A80431A1E1217D4752B2E3C
:101B40001216BF531AF0431A010217D4E4F5657553
:101B50002B1D12171EE51A5431F565752B2B121724
:101B60001E851A6CE51A30E403120E46752B2C12F2
:101B7000171E851A6DAF6522E4F565752B1D1216CB
:101B8000BFE51A54F7F565752B2B1216BF851A7C25
:101B9000E51A30E403120C53752B2C1216BF851A6C
:101BA0007DAF6522438B80909100E0547FF0438CA1
:101BB00001A3E054FEF0D290D2877F037E00121D75
:101BC0007FC2907F037E00121D7FC28722438B104D
:101BD000909100E054EFF0438B20E054DFF0D28589
:101BE000D2847F037E00121D7FC2857F037E001298
:101BF0001D7FC28422E4F565752B1912171E531A36
:101C000030E51A5430FF7E0064207003436501EF15
:101C100064104E7003436502AF6522E4F565752BD1
:101C2000191216BF531AC0E51A54C0FF7E00648013
:101C30007003436501EF64404E7003436502AF6576
:101C400022D282909131E054F0F0E04402F0438BD4
:101C50000475D50175D7027F227E00121DDC439FDB
:101C600001D2EDD2EF22909101E054DFF0E054BFB9
:101C7000F0538CBF538CDF75EFEB43E18053E20FE1
:101C800043E22075E33B22C284438B20909100E025
:101C900054DFF0D2857F037E00121D7FD2847F0344
:101CA0007E00121D7FC28422C287438C0190910165
:101CB000E054FEF0D2907F037E00121D7FD2877F1A
:101CC000037E00121D7FC28722752B2812171E5318
:101CD0001AFB531AF712182B752B2E12171E531AB4
:101CE000F0431A0202182B752B281216BF531AFB49
:101CF000531AF71217D4752B2E1216BF531AF0432E
:101D00001A020217D47C00AF03AE021209307C0025
:101D10007D0A120930ED2430FF30B9FD8FD92243FE
:101D20008B20909100E054DFF0C285D2847F037E47
:101D300000121D7FD28522438C01909101E054FE58
:101D4000F0C290D2877F037E00121D7FD290227551
:101D50002B2512171EE51A5480700B0575E575705A
:101D6000020574120E4622752B251216BFE51A5471
:101D700080700B057FE57F7002057E120C5322E414
:101D8000FDFCC3ED9FEC9E5008000DBD00010C80D2
:101D9000F175855A2201480002490000014C0001FA
:101DA000430001440000752B2812171E431A0443F8
:101DB0001A0802182B752B281216BF431A04431A4F
:101DC000080217D4752BA412171E431A0102182BF0
:101DD000752B211216BF431A200217D4AD07AC068B
:101DE000ECFF8DD38FD422752B24751A8102182B0A
:101DF000752BFFE4F51A02182B752B9912171EAFDD
:101E00001A22752B24751A810217D4752BFFE4F55D
:0C1E10001A0217D4757B0175980032226D
:00000001FF
