:1000000002126A021D80752D281217D1431B0402AB
:100010001887320215CBE4F564F565752D3012179B
:1000200072531BE0431B03121830752D31121772E7
:10003000756400851B65752D32121772E51BFEEE87
:100040004264AE64AF657C007D051209A18E648FA9
:10005000652222020012E4F55FF560F561F562F5B4
:1000600063F51CF51D752327752410121DC9121D7B
:10007000E1121C1A8F47121C408F48AD48AF47123F
:100080001552121B718F45121B9D8F462086071239
:1000900000168E628F63AF55AE54AD53AC52120949
:1000A000208E128F13851228851329856219856386
:1000B0001AE52A602EE4FFFE7DC87C42AB55AA54A7
:1000C000A953A8521208695015050FE50F700205D3
:1000D0000E940AE50E9400400A121E398005E4F5DC
:1000E0000EF50FE54830E01DAC62AD63E41208E7A1
:1000F000A804A905AA06AB07AF55AE54AD53AC5240
:100100001205CE803DE54830E13FC3E5639464E5E8
:100110006294005015050FE50F7002050E940AE574
:100120000E9400400A121E398005E4F50EF50FAC5E
:1001300062AD63E41208E7AB55AA54A953A8521262
:1001400005D21209208E128F13AE12AF137C007DE0
:1001500005120A088E128F131214BB8F318E308D48
:100160002F8C2E7F4A7E0C7DAA7C40AB31AA30A911
:100170002FA82E120869601A40187F197E047D038B
:100180007C42AB31AA30A92FA82E1208695003E493
:10019000F537E5457017E5467013E52A700FE5471A
:1001A00064026009E548640260030202E1E52A7026
:1001B0000FE54764026009E5486402600302025BE0
:1001C000755F02D3E5139400E512648094804008C3
:1001D000E4FDAF13AE128019C3E512648094805021
:1001E00013C3E49513F513E49512F5127D01AF13D3
:1001F000FE121A6C7FCB7EA17D657C40AB31AA30AC
:10020000A92FA82E12086950030202AB7F777E3E09
:100210007D117C42AB31AA30A92FA82E120869604B
:100220000540030202AB7F4A7E0C7DAA7C40AB31C5
:10023000AA30A92FA82E120869600250030202F208
:100240007F197E047D037C42AB31AA30A92FA82EF2
:1002500012086940030202F20202DCE4F50EF50F17
:10026000755F01C3E512648094805013C3E4951355
:10027000F513E49512F5127D01AF13FE121A6C7F8F
:10028000A27E457D1E7C40AB31AA30A92FA82E123C
:10029000086940177F487E617D5E7C42AB31AA30A1
:1002A000A92FA82E12086960074005753701804202
:1002B0007FDD7E247D3E7C40AB31AA30A92FA82E65
:1002C000120869602D402B7FC37EF57D297C42ABEF
:1002D00031AA30A92FA82E1208695016E4F53780EC
:1002E00011E4F50EF50F752DA41217D1531BF7125B
:1002F0001887AF477E00C3EF940274809480500B40
:10030000C3E548940274809480407CC3EF9402EE6D
:10031000648094804022E548940274809480401860
:10032000E5116003020454751101E542642D602B50
:1003300075422D121B0B8023C3E5479402748094F1
:10034000804021E51164017003020454751101E538
:1003500042642D600675422D121B0B121E51121E97
:100360002D020454C3E54894027480948050030223
:100370000454E51164027003020454751102120062
:1003800006121E5D020454E5116009E4F511121E07
:100390002D121E5DE54530E003436001E54630E780
:1003A00003436002E54630E503436004E52A640147
:1003B000701EE541641E600675411E121CEEE5428A
:1003C000641E700302045475421E121D2A02045456
:1003D000E5606510607E856010E56024FE6019149C
:1003E000602C14602114604324FE605C2406706459
:1003F000E5416441605E8056E542642D6056754279
:100400002D121B0B804EE518641E6048802FE541BD
:1004100064416006754141120052E542641E603439
:1004200075421EE4F518121B3E8029E541644160C7
:1004300006754141120052E518641E601775181EBA
:10044000E4F542121EB7800CE54164416006754137
:1004500041120052E55E6401700AF55EF544F51E36
:10046000F51FF53A121AD88E328F337C007D0712B1
:1004700009A18E328F3385323D85333EE5376036B4
:10048000752701E4F544AF3AFED3EF9432748094BB
:10049000804008753A33E4F5508013EF4E7002F552
:1004A00050E53A75F00584E5F070036350FF053AB6
:1004B000121E1E021E0FE4F53AE52764017008F5CE
:1004C00027121D48121D0C121E9C8F22752B008FA7
:1004D0002CAD5F120A4CE539B52927E538B528223D
:1004E000E540B53E1DE53FB53D18E536B52C13E4B6
:1004F000B52B0FE521651A7004E52065197003021C
:10050000058D852838852939853D3F853E40852CD8
:1005100036851920851A217F49121D7A7F3A121DCE
:100520007AAF29AE28121AA37F0D121D7A7F0A1204
:100530001D7A7F49121D7A7F3A121D7AAF1AAE19C1
:10054000121AA37F0D121D7A7F0A121D7A7F2012C4
:100550001D7A7F56121D7A7F3A121D7AAF3EAE3D4C
:10056000121AA37F0D121D7A7F0A121D7A7F2012A4
:100570001D7A7F44121D7A7F3A121D7AAF2CAE2B62
:10058000121AA37F0D121D7A7F0A121D7A30860877
:1005900030A0057549018003E4F549E5496004E5AB
:1005A0002A600AE51D451C7004F51EF51FE549602B
:1005B00004E52A600CE51D451C7006E55E640270CA
:1005C00004E4FF80027F011211502202098CE864CA
:1005D00080F8E933E83360110460F0ED33EC3370F8
:1005E00009E8FCE9FDEAFEEBFF220460DED3EB9FA5
:1005F000EA9EE99DE8C2E78CF0C2F795F0400CE86E
:10060000CCF8E9CDF9EACEFAEBCFFB12095785D049
:10061000F05804700320D5B3E80470075002B2D537
:1006200002099692D5EC0460F7E4CCC0E0C398F8D8
:10063000603B94186008400DD0E0FB02096EE4FBBB
:10064000FAC9FC8028E830E406E4C9FBE4CAFCE807
:1006500030E305E4C9CACBFCE854076010F8C3E9ED
:1006600013F9EA13FAEB13FBEC13FCD8F130F52F76
:10067000C3E49CFCEF9BFFEE9AFEED99FDD0E0FBFE
:10068000EF4E4D4C701222DB03020993EC2CFCEF71
:1006900033FFEE33FEED33FDED30E7EB02096EEF95
:1006A0002BFFEE3AFEED39FDD0E0FB50130BBB0003
:1006B00003020996ED13FDEE13FEEF13FFEC13FC9E
:1006C00002096EEC4D6011E8497017ED33EC33040C
:1006D000600DE4FCFFFEFD22E933E8330470F8020C
:1006E000098C12095758046009E4CC24815006286B
:1006F0005009020996284003020993C0E0EB4A70B2
:1007000044B98006D0E0FB020982EF4E701CBD8028
:1007100008EBFFEAFEE9FD80EBE98DF0A4FEE5F0D1
:100720000207ACE9CDF9EAFEEBFFEF89F0A4FCE5A6
:10073000F0CE89F0A42EFFE435F0CD89F0A42DFE93
:10074000E435F08067EF4E7005BD80D780C3EF8B36
:10075000F0A4ACF0EE8BF0A42CFCE435F0F8EF8ABA
:10076000F0A42CE5F038FCE433CB8DF0A42CFCE5B0
:10077000F03BF8EE8AF0A42CFCE5F038F8E433CF37
:1007800089F0A42CFCE5F038CF3400CE89F0A42FFA
:10079000FFE5F03EFEE433C98DF0A42EFEE5F0390E
:1007A000CD8AF0A42FFFE5F03EFEE43DFD33D0E01E
:1007B000FB50070BBB000F020996EC2CFCEF33FF3C
:1007C000EE33FEED33FD02096E020996EC5D046026
:1007D00005E85904700302098C120957580460F6A1
:1007E000EC4860F2EC7004FDFEFF22C860DB24815F
:1007F000C85009C398600250060209939850CAF580
:1008000082E9294B4A7005AB8202098275F0007CAF
:100810001A7880C3EF9BEE9AED99400DC3EF9BFFD2
:10082000EE9AFEED99FDE842F0DC23ACF0D0E0FF5B
:10083000D0E0FED0E0FDAB8220E7101BEB60BAEC0D
:100840002CFCEF33FFEE33FEED33FD02096EE803BF
:10085000F830E705C0F075F000EF2FFFEE33FEED46
:1008600033FD40B830E7C280AA74F8CC6480CCC8AD
:100870006480C8F58204604FC3EB9FF5F0EA9E42A6
:10088000F0E99D42F0E89C45F0603C501DE5825F38
:10089000FFE582D313CB5BCBF42B5582FB50280AA8
:1008A000BA002409B9002008801DE5825BFBE582BF
:1008B000D313CF5FCFF4C3132F5582FF50090EBE61
:1008C00000050DBD00010CC3EB9FF5F0EA9E42F060
:1008D000E99D42F0E89C45F06007CC4820E701B371
:1008E000EC2275F020800E75F010800575F0087D03
:1008F000007E007F003392D530D503120A3EEC33E0
:100900004010EF33FFEE33FEED33FDEC33FCD5F05A
:10091000ED22E5F0247EA2D513CC92E7CDCEFF22C6
:10092000EDD2E7CD33EC3392D524814006E4FFFECF
:10093000FDFC22FCE4CFCECDCC24E0501174FF802E
:10094000EDC3CC13CCCD13CDCE13CECF13CF0470CB
:10095000F030D5DE020A3EE9D2E7C933E833F89237
:10096000D5EDD2E7CD33EC33FC5002B2D522EC30DA
:10097000E7100FBF000C0EBE00080DBD00040BEB0E
:100980006014A2D5EB13FCED92E7FD2274FFFCFD91
:10099000FEFF22E480F8A2D574FF13FC7D80E48082
:1009A000EFEF8DF0A4A8F0CF8CF0A428CE8DF0A4AA
:1009B0002EFE22BC000BBE0029EF8DF084FFADF0AF
:1009C00022E4CCF875F008EF2FFFEE33FEEC33FC99
:1009D000EE9DEC984005FCEE9DFE0FD5F0E9E4CECF
:1009E000FD22EDF8F5F0EE8420D21CFEADF075F09E
:1009F00008EF2FFFED33FD4007985006D5F0F222A7
:100A0000C398FD0FD5F0EA22C2D5EC30E709B2D584
:100A1000E4C39DFDE49CFCEE30E715B2D5E4C39F32
:100A2000FFE49EFE1209B3C3E49DFDE49CFC800339
:100A30001209B330D507C3E49FFFE49EFE22C3E44E
:100A40009FFFE49EFEE49DFDE49CFC228F64E4F5A0
:100A500065F566F567EDFB7A0064026003020B3C06
:100A6000AF44EF64016005EF64027019C3E51594AB
:100A700010E5149427400E751427751510E4F550F1
:100A8000754402FF22AF647E00C3EF9464748094C7
:100A9000805003756501D3EF9407EE648094805015
:100AA000155350FB5350F75350EF435020435040E1
:100AB000756702020C16D3EF9419EE64809480508F
:100AC000154350025350F75350EF435020435040CA
:100AD000756703020C16D3EF9434EE648094805053
:100AE000154350024350045350EF435020435040AD
:100AF000756704020C16C3EF9463EE648094805013
:100B00001543500243500443500843502043504083
:100B1000756705020C1643500243500443500843C6
:100B20005010435020435040AF44EF6004640370C2
:100B300005E4F514F515754401020C16C3E544945B
:100B40000274809480400BEB4A7007754403F550A3
:100B5000FF22E4F544752D15121772851B66E566B4
:100B600030E403121E45D3E56494007480948050F1
:100B70004B75230B7524B8535020752D181217D1BF
:100B8000E51B20E205E56630E415752D1585661B2D
:100B9000121830752D211217D1431B20121887759A
:100BA0002D18121772E51B54096003121E69751C7B
:100BB00000751D01756701756501805AAF647E007F
:100BC000D3EF94047480948050084350025350FB38
:100BD0008011D3EF9416EE64809480500E4350023F
:100BE0004350045350F75350EF8025D3EF9436EE23
:100BF00064809480500E4350024350044350085385
:100C000050EF800C435002435004435008435010AF
:100C1000435020435040E5656071E4F565050BE500
:100C20000B7002050AE567650C600885670CE4F542
:100C30000AF50BAF677E00EF64017015D3E50B94E6
:100C400002E50A94004044E4F50AF50B6350208065
:100C50003AD3E50B9405E50A9400402FE4F50AF534
:100C60000BEF64024E7005635002801FEF64034E69
:100C700070056350048014EF64044E7005635008DF
:100C80008009EF64054E70036350107F0122752DBB
:100C9000FFE4F51B121830752D23121772431B0148
:100CA0001218307F107E27121DF9752D24751B2018
:100CB000121830751B40121830751B8012183075D1
:100CC0002DFFE4F51B121830752D25121772431BEA
:100CD00080121830752D15121772121830121EA5B9
:100CE000752D08121772751BDC121830752D16122F
:100CF0001772431B10121830752D03121772531BF5
:100D0000F0431B07121830752D0D121772531B3F3D
:100D1000431B80121830752D55121772431B801219
:100D20001830752D56121772431B01431B02431BCB
:100D300004121830752D18121772531BE312183055
:100D4000752D19E4F51B431B01431B08431B20436E
:100D50001B40121830752D35121772431B01431BAF
:100D600008121830752D34121772431B04431B10E0
:100D7000431B20121830752D40E4F51B431B8043A4
:100D80001B64121830752D01121772531B3F531B31
:100D9000CF431B10121830752D50121772431B01D0
:100DA000431B02431B04121830752D511217724356
:100DB0001B70121830752D23121772E4F51B431B9C
:100DC00001431B02431B04431B40121830752D22A4
:100DD000121772531B3F431B40121830752D2D12F2
:100DE0001772431B08431B10121830752D2E121753
:100DF00072531B80431B3C121830752D2F12177233
:100E0000531B80431B3C121830121EAE752D40122E
:100E10001772431B02431B04431B80121830752DAD
:100E200046121772751B91121830752D47121772E2
:100E3000531BE0431B05121830752D4512177253D2
:100E40001B80431B2D121830752D4F121772531B28
:100E500080431B2D021830752DFFE4F51B121887F7
:100E6000752D231217D1431B011218877F107E277F
:100E7000121DF9752D24751B20121887751B401241
:100E80001887751B80121887752DFFE4F51B121843
:100E900087752D251217D1431B80121887121E8AC1
:100EA000752D081217D1751BDC121887752D1612B7
:100EB00017D1431B10121887752D031217D1531B1E
:100EC000F0431B07121887752D011217D1531BCF42
:100ED000431B10121887752D0D1217D1531B3F435A
:100EE0001B80121887752D551217D1431B801218BD
:100EF00087752D561217D1431B01431B02431B0458
:100F0000121887752D181217D1531BFB12188775ED
:100F10002D191217D1531BF8431B01121887752D79
:100F2000351217D1431B01431B08121887752D3446
:100F30001217D1431B04431B10431B201218877543
:100F40002D40E4F51B431B80431B64121887752D4D
:100F5000231217D1E4F51B431B01431B02431B045F
:100F6000431B40121887752D501217D1431B0143A4
:100F70001B02431B04121887752D511217D1431BF6
:100F800070121887752D221217D1531B3F431B4037
:100F9000121887752D2D1217D1431B08431B1012F1
:100FA0001887752D2E1217D1531B80431B3C121826
:100FB00087752D2F1217D1531B80431B3C121887A6
:100FC000121E93752D401217D1431B02431B04437D
:100FD0001B80121887752D461217D1751B91121898
:100FE00087752D471217D1531BE0431B0512188735
:100FF000752D451217D1531B80431B41121887755D
:101000002D4F1217D1531B80431B4102188790901C
:101010002074A5F0A3E09000FFF0E054F0F0E0446D
:1010200002F0E0909021F0909020745AF074A5F0B6
:10103000A37402F0909020745AF075A67C75A67C7B
:1010400075A2C3439D01D2E9D2EFD2EF7F407E4229
:10105000121DF97F407E42121DF912133D121C8BA6
:10106000120C8E120E57121C667F31121D7A7F31C0
:10107000121D7A7F31121D7A758420E4F52A7523BA
:101080002775241075855A1216AF121711D3E5264D
:101090009464E525940040ECE4F525F52630A103A1
:1010A00002113B12163FAB55AA54A953A852AF598F
:1010B000AE58AD57AC561205CEE4FBFA79487843EA
:1010C0001208695017E4FFFE7D487C42AB55AA54D4
:1010D000A953A8521208695003755101AB59AA5877
:1010E000A957A856AF55AE54AD53AC521205CEE435
:1010F000FBFA794878431208695019E4FFFE7D161F
:101100007C43AB55AA54A953A85212086960054004
:1011100003E4F551855559855458855357855256E2
:10112000E5516401700EF555F554F553F552F52A65
:10113000C2948016752A01D294800FE4F551F555BA
:10114000F554F553F552C294F52A12005602108454
:10115000EF6003021264C3E51F9524E51E9523503A
:1011600009E55E64026003021269E4F550F544F596
:1011700049F51EF51FF53A752DA41217D1531BF72B
:10118000121887752D23121772531BFE1218307513
:101190002D231217D1531BFE121887C297C292C279
:1011A00091C28053E17F438C20438C40909101E0B9
:1011B00054DFF0E054BFF0C295C296538CFEE04479
:1011C00001F0538B7F909100E04480F0538BBFE09F
:1011D0004440F0538BDFE04420F053A27F75855AE2
:1011E000E52A700630860320A00CE51D451C70061C
:1011F000E55E6402701B90902074A5F090902774B7
:1012000018F0909020745AF0758750758701758793
:10121000A0E4F55EF51CF51D7F64FE121DF9752D29
:10122000231217D1431B01121887752D2312177231
:10123000431B01121830D2807F107E27121DF94304
:10124000A280439D01538CDF538CBF909101E054E9
:10125000DFF0E054BFF0E4F550F51EF51F75855A38
:1012600043E18022E4F508F5092275841078FFE453
:10127000F6D8FD9000007F007E01E4F0A3DFFCDEE5
:10128000FA75817590908074A5F090802074009319
:10129000909082F07430909083F09090F0E04480D1
:1012A000F0758AA0908027740093F58A9080267448
:1012B0000093F589909080745AF00212F802100E93
:1012C000E493A3F8E493A34003F68001F208DFF46B
:1012D0008029E493A3F85407240CC8C333C4540FE3
:1012E0004420C8834004F456800146F6DFE4800BB6
:1012F0000102040810204080901E80E47E0193606B
:10130000BCA3FF543F30E509541FFEE493A36001E2
:101310000ECF54C025E060A840B8E493A3FAE4934C
:10132000A3F8E493A3C8C582C8CAC583CAF0A3C8FA
:10133000C582C8CAC583CADFE9DEE780BE909100D6
:10134000E04440F0438E40C29E909184E054BFF050
:10135000909182E04440F0909180E04440F0909180
:1013600002E04401F0439101C298909185E044016C
:10137000F0909182E04401F0909180E04401F0907F
:101380009101E04408F0438F08C29B909184E044AF
:1013900008F0909182E04408F0909180E04408F0D9
:1013A000D2E8909102E04402F0439102C2999091F8
:1013B00085E04402F0909182E04402F0909180E058
:1013C0004402F0438C80438C04438C02909101E0F2
:1013D000547FF0E054FBF0E054FDF0438B01438B6D
:1013E00002438B04438B08909100E054FEF0E054DC
:1013F000FDF0E054FBF0E054F7F0438C10A3E05410
:10140000EFF0C294D280C281C282C28322C3E53B84
:10141000940050030214BAE4F53BF53C538C7F90E2
:101420009101E0547FF0538CFBE0547FF0538CFD2E
:10143000E0547FF0054BE54B9405748094804003A5
:10144000E4F54BE54B14602714603A1460511460C6
:101450005A24047065E55030E205438C02D291E5D0
:101460005030E605438C04D292438C80C29722E52B
:101470005030E505438C80D297E55030E437438CFB
:1014800002D2918030E55030E105438C80D297E55F
:101490005030E305438C04D292438C02C29122E582
:1014A0005030E516438C80D297800AE55030E50A2B
:1014B000438C80D297438C04C29222E4F564F56594
:1014C000909101E054DFF0E054BFF0538CBF538C97
:1014D000DF75EFEB43E18053E20F43E22075E33B1E
:1014E00053E1E043E10B7FE87E03121DF943E14045
:1014F00020C00575855A80F8AFE57564008F65E5F5
:1015000065756500F564AFE4EF4265E4C2C0AC64A4
:10151000AD651208E7E4FBFA794C78421206C3C0C5
:1015200004C005C006C007C3E55D9565FDE55C9593
:1015300064FCE41208E7A804A905AA06AB07D007D3
:10154000D006D005D0041207CC8F4F8E4E8D4D8C17
:101550004C228F648D65E50D14602C1460632402A9
:101560007068E5644565FF6008E4F573F574750D12
:1015700001EF64037054752D211217D1431B201203
:101580001887121E698036C3E57494F4E5739401DC
:101590005020E564456564037030752D211217D124
:1015A000431B20121887121E69750D02E4F573F5AE
:1015B0007422D3E57494F4E5739401400D750D0223
:1015C00022E56445656003E4F50D22C0E0C0F0C08B
:1015D00083C082C0D075D000C000C001C002C0036B
:1015E000C004C005C006C00730A8390526E526702E
:1015F000020525051FE51F7002051E053CE53C7030
:1016000002053B0515E515700205140574E57470B7
:10161000020573E54360080535E5357002053412AF
:10162000140DC2A8D007D006D005D004D003D00234
:10163000D001D000D0D0D082D083D0F0D0E0329092
:101640009101E054DFF0E054BFF0538CBF538CDFC6
:1016500075EFEB43E18053E20F43E28075E33B75A6
:10166000EFEB53E1E043E10A7FE87E03121DF9430B
:10167000E14020C00575855A80F8AFE5755A008FA6
:101680005BE55B755B00F55AAFE4EF425BE4C2C01B
:10169000AC5AAD5B1208E77B617A54798A783F12C5
:1016A00006C38F558E548D538C52AE5AAF5B229029
:1016B0009101E054DFF0E054BFF0538CBF538CDF56
:1016C00075EFEB43E18053E20F43E22075E33B53B8
:1016D000E1E043E1117FE87E03121DF943E1402080
:1016E000C00575855A80F8AFE5755C008F5DE55DD6
:1016F000755D00F55CAFE4EF425DAE5CE55D7802E0
:10170000C333CE33CED8F9F55D8E5CC2C0E4FEFFA4
:1017100022E543605C309359E4F543D3E5359410FA
:10172000E53494274011755E02121E69752D211251
:1017300017D1431B208032D3E5359405E53494005E
:10174000402AE53594F4E53494015020755E01E4B7
:10175000F51EF51F752D20121772431B011218304C
:10176000752D201217D1431B01121887E4F534F5AB
:101770003522E4F568121BF27F781218DE1219F890
:10178000EF600FC3E568943274809480500405685C
:1017900080E3AF2D1218DE1219F8EF600FC3E56871
:1017A0009432748094805004056880C9121BF27FC3
:1017B000791218DE1219F8EF600FC3E568943274DD
:1017C0008094805004056880AC1219748F1B021D30
:1017D00099E4F568121BC97F78121929121A32EFA1
:1017E000600FC3E56894027480948050040568809B
:1017F000E3AF2D121929121A32EF600FC3E5689476
:1018000002748094805004056880C9121BC97F79D6
:10181000121929121A32EF600FC3E568940274801E
:1018200094805004056880AC1219B68F1B021DB15C
:10183000E4F568121BF27F781218DE1219F8EF60D7
:101840000FC3E5689432748094805004056880E387
:10185000AF2D1218DE1219F8EF600FC3E56894641B
:10186000748094805004056880C9AF1B1218DE1282
:1018700019F8EF600FC3E568949674809480500463
:10188000056880AF021D99E4F568121BC97F7812C4
:101890001929121A32EF600FC3E56894027480941C
:1018A000805004056880E3AF2D121929121A32EF17
:1018B000600FC3E5689402748094805004056880CA
:1018C000C9AF1B121929121A32EF600FC3E56894D1
:1018D00002748094805004056880AF021DB18F6946
:1018E000438B20909100E054DFF0C284E4F56AC39A
:1018F000E56A940874809480502EE56930E704D23C
:10190000858002C285E56925E0F5697F037E0012C6
:101910001DF9D2847F037E00121DF9C2847F037EED
:1019200000121DF9056A80C7228F69438C019091CE
:1019300001E054FEF0C287E4F56AC3E56A940874D6
:10194000809480502EE56930E704D2908002C290E6
:10195000E56925E0F5697F037E00121DF9D2877FD6
:10196000037E00121DF9C2877F037E00121DF90558
:101970006A80C722E4F56A538BDF909100E044202F
:10198000F0E4F569C3E5699408748094805021C23D
:10199000847F037E00121DF9D284E56A25E0F56A92
:1019A000308502056A7F037E00121DF9056980D427
:1019B000121CACAF6A22E4F56A538CFE909101E0F0
:1019C0004401F0E4F569C3E569940874809480509B
:1019D00021C2877F037E00121DF9D287E56A25E0C8
:1019E000F56A309002056A7F037E00121DF90569D1
:1019F00080D4121CCDAF6A22E4F569D285538BDF07
:101A0000909100E04420F07F037E00121DF9D28403
:101A10007F037E00121DF93085130569D3E56994B3
:101A2000FA7480948040F0121D997F0122C2847F55
:101A30000022E4F569D290538CFE909101E04401BC
:101A4000F07F037E00121DF9D2877F037E00121DF6
:101A5000F93090130569D3E56994FA748094804055
:101A6000F0121DB17F0122C2877F00228E648F6534
:101A70008D66752DA41217D1531BFC431B08E56618
:101A80006005431B048003531BFB121887752DA5AB
:101A9000E565F51B121887752DA6E564540FF51B37
:101AA000021887AB07AA067C277D101209B3EF2422
:101AB00030FF121D7A7C037DE8121D687D64121DC3
:101AC000667D0A121D66AE02AF037C007D0A120914
:101AD000B3ED2430FF021D7AE4F564F565752D3011
:101AE0001217D1531BE0431B02121887752D3112B8
:101AF00017D1756400851B65752D321217D1E51B52
:101B0000540FFEEE4264AE64AF6522121EA5752D21
:101B100040E4F51B431B80431B5A121830121EAEC3
:101B2000752D4F121772531B80431B2D12183075E1
:101B30002D2E121772531BF0431B01021830121E78
:101B4000A5752D40E4F51B431B80431B3C12183048
:101B5000121EAE752D4F121772531B80431B1E129F
:101B60001830752D2E121772531BF0431B010218EB
:101B700030E4F564752D1D1217D1E51B5431F56461
:101B8000752D2B1217D1851B6BE51B30E403120E4C
:101B900057752D2C1217D1851B6CAF6422E4F564A8
:101BA000752D1D121772E51B54F7F564752D2B1258
:101BB0001772851B6FE51B30E403120C8E752D2CFC
:101BC000121772851B70AF6422438B80909100E0E6
:101BD000547FF0438C01A3E054FEF0D290D2877F73
:101BE000037E00121DF9C2907F037E00121DF9C210
:101BF0008722438B10909100E054EFF0438B20E05C
:101C000054DFF0D285D2847F037E00121DF9C28595
:101C10007F037E00121DF9C28422E4F564752D193C
:101C20001217D1531B30E51B5430FF7E0064207027
:101C300003436401EF64104E7003436402AF6422F7
:101C4000E4F564752D19121772531BC0E51B54C0BF
:101C5000FF7E0064807003436401EF64404E7003B4
:101C6000436402AF6422D282909131E054F0F0E0FC
:101C70004402F0438B0475D50175D7027F227E00A4
:101C8000121E75439F01D2EDD2EF22909101E054D4
:101C9000DFF0E054BFF0538CBF538CDF75EFEB43A4
:101CA000E18053E20F43E22075E33B22C284438B81
:101CB00020909100E054DFF0D2857F037E00121D5A
:101CC000F9D2847F037E00121DF9C28422C28743A9
:101CD0008C01909101E054FEF0D2907F037E0012BF
:101CE0001DF9D2877F037E00121DF9C28722752D50
:101CF000451217D1531B80431B1E121887752D2EBA
:101D00001217D1531BF0431B01021887752D28129F
:101D100017D1531BFB531BF7121887752D2E121763
:101D2000D1531BF0431B02021887752D4512177201
:101D3000531B80431B1E121830752D2E1217725321
:101D40001BF0431B01021830752D28121772531B0C
:101D5000FB531BF7121830752D2E121772531BF000
:101D6000431B020218307C00AF03AE021209B37CA1
:101D7000007D0A1209B3ED2430FF30B9FD8FD9225E
:101D8000C0E0E59830E3097543017534007535000E
:101D9000757501759800D0E032438B20909100E07A
:101DA00054DFF0C285D2847F037E00121DF9D285F4
:101DB00022438C01909101E054FEF0C290D2877FC3
:101DC000037E00121DF9D29022752D251217D1E540
:101DD0001B5480700B056EE56E7002056D120E5778
:101DE00022752D25121772E51B5480700B0572E5C4
:101DF0007270020571120C8E22E4FDFCC3ED9FECA3
:101E00009E5008000DBD00010C80F175855A2275A9
:101E10002D281217D1431B04431B08021887752D68
:101E200028121772431B04431B08021830752D2813
:101E30001217D1531BFB021887752DA41217D1431B
:101E40001B02021887752DA41217D1431B0102181B
:101E500087752D28121772431B04021830752D2820
:101E6000121772531BFB021830752D211217724383
:101E70001B20021830AD07AC06ECFF8DD38FD422A7
:101E800001500001470001480000752D24751B8199
:101E9000021887752DFFE4F51B021887752D99121E
:101EA00017D1AF1B22752D24751B81021830752D9B
:081EB000FFE4F51B02183022CB
:00000001FF
