:100000000210DC021C2875272812167943170402F7
:10001000172F320214E2E4F55AF55B7527301216F9
:100020001A5317E04317031216D875273112161A00
:10003000755A0085175B75273212161AE517FEEE02
:10004000425AAE5AAF5B7C007D051209658E5A8F0D
:100050005B2222020012E4F555F556F557F558F5E6
:1000600059F518F519751D27751E10121C71121CF3
:1000700089121AC28F42121AE88F43121A198F403E
:10008000121A458F412086071200168E588F59AFDD
:100090004FAE4EAD4DAC4C1208E48E108F11E524DE
:1000A000602EE4FFFE7DC87C42AB4FAA4EA94DA84E
:1000B0004C12082D5015050DE50D7002050C940A23
:1000C000E50C9400400A121CE18005E4F50CF50DE6
:1000D000E54330E01DAC58AD59E41208ABA804A9C3
:1000E00005AA06AB07AF4FAE4EAD4DAC4C12059214
:1000F000803DE54330E13FC3E5599464E558940001
:100100005015050DE50D7002050C940AE50C9400E0
:10011000400A121CE18005E4F50CF50DAC58AD5910
:10012000E41208ABAB4FAA4EA94DA84C120596128B
:1001300008E48E108F11851022851123AE10AF11A7
:100140007C007D051209CC8E108F111213DB8F2BD2
:100150008E2A8D298C287F4A7E0C7DAA7C40AB2B71
:10016000AA2AA929A82812082D601A40187F197EEA
:10017000047D037C42AB2BAA2AA929A82812082DAA
:100180005003E4F532E5407017E5417013E5247043
:100190000FE54264026009E543640260030202D491
:1001A000E524700FE54264026009E54364026003E0
:1001B00002024E755502D3E5119400E51064809457
:1001C000804008E4FDAF11AE108019C3E5106480D3
:1001D00094805013C3E49511F511E49510F5107D4A
:1001E00001AF11FE1219147FCB7EA17D657C40AB5F
:1001F0002BAA2AA929A82812082D500302029E7FA3
:10020000777E3E7D117C42AB2BAA2AA929A8281211
:10021000082D6005400302029E7F4A7E0C7DAA7C69
:1002200040AB2BAA2AA929A82812082D6002500346
:100230000202E57F197E047D037C42AB2BAA2AA92A
:1002400029A82812082D40030202E50202CFE4F596
:100250000CF50D755501C3E510648094805013C3EF
:10026000E49511F511E49510F5107D01AF11FE1222
:1002700019147FA27E457D1E7C40AB2BAA2AA9299A
:10028000A82812082D40177F487E617D5E7C42AB16
:100290002BAA2AA929A82812082D60074005753223
:1002A0000180427FDD7E247D3E7C40AB2BAA2AA9C3
:1002B00029A82812082D602D402B7FC37EF57D29AB
:1002C0007C42AB2BAA2AA929A82812082D5016E493
:1002D000F5328011E4F50CF50D7527A4121679534B
:1002E00017F712172FAF427E00C3EF940274809469
:1002F00080500BC3E543940274809480407CC3EF2C
:100300009402EE648094804022E5439402748094C9
:10031000804018E50F6003020447750F01E53D6456
:100320002D602B753D2D1219B38023C3E542940235
:10033000748094804021E50F6401700302044775C6
:100340000F01E53D642D6006753D2D1219B3121C99
:10035000F9121CD5020447C3E543940274809480CB
:100360005003020447E50F64027003020447750F4F
:1003700002120006121D05020447E50F6009E4F5AC
:100380000F121CD5121D05E54030E003435601E570
:100390004130E703435602E54130E503435604206C
:1003A000A11EE53C641E6006753C1E121B96E53DD1
:1003B000641E7003020447753D1E121BD2020447DF
:1003C000E556650E700302044785560EE55624FE79
:1003D000601914602C14602114604324FE605C24B6
:1003E000067064E53C6441605E8056E53D642D60C6
:1003F00056753D2D1219B3804EE516641E60488077
:100400002FE53C64416006753C41120052E53D64B5
:100410001E6034753D1EE4F5161219E68029E53C90
:1004200064416006753C41120052E516641E601777
:1004300075161EE4F53D121D53800CE53C644160C9
:1004400006753C41120052E5546401700AF554F5FA
:100450003FF51AF51BF5351219808E2C8F2D7C0077
:100460007D071209658E2C8F2D852C38852D39E559
:10047000326036752101E4F53FAF35FED3EF94329B
:10048000748094804008753533E4F54B8013EF4E4B
:100490007002F54BE53575F00584E5F07003634BAC
:1004A000FF0535121CC6021CB7E4F535E5216401D1
:1004B0007008F521121BF0121BB4121D388F1C7529
:1004C00025008F26AD55120A10E534B52319E53302
:1004D000B52214E53BB5390FE53AB5380AE5306584
:1004E000267002E525606A85223385233485383AF3
:1004F00085393B8526307F49121C227F3A121C2207
:10050000AF23AE2212194B7F0D121C227F0A121C40
:10051000227F20121C227F56121C227F3A121C229C
:10052000AF39AE3812194B7F0D121C227F0A121CF4
:10053000227F20121C227F44121C227F3A121C228E
:10054000AF26AE2512194B7F0D121C227F0A121CFA
:100550002230860830A0057544018003E4F544E5A7
:10056000446004E524600AE51945187004F51AF59D
:100570001BE5446004E524600CE51945187006E5A8
:100580005464027004E4FF80027F01120FB2220261
:100590000950E86480F8E933E83360110460F0ED55
:1005A00033EC337009E8FCE9FDEAFEEBFF2204605E
:1005B000DED3EB9FEA9EE99DE8C2E78CF0C2F79597
:1005C000F0400CE8CCF8E9CDF9EACEFAEBCFFB121B
:1005D000091B85D0F05804700320D5B3E8047007D8
:1005E0005002B2D502095A92D5EC0460F7E4CCC0AF
:1005F000E0C398F8603B94186008400DD0E0FB021F
:100600000932E4FBFAC9FC8028E830E406E4C9FBBF
:10061000E4CAFCE830E305E4C9CACBFCE85407604F
:1006200010F8C3E913F9EA13FAEB13FBEC13FCD847
:10063000F130F52FC3E49CFCEF9BFFEE9AFEED99A1
:10064000FDD0E0FBEF4E4D4C701222DB0302095748
:10065000EC2CFCEF33FFEE33FEED33FDED30E7EB3A
:10066000020932EF2BFFEE3AFEED39FDD0E0FB50F0
:10067000130BBB000302095AED13FDEE13FEEF133B
:10068000FFEC13FC020932EC4D6011E8497017EDE4
:1006900033EC3304600DE4FCFFFEFD22E933E83364
:1006A0000470F802095012091B58046009E4CC24B4
:1006B00081500628500902095A284003020957C0F0
:1006C000E0EB4A7044B98006D0E0FB020946EF4EE9
:1006D000701CBD8008EBFFEAFEE9FD80EBE98DF0C0
:1006E000A4FEE5F0020770E9CDF9EAFEEBFFEF8921
:1006F000F0A4FCE5F0CE89F0A42EFFE435F0CD891E
:10070000F0A42DFEE435F08067EF4E7005BD80D774
:1007100080C3EF8BF0A4ACF0EE8BF0A42CFCE4359E
:10072000F0F8EF8AF0A42CE5F038FCE433CB8DF040
:10073000A42CFCE5F03BF8EE8AF0A42CFCE5F038A4
:10074000F8E433CF89F0A42CFCE5F038CF3400CEA8
:1007500089F0A42FFFE5F03EFEE433C98DF0A42E0E
:10076000FEE5F039CD8AF0A42FFFE5F03EFEE43D32
:10077000FD33D0E0FB50070BBB000F02095AEC2CF5
:10078000FCEF33FFEE33FEED33FD02093202095A6E
:10079000EC5D046005E85904700302095012091B5E
:1007A000580460F6EC4860F2EC7004FDFEFF22C8CD
:1007B00060DB2481C85009C39860025006020957C3
:1007C0009850CAF582E9294B4A7005AB8202094666
:1007D00075F0007C1A7880C3EF9BEE9AED99400D7E
:1007E000C3EF9BFFEE9AFEED99FDE842F0DC23ACEF
:1007F000F0D0E0FFD0E0FED0E0FDAB8220E7101BA0
:10080000EB60BAEC2CFCEF33FFEE33FEED33FD0270
:100810000932E803F830E705C0F075F000EF2FFF6C
:10082000EE33FEED33FD40B830E7C280AA74F8CC59
:100830006480CCC86480C8F58204604FC3EB9FF528
:10084000F0EA9E42F0E99D42F0E89C45F0603C50A1
:100850001DE5825FFFE582D313CB5BCBF42B558282
:10086000FB50280ABA002409B9002008801DE5823F
:100870005BFBE582D313CF5FCFF4C3132F5582FF09
:1008800050090EBE00050DBD00010CC3EB9FF5F035
:10089000EA9E42F0E99D42F0E89C45F06007CC48B2
:1008A00020E701B3EC2275F020800E75F010800572
:1008B00075F0087D007E007F003392D530D503129D
:1008C0000A02EC334010EF33FFEE33FEED33FDEC64
:1008D00033FCD5F0ED22E5F0247EA2D513CC92E7CF
:1008E000CDCEFF22EDD2E7CD33EC3392D52481403B
:1008F00006E4FFFEFDFC22FCE4CFCECDCC24E0508C
:100900001174FF80EDC3CC13CCCD13CDCE13CECF5D
:1009100013CF0470F030D5DE020A02E9D2E7C93302
:10092000E833F892D5EDD2E7CD33EC33FC5002B288
:10093000D522EC30E7100FBF000C0EBE00080DBD35
:1009400000040BEB6014A2D5EB13FCED92E7FD2243
:1009500074FFFCFDFEFF22E480F8A2D574FF13FCB7
:100960007D80E480EFEF8DF0A4A8F0CF8CF0A42878
:10097000CE8DF0A42EFE22BC000BBE0029EF8DF020
:1009800084FFADF022E4CCF875F008EF2FFFEE33D2
:10099000FEEC33FCEE9DEC984005FCEE9DFE0FD581
:1009A000F0E9E4CEFD22EDF8F5F0EE8420D21CFE55
:1009B000ADF075F008EF2FFFED33FD4007985006BE
:1009C000D5F0F222C398FD0FD5F0EA22C2D5EC3063
:1009D000E709B2D5E4C39DFDE49CFCEE30E715B217
:1009E000D5E4C39FFFE49EFE120977C3E49DFDE4B6
:1009F0009CFC800312097730D507C3E49FFFE49E77
:100A0000FE22C3E49FFFE49EFEE49DFDE49CFC22E5
:100A10008F5AE4F55BF55CF55DEDFB7A00640260EE
:100A200003020B00AF3FEF64016005EF6402701931
:100A3000C3E5139410E5129427400E751227751321
:100A400010E4F54B753F02FF22AF5A7E00C3EF94CE
:100A500064748094805003755B01D3EF9407EE6457
:100A60008094805015534BFB534BF7534BEF434B44
:100A700020434B40755D02020BE3D3EF9419EE6403
:100A80008094805015434B02534BF7534BEF434B2D
:100A900020434B40755D03020BE3D3EF9434EE64C7
:100AA0008094805015434B02434B04534BEF434B10
:100AB00020434B40755D04020BE3C3EF9463EE6487
:100AC0008094805015434B02434B04434B08434BE7
:100AD00020434B40755D05020BE3434B02434B043F
:100AE000434B08434B10434B20434B40AF3FEF6019
:100AF0000464037005E4F512F513753F01020BE37E
:100B0000C3E53F940274809480400BEB4A700775F4
:100B10003F03F54BFF22E4F53F75271512161A85A2
:100B2000175CE55C30E403121CEDD3E55A940074C5
:100B30008094805054751D0B751EB8534B2075273B
:100B400018121679E51720E205E55C30E4157527E3
:100B500015855C171216D8752721121679431720B0
:100B600012172F75271812161AE5175409600C75FD
:100B7000272112161A4317201216D8751800751956
:100B800001755D01755B01805AAF5A7E00D3EF9409
:100B900004748094805008434B02534BFB8011D364
:100BA000EF9416EE64809480500E434B02434B0446
:100BB000534BF7534BEF8025D3EF9436EE6480947C
:100BC00080500E434B02434B04434B08534BEF8082
:100BD0000C434B02434B04434B08434B10434B2005
:100BE000434B40E55B6063E4F55B050BE50B70028E
:100BF000050AAF5D7E00EF64017015D3E50B94022A
:100C0000E50A94004044E4F50AF50B634B20803A72
:100C1000D3E50B9405E50A9400402FE4F50AF50BA3
:100C2000EF64024E7005634B02801FEF64034E7049
:100C300005634B048014EF64044E7005634B088019
:100C400009EF64054E7003634B107F01227527FF87
:100C5000E4F5171216D875272312161A4317011236
:100C600016D87F107E27121CA17527247517201215
:100C700016D87517401216D87517801216D8752712
:100C8000FFE4F5171216D875272512161A43178098
:100C90001216D875271512161A1216D8121D41757C
:100CA000270812161A7517DC1216D8752716121691
:100CB0001A4317101216D875270312161A5317F075
:100CC0004317071216D875270D12161A53173F43EC
:100CD00017801216D875275512161A431780121648
:100CE000D875275612161A431701431702431704E3
:100CF0001216D875271812161A5317E31216D8753C
:100D00002719E4F5174317084317201216D875273B
:100D10003512161A4317014317081216D8752734CF
:100D200012161A4317044317104317201216D875CA
:100D30002740E4F5174317804317641216D8752728
:100D40000112161A53173F4317801216D8752750F1
:100D500012161A4317014317024317041216D875C7
:100D6000275112161A4317701216D8752723121618
:100D70001AE4F517431701431702431704431740BA
:100D80001216D875272212161A53173F431740120E
:100D900016D875272D12161A431708431710121666
:100DA000D875272E12161A53178043173C1216D8DF
:100DB00075272F12161A53178043173C1216D81294
:100DC0001D4A75274012161A43170243170443178A
:100DD000801216D875274612161A7517911216D852
:100DE00075274712161A5317E04317051216D875C0
:100DF000274512161A53178043172D1216D8752738
:100E00004F12161A53178043172D0216D87527FF55
:100E1000E4F51712172F75272312167943170112BD
:100E2000172F7F107E27121CA175272475172012FB
:100E3000172F75174012172F75178012172F752748
:100E4000FFE4F51712172F7527251216794317801F
:100E500012172F121D267527081216797517DC1226
:100E6000172F75271612167943171012172F75278B
:100E7000031216795317F043170712172F75270D12
:100E800012167953173F43178012172F75275512E3
:100E9000167943178012172F7527561216794317A4
:100EA0000143170243170412172F752718121679DA
:100EB0005317FB12172F7527191216795317F812AB
:100EC000172F752735121679431701431708121784
:100ED0002F75273412167943170443171043172030
:100EE00012172F752740E4F5174317804317641234
:100EF000172F752723121679E4F5174317014317A7
:100F00000243170443174012172F75275012167902
:100F100043170143170243170412172F7527511265
:100F2000167943177012172F752722121679531747
:100F30003F43174012172F75272D121679431708B4
:100F400043171012172F75272E1216795317804347
:100F5000173C12172F75272F121679531780431736
:100F60003C12172F121D2F752740121679431702B6
:100F700043170443178012172F75274612167975E9
:100F8000179112172F7527471216795317E0431739
:100F90000512172F752745121679531780431741ED
:100FA00012172F75274F12167953178043174102D6
:100FB000172FEF60030210D6C3E51B951EE51A95A7
:100FC0001D5009E554640260030210DBE4F54BF5A3
:100FD0003FF554F524F544F51AF51BF5357527A4AE
:100FE0001216795317F712172F75272312161A5353
:100FF00017FE1216D87527231216795317FE1217EB
:101000002FC297C292C291C28053E17F438C20438A
:101010008C40909101E054DFF0E054BFF0C295C2E3
:1010200096538CFEE04401F0538B7F909100E04496
:1010300080F0538BBFE04440F0538BDFE04420F05E
:1010400053A27F75855AE4F53120A1034331012075
:10105000860343310220A00343310430A1063086C9
:101060000320A006E5194518601B90902074A5F098
:101070009090277418F0909020745AF075875075EE
:1010800087017587A0E4F518F5197F64FE121CA18D
:1010900075272312167943170112172F752723126C
:1010A000161A4317011216D8D2807F107E27121C01
:1010B000A143A280439D01538CDF538CBF909101CB
:1010C000E054DFF0E054BFF0E4F54BF51AF51B7582
:1010D000855A43E18022E4F508F5092275841078E9
:1010E000FFE4F6D8FD9000007F007E01E4F0A3DF6E
:1010F000FCDEFA75816990908074A5F09080207470
:101100000093909082F07430909083F09090F0E093
:101110004480F0758AA0908027740093F58A9080AF
:1011200026740093F589909080745AF002116A0237
:10113000127FE493A3F8E493A34003F68001F2083E
:10114000DFF48029E493A3F85407240CC8C333C404
:10115000540F4420C8834004F456800146F6DFE46F
:10116000800B0102040810204080901D1CE47E01C9
:101170009360BCA3FF543F30E509541FFEE493A3E2
:1011800060010ECF54C025E060A840B8E493A3FAF4
:10119000E493A3F8E493A3C8C582C8CAC583CAF080
:1011A000A3C8C582C8CAC583CADFE9DEE780BE908E
:1011B0009100E04440F0438E40C29E909184E05400
:1011C000BFF0909182E04440F0909180E04440F084
:1011D000909102E04401F0439101C298909185E022
:1011E0004401F0909182E04401F0909180E044014C
:1011F000F0909101E04408F0438F08C29B909184E5
:10120000E04408F0909182E04408F0909180E0443E
:1012100008F0D2E8909102E04402F0439102C299B2
:10122000909185E04402F0909182E04402F0909128
:1012300080E04402F0438C80438C04438C02909104
:1012400001E0547FF0E054FBF0E054FDF0438B01EB
:10125000438B02438B04438B08909100E054FEF0D3
:10126000E054FDF0E054FBF0E054F7F0438C10A3A1
:10127000E054EFF0C294D280C281C282C283229035
:10128000902074A5F0A3E09000FFF0E054F0F0E0AF
:101290004402F0E0909021F0909020745AF074A5F0
:1012A000F0A37402F0909020745AF075A67C75A695
:1012B0007C75A2C3439D01D2E9D2EFD2EF7F407E7D
:1012C00042121CA17F407E42121CA11211AF121BC0
:1012D00033120C4D120E0D121B0E7F31121C227F89
:1012E00031121C227F31121C22758420E4F52475F2
:1012F0001D27751E1075855A1215B820A10A752470
:1013000001D294121472800DE4F54FF54EF54DF5AF
:101310004CC294F52412154ED3E5209464E51F9435
:101320000040D2E4F51FF52012005680C8C3E53610
:10133000940050030213DAE4F536F537538C7F90AE
:101340009101E0547FF0538CFBE0547FF0538CFD0F
:10135000E0547FF00546E546940574809480400390
:10136000E4F546E54614602714603A1460511460B1
:101370005A24047065E54B30E205438C02D291E5B6
:101380004B30E605438C04D292438C80C29722E511
:101390004B30E505438C80D297E54B30E437438CE6
:1013A00002D2918030E54B30E105438C80D297E545
:1013B0004B30E305438C04D292438C02C29122E568
:1013C0004B30E516438C80D297800AE54B30E50A16
:1013D000438C80D297438C04C29222E4F55AF55B89
:1013E000909101E054DFF0E054BFF0538CBF538C78
:1013F000DF75EFEB43E18053E20F43E22075E33BFF
:1014000053E1E043E10B7FE87E03121CA143E1407E
:1014100020C00575855A80F8AFE5755A008F5BE5E9
:101420005B755B00F55AAFE4EF425BE4C2C0AC5AB7
:10143000AD5B1208ABE4FBFA794C7842120687C028
:1014400004C005C006C007C3E553955BFDE5529592
:101450005AFCE41208ABA804A905AA06AB07D007FA
:10146000D006D005D0041207908F4A8E498D488C43
:101470004722909101E054DFF0E054BFF0538CBF5D
:10148000538CDF75EFEB43E18053E20F43E280754D
:10149000E33B75EFEB53E1E043E10A7FE87E0312A3
:1014A0001CA143E14020C00575855A80F8AFE57561
:1014B00050008F51E551755100F550AFE4EF4251A6
:1014C000E4C2C0AC50AD511208AB7BAE7A47798113
:1014D000783F1206878F4F8E4E8D4D8C4CAE50AF9D
:1014E0005122C0E0C0F0C083C082C0D075D000C01F
:1014F00000C001C002C003C004C005C006C0073060
:10150000A8310520E5207002051F051BE51B7002B0
:10151000051A0537E537700205360513E513700225
:101520000512E53E6008052FE52F7002052E121307
:101530002DC2A8D007D006D005D004D003D002D049
:1015400001D000D0D0D082D083D0F0D0E032E53EC0
:101550006065309362E4F53ED3E52F94B8E52E94B0
:101560000B401A75540275272112161A43172012C0
:1015700016D87527211216794317208032D3E52F0C
:101580009405E52E9400402AE52F94F4E52E94016D
:101590005020755401E4F51AF51B75272012161A10
:1015A0004317011216D87527201216794317011216
:1015B000172FE4F52EF52F22909101E054DFF0E093
:1015C00054BFF0538CBF538CDF75EFEB43E1805376
:1015D000E20F43E22075E33B53E1E043E1117FE892
:1015E0007E03121CA143E14020C00575855A80F896
:1015F000AFE57552008F53E553755300F552AFE4D4
:10160000EF4253AE52E5537802C333CE33CED8F90E
:10161000F5538E52C2C0E4FEFF22E4F55E121A9A20
:101620007F781217861218A0EF600FC3E55E943220
:10163000748094805004055E80E3AF2712178612F1
:1016400018A0EF600FC3E55E94327480948050045C
:10165000055E80C9121A9A7F791217861218A0EFB8
:10166000600FC3E55E9432748094805004055E8000
:10167000AC12181C8F17021C41E4F55E121A717F20
:10168000781217D11218DAEF600FC3E55E94027476
:101690008094805004055E80E3AF271217D11218A2
:1016A000DAEF600FC3E55E94027480948050040505
:1016B0005E80C9121A717F791217D11218DAEF60A1
:1016C0000FC3E55E9402748094805004055E80AC84
:1016D00012185E8F17021C59E4F55E121A9A7F7871
:1016E0001217861218A0EF600FC3E55E9432748063
:1016F00094805004055E80E3AF271217861218A06D
:10170000EF600FC3E55E9464748094805004055EBE
:1017100080C9AF171217861218A0EF600FC3E55EDD
:101720009496748094805004055E80AF021C41E45E
:10173000F55E121A717F781217D11218DAEF600F66
:10174000C3E55E9402748094805004055E80E3AF2C
:10175000271217D11218DAEF600FC3E55E940274F6
:101760008094805004055E80C9AF171217D11218FB
:10177000DAEF600FC3E55E94027480948050040534
:101780005E80AF021C598F5F438B20909100E05424
:10179000DFF0C284E4F560C3E5609408748094804F
:1017A000502EE55F30E704D2858002C285E55F25D3
:1017B000E0F55F7F037E00121CA1D2847F037E00D0
:1017C000121CA1C2847F037E00121CA1056080C789
:1017D000228F5F438C01909101E054FEF0C287E4B8
:1017E000F560C3E560940874809480502EE55F3006
:1017F000E704D2908002C290E55F25E0F55F7F03A9
:101800007E00121CA1D2877F037E00121CA1C2871A
:101810007F037E00121CA1056080C722E4F560539F
:101820008BDF909100E04420F0E4F55FC3E55F9426
:1018300008748094805021C2847F037E00121CA112
:10184000D284E56025E0F56030850205607F037E87
:1018500000121CA1055F80D4121B54AF6022E4F576
:1018600060538CFE909101E04401F0E4F55FC3E524
:101870005F9408748094805021C2877F037E001299
:101880001CA1D287E56025E0F56030900205607FFD
:10189000037E00121CA1055F80D4121B75AF60226D
:1018A000E4F55FD285538BDF909100E04420F07F18
:1018B000037E00121CA1D2847F037E00121CA13083
:1018C0008513055FD3E55F94FA7480948040F0122D
:1018D0001C417F0122C2847F0022E4F55FD2905335
:1018E0008CFE909101E04401F07F037E00121CA168
:1018F000D2877F037E00121CA1309013055FD3E5D1
:101900005F94FA7480948040F0121C597F0122C2C7
:10191000877F00228E5A8F5B8D5C7527A412167903
:101920005317FC431708E55C600543170480035315
:1019300017FB12172F7527A5E55BF51712172F75E3
:1019400027A6E55A540FF51702172FAB07AA067CF6
:10195000277D10120977EF2430FF121C227C037DB3
:10196000E8121C107D64121C0E7D0A121C0EAE02C1
:10197000AF037C007D0A120977ED2430FF021C22A0
:10198000E4F55AF55B7527301216795317E04317C3
:101990000212172F752731121679755A0085175BB9
:1019A000752732121679E517540FFEEE425AAE5AD9
:1019B000AF5B22121D41752740E4F51743178043A2
:1019C000175A1216D8121D4A75274F12161A531796
:1019D0008043172D1216D875272E12161A5317F09A
:1019E0004317010216D8121D41752740E4F517432D
:1019F000178043173C1216D8121D4A75274F12162E
:101A00001A53178043171E1216D875272E12161A4E
:101A10005317F04317010216D8E4F55A75271D1223
:101A20001679E5175431F55A75272B121679851753
:101A300061E51730E403120E0D75272C1216798517
:101A40001762AF5A22E4F55A75271D12161AE517C8
:101A500054F7F55A75272B12161A851765E51730B6
:101A6000E403120C4D75272C12161A851766AF5A0F
:101A700022438B80909100E0547FF0438C01A3E0DF
:101A800054FEF0D290D2877F037E00121CA1C29038
:101A90007F037E00121CA1C28722438B109091000D
:101AA000E054EFF0438B20E054DFF0D285D2847F06
:101AB000037E00121CA1C2857F037E00121CA1C2FE
:101AC0008422E4F55A752719121679531730E51751
:101AD0005430FF7E0064207003435A01EF64104EBF
:101AE0007003435A02AF5A22E4F55A7527191216A9
:101AF0001A5317C0E51754C0FF7E0064807003437B
:101B00005A01EF64404E7003435A02AF5A22D28208
:101B1000909131E054F0F0E04402F0438B0475D52D
:101B20000175D7027F227E00121D11439F01D2ED65
:101B3000D2EF22909101E054DFF0E054BFF0538CDB
:101B4000BF538CDF75EFEB43E18053E20F43E2209C
:101B500075E33B22C284438B20909100E054DFF078
:101B6000D2857F037E00121CA1D2847F037E0012E7
:101B70001CA1C28422C287438C01909101E054FED3
:101B8000F0D2907F037E00121CA1D2877F037E00DB
:101B9000121CA1C28722752745121679531780435C
:101BA000171E12172F75272E1216795317F0431789
:101BB0000102172F7527281216795317FB5317F7B1
:101BC00012172F75272E1216795317F0431702029A
:101BD000172F75274512161A53178043171E121612
:101BE000D875272E12161A5317F04317010216D86C
:101BF00075272812161A5317FB5317F71216D875A4
:101C0000272E12161A5317F04317020216D87C001B
:101C1000AF03AE021209777C007D0A120977ED242A
:101C200030FF30B9FD8FD922C0E0E59830E3097567
:101C30003E01752E00752F00756901759800D0E082
:101C400032438B20909100E054DFF0C285D2847F34
:101C5000037E00121CA1D28522438C01909101E0E9
:101C600054FEF0C290D2877F037E00121CA1D29056
:101C700022752725121679E5175480700B0564E547
:101C80006470020563120E0D2275272512161AE5DF
:101C9000175480700B0568E56870020567120C4DDB
:101CA00022E4FDFCC3ED9FEC9E5008000DBD000139
:101CB0000C80F175855A227527281216794317046E
:101CC00043170802172F75272812161A43170443C3
:101CD00017080216D87527281216795317FB021712
:101CE0002F7527A412167943170202172F7527A400
:101CF00012167943170102172F75272812161A4357
:101D000017040216D875272812161A5317FB021645
:101D1000D8AD07AC06ECFF8DD38FD422014B000168
:101D200042000143000075272475178102172F75A3
:101D300027FFE4F51702172F752799121679AF17A9
:101D4000227527247517810216D87527FFE4F51729
:041D50000216D8227D
:00000001FF
