:1000000002131A021F55752BA412185B431A020221
:10001000196832021720E4F565F566752B30121762
:10002000FC531AE0431A03121911752B311217FCF5
:10003000756500851A66752B321217FCE51AFEEEFF
:100040004265AE65AF667C007D0512094B8E658FFB
:10005000662222020012E4F55CF55DF55EF55FF5BF
:1000600060F564F563F562F561F51BF51C752127F4
:10007000752210121E90121EA8121D368F43121DDB
:100080005C8F44121C8D8F41121CB98F4220860751
:100090001200168E5F8F60AF51AE50AD4FAC4E1256
:1000A00008CA8E128F13E528602EE4FFFE7DC87CFF
:1000B00042AB51AA50A94FA84E1208135015050F74
:1000C000E50F7002050E94C8E50E9400400A120078
:1000D000068005E4F50EF50FE54430E01DAC5FAD9C
:1000E00060E4120891A804A905AA06AB07AF51AEB7
:1000F00050AD4FAC4E120578803DE54430E13FC332
:10010000E5609464E55F94005015050FE50F7002FB
:10011000050E940AE50E9400400A1200068005E4DC
:10012000F50EF50FAC5FAD60E4120891AB51AA502B
:10013000A94FA84E12057C1208CA8E128F13851281
:1001400026851327AE12AF137C007D051209B28EEF
:10015000128F1312169D8F2F8E2E8D2D8C2C7F4A71
:100160007E0C7DAA7C40AB2FAA2EA92DA82C1208AC
:1001700013601A40187F197E047D037C42AB2FAABE
:100180002EA92DA82C1208135003E4F535E5417073
:1001900017E5427013E528700FE54364026009E536
:1001A00044640260030202DCE528700FE543640248
:1001B0006009E54464026003020256755C02D3E5FF
:1001C000139400E512648094804008E4FDAF13AE00
:1001D000128019C3E512648094805013C3E4951310
:1001E000F513E49512F5127D01AF13FE121B887F03
:1001F000CB7EA17D657C40AB2FAA2EA92DA82C1209
:10020000081350030202A67F777E3E7D117C42AB2D
:100210002FAA2EA92DA82C12081360054003020254
:10022000A67F4A7E0C7DAA7C40AB2FAA2EA92DA8C2
:100230002C120813600250030202ED7F197E047D28
:10024000037C42AB2FAA2EA92DA82C120813400321
:100250000202ED0202D7E4F50EF50F755C01C3E56D
:1002600012648094805013C3E49513F513E495123F
:10027000F5127D01AF13FE121B887FA27E457D1E05
:100280007C40AB2FAA2EA92DA82C12081340177F53
:10029000487E617D5E7C42AB2FAA2EA92DA82C1230
:1002A00008136007400575350180427FDD7E247D9F
:1002B0003E7C40AB2FAA2EA92DA82C120813602D2E
:1002C000402B7FC37EF57D297C42AB2FAA2EA92D22
:1002D000A82C1208135016E4F5358011E4F50EF53C
:1002E0000F752BA412185B531AF7121968E54130E9
:1002F000E003435D01E54230E703435D02E5423040
:10030000E503435D04E55D6510607E855D10E55D98
:1003100024FE601914602C14602114604324FE60D4
:100320005C24067064E53D6441605E8056E53E6491
:100330002D6056753E2D121C27804EE518641E60F8
:1003400048802FE53D64416006753D41120052E54D
:100350003E641E6034753E1EE4F518121C5A802956
:10036000E53D64416006753D41120052E518641E8A
:10037000601775181EE4F53E121F5C800CE53D64A5
:10038000416006753D41120052E55B6401700AF55B
:100390005BF540F51EF51FF536121BF48E308F31DC
:1003A0007C007D0712094B8E308F318530398531C5
:1003B0003AE5356036752501E4F540AF36FED3EFFA
:1003C0009432748094804008753633E4F54C801381
:1003D000EF4E7002F54CE53675F00584E5F07003DC
:1003E000634CFF0536121EF6021EE7E4F536E525DE
:1003F00064017008F525121E28121E0A121F3A8F7A
:100400002012156BAC76AD77E4120891E4FBFA7913
:10041000C8784212066DC004C005C006C007AC70A3
:10042000AD71E4120891A804A905AA06AB07D0078C
:10043000D006D005D004120776E4FBFAF9783F1213
:10044000057C8F648E638D628C6175290085202AFE
:100450001208CAAD5C1209F6E573B5721CE534B535
:100460002A17E4B52913E546B5770EE545B57609B3
:10047000E51D6519700302053785393B853A3C85D2
:100480002A3485764585774685727385191D7F499F
:10049000121E5A7F3A121E5AAF27AE26121BBF7F7A
:1004A0000D121E5A7F0A121E5A7F56121E5A7F3A8A
:1004B000121E5AAF3AAE39121BBF7F0D121E5A7F61
:1004C0000A121E5A7F6D121E5A7F57121E5A7F3A09
:1004D000121E5AAF71AE70121BBF7F0D121E5A7FD3
:1004E0000A121E5A7F6D121E5A7F57121E5A7F3AE9
:1004F000121E5AAF77AE76121BBF7F0D121E5A7FA7
:100500000A121E5A7F44121E5A7F3A121E5AAF2AEE
:10051000AE29121BBF7F20121E5AAF727E00121B23
:10052000BF7F20121E5AAF197E00121BBF7F0D1213
:100530001E5A7F0A121E5A30860830A005754701E0
:100540008003E4F547E5476004E528600AE51C45BB
:100550001B7004F51EF51FE5476004E528600CE5F7
:100560001C451B7006E55B64027004E4FF80027F9B
:100570000112120022020936E86480F8E933E833F8
:1005800060110460F0ED33EC337009E8FCE9FDEA3A
:10059000FEEBFF220460DED3EB9FEA9EE99DE8C2FA
:1005A000E78CF0C2F795F0400CE8CCF8E9CDF9EA19
:1005B000CEFAEBCFFB12090185D0F058047003206E
:1005C000D5B3E80470075002B2D502094092D5ECC9
:1005D0000460F7E4CCC0E0C398F8603B941860086E
:1005E000400DD0E0FB020918E4FBFAC9FC8028E8C2
:1005F00030E406E4C9FBE4CAFCE830E305E4C9CA18
:10060000CBFCE854076010F8C3E913F9EA13FAEBDE
:1006100013FBEC13FCD8F130F52FC3E49CFCEF9BEB
:10062000FFEE9AFEED99FDD0E0FBEF4E4D4C7012BF
:1006300022DB0302093DEC2CFCEF33FFEE33FEED31
:1006400033FDED30E7EB020918EF2BFFEE3AFEED3C
:1006500039FDD0E0FB50130BBB0003020940ED1342
:10066000FDEE13FEEF13FFEC13FC020918EC4D60D6
:1006700011E8497017ED33EC3304600DE4FCFFFE24
:10068000FD22E933E8330470F802093612090158F3
:10069000046009E4CC24815006285009020940284E
:1006A000400302093DC0E0EB4A7044B98006D0E047
:1006B000FB02092CEF4E701CBD8008EBFFEAFEE93F
:1006C000FD80EBE98DF0A4FEE5F0020756E9CDF9D7
:1006D000EAFEEBFFEF89F0A4FCE5F0CE89F0A42E52
:1006E000FFE435F0CD89F0A42DFEE435F08067EF0E
:1006F0004E7005BD80D780C3EF8BF0A4ACF0EE8BBD
:10070000F0A42CFCE435F0F8EF8AF0A42CE5F038E6
:10071000FCE433CB8DF0A42CFCE5F03BF8EE8AF042
:10072000A42CFCE5F038F8E433CF89F0A42CFCE5E8
:10073000F038CF3400CE89F0A42FFFE5F03EFEE480
:1007400033C98DF0A42EFEE5F039CD8AF0A42FFF39
:10075000E5F03EFEE43DFD33D0E0FB50070BBB006F
:100760000F020940EC2CFCEF33FFEE33FEED33FDBE
:10077000020918020940EC5D046005E859047003A1
:10078000020936120901580460F6EC4860F2EC7078
:1007900004FDFEFF22C860DB2481C85009C39860B5
:1007A00002500602093D9850CAF582E9294B4A7069
:1007B00005AB8202092C75F0007C1A7880C3EF9B90
:1007C000EE9AED99400DC3EF9BFFEE9AFEED99FD79
:1007D000E842F0DC23ACF0D0E0FFD0E0FED0E0FD5A
:1007E000AB8220E7101BEB60BAEC2CFCEF33FFEE82
:1007F00033FEED33FD020918E803F830E705C0F0D9
:1008000075F000EF2FFFEE33FEED33FD40B830E71B
:10081000C280AA74F8CC6480CCC86480C8F5820415
:10082000604FC3EB9FF5F0EA9E42F0E99D42F0E88D
:100830009C45F0603C501DE5825FFFE582D313CB01
:100840005BCBF42B5582FB50280ABA002409B9006F
:100850002008801DE5825BFBE582D313CF5FCFF4D8
:10086000C3132F5582FF50090EBE00050DBD0001B8
:100870000CC3EB9FF5F0EA9E42F0E99D42F0E89C44
:1008800045F06007CC4820E701B3EC2275F02080EA
:100890000E75F010800575F0087D007E007F003336
:1008A00092D530D5031209E8EC334010EF33FFEE58
:1008B00033FEED33FDEC33FCD5F0ED22E5F0247E84
:1008C000A2D513CC92E7CDCEFF22EDD2E7CD33EC0B
:1008D0003392D524814006E4FFFEFDFC22FCE4CFE8
:1008E000CECDCC24E0501174FF80EDC3CC13CCCD21
:1008F00013CDCE13CECF13CF0470F030D5DE020966
:10090000E8E9D2E7C933E833F892D5EDD2E7CD3341
:10091000EC33FC5002B2D522EC30E7100FBF000CD4
:100920000EBE00080DBD00040BEB6014A2D5EB1346
:10093000FCED92E7FD2274FFFCFDFEFF22E480F84F
:10094000A2D574FF13FC7D80E480EFEF8DF0A4A8A6
:10095000F0CF8CF0A428CE8DF0A42EFE22BC000B8C
:10096000BE0029EF8DF084FFADF022E4CCF875F0E5
:1009700008EF2FFFEE33FEEC33FCEE9DEC984005C4
:10098000FCEE9DFE0FD5F0E9E4CEFD22EDF8F5F08A
:10099000EE8420D21CFEADF075F008EF2FFFED3392
:1009A000FD4007985006D5F0F222C398FD0FD5F010
:1009B000EA22C2D5EC30E709B2D5E4C39DFDE49C40
:1009C000FCEE30E715B2D5E4C39FFFE49EFE1209AA
:1009D0005DC3E49DFDE49CFC800312095D30D507F6
:1009E000C3E49FFFE49EFE22C3E49FFFE49EFEE477
:1009F0009DFDE49CFC228F65E4F566F567F568EDE6
:100A000064026003020B11E5415420FB7A0070067A
:100A1000E54254A46003E4F540AF40EF6401600593
:100A2000EF64027019C3E5159410E5149427400E85
:100A3000751427751510E4F54C754002FF22AF655B
:100A40007E00C3EF9464748094805003756601D374
:100A5000EF940AEE648094805015751901534CFB95
:100A6000534CF7534CEF434C20434C40020BB6D34E
:100A7000EF941EEE648094805018751902434C0266
:100A8000534CF7534CEF434C20434C4075680302E2
:100A90000C08D3EF943CEE648094805018751903D1
:100AA000434C02434C04534CEF434C20434C4075A1
:100AB0006804020C08C3EF9463EE648094805018BD
:100AC000751904434C02434C04434C08434C2043E7
:100AD0004C40756805020C08751905434C02434CDF
:100AE00004434C08434C10434C20434C40AF40EF70
:100AF000600464037005E4F514F515EB4A700CE529
:100B00004254A47006754001020C08E4F540020C42
:100B100008C3E540940274809480400AED70077524
:100B20004003F54CFF22E4F540752B151217FC85A8
:100B30001A67E56730E403121F05D3E520940074BB
:100B4000809480504E75210B7522B8534C20E4F5EB
:100B500019752B1812185BE51A20E205E56730E4D9
:100B600015752B1585671A121911752B2112185B33
:100B7000431A20121968752B181217FCE51A54092C
:100B80006003121F11751B00751C017568017566E5
:100B9000018075AF657E00D3EF940A748094805015
:100BA0001A751901534CFB534CF7534CEF434C202F
:100BB000434C40756601756802804DD3EF941EEE7C
:100BC000648094805011751902434C02434C0453C5
:100BD0004CF7534CEF802BD3EF943CEE6480948021
:100BE0005011751903434C02434C04434C08534CB9
:100BF000EF800F751904434C02434C04434C0843E7
:100C00004C10434C20434C40E5666071E4F56605AA
:100C10000BE50B7002050AE568650C600885680C39
:100C2000E4F50AF50BAF687E00EF64017015D3E5BB
:100C30000B9402E50A94004044E4F50AF50B634C7A
:100C400020803AD3E50B9405E50A9400402FE4F5A3
:100C50000AF50BEF64024E7005634C02801FEF64CF
:100C6000034E7005634C048014EF64044E700563FA
:100C70004C088009EF64054E7003634C107F01221D
:100C8000752BFFE4F51A121911752B231217FC436B
:100C90001A011219117F107E27121EC0752B2475A0
:100CA0001A20121911751A40121911751A80121989
:100CB00011752BFFE4F51A121911752B251217FC6B
:100CC000431A80121911752B151217FC12191112E3
:100CD0001F43752B081217FC751ADC121911752B9E
:100CE000161217FC431A10121911752B1B1217FC40
:100CF000531A3F431A80121911752B031217FC5314
:100D00001AF0431A07121911752B0D1217FC531AFA
:100D10003F431A80121911752B321217FC531AFC1B
:100D2000431A01121911752B551217FC431A801220
:100D30001911752B561217FC431A01431A02431A54
:100D400004121911752B181217FC531AE3121911FA
:100D5000752B19E4F51A431A01431A08431A204364
:100D60001A40121911752B351217FC431A01431A38
:100D700008121911752B341217FC431A04431A1068
:100D8000431A20121911752B40E4F51A431A8043B7
:100D90001A64121911E4F52B1217FC531A7F531A17
:100DA0008F431A10121911752B011217FC531A3F99
:100DB000121911752B501217FC431A01431A0243E2
:100DC0001A04121911752B511217FC431A701219BB
:100DD00011752B231217FCE4F51A431A01431A026A
:100DE000431A04431A40121911752B221217FC538F
:100DF0001A3F431A40121911752B2D1217FC431A72
:100E000008431A10121911752B2E1217FC531A8051
:100E1000431A3C121911752B2F1217FC531A8043D9
:100E20001A3C121911121F4C752B401217FC431A51
:100E300002431A04431A80121911752B461217FC2B
:100E4000751A91121911752B471217FC531AE043AA
:100E50001A05121911752B451217FC531A80431AE3
:100E60002D121911752B4F1217FC531A80431A2D8E
:100E7000021911752BFFE4F51A121968752B23124C
:100E8000185B431A011219687F107E27121EC07565
:100E90002B24751A20121968751A40121968751AD0
:100EA00080121968752BFFE4F51A121968752B2545
:100EB00012185B431A80121968121F28752B08122A
:100EC000185B751ADC121968752B1612185B431A19
:100ED00010121968752B0312185B531AF0431A0786
:100EE000121968E4F52B12185B531A7F531A8F43BB
:100EF0001A10121968752B0D12185B531A3F431AFA
:100F000080121968752B4B12185B531A3F431A4015
:100F1000121968752B5512185B431A8012196875DF
:100F20002B5612185B431A01431A02431A04121972
:100F300068752B1812185B531AFB121968752B1958
:100F400012185B531AF8431A01121968752B3512DF
:100F5000185B431A01431A08121968752B341218CA
:100F60005B431A04431A10431A20121968752B4068
:100F7000E4F51A431A80431A64121968752B231278
:100F8000185BE4F51A431A01431A02431A04431A80
:100F900040121968752B5012185B431A01431A024C
:100FA000431A04121968752B5112185B431A7012F8
:100FB0001968752B2212185B531A3F431A401219F5
:100FC00068752B2D12185B431A08431A1012196802
:100FD000752B2E12185B531A80431A3C1219687530
:100FE0002B2F12185B531A80431A3C121968121FD8
:100FF00031752B4012185B431A02431A04431A80BE
:10100000121968752B4612185B751A9112196875BA
:101010002B4712185B531AE0431A05121968752BF7
:101020004512185B531A80431A41121968752B4FE9
:1010300012185B531A80431A410219689090207469
:10104000A5F0A3E09000FFF0E054F0F0E04402F0DF
:10105000E0909021F0909020745AF074A5F0A37461
:1010600002F0909020745AF075A67C75A67C75A24B
:10107000C3439D01D2E9D2EFD2EF7F407E42121EE0
:10108000C07F407E42121EC01213ED121DA7752BA9
:10109000231217FC431A011219117F107E27121E0A
:1010A000C0752B24751A20121911751A40121911C6
:1010B000751A80121911752BD9751A20121911750C
:1010C0001A40121911751A80121911752B24751AEC
:1010D00020121968751A40121968751A8012196859
:1010E000752BD9751A20121968751A40121968756E
:1010F0001A80121968120C80120E73121D827F3131
:10110000121E5A7F31121E5A7F31121E5A758420C8
:10111000E4F52875212775221075855A1218BA1220
:101120001615D3E5249464E523940040ECE4F523FC
:10113000F52430A1030211EB121797AB51AA50A965
:101140004FA84EAF55AE54AD53AC52120578E4FBE8
:10115000FA794878431208135017E4FFFE7D487C63
:1011600042AB51AA50A94FA84E1208135003754D17
:1011700001AB55AA54A953A852AF51AE50AD4FACD4
:101180004E120578E4FBFA79487843120813501997
:10119000E4FFFE7D167C43AB51AA50A94FA84E1226
:1011A000081360054003E4F54D855155855054857D
:1011B0004F53854E52E54D64016003752801752833
:1011C00001E5356004C2948002D294E55A6401605E
:1011D00029755A01121F28752B4B12185B531A3FA1
:1011E000431A40121968121F31800FE4F54DF55172
:1011F000F550F54FF54EC294F5281200560211191C
:10120000EF6003021314C3E51F9522E51E952150DC
:1012100009E55B64026003021319E4F54CF540F53F
:1012200047F51EF51FF536752BA412185B531AF7F8
:10123000121968752B231217FC531AFE1219117517
:101240002B2312185B531AFE121968C297C292C25E
:1012500091C28053E17F438C20438C40909101E008
:1012600054DFF0E054BFF0C295C296538CFEE044C8
:1012700001F0538B7F909100E04480F0538BBFE0EE
:101280004440F0538BDFE04420F053A27F75855A31
:10129000E528700630860320A00CE51C451B70066F
:1012A000E55B6402701B90902074A5F09090277409
:1012B00018F0909020745AF07587507587017587E3
:1012C000A0E4F55BF51BF51C7F64FE121EC0752BB8
:1012D0002312185B431A01121968752B231217FC8D
:1012E000431A01121911D2807F107E27121EC043AB
:1012F000A280439D01538CDF538CBF909101E05439
:10130000DFF0E054BFF0E4F54CF51EF51F75855A8B
:1013100043E18022E4F508F5092275841078FFE4A2
:10132000F6D8FD9000007F007E01E4F0A3DFFCDE34
:10133000FA75817E90908074A5F09080207400935F
:10134000909082F07430909083F09090F0E0448020
:10135000F0758AA0908027740093F58A9080267497
:101360000093F589909080745AF00213A802103C03
:10137000E493A3F8E493A34003F68001F208DFF4BA
:101380008029E493A3F85407240CC8C333C4540F32
:101390004420C8834004F456800146F6DFE4800B05
:1013A0000102040810204080901ED6E47E01936064
:1013B000BCA3FF543F30E509541FFEE493A3600132
:1013C0000ECF54C025E060A840B8E493A3FAE4939C
:1013D000A3F8E493A3C8C582C8CAC583CAF0A3C84A
:1013E000C582C8CAC583CADFE9DEE780BE90910026
:1013F000E04440F0438E40C29E909184E054BFF0A0
:10140000909182E04440F0909180E04440F09091CF
:1014100002E04401F0439101C298909185E04401BB
:10142000F0909182E04401F0909180E04401F090CE
:101430009101E04408F0438F08C29B909184E044FE
:1014400008F0909182E04408F0909180E04408F028
:10145000D2E8909102E04402F0439102C299909147
:1014600085E04402F0909182E04402F0909180E0A7
:101470004402F0438C80438C04438C02909101E041
:10148000547FF0E054FBF0E054FDF0438B01438BBC
:1014900002438B04438B08909100E054FEF0E0542B
:1014A000FDF0E054FBF0E054F7F0438C10A3E0545F
:1014B000EFF0C294D280C281C282C28322C3E537D8
:1014C0009400500302156AE4F537F538538C7F9089
:1014D0009101E0547FF0538CFBE0547FF0538CFD7E
:1014E000E0547FF0054BE54B9405748094804003F5
:1014F000E4F54BE54B14602714603A146051146016
:101500005A24047065E54C30E205438C02D291E523
:101510004C30E605438C04D292438C80C29722E57E
:101520004C30E505438C80D297E54C30E437438C52
:1015300002D2918030E54C30E105438C80D297E5B2
:101540004C30E305438C04D292438C02C29122E5D5
:101550004C30E516438C80D297800AE54C30E50A82
:10156000438C80D297438C04C29222E4F570F571CB
:10157000752B8612185B757000851A71752B871292
:10158000185BE51AFEEE4270AC70AD71E412089182
:101590007B9F7A1C79A3784312066D1208CA8E705D
:1015A0008F71E4F576F577752B8812185B756E00F0
:1015B000851A6F752B8912185B757600851A7775F9
:1015C0002B8A12185BE51AFEEE4276AC6EAD6FE424
:1015D0001208917B4C7A1A79A3783D12066DC004EB
:1015E000C005C006C007AC76AD77E41208917B3227
:1015F0007A7779A2784112066DD003D002D001D05B
:101600000012057C1208CA8E768F77752B941218FB
:101610005B851A7222E55B64027011121F11752B33
:101620002112185B431A20121968806DE55B640172
:10163000706AE53F7025753F01F532F533F548F5E1
:101640001EF51F752B201217FC431A011219117574
:101650002B2012185B431A011219680548D3E53391
:1016600094DCE53294055028C3E5489405748094D1
:10167000804026E55A64026020755A02121F2875C0
:101680002B4B12185B531A3F121968121F31800935
:10169000E4F53FF532F533F548E4F55B22E4F56512
:1016A000F566909101E054DFF0E054BFF0538CBF39
:1016B000538CDF75EFEB43E18053E20F43E220757B
:1016C000E33B53E1E043E10B7FE87E03121EC0439E
:1016D000E14020C00575855A80F8AFE5EFADE4F52F
:1016E00065EDF566C2C0AC65E4120891E4FBFA79D9
:1016F0004C784212066DC004C005C006C007C3E5A1
:10170000599566FDE5589565FCE4120891A804A971
:1017100005AA06AB07D007D006D005D0040207768D
:10172000C0E0C0F0C083C082C0D075D000C000C08F
:1017300001C002C003C004C005C006C00730A83CF9
:101740000524E52470020523051FE51F7002051E10
:101750000538E538700205370515E51570020514E2
:10176000057DE57D7002057C121AD9E53F6008050C
:1017700033E533700205321214BDC2A8D007D0067B
:10178000D005D004D003D002D001D000D0D0D08278
:10179000D083D0F0D0E032909101E054DFF0E054FB
:1017A000BFF0538CBF538CDF75EFEB43E18053E206
:1017B0000F43E28075E33B75EFEB53E1E043E10A51
:1017C0007FE87E03121EC043E14020C00575855AA4
:1017D00080F8AFE5EFADE4F556EDF557C2C0AC5675
:1017E000E41208917BAE7A477981783F12066D8FBB
:1017F000518E508D4F8C4EAE56AF5722E4F5691284
:101800001D0E7F781219BF121B14EF600FC3E5691C
:101810009432748094805004056980E3AF2B1219D0
:10182000BF121B14EF600FC3E5699432748094807B
:101830005004056980C9121D0E7F791219BF121B51
:1018400014EF600FC3E569943274809480500405EE
:101850006980AC121A558F1A021E60E4F569121CD9
:10186000E57F78121A0A121B4EEF600FC3E56994E8
:1018700002748094805004056980E3AF2B121A0A29
:10188000121B4EEF600FC3E5699402748094805080
:1018900004056980C9121CE57F79121A0A121B4ED1
:1018A000EF600FC3E5699402748094805004056969
:1018B00080AC121A978F1A021E78909101E054DFC3
:1018C000F0E054BFF0538CBF538CDF75EFEB43E176
:1018D0008053E20F43E22075E33B53E1E043E11123
:1018E0007FE87E03121EC043E14020C00575855A83
:1018F00080F8AFE5EFADE4F558EDF559AE58780254
:10190000C333CE33CED8F9F5598E58C2C0E4FEFFAA
:1019100022E4F569121D0E7F781219BF121B14EF15
:10192000600FC3E569943274809480500405698027
:10193000E3AF2B1219BF121B14EF600FC3E56994BC
:1019400064748094805004056980C9AF1A1219BF6D
:10195000121B14EF600FC3E5699496748094805055
:1019600004056980AF021E60E4F569121CE57F780A
:10197000121A0A121B4EEF600FC3E56994027480BD
:1019800094805004056980E3AF2B121A0A121B4E93
:10199000EF600FC3E5699402748094805004056978
:1019A00080C9AF1A121A0A121B4EEF600FC3E56905
:1019B0009402748094805004056980AF021E788F71
:1019C0006A438B20909100E054DFF0C284E4F56B11
:1019D000C3E56B940874809480502EE56A30E70468
:1019E000D2858002C285E56A25E0F56A7F037E0024
:1019F000121EC0D2847F037E00121EC0C2847F03E9
:101A00007E00121EC0056B80C7228F6A438C019036
:101A10009101E054FEF0C287E4F56BC3E56B9408D6
:101A200074809480502EE56A30E704D2908002C220
:101A300090E56A25E0F56A7F037E00121EC0D2871A
:101A40007F037E00121EC0C2877F037E00121EC06D
:101A5000056B80C722E4F56B538BDF909100E04467
:101A600020F0E4F56AC3E56A9408748094805021FC
:101A7000C2847F037E00121EC0D284E56B25E0F590
:101A80006B308502056B7F037E00121EC0056A80E5
:101A9000D4121DC8AF6B22E4F56B538CFE909101FC
:101AA000E04401F0E4F56AC3E56A94087480948028
:101AB0005021C2877F037E00121EC0D287E56B25AE
:101AC000E0F56B309002056B7F037E00121EC005AF
:101AD0006A80D4121DE9AF6B22209309054AE54ABA
:101AE0007031054922D3E54A9410E5499427400511
:101AF000755B028019C3E54A9405E5499400400EE0
:101B0000D3E54A94F4E54994015003755B01E4F58B
:101B100049F54A22E4F56AD285538BDF909100E0C3
:101B20004420F07F037E00121EC0D2847F037E001B
:101B3000121EC0308513056AD3E56A94FA74809446
:101B40008040F0121E607F0122C2847F0022E4F5F3
:101B50006AD290538CFE909101E04401F07F037EA5
:101B600000121EC0D2877F037E00121EC030901369
:101B7000056AD3E56A94FA7480948040F0121E7866
:101B80007F0122C2877F00228E658F668D67752B4D
:101B9000A412185B531AFC431A08E5676005431A40
:101BA000048003531AFB121968752BA5E566F51A14
:101BB000121968752BA6E565540FF51A021968AB62
:101BC00007AA067C277D1012095DEF2430FF121E44
:101BD0005A7C037DE8121E487D64121E467D0A125F
:101BE0001E46AE02AF037C007D0A12095DED243073
:101BF000FF021E5AE4F565F566752B3012185B532B
:101C00001AE0431A02121968752B3112185B7565B8
:101C100000851A66752B3212185BE51A540FFEEE1A
:101C20004265AE65AF6622121F43752B40E4F51A7C
:101C3000431A80431A5A121911121F4C752B4F1256
:101C400017FC531A80431A2D121911752B2E1217D7
:101C5000FC531AF0431A01021911121F43752B404D
:101C6000E4F51A431A80431A3C121911121F4C75DD
:101C70002B4F1217FC531A80431A1E121911752B81
:101C80002E1217FC531AF0431A01021911E4F565DC
:101C9000752B1D12185BE51A5431F565752B2B1247
:101CA000185B851A6CE51A30E403120E73752B2C41
:101CB00012185B851A6DAF6522E4F565752B1D1250
:101CC00017FCE51A54F7F565752B2B1217FC851ACE
:101CD00078E51A30E403120C80752B2C1217FC8562
:101CE0001A79AF6522438B80909100E0547FF043D6
:101CF0008C01A3E054FEF0D290D2877F037E0012C5
:101D00001EC0C2907F037E00121EC0C28722438B7A
:101D100010909100E054EFF0438B20E054DFF0D2BC
:101D200085D2847F037E00121EC0C2857F037E00A1
:101D3000121EC0C28422E4F565752B1912185B537C
:101D40001A30E51A5430FF7E0064207003436501A9
:101D5000EF64104E7003436502AF6522E4F56575CC
:101D60002B191217FC531AC0E51A54C0FF7E0064E9
:101D7000807003436501EF64404E7003436502AF1A
:101D80006522D282909131E054F0F0E04402F043B9
:101D90008B0475D50175D7027F227E00121F1D436B
:101DA0009F01D2EDD2EF22909101E054DFF0E05498
:101DB000BFF0538CBF538CDF75EFEB43E18053E2F0
:101DC0000F43E22075E33B22C284438B20909100B5
:101DD000E054DFF0D2857F037E00121EC0D2847FE4
:101DE000037E00121EC0C28422C287438C019091E0
:101DF00001E054FEF0D2907F037E00121EC0D28715
:101E00007F037E00121EC0C28722752B2812185B2A
:101E1000531AFB531AF7121968752B2E12185B53BD
:101E20001AF0431A02021968752B281217FC531A6C
:101E3000FB531AF7121911752B2E1217FC531AF0B7
:101E4000431A020219117C00AF03AE0212095D7C35
:101E5000007D0A12095DED2430FF30B9FD8FD922D3
:101E6000438B20909100E054DFF0C285D2847F0341
:101E70007E00121EC0D28522438C01909101E05455
:101E8000FEF0C290D2877F037E00121EC0D2902245
:101E9000752B2512185BE51A5480700B0575E575D6
:101EA00070020574120E7322752B251217FCE51AA9
:101EB0005480700B057BE57B7002057A120C802242
:101EC000E4FDFCC3ED9FEC9E5008000DBD00010C2D
:101ED00080F175855A2201480002490000014C003A
:101EE00001430001440000752B2812185B431A04BB
:101EF000431A08021968752B281217FC431A044369
:101F00001A08021911752BA412185B431A01021941
:101F100068752B211217FC431A20021911AD07AC6A
:101F200006ECFF8DD38FD422752B24751A810219EC
:101F300068752BFFE4F51A021968752B9912185B66
:101F4000AF1A22752B24751A81021911752BFFE423
:0D1F5000F51A021911757E017598003222F4
:00000001FF
