:10000000021165021CB1752B281217024319040254
:1000100017B83202156BE4F562F563752B301216D2
:10002000A35319E0431903121761752B311216A35C
:10003000756200851963752B321216A3E519FEEE61
:100040004262AE62AF637C007D051209EE8E628F64
:10005000632222020012E4F55DF55EF55FF560F5BE
:1000600061F51AF51B752127752210121CFA121D55
:1000700012121B4B8F4A121B718F4B121AA28F4800
:10008000121ACE8F492086071200168E608F61AF3C
:1000900057AE56AD55AC5412096D8E108F118510A8
:1000A00026851127856017856118E528607CAB5788
:1000B000AA56A955A854AF35AE34AD33AC321206AA
:1000C0001BE4FBFA794878431208B65021E4FFFE9E
:1000D0007D487C42AB57AA56A955A8541208B65081
:1000E0000DE4F528F557F556F555F5548045855737
:1000F00035855634855533855432E4FFFE7DC87C02
:1001000042AB57AA56A955A8541208B65015050D6A
:10011000E50D7002050C940AE50C94004015121DC3
:100120006A8010E4F50CF50D8009E4F535F534F539
:1001300033F532E54B30E01DAC60AD61E4120934BB
:10014000A804A905AA06AB07AF57AE56AD55AC54E7
:1001500012061B803DE54B30E13FC3E5619464E549
:100160006094005015050DE50D7002050C940AE52C
:100170000C9400400A121D6A8005E4F50CF50DACE4
:1001800060AD61E4120934AB57AA56A955A85412C0
:10019000061F12096D8E108F11AE10AF117C007DFD
:1001A00005120A558E108F111214648F2F8E2E8D0A
:1001B0002D8C2C7F4A7E0C7DAA7C40AB2FAA2EA9C9
:1001C0002DA82C1208B6601A40187F197E047D03F2
:1001D0007C42AB2FAA2EA92DA82C1208B65003E4FE
:1001E000F53AE5487017E5497013E528700FE54AC0
:1001F00064026009E54B64026003020331E5287084
:100200000FE54A64026009E54B640260030202AB39
:10021000755D02D3E5119400E51064809480400878
:10022000E4FDAF11AE108019C3E5106480948050D6
:1002300013C3E49511F511E49510F5107D01AF118C
:10024000FE12199D7FCB7EA17D657C40AB2FAA2E2F
:10025000A92DA82C1208B650030202FB7F777E3E20
:100260007D117C42AB2FAA2EA92DA82C1208B660B6
:100270000540030202FB7F4A7E0C7DAA7C40AB2F27
:10028000AA2EA92DA82C1208B66002500302034220
:100290007F197E047D037C42AB2FAA2EA92DA82CAA
:1002A0001208B6400302034202032CE4F50CF50DDC
:1002B000755D01C3E510648094805013C3E495110B
:1002C000F511E49510F5107D01AF11FE12199D7F17
:1002D000A27E457D1E7C40AB2FAA2EA92DA82C12F4
:1002E00008B640177F487E617D5E7C42AB2FAA2E08
:1002F000A92DA82C1208B660074005753A01804266
:100300007FDD7E247D3E7C40AB2FAA2EA92DA82C1C
:100310001208B6602D402B7FC37EF57D297C42AB51
:100320002FAA2EA92DA82C1208B65016E4F53A8053
:1003300011E4F50CF50D752BA41217025319F712E1
:1003400017B8AF4A7E00C3EF940274809480500BBC
:10035000C3E54B940274809480407CC3EF9402EE1A
:10036000648094804022E54B94027480948040180D
:10037000E50F60030204A1750F01E545642D602BB4
:1003800075452D121A3C8023C3E54A94027480946B
:10039000804021E50F640170030204A1750F01E59F
:1003A00045642D600675452D121A3C121D82121DE2
:1003B0005E0204A1C3E54B94027480948050030252
:1003C00004A1E50F640270030204A1750F0212007C
:1003D00006121D8E0204A1E50F6009E4F50F121D3F
:1003E0005E121D8EE54830E003435E01E54930E7CB
:1003F00003435E02E54930E503435E0420A11EE5A8
:1004000044641E600675441E121C1FE545641E7080
:10041000030204A175451E121C5B0204A1E55E6582
:100420000E607E855E0EE55E24FE601914602C145D
:10043000602114604324FE605C24067064E544641B
:1004400041605E8056E545642D605675452D121A53
:100450003C804EE516641E6048802FE54464416090
:1004600006754441120052E545641E603475451E10
:10047000E4F516121A6F8029E5446441600675445C
:1004800041120052E516641E601775161EE4F5450C
:10049000121DDC800CE54464416006754441120085
:1004A00052E55C6401700AF55CF547F51CF51DF535
:1004B0003D121A098E308F317C007D071209EE8EB5
:1004C000308F31853040853141E53A603675250100
:1004D000E4F547AF3DFED3EF94327480948040083A
:1004E000753D33E4F5538013EF4E7002F553E53D4F
:1004F00075F00584E5F070036353FF053D121D4F51
:10050000021D40E4F53DE52564017008F525121C47
:1005100079121C3D121DC18F207529008F2AAD5DF7
:10052000120A99E53CB52727E53BB52622E543B5F8
:10053000411DE542B54018E538B52A13E4B5290F49
:10054000E51F65187004E51E651770030205DA855E
:10055000263B85273C854042854143852A388517BF
:100560001E85181F7F49121CAB7F3A121CABAF27A8
:10057000AE261219D47F0D121CAB7F0A121CAB7F62
:1005800049121CAB7F3A121CABAF18AE171219D42C
:100590007F0D121CAB7F0A121CAB7F20121CAB7F9D
:1005A00056121CAB7F3A121CABAF41AE401219D4AD
:1005B0007F0D121CAB7F0A121CAB7F20121CAB7F7D
:1005C00044121CAB7F3A121CABAF2AAE291219D4CD
:1005D0007F0D121CAB7F0A121CAB30860830A005C1
:1005E000754C018003E4F54CE54C6004E528600A95
:1005F000E51B451A7004F51CF51DE54C6004E52863
:10060000600CE51B451A7006E55C64027004E4FFAB
:1006100080027F0112103B220209D9E86480F8E9C8
:1006200033E83360110460F0ED33EC337009E8FC1B
:10063000E9FDEAFEEBFF220460DED3EB9FEA9EE9D0
:100640009DE8C2E78CF0C2F795F0400CE8CCF8E9E1
:10065000CDF9EACEFAEBCFFB1209A485D0F058040D
:10066000700320D5B3E80470075002B2D50209E345
:1006700092D5EC0460F7E4CCC0E0C398F8603B94FA
:10068000186008400DD0E0FB0209BBE4FBFAC9FC8E
:100690008028E830E406E4C9FBE4CAFCE830E3055E
:1006A000E4C9CACBFCE854076010F8C3E913F9EABF
:1006B00013FAEB13FBEC13FCD8F130F52FC3E49CD9
:1006C000FCEF9BFFEE9AFEED99FDD0E0FBEF4E4D67
:1006D0004C701222DB030209E0EC2CFCEF33FFEE3E
:1006E00033FEED33FDED30E7EB0209BBEF2BFFEE00
:1006F0003AFEED39FDD0E0FB50130BBB00030209BD
:10070000E3ED13FDEE13FEEF13FFEC13FC0209BB48
:10071000EC4D6011E8497017ED33EC3304600DE4E3
:10072000FCFFFEFD22E933E8330470F80209D91218
:1007300009A458046009E4CC248150062850090219
:1007400009E32840030209E0C0E0EB4A7044B980A5
:1007500006D0E0FB0209CFEF4E701CBD8008EBFF16
:10076000EAFEE9FD80EBE98DF0A4FEE5F00207F971
:10077000E9CDF9EAFEEBFFEF89F0A4FCE5F0CE89C4
:10078000F0A42EFFE435F0CD89F0A42DFEE435F081
:100790008067EF4E7005BD80D780C3EF8BF0A4ACAF
:1007A000F0EE8BF0A42CFCE435F0F8EF8AF0A42CEA
:1007B000E5F038FCE433CB8DF0A42CFCE5F03BF8FD
:1007C000EE8AF0A42CFCE5F038F8E433CF89F0A4ED
:1007D0002CFCE5F038CF3400CE89F0A42FFFE5F0F3
:1007E0003EFEE433C98DF0A42EFEE5F039CD8AF04B
:1007F000A42FFFE5F03EFEE43DFD33D0E0FB5007C3
:100800000BBB000F0209E3EC2CFCEF33FFEE33FED1
:10081000ED33FD0209BB0209E3EC5D046005E85914
:100820000470030209D91209A4580460F6EC486068
:10083000F2EC7004FDFEFF22C860DB2481C8500981
:10084000C398600250060209E09850CAF582E9296F
:100850004B4A7005AB820209CF75F0007C1A788094
:10086000C3EF9BEE9AED99400DC3EF9BFFEE9AFE0E
:10087000ED99FDE842F0DC23ACF0D0E0FFD0E0FEE3
:10088000D0E0FDAB8220E7101BEB60BAEC2CFCEF54
:1008900033FFEE33FEED33FD0209BBE803F830E72A
:1008A00005C0F075F000EF2FFFEE33FEED33FD4095
:1008B000B830E7C280AA74F8CC6480CCC86480C821
:1008C000F58204604FC3EB9FF5F0EA9E42F0E99D8C
:1008D00042F0E89C45F0603C501DE5825FFFE582F8
:1008E000D313CB5BCBF42B5582FB50280ABA0024E0
:1008F00009B9002008801DE5825BFBE582D313CF98
:100900005FCFF4C3132F5582FF50090EBE00050DB3
:10091000BD00010CC3EB9FF5F0EA9E42F0E99D4259
:10092000F0E89C45F06007CC4820E701B3EC227565
:10093000F020800E75F010800575F0087D007E00B7
:100940007F003392D530D503120A8BEC334010EF81
:1009500033FFEE33FEED33FDEC33FCD5F0ED22E555
:10096000F0247EA2D513CC92E7CDCEFF22EDD2E7C4
:10097000CD33EC3392D524814006E4FFFEFDFC220A
:10098000FCE4CFCECDCC24E0501174FF80EDC3CC7D
:1009900013CCCD13CDCE13CECF13CF0470F030D502
:1009A000DE020A8BE9D2E7C933E833F892D5EDD2FB
:1009B000E7CD33EC33FC5002B2D522EC30E7100F18
:1009C000BF000C0EBE00080DBD00040BEB6014A2AE
:1009D000D5EB13FCED92E7FD2274FFFCFDFEFF2238
:1009E000E480F8A2D574FF13FC7D80E480EFEF8DE6
:1009F000F0A4A8F0CF8CF0A428CE8DF0A42EFE2277
:100A0000BC000BBE0029EF8DF084FFADF022E4CCDA
:100A1000F875F008EF2FFFEE33FEEC33FCEE9DECA3
:100A2000984005FCEE9DFE0FD5F0E9E4CEFD22EDE9
:100A3000F8F5F0EE8420D21CFEADF075F008EF2F33
:100A4000FFED33FD4007985006D5F0F222C398FD24
:100A50000FD5F0EA22C2D5EC30E709B2D5E4C39D48
:100A6000FDE49CFCEE30E715B2D5E4C39FFFE49EA5
:100A7000FE120A00C3E49DFDE49CFC8003120A0000
:100A800030D507C3E49FFFE49EFE22C3E49FFFE44A
:100A90009EFEE49DFDE49CFC228F62E4F563F56418
:100AA000F565EDFB7A0064026003020B89AF47EF46
:100AB00064016005EF64027019C3E5139410E51238
:100AC0009427400E751227751310E4F553754702ED
:100AD000FF22AF627E00C3EF946474809480500361
:100AE000756301D3EF9407EE6480948050155353DF
:100AF000FB5353F75353EF43532043534075650261
:100B0000020C6CD3EF9419EE64809480501543531B
:100B1000025353F75353EF43532043534075650338
:100B2000020C6CD3EF9434EE6480948050154353E0
:100B3000024353045353EF4353204353407565041A
:100B4000020C6CC3EF9463EE6480948050154353A1
:100B500002435304435308435320435340756505F0
:100B6000020C6C4353024353044353084353104352
:100B70005320435340AF47EF600464037005E4F52E
:100B800012F513754701020C6CC3E547940274809B
:100B90009480400BEB4A7007754703F553FF22E43E
:100BA000F547752B151216A3851964E56430E40327
:100BB000121D76D3E56294007480948050547521A0
:100BC0000B7522B8535320752B18121702E5192004
:100BD000E205E56430E415752B158564191217617B
:100BE000752B211217024319201217B8752B1812F2
:100BF00016A3E5195409600C752B211216A343198D
:100C000020121761751A00751B0175650175630166
:100C1000805AAF627E00D3EF9404748094805008B1
:100C20004353025353FB8011D3EF9416EE64809428
:100C300080500E4353024353045353F75353EF80F2
:100C400025D3EF9436EE64809480500E43530243D4
:100C500053044353085353EF800C4353024353044C
:100C6000435308435310435320435340E5636063A9
:100C7000E4F563050BE50B7002050AAF657E00EF36
:100C800064017015D3E50B9402E50A94004044E436
:100C9000F50AF50B635320803AD3E50B9405E50A7A
:100CA0009400402FE4F50AF50BEF64024E700563E3
:100CB0005302801FEF64034E70056353048014EFEA
:100CC00064044E70056353088009EF64054E700399
:100CD0006353107F0122752BFFE4F519121761751C
:100CE0002B231216A34319011217617F107E2712BE
:100CF0001D2A752B247519201217617519401217BA
:100D000061751980121761752BFFE4F519121761CF
:100D1000752B251216A3431980121761752B151216
:100D200016A3121761121DCA752B081216A3751986
:100D3000DC121761752B161216A3431910121761D6
:100D4000752B031216A35319F04319071217617577
:100D50002B0D1216A353193F431980121761752BDF
:100D6000551216A3431980121761752B561216A33C
:100D7000431901431902431904121761752B181204
:100D800016A35319E3121761752B19E4F5194319CA
:100D900008431920121761752B351216A343190148
:100DA000431908121761752B341216A34319044313
:100DB0001910431920121761752B40E4F5194319D6
:100DC00080431964121761752B011216A353193F42
:100DD000431980121761752B501216A34319014352
:100DE0001902431904121761752B511216A34319E6
:100DF00070121761752B231216A3E4F5194319011C
:100E0000431902431904431940121761752B22122A
:100E100016A353193F431940121761752B2D121653
:100E2000A3431908431910121761752B2E1216A32C
:100E300053198043193C121761752B2F1216A353B7
:100E4000198043193C121761121DD3752B401216DD
:100E5000A3431902431904431980121761752B46E5
:100E60001216A3751991121761752B471216A35309
:100E700019E0431905121761752B451216A3531972
:100E80008043192D121761752B4F1216A353198029
:100E900043192D021761752BFFE4F5191217B87568
:100EA0002B231217024319011217B87F107E271245
:100EB0001D2A752B247519201217B87519401217A1
:100EC000B87519801217B8752BFFE4F5191217B809
:100ED000752B251217024319801217B8121DAF7512
:100EE0002B081217027519DC1217B8752B1612177A
:100EF000024319101217B8752B031217025319F079
:100F00004319071217B8752B0D12170253193F43D7
:100F100019801217B8752B55121702431980121732
:100F2000B8752B56121702431901431902431904CD
:100F30001217B8752B181217025319FB1217B87530
:100F40002B191217025319F81217B8752B351217EF
:100F5000024319014319081217B8752B34121702EE
:100F60004319044319104319201217B8752B40E494
:100F7000F5194319804319641217B8752B231217FA
:100F800002E4F519431901431902431904431940B6
:100F90001217B8752B501217024319014319024357
:100FA00019041217B8752B51121702431970121732
:100FB000B8752B2212170253193F4319401217B864
:100FC000752B2D1217024319084319101217B87503
:100FD0002B2E12170253198043193C1217B8752B88
:100FE0002F12170253198043193C1217B8121DB85B
:100FF000752B40121702431902431904431980123A
:1010000017B8752B461217027519911217B8752B60
:10101000471217025319E04319051217B8752B45EB
:101020001217025319804319411217B8752B4F122A
:1010300017025319804319410217B8EF60030211D8
:101040005FC3E51D9522E51C95215009E55C64020E
:101050006003021164E4F553F547F55CF528F54C9F
:10106000F51CF51DF53D752BA41217025319F71247
:1010700017B8752B231216A35319FE121761752B7F
:10108000231217025319FE1217B8C297C292C291C7
:10109000C28053E17F438C20438C40909101E05407
:1010A000DFF0E054BFF0C295C296538CFEE04401DD
:1010B000F0538B7F909100E04480F0538BBFE0446D
:1010C00040F0538BDFE04420F053A27F75855AE453
:1010D000F53920A10343390120860343390220A0BA
:1010E0000343390430A10630860320A006E51B45E2
:1010F0001A601B90902074A5F09090277418F090BF
:101100009020745AF07587507587017587A0E4F5B3
:101110001AF51B7F64FE121D2A752B23121702433A
:1011200019011217B8752B231216A34319011217B0
:1011300061D2807F107E27121D2A43A280439D0129
:10114000538CDF538CBF909101E054DFF0E054BF2B
:10115000F0E4F553F51CF51D75855A43E18022E452
:10116000F508F5092275841078FFE4F6D8FD9000A3
:10117000007F007E01E4F0A3DFFCDEFA7581719050
:10118000908074A5F0908020740093909082F07409
:1011900030909083F09090F0E04480F0758AA090B9
:1011A0008027740093F58A908026740093F58990C7
:1011B0009080745AF00211F3021308E493A3F8E448
:1011C00093A34003F68001F208DFF48029E493A39F
:1011D000F85407240CC8C333C4540F4420C88340B8
:1011E00004F456800146F6DFE4800B010204081087
:1011F000204080901DA5E47E019360BCA3FF543F76
:1012000030E509541FFEE493A360010ECF54C025BE
:10121000E060A840B8E493A3FAE493A3F8E493A3AE
:10122000C8C582C8CAC583CAF0A3C8C582C8CAC512
:1012300083CADFE9DEE780BE909100E04440F043DE
:101240008E40C29E909184E054BFF0909182E04421
:1012500040F0909180E04440F0909102E04401F031
:10126000439101C298909185E04401F0909182E011
:101270004401F0909180E04401F0909101E0440835
:10128000F0438F08C29B909184E04408F0909182D3
:10129000E04408F0909180E04408F0D2E890910298
:1012A000E04402F0439102C299909185E04402F03B
:1012B000909182E04402F0909180E04402F0438CEF
:1012C00080438C04438C02909101E0547FF0E05401
:1012D000FBF0E054FDF0438B01438B02438B04434E
:1012E0008B08909100E054FEF0E054FDF0E054FBD8
:1012F000F0E054F7F0438C10A3E054EFF0C294D226
:1013000080C281C282C2832290902074A5F0A3E0A3
:101310009000FFF0E054F0F0E04402F0E090902103
:10132000F0909020745AF074A5F0A37402F090909D
:1013300020745AF075A67C75A67C75A2C3439D01E6
:10134000D2E9D2EFD2EF7F407E42121D2A7F407E4B
:1013500042121D2A121238121BBC120CD6120E9603
:10136000121B977F31121CAB7F31121CAB7F3112E5
:101370001CAB758420E4F52875212775221075852E
:101380005A12164120A10A752801D2941214FB802A
:101390000DE4F557F556F555F554C294F528121598
:1013A000D7D3E5249464E523940040D2E4F523F5F3
:1013B0002412005680C8C3E53E9400500302146313
:1013C000E4F53EF53F538C7F909101E0547FF0535C
:1013D0008CFBE0547FF0538CFDE0547FF0054EE52C
:1013E0004E9405748094804003E4F54EE54E1460FD
:1013F0002714603A14605114605A24047065E55350
:1014000030E205438C02D291E55330E605438C046B
:10141000D292438C80C29722E55330E505438C80FD
:10142000D297E55330E437438C02D2918030E553B4
:1014300030E105438C80D297E55330E305438C04BB
:10144000D292438C02C29122E55330E516438C8040
:10145000D297800AE55330E50A438C80D297438CBB
:1014600004C29222E4F562F563909101E054DFF04A
:10147000E054BFF0538CBF538CDF75EFEB43E1803A
:1014800053E20F43E22075E33B53E1E043E10B7F7E
:10149000E87E03121D2A43E14020C00575855A806D
:1014A000F8AFE57562008F63E563756300F562AFC1
:1014B000E4EF4263E4C2C0AC62AD63120934E4FB02
:1014C000FA794C7842120710C004C005C006C00764
:1014D000C3E55B9563FDE55A9562FCE4120934A807
:1014E00004A905AA06AB07D007D006D005D0041280
:1014F00008198F528E518D508C4F22909101E054DB
:10150000DFF0E054BFF0538CBF538CDF75EFEB433B
:10151000E18053E20F43E28075E33B75EFEB53E16B
:10152000E043E10A7FE87E03121D2A43E14020C028
:101530000575855A80F8AFE57558008F59E55975DE
:101540005900F558AFE4EF4259E4C2C0AC58AD5968
:101550001209347BAE7A477981783F1207108F5792
:101560008E568D558C54AE58AF5922C0E0C0F0C095
:1015700083C082C0D075D000C000C001C002C003CB
:10158000C004C005C006C00730A8310524E524709A
:10159000020523051DE51D7002051C053FE53F7092
:1015A00002053E0513E51370020512E546600805C5
:1015B00037E537700205361213B6C2A8D007D00639
:1015C000D005D004D003D002D001D000D0D0D0823A
:1015D000D083D0F0D0E032E5466065309362E4F528
:1015E00046D3E53794B8E536940B401A755C02751E
:1015F0002B211216A3431920121761752B211217E4
:10160000024319208032D3E5379405E53694004033
:101610002AE53794F4E53694015020755C01E4F531
:101620001CF51D752B201216A343190112176175A5
:101630002B201217024319011217B8E4F536F537BB
:1016400022909101E054DFF0E054BFF0538CBF537F
:101650008CDF75EFEB43E18053E20F43E22075E34B
:101660003B53E1E043E1117FE87E03121D2A43E191
:101670004020C00575855A80F8AFE5755A008F5B2C
:10168000E55B755B00F55AAFE4EF425BAE5AE55B94
:101690007802C333CE33CED8F9F55B8E5AC2C0E49C
:1016A000FEFF22E4F566121B237F7812180F121931
:1016B00029EF600FC3E5669432748094805004056E
:1016C0006680E3AF2B12180F121929EF600FC3E5E4
:1016D000669432748094805004056680C9121B237E
:1016E0007F7912180F121929EF600FC3E566943243
:1016F000748094805004056680AC1218A58F19027E
:101700001CCAE4F566121AFA7F7812185A12196385
:10171000EF600FC3E5669402748094805004056600
:1017200080E3AF2B12185A121963EF600FC3E566FE
:101730009402748094805004056680C9121AFA7F5E
:101740007912185A121963EF600FC3E56694027498
:101750008094805004056680AC1218E78F19021C33
:10176000E2E4F566121B237F7812180F121929EF95
:10177000600FC3E5669432748094805004056680DF
:10178000E3AF2B12180F121929EF600FC3E566940F
:1017900064748094805004056680C9AF1912180FD4
:1017A000121929EF600FC3E56694967480948050F7
:1017B00004056680AF021CCAE4F566121AFA7F7847
:1017C00012185A121963EF600FC3E5669402748011
:1017D00094805004056680E3AF2B12185A121963E7
:1017E000EF600FC3E5669402748094805004056630
:1017F00080C9AF1912185A121963EF600FC3E5665A
:101800009402748094805004056680AF021CE28FBD
:1018100067438B20909100E054DFF0C284E4F568C8
:10182000C3E568940874809480502EE56730E7041F
:10183000D2858002C285E56725E0F5677F037E00DB
:10184000121D2AD2847F037E00121D2AC2847F03C8
:101850007E00121D2A056880C7228F67438C019085
:101860009101E054FEF0C287E4F568C3E56894088E
:1018700074809480502EE56730E704D2908002C2D5
:1018800090E56725E0F5677F037E00121D2AD28769
:101890007F037E00121D2AC2877F037E00121D2A4D
:1018A000056880C722E4F568538BDF909100E0441F
:1018B00020F0E4F567C3E5679408748094805021B4
:1018C000C2847F037E00121D2AD284E56825E0F5DC
:1018D0006830850205687F037E00121D2A05678037
:1018E000D4121BDDAF6822E4F568538CFE909101A1
:1018F000E04401F0E4F567C3E567940874809480E0
:101900005021C2877F037E00121D2AD287E56825F9
:10191000E0F56830900205687F037E00121D2A05FD
:101920006780D4121BFEAF6822E4F567D285538B23
:10193000DF909100E04420F07F037E00121D2AD248
:10194000847F037E00121D2A3085130567D3E56767
:1019500094FA7480948040F0121CCA7F0122C284E1
:101960007F0022E4F567D290538CFE909101E04411
:1019700001F07F037E00121D2AD2877F037E0012B2
:101980001D2A3090130567D3E56794FA748094801C
:1019900040F0121CE27F0122C2877F00228E628FFC
:1019A000638D64752BA41217025319FC431908E5C3
:1019B00064600543190480035319FB1217B8752B93
:1019C000A5E563F5191217B8752BA6E562540FF556
:1019D000190217B8AB07AA067C277D10120A00EF80
:1019E0002430FF121CAB7C037DE8121C997D64122D
:1019F0001C977D0A121C97AE02AF037C007D0A1271
:101A00000A00ED2430FF021CABE4F562F563752B90
:101A1000301217025319E04319021217B8752B310F
:101A2000121702756200851963752B32121702E5D1
:101A300019540FFEEE4262AE62AF6322121DCA75E8
:101A40002B40E4F51943198043195A121761121DEE
:101A5000D3752B4F1216A353198043192D121761FA
:101A6000752B2E1216A35319F04319010217611298
:101A70001DCA752B40E4F51943198043193C121710
:101A800061121DD3752B4F1216A353198043191ED3
:101A9000121761752B2E1216A35319F04319010268
:101AA0001761E4F562752B1D121702E5195431F523
:101AB00062752B2B121702851969E51930E40312A0
:101AC0000E96752B2C12170285196AAF6222E4F567
:101AD00062752B1D1216A3E51954F7F562752B2BB1
:101AE0001216A385196DE51930E403120CD6752B77
:101AF0002C1216A385196EAF6222438B8090910041
:101B0000E0547FF0438C01A3E054FEF0D290D287E2
:101B10007F037E00121D2AC2907F037E00121D2AC1
:101B2000C28722438B10909100E054EFF0438B204A
:101B3000E054DFF0D285D2847F037E00121D2AC2DA
:101B4000857F037E00121D2AC28422E4F562752B74
:101B500019121702531930E5195430FF7E00642022
:101B60007003436201EF64104E7003436202AF6280
:101B700022E4F562752B191216A35319C0E5195406
:101B8000C0FF7E0064807003436201EF64404E70CA
:101B900003436202AF6222D282909131E054F0F0AE
:101BA000E04402F0438B0475D50175D7027F227E95
:101BB00000121D9A439F01D2EDD2EF22909101E0D5
:101BC00054DFF0E054BFF0538CBF538CDF75EFEB64
:101BD00043E18053E20F43E22075E33B22C284439A
:101BE0008B20909100E054DFF0D2857F037E0012BD
:101BF0001D2AD2847F037E00121D2AC28422C2873E
:101C0000438C01909101E054FEF0D2907F037E005E
:101C1000121D2AD2877F037E00121D2AC2872275D9
:101C20002B4512170253198043191E1217B8752B32
:101C30002E1217025319F04319010217B8752B28F9
:101C40001217025319FB5319F71217B8752B2E12DE
:101C500017025319F04319020217B8752B451216D3
:101C6000A353198043191E121761752B2E1216A348
:101C70005319F0431901021761752B281216A3534B
:101C800019FB5319F7121761752B2E1216A353194E
:101C9000F04319020217617C00AF03AE02120A0082
:101CA0007C007D0A120A00ED2430FF30B9FD8FD987
:101CB00022C0E0E59830E3097546017536007537B6
:101CC00000757101759800D0E032438B209091002F
:101CD000E054DFF0C285D2847F037E00121D2AD239
:101CE0008522438C01909101E054FEF0C290D2878E
:101CF0007F037E00121D2AD29022752B2512170217
:101D0000E5195480700B056CE56C7002056B120EC2
:101D10009622752B251216A3E5195480700B0570B9
:101D2000E5707002056F120CD622E4FDFCC3ED9F36
:101D3000EC9E5008000DBD00010C80F175855A2203
:101D4000752B281217024319044319080217B87596
:101D50002B281216A3431904431908021761752B87
:101D6000281217025319FB0217B8752BA412170279
:101D70004319020217B8752BA41217024319010266
:101D800017B8752B281216A3431904021761752B77
:101D9000281216A35319FB021761AD07AC06ECFF1E
:101DA0008DD38FD422015300014A00014B000075EE
:101DB0002B247519810217B8752BFFE4F51902174A
:101DC000B8752B99121702AF1922752B247519813A
:0D1DD000021761752BFFE4F519021761225F
:00000001FF
