:10000000021302021DE3752BA4121819431A0202EF
:10001000192632021680E4F561F562752B3012174D
:10002000BA531AE0431A031218CF752B311217BABC
:10003000756100851A62752B321217BAE51AFEEE49
:100040004261AE61AF627C007D0512094B8E618F0B
:10005000622222020012E4F558F559F55AF55BF5D3
:100060005CF560F55FF55EF55DF51BF51C75212708
:10007000752210121E2C121E44121CB98F43121C22
:10008000DF8F44121C108F41121C3C8F42208607C8
:100090001200168E5B8F5CAF4EAE4DAD4CAC4B126A
:1000A00008CA8E128F13E528602EE4FFFE7DC87CFF
:1000B00042AB4EAA4DA94CA84B1208135015050F80
:1000C000E50F7002050E94C8E50E9400400A120078
:1000D000068005E4F50EF50FE54430E01DAC5BADA0
:1000E0005CE4120891A804A905AA06AB07AF4EAEBE
:1000F0004DAD4CAC4B120578803DE54430E13FC33B
:10010000E55C9464E55B94005015050FE50F700203
:10011000050E940AE50E9400400A1200068005E4DC
:10012000F50EF50FAC5BAD5CE4120891AB4EAA4D39
:10013000A94CA84B12057C1208CA8E128F13851287
:1001400026851327AE12AF137C007D051209B28EEF
:10015000128F131215FD8F2F8E2E8D2D8C2C7F4A12
:100160007E0C7DAA7C40AB2FAA2EA92DA82C1208AC
:1001700013601A40187F197E047D037C42AB2FAABE
:100180002EA92DA82C1208135003E4F535E5417073
:1001900017E5427013E528700FE54364026009E536
:1001A00044640260030202DCE528700FE543640248
:1001B0006009E54464026003020256755802D3E503
:1001C000139400E512648094804008E4FDAF13AE00
:1001D000128019C3E512648094805013C3E4951310
:1001E000F513E49512F5127D01AF13FE121B0B7F80
:1001F000CB7EA17D657C40AB2FAA2EA92DA82C1209
:10020000081350030202A67F777E3E7D117C42AB2D
:100210002FAA2EA92DA82C12081360054003020254
:10022000A67F4A7E0C7DAA7C40AB2FAA2EA92DA8C2
:100230002C120813600250030202ED7F197E047D28
:10024000037C42AB2FAA2EA92DA82C120813400321
:100250000202ED0202D7E4F50EF50F755801C3E571
:1002600012648094805013C3E49513F513E495123F
:10027000F5127D01AF13FE121B0B7FA27E457D1E82
:100280007C40AB2FAA2EA92DA82C12081340177F53
:10029000487E617D5E7C42AB2FAA2EA92DA82C1230
:1002A00008136007400575350180427FDD7E247D9F
:1002B0003E7C40AB2FAA2EA92DA82C120813602D2E
:1002C000402B7FC37EF57D297C42AB2FAA2EA92D22
:1002D000A82C1208135016E4F5358011E4F50EF53C
:1002E0000F752BA4121819531AF7121926E541306D
:1002F000E003435901E54230E703435902E5423048
:10030000E503435904E5596510607E855910E559A8
:1003100024FE601914602C14602114604324FE60D4
:100320005C24067064E53D6441605E8056E53E6491
:100330002D6056753E2D121BAA804EE518641E6076
:1003400048802FE53D64416006753D41120052E54D
:100350003E641E6034753E1EE4F518121BDD8029D4
:10036000E53D64416006753D41120052E518641E8A
:10037000601775181EE4F53E121EEA800CE53D6418
:10038000416006753D41120052E5576401700AF55F
:1003900057F540F51EF51FF536121B778E308F315D
:1003A0007C007D0712094B8E308F318530398531C5
:1003B0003AE5356036752501E4F540AF36FED3EFFA
:1003C0009432748094804008753633E4F549801384
:1003D000EF4E7002F549E53675F00584E5F07003DF
:1003E0006349FF0536121E81021E72E4F536E525CB
:1003F00064017008F525121DAB121D8D121ECF8FE2
:1004000020121553AC72AD73E4120891E4FBFA7933
:10041000C8784212066DC004C005C006C007AC6CA7
:10042000AD6DE4120891A804A905AA06AB07D00790
:10043000D006D005D004120776E4FBFAF9783F1213
:10044000057C8F608E5F8D5E8C5D75290085202A0E
:100450001208CAAD581209F6E56FB56E1CE534B541
:100460002A17E4B52913E546B5730EE545B57209BB
:10047000E51D6519700302053785393B853A3C85D2
:100480002A34857245857346856E6F85191D7F49AF
:10049000121DDD7F3A121DDDAF27AE26121B427FF3
:1004A0000D121DDD7F0A121DDD7F56121DDD7F3A04
:1004B000121DDDAF3AAE39121B427F0D121DDD7FDA
:1004C0000A121DDD7F6D121DDD7F57121DDD7F3A83
:1004D000121DDDAF6DAE6C121B427F0D121DDD7F54
:1004E0000A121DDD7F6D121DDD7F57121DDD7F3A63
:1004F000121DDDAF73AE72121B427F0D121DDD7F28
:100500000A121DDD7F44121DDD7F3A121DDDAF2A68
:10051000AE29121B427F20121DDDAF6E7E00121B22
:10052000427F20121DDDAF197E00121B427F0D128B
:100530001DDD7F0A121DDD30860830A005754701DC
:100540008003E4F547E5476004E528600AE51C45BB
:100550001B7004F51EF51FE5476004E528600CE5F7
:100560001C451B7006E55764027004E4FF80027F9F
:10057000011211E822020936E86480F8E933E83311
:1005800060110460F0ED33EC337009E8FCE9FDEA3A
:10059000FEEBFF220460DED3EB9FEA9EE99DE8C2FA
:1005A000E78CF0C2F795F0400CE8CCF8E9CDF9EA19
:1005B000CEFAEBCFFB12090185D0F058047003206E
:1005C000D5B3E80470075002B2D502094092D5ECC9
:1005D0000460F7E4CCC0E0C398F8603B941860086E
:1005E000400DD0E0FB020918E4FBFAC9FC8028E8C2
:1005F00030E406E4C9FBE4CAFCE830E305E4C9CA18
:10060000CBFCE854076010F8C3E913F9EA13FAEBDE
:1006100013FBEC13FCD8F130F52FC3E49CFCEF9BEB
:10062000FFEE9AFEED99FDD0E0FBEF4E4D4C7012BF
:1006300022DB0302093DEC2CFCEF33FFEE33FEED31
:1006400033FDED30E7EB020918EF2BFFEE3AFEED3C
:1006500039FDD0E0FB50130BBB0003020940ED1342
:10066000FDEE13FEEF13FFEC13FC020918EC4D60D6
:1006700011E8497017ED33EC3304600DE4FCFFFE24
:10068000FD22E933E8330470F802093612090158F3
:10069000046009E4CC24815006285009020940284E
:1006A000400302093DC0E0EB4A7044B98006D0E047
:1006B000FB02092CEF4E701CBD8008EBFFEAFEE93F
:1006C000FD80EBE98DF0A4FEE5F0020756E9CDF9D7
:1006D000EAFEEBFFEF89F0A4FCE5F0CE89F0A42E52
:1006E000FFE435F0CD89F0A42DFEE435F08067EF0E
:1006F0004E7005BD80D780C3EF8BF0A4ACF0EE8BBD
:10070000F0A42CFCE435F0F8EF8AF0A42CE5F038E6
:10071000FCE433CB8DF0A42CFCE5F03BF8EE8AF042
:10072000A42CFCE5F038F8E433CF89F0A42CFCE5E8
:10073000F038CF3400CE89F0A42FFFE5F03EFEE480
:1007400033C98DF0A42EFEE5F039CD8AF0A42FFF39
:10075000E5F03EFEE43DFD33D0E0FB50070BBB006F
:100760000F020940EC2CFCEF33FFEE33FEED33FDBE
:10077000020918020940EC5D046005E859047003A1
:10078000020936120901580460F6EC4860F2EC7078
:1007900004FDFEFF22C860DB2481C85009C39860B5
:1007A00002500602093D9850CAF582E9294B4A7069
:1007B00005AB8202092C75F0007C1A7880C3EF9B90
:1007C000EE9AED99400DC3EF9BFFEE9AFEED99FD79
:1007D000E842F0DC23ACF0D0E0FFD0E0FED0E0FD5A
:1007E000AB8220E7101BEB60BAEC2CFCEF33FFEE82
:1007F00033FEED33FD020918E803F830E705C0F0D9
:1008000075F000EF2FFFEE33FEED33FD40B830E71B
:10081000C280AA74F8CC6480CCC86480C8F5820415
:10082000604FC3EB9FF5F0EA9E42F0E99D42F0E88D
:100830009C45F0603C501DE5825FFFE582D313CB01
:100840005BCBF42B5582FB50280ABA002409B9006F
:100850002008801DE5825BFBE582D313CF5FCFF4D8
:10086000C3132F5582FF50090EBE00050DBD0001B8
:100870000CC3EB9FF5F0EA9E42F0E99D42F0E89C44
:1008800045F06007CC4820E701B3EC2275F02080EA
:100890000E75F010800575F0087D007E007F003336
:1008A00092D530D5031209E8EC334010EF33FFEE58
:1008B00033FEED33FDEC33FCD5F0ED22E5F0247E84
:1008C000A2D513CC92E7CDCEFF22EDD2E7CD33EC0B
:1008D0003392D524814006E4FFFEFDFC22FCE4CFE8
:1008E000CECDCC24E0501174FF80EDC3CC13CCCD21
:1008F00013CDCE13CECF13CF0470F030D5DE020966
:10090000E8E9D2E7C933E833F892D5EDD2E7CD3341
:10091000EC33FC5002B2D522EC30E7100FBF000CD4
:100920000EBE00080DBD00040BEB6014A2D5EB1346
:10093000FCED92E7FD2274FFFCFDFEFF22E480F84F
:10094000A2D574FF13FC7D80E480EFEF8DF0A4A8A6
:10095000F0CF8CF0A428CE8DF0A42EFE22BC000B8C
:10096000BE0029EF8DF084FFADF022E4CCF875F0E5
:1009700008EF2FFFEE33FEEC33FCEE9DEC984005C4
:10098000FCEE9DFE0FD5F0E9E4CEFD22EDF8F5F08A
:10099000EE8420D21CFEADF075F008EF2FFFED3392
:1009A000FD4007985006D5F0F222C398FD0FD5F010
:1009B000EA22C2D5EC30E709B2D5E4C39DFDE49C40
:1009C000FCEE30E715B2D5E4C39FFFE49EFE1209AA
:1009D0005DC3E49DFDE49CFC800312095D30D507F6
:1009E000C3E49FFFE49EFE22C3E49FFFE49EFEE477
:1009F0009DFDE49CFC228F61E4F562F563F564EDF6
:100A000064026003020B11E5415420FB7A0070067A
:100A1000E54254A46003E4F540AF40EF6401600593
:100A2000EF64027019C3E5159410E5149427400E85
:100A3000751427751510E4F549754002FF22AF6162
:100A40007E00C3EF9464748094805003756201D378
:100A5000EF940AEE6480948050157519015349FB98
:100A60005349F75349EF434920434940020BB6D35A
:100A7000EF941EEE64809480501875190243490269
:100A80005349F75349EF43492043494075640302F2
:100A90000C08D3EF943CEE648094805018751903D1
:100AA0004349024349045349EF43492043494075B0
:100AB0006404020C08C3EF9463EE648094805018C1
:100AC00075190443490243490443490843492043F3
:100AD0004940756405020C087519054349024349EC
:100AE00004434908434910434920434940AF40EF7C
:100AF000600464037005E4F514F515EB4A700CE529
:100B00004254A47006754001020C08E4F540020C42
:100B100008C3E540940274809480400AED70077524
:100B20004003F549FF22E4F540752B151217BA85ED
:100B30001A63E56330E403121E90D3E52094007439
:100B4000809480504E75210B7522B8534920E4F5EE
:100B500019752B18121819E51A20E205E56330E41F
:100B600015752B1585631A1218CF752B21121819BC
:100B7000431A20121926752B181217BAE51A5409B0
:100B80006003121E9C751B00751C01756401756263
:100B9000018075AF617E00D3EF940A748094805019
:100BA0001A7519015349FB5349F75349EF4349203B
:100BB000434940756201756402804DD3EF941EEE87
:100BC00064809480501175190243490243490453CB
:100BD00049F75349EF802BD3EF943CEE6480948027
:100BE00050117519034349024349044349085349C5
:100BF000EF800F75190443490243490443490843F0
:100C00004910434920434940E5626071E4F56205BB
:100C10000BE50B7002050AE564650C600885640C41
:100C2000E4F50AF50BAF647E00EF64017015D3E5BF
:100C30000B9402E50A94004044E4F50AF50B63497D
:100C400020803AD3E50B9405E50A9400402FE4F5A3
:100C50000AF50BEF64024E7005634902801FEF64D2
:100C6000034E70056349048014EF64044E700563FD
:100C700049088009EF64054E70036349107F012223
:100C8000752BFFE4F51A1218CF752B231217BA43F0
:100C90001A011218CF7F107E27121E5C752B247547
:100CA0001A201218CF751A401218CF751A80121810
:100CB000CF752BFFE4F51A1218CF752B251217BA32
:100CC000431A801218CF752B151217BA1218CF12AB
:100CD0001ED8752B081217BA751ADC1218CF752B8F
:100CE000161217BA431A101218CF752B1B1217BA07
:100CF000531A3F431A801218CF752B031217BA5399
:100D00001AF0431A071218CF752B0D1217BA531A7F
:100D10003F431A801218CF752B321217BA531AFCA0
:100D2000431A011218CF752B551217BA431A8012A5
:100D300018CF752B561217BA431A01431A02431AD9
:100D4000041218CF752B181217BA531AE31218CFC2
:100D5000752B19E4F51A431A01431A08431A204364
:100D60001A401218CF752B351217BA431A01431ABD
:100D7000081218CF752B341217BA431A04431A10ED
:100D8000431A201218CF752B40E4F51A431A8043FA
:100D90001A641218CFE4F52B1217BA531A7F531A9C
:100DA0008F431A101218CF752B011217BA531A3F1E
:100DB0001218CF752B501217BA431A01431A024367
:100DC0001A041218CF752B511217BA431A70121841
:100DD000CF752B231217BAE4F51A431A01431A02EE
:100DE000431A04431A401218CF752B221217BA5314
:100DF0001A3F431A401218CF752B2D1217BA431AF7
:100E000008431A101218CF752B2E1217BA531A80D6
:100E1000431A3C1218CF752B2F1217BA531A80435E
:100E20001A3C1218CF121EE1752B401217BA431A42
:100E300002431A04431A801218CF752B461217BAB0
:100E4000751A911218CF752B471217BA531AE0432F
:100E50001A051218CF752B451217BA531A80431A68
:100E60002D1218CF752B4F1217BA531A80431A2D13
:100E70000218CF752BFFE4F51A121926752B2312D1
:100E80001819431A011219267F107E27121E5C754D
:100E90002B24751A20121926751A40121926751A54
:100EA00080121926752BFFE4F51A121926752B25C9
:100EB000121819431A80121926121EBD752B08121A
:100EC0001819751ADC121926752B16121819431ADF
:100ED00010121926752B03121819531AF0431A070A
:100EE000121926E4F52B121819531A7F531A8F433F
:100EF0001A10121926752B0D121819531A3F431A7E
:100F000080121926752B4B121819531A3F431A4099
:100F1000121926752B55121819431A8012192675A5
:100F20002B56121819431A01431A02431A041219B4
:100F300026752B18121819531AFB121926752B191E
:100F4000121819531AF8431A01121926752B351263
:100F50001819431A01431A08121926752B3412184E
:100F600019431A04431A10431A20121926752B40EC
:100F7000E4F51A431A80431A64121926752B2312BA
:100F80001819E4F51A431A01431A02431A04431AC2
:100F900040121926752B50121819431A01431A02D0
:100FA000431A04121926752B51121819431A70127C
:100FB0001926752B22121819531A3F431A40121979
:100FC00026752B2D121819431A08431A10121926C8
:100FD000752B2E121819531A80431A3C12192675B4
:100FE0002B2F121819531A80431A3C121926121E5D
:100FF000C6752B40121819431A02431A04431A806B
:10100000121926752B46121819751A911219267580
:101010002B47121819531AE0431A05121926752B7B
:1010200045121819531A80431A41121926752B4F6D
:10103000121819531A80431A4102192690902074ED
:10104000A5F0A3E09000FFF0E054F0F0E04402F0DF
:10105000E0909021F0909020745AF074A5F0A37461
:1010600002F0909020745AF075A67C75A67C75A24B
:10107000C3439D01D2E9D2EFD2EF7F407E42121EE0
:101080005C7F407E42121E5C1213D5121D2A752B06
:10109000231217BA431A011218CF752B23121819ED
:1010A000431A011219267F107E27121E5C752B240D
:1010B000751A201218CF751A401218CF751A80129F
:1010C00018CF752BD9751A201218CF751A4012181F
:1010D000CF751A801218CF752B24751A2012192675
:1010E000751A40121926751A80121926752BD97592
:1010F0001A20121926751A40121926751A8012190B
:1011000026120C80120E73121D057F31121DDD7F19
:1011100031121DDD7F31121DDD758420E4F5287547
:10112000212775221075855A121878121759D3E5A0
:10113000249464E523940040ECE4F523F52430A1E5
:10114000030211D31216F4AB4EAA4DA94CA84BAF13
:1011500052AE51AD50AC4F120578E4FBFA794878A5
:10116000431208135017E4FFFE7D487C42AB4EAAA1
:101170004DA94CA84B1208135003754A01AB52AA53
:1011800051A950A84FAF4EAE4DAD4CAC4B120578A7
:10119000E4FBFA794878431208135019E4FFFE7D06
:1011A000167C43AB4EAA4DA94CA84B120813600500
:1011B0004003E4F54A854E52854D51854C50854B90
:1011C0004FE54A64016005752801D294752801D263
:1011D00094800FE4F54AF54EF54DF54CF54BC2946D
:1011E000F528120056021125EF60030212FCC3E538
:1011F0001F9522E51E95215009E557640260030200
:101200001301E4F549F540F547F51EF51FF5367570
:101210002BA4121819531AF7121926752B2312171B
:10122000BA531AFE1218CF752B23121819531AFE2F
:10123000121926C297C292C291C28053E17F438C99
:1012400020438C40909101E054DFF0E054BFF0C2A5
:1012500095C296538CFEE04401F0538B7F90910031
:10126000E04480F0538BBFE04440F0538BDFE04418
:1012700020F053A27F75855AE5287006308603203A
:10128000A00CE51C451B7006E5576402701B90908E
:101290002074A5F09090277418F0909020745AF064
:1012A0007587507587017587A0E4F557F51BF51C08
:1012B0007F64FE121E5C752B23121819431A01124B
:1012C0001926752B231217BA431A011218CFD28090
:1012D0007F107E27121E5C43A280439D01538CDF4A
:1012E000538CBF909101E054DFF0E054BFF0E4F57F
:1012F00049F51EF51F75855A43E18022E4F508F58E
:10130000092275841078FFE4F6D8FD9000007F0074
:101310007E01E4F0A3DFFCDEFA75817A90908074A0
:10132000A5F0908020740093909082F0743090909B
:1013300083F09090F0E04480F0758AA0908027744C
:101340000093F58A908026740093F58990908074BC
:101350005AF002139002103CE493A3F8E493A340E4
:1013600003F68001F208DFF48029E493A3F8540720
:10137000240CC8C333C4540F4420C8834004F4561B
:10138000800146F6DFE4800B010204081020408053
:10139000901EB3E47E019360BCA3FF543F30E50987
:1013A000541FFEE493A360010ECF54C025E060A853
:1013B00040B8E493A3FAE493A3F8E493A3C8C582E6
:1013C000C8CAC583CAF0A3C8C582C8CAC583CADF54
:1013D000E9DEE780BE909100E04440F0438E40C2D9
:1013E0009E909184E054BFF0909182E04440F09050
:1013F0009180E04440F0909102E04401F04391017B
:10140000C298909185E04401F0909182E04401F00F
:10141000909180E04401F0909101E04408F0438F06
:1014200008C29B909184E04408F0909182E04408C7
:10143000F0909180E04408F0D2E8909102E04402FC
:10144000F0439102C299909185E04402F09091821C
:10145000E04402F0909180E04402F0438C80438CA1
:1014600004438C02909101E0547FF0E054FBF0E0E3
:1014700054FDF0438B01438B02438B04438B089054
:101480009100E054FEF0E054FDF0E054FBF0E05435
:10149000F7F0438C10A3E054EFF0C294D280C281E5
:1014A000C282C28322C3E53794005003021552E47E
:1014B000F537F538538C7F909101E0547FF0538CD1
:1014C000FBE0547FF0538CFDE0547FF00548E54885
:1014D0009405748094804003E4F548E5481460273F
:1014E00014603A14605114605A24047065E5493060
:1014F000E205438C02D291E54930E605438C04D2E3
:1015000092438C80C29722E54930E505438C80D216
:1015100097E54930E437438C02D2918030E5493079
:10152000E105438C80D297E54930E305438C04D232
:1015300092438C02C29122E54930E516438C80D259
:1015400097800AE54930E50A438C80D297438C04A2
:10155000C29222E4F56CF56D752B86121819756C24
:1015600000851A6D752B87121819E51AFEEE426C6C
:10157000AC6CAD6DE41208917B9F7A1C79A3784323
:1015800012066D1208CA8E6C8F6DE4F572F57375D4
:101590002B88121819756A00851A6B752B89121819
:1015A00019757200851A73752B8A121819E51AFEBF
:1015B000EE4272AC6AAD6BE41208917B4C7A1A79F8
:1015C000A3783D12066DC004C005C006C007AC720A
:1015D000AD73E41208917B327A7779A278411206D2
:1015E0006DD003D002D001D00012057C1208CA8E43
:1015F000728F73752B94121819851A6E22E4F56197
:10160000F562909101E054DFF0E054BFF0538CBFDD
:10161000538CDF75EFEB43E18053E20F43E220751B
:10162000E33B53E1E043E10B7FE87E03121E5C43A2
:10163000E14020C00575855A80F8AFE5EFADE4F5CF
:1016400061EDF562C2C0AC61E4120891E4FBFA7985
:101650004C784212066DC004C005C006C007C3E541
:10166000569562FDE5559561FCE4120891A804A920
:1016700005AA06AB07D007D006D005D0040207762E
:10168000C0E0C0F0C083C082C0D075D000C000C030
:1016900001C002C003C004C005C006C00730A8399D
:1016A0000524E52470020523051FE51F7002051EB1
:1016B0000538E538700205370515E5157002051483
:1016C0000579E57970020578E53F60080533E53373
:1016D000700205321214A5C2A8D007D006D005D0DA
:1016E00004D003D002D001D000D0D0D082D083D09B
:1016F000F0D0E032909101E054DFF0E054BFF053BD
:101700008CBF538CDF75EFEB43E18053E20F43E274
:101710008075E33B75EFEB53E1E043E10A7FE87E40
:1017200003121E5C43E14020C00575855A80F8AF66
:10173000E5EFADE4F553EDF554C2C0AC53E4120847
:10174000917BAE7A477981783F12066D8F4E8E4D30
:101750008D4C8C4BAE53AF5422E53F605C309359B7
:10176000E4F53FD3E5339410E532942740117557E3
:1017700002121E9C752B21121819431A208032D395
:10178000E5339405E5329400402AE53394F4E532DC
:1017900094015020755701E4F51EF51F752B20129A
:1017A00017BA431A011218CF752B20121819431AB1
:1017B00001121926E4F532F53322E4F565121C9185
:1017C0007F7812197D121A97EF600FC3E565943286
:1017D000748094805004056580E3AF2B12197D124C
:1017E0001A97EF600FC3E5659432748094805004BB
:1017F000056580C9121C917F7912197D121A97EF25
:10180000600FC3E565943274809480500405658050
:10181000AC121A138F1A021DFCE4F565121C687FC6
:10182000781219C8121AD1EF600FC3E565940274DB
:101830008094805004056580E3AF2B1219C8121AFA
:10184000D1EF600FC3E56594027480948050040565
:101850006580C9121C687F791219C8121AD1EF600D
:101860000FC3E5659402748094805004056580ACD4
:10187000121A558F1A021E14909101E054DFF0E005
:1018800054BFF0538CBF538CDF75EFEB43E18053B3
:10189000E20F43E22075E33B53E1E043E1117FE8CF
:1018A0007E03121E5C43E14020C00575855A80F816
:1018B000AFE5EFADE4F555EDF556AE557802C3331F
:1018C000CE33CED8F9F5568E55C2C0E4FEFF22E4E1
:1018D000F565121C917F7812197D121A97EF600F2F
:1018E000C3E5659432748094805004056580E3AF4D
:1018F0002B12197D121A97EF600FC3E5659464747B
:101900008094805004056580C9AF1A12197D121A9F
:1019100097EF600FC3E5659496748094805004053A
:101920006580AF021DFCE4F565121C687F78121912
:10193000C8121AD1EF600FC3E565940274809480D9
:101940005004056580E3AF2B1219C8121AD1EF605D
:101950000FC3E5659402748094805004056580C9C6
:10196000AF1A1219C8121AD1EF600FC3E5659402BD
:10197000748094805004056580AF021E148F664306
:101980008B20909100E054DFF0C284E4F567C3E55A
:1019900067940874809480502EE56630E704D28501
:1019A0008002C285E56625E0F5667F037E00121E93
:1019B0005CD2847F037E00121E5CC2847F037E00A3
:1019C000121E5C056780C7228F66438C01909101CF
:1019D000E054FEF0C287E4F567C3E56794087480BD
:1019E0009480502EE56630E704D2908002C290E5E4
:1019F0006625E0F5667F037E00121E5CD2877F03BA
:101A00007E00121E5CC2877F037E00121E5C05678B
:101A100080C722E4F567538BDF909100E04420F00B
:101A2000E4F566C3E5669408748094805021C2840E
:101A30007F037E00121E5CD284E56725E0F56730E7
:101A4000850205677F037E00121E5C056680D41246
:101A50001D4BAF6722E4F567538CFE909101E04483
:101A600001F0E4F566C3E566940874809480502123
:101A7000C2877F037E00121E5CD287E56725E0F5F2
:101A80006730900205677F037E00121E5C0566804A
:101A9000D4121D6CAF6722E4F566D285538BDF90BC
:101AA0009100E04420F07F037E00121E5CD2847F10
:101AB000037E00121E5C3085130566D3E56694FA3A
:101AC0007480948040F0121DFC7F0122C2847F004C
:101AD00022E4F566D290538CFE909101E04401F02F
:101AE0007F037E00121E5CD2877F037E00121E5C85
:101AF0003090130566D3E56694FA7480948040F0C4
:101B0000121E147F0122C2877F00228E618F628D98
:101B100063752BA4121819531AFC431A08E5636065
:101B200005431A048003531AFB121926752BA5E5E9
:101B300062F51A121926752BA6E561540FF51A02E3
:101B40001926AB07AA067C277D1012095DEF243009
:101B5000FF121DDD7C037DE8121DCB7D64121DC9C3
:101B60007D0A121DC9AE02AF037C007D0A12095D19
:101B7000ED2430FF021DDDE4F561F562752B3012B6
:101B80001819531AE0431A02121926752B3112182C
:101B900019756100851A62752B32121819E51A54ED
:101BA0000FFEEE4261AE61AF6222121ED8752B406D
:101BB000E4F51A431A80431A5A1218CF121EE1751F
:101BC0002B4F1217BA531A80431A2D1218CF752BA8
:101BD0002E1217BA531AF0431A010218CF121ED848
:101BE000752B40E4F51A431A80431A3C1218CF12A1
:101BF0001EE1752B4F1217BA531A80431A1E121882
:101C0000CF752B2E1217BA531AF0431A010218CFB0
:101C1000E4F561752B1D121819E51A5431F561753B
:101C20002B2B121819851A68E51A30E403120E736B
:101C3000752B2C121819851A69AF6122E4F56175AC
:101C40002B1D1217BAE51A54F7F561752B2B1217D5
:101C5000BA851A74E51A30E403120C80752B2C1225
:101C600017BA851A75AF6122438B80909100E054BA
:101C70007FF0438C01A3E054FEF0D290D2877F0323
:101C80007E00121E5CC2907F037E00121E5CC28723
:101C900022438B10909100E054EFF0438B20E054EE
:101CA000DFF0D285D2847F037E00121E5CC2857F66
:101CB000037E00121E5CC28422E4F561752B1912AA
:101CC0001819531A30E51A5430FF7E00642070034F
:101CD000436101EF64104E7003436102AF6122E47F
:101CE000F561752B191217BA531AC0E51A54C0FFC3
:101CF0007E0064807003436101EF64404E700343D3
:101D00006102AF6122D282909131E054F0F0E04460
:101D100002F0438B0475D50175D7027F227E001235
:101D20001EA8439F01D2EDD2EF22909101E054DF33
:101D3000F0E054BFF0538CBF538CDF75EFEB43E101
:101D40008053E20F43E22075E33B22C284438B20A1
:101D5000909100E054DFF0D2857F037E00121E5C7C
:101D6000D2847F037E00121E5CC28422C287438C11
:101D700001909101E054FEF0D2907F037E00121E8C
:101D80005CD2877F037E00121E5CC28722752B28DF
:101D9000121819531AFB531AF7121926752B2E1203
:101DA0001819531AF0431A02021926752B28121714
:101DB000BA531AFB531AF71218CF752B2E1217BAF3
:101DC000531AF0431A020218CF7C00AF03AE02127E
:101DD000095D7C007D0A12095DED2430FF30B9FDFC
:101DE0008FD922C0E0E59830E309753F01753200D4
:101DF000753300757A01759800D0E032438B2090DE
:101E00009100E054DFF0C285D2847F037E00121E71
:101E10005CD28522438C01909101E054FEF0C29087
:101E2000D2877F037E00121E5CD29022752B251272
:101E30001819E51A5480700B0571E5717002057070
:101E4000120E7322752B251217BAE51A5480700BE7
:101E50000577E57770020576120C8022E4FDFCC35D
:101E6000ED9FEC9E5008000DBD00010C80F17585C2
:101E70005A22752B28121819431A04431A080219FA
:101E800026752B281217BA431A04431A080218CFD2
:101E9000752BA4121819431A01021926752B211249
:101EA00017BA431A200218CFAD07AC06ECFF8DD34A
:101EB0008FD42201490001430001440000752B2406
:101EC000751A81021926752BFFE4F51A0219267579
:101ED0002B99121819AF1A22752B24751A81021822
:0B1EE000CF752BFFE4F51A0218CF228B
:00000001FF
