:100000000209AF0212D301380001260001270000C7
:020010002222AA
:10001300020CBBE4F52BF52C1211CA8F261211F03A
:100023008F2712136B8F241213798F25E4FFFE2081
:100033008603121063E52630E00DC3E53C9FF52EE1
:10004300E53B9EF52D800FE52630E10AE53C2FF5D3
:100053002EE53B3EF52D1210268E398F3AE524709E
:1000630017E5257013E51A700FE52664026009E5AC
:100073002764026003020134E51A700CE52664026A
:100083006006E52764027054D3E52E9400E52D64E1
:100093008094804004E4FD80027D01AF2EAE2D12DA
:1000A3000FE88F15752B01C3E53A94FAE5399401EE
:1000B3004060D3E53A9401E539940C40028053D370
:1000C300E53A94DCE53994025003020173E53A946E
:1000D30047E539940B40030201738050E511451045
:1000E3006003020173C3952EF52EE4952DF52D7D46
:1000F30001AF2EFE120FE88F15E4F52BC3E53A94FA
:1001030067E5399401400BD3E53A94E6E539940F5A
:100113004005751E018059D3E53A94B3E53994013E
:10012300404EE53A94F8E539940D5044E4F51E80C9
:100133003FC3E53A9467E5399401400BD3E53A941C
:10014300E6E539940F4005751E018018D3E53A940E
:10015300B3E5399401400DE53A94F8E539940D502F
:1001630003E4F51E751BA4120D7E5312F7120E3411
:1001730030860830A0057528018003E4F528AD2BEF
:10018300AF151202CDAF267E00C3EF9402748094A4
:1001930080500BC3E527940274809480403EE50EA3
:1001A30060030202B7C3EF9402EE648094804015AB
:1001B300750E01E522642D600675222D12111312AE
:1001C30012B80202B7C3E5279402748094805003E7
:1001D3000202B7750E011213320202B7E50E60096F
:1001E300E4F50E121347121359E52430E003432CB0
:1001F30001E52530E703432C02E52530E503432CD5
:1002030004E52C600AE51145107004F513F514207C
:10021300A11EE521641E600675211E12127CE522D3
:10022300641E70030202B775221E12129A0202B7ED
:10023300E52C650C607E852C0CE52C24FE601914DE
:10024300602C14602114604324FE605C24067064F7
:10025300E5216441605E8056E522642D6056752277
:100263002D121113804EE50F641E6048802FE52187
:1002730064416006752141120010E522641E60345A
:1002830075221EE4F50F1211468029E521644160B1
:1002930006752141120010E50F641E6017750F1ECD
:1002A300E4F522120011800CE521644160067521FA
:1002B30041120010E5286004E51A6004E51E60049D
:1002C300E4FF80027F011208C0228F2FE4F530750E
:1002D3001627751710F510F511ED70030203A3E44B
:1002E300F513F514FEC3EF94647480948050037582
:1002F3003001C3EE648094804020D3EF940AEE640F
:1003030080948050155338FB5338F75338EF4338F4
:100313002043384075310202048EC3EF940BEE6420
:100323008094804020D3EF941EEE64809480501517
:100333004338025338F75338EF4338204338407576
:10034300310302048EC3EF941FEE64809480402037
:10035300D3EF943CEE6480948050154338024338C5
:10036300045338EF43382043384075310402048E78
:10037300C3EF943DEE64809480500302046EEF94C7
:1003830063EE64809480400302046E433802433872
:100393000443380843382043384075310502048E3E
:1003A300D3E52F9400748094805046751000751126
:1003B3000175160B7517B8533820751B18120D7E6F
:1003C300E51230E20C751B21120D7E431220120E32
:1003D30034751B18120D1FE51230E30C751B211227
:1003E3000D1F431220120DDD75310175300102041A
:1003F3008EAF2FD3EF9403748094804012D3EF9485
:100403000A7480948050084338025338FB801EAF2F
:100413002F7E00C3EF940B748094804015D3EF9428
:100423001E74809480500B4338024338045338F7CA
:10043300801FC3EF941FEE648094804019D3EF9420
:100443003CEE64809480500E4338024338044338B2
:10045300085338EF802FC3EF943DEE6480948040BF
:1004630018EF9463EE64809480500E43380243384F
:1004730004433808433810800C433802433804439C
:100483003808433810433820433840E530605FE490
:10049300F530050BE50B7002050AAF317E00EF6402
:1004A300017014D3E50B9402E50A94004040E4F58F
:1004B3000AF50B63382022D3E50B9405E50A940073
:1004C300402CE4F50AF50BEF64024E700463380226
:1004D30022EF64034E700463380422EF64044E7009
:1004E3000463380822EF64054E70036338102275E5
:1004F3001B23120D1F431201120DDD7F107E2712E5
:10050300131C751B24751220120DDD751240120D7C
:10051300DD751280120DDD751B40120D1F43120491
:10052300431280120DDD751B45120D1F53128043BC
:10053300122D120DDD751B4F120D1F531280431226
:100543002D120DDD121399751B16120D1F43121078
:10055300120DDD751B03120D1F5312F04312071208
:100563000DDD751B0D120D1F53123F431280120D2B
:10057300DD751B55120D1F431280120DDD751B56C1
:10058300120D1F431201431202431204120DDD75B3
:100593001B18120D1F5312E3120DDD751B19E4F521
:1005A30012431208431220120DDD751B35120D1F65
:1005B300431201431208120DDD751B34120D1F4344
:1005C3001204431210431220120DDD751B40E4F593
:1005D30012431280431264120DDD751B01120D1FAD
:1005E30053123F431280120DDD751B50120D1F4332
:1005F3001201431202431204120DDD751B51120D39
:100603001F431270120DDD751B23120D1FE4F5122B
:10061300431201431202431204431240120DDD75CB
:100623001B22120D1F53123F431240120DDD751B87
:100633002D120D1F431208431210120DDD751B2ED0
:10064300120D1F53128043123C120DDD751B2F1226
:100653000D1F53128043123C120DDD0213A2751BB2
:1006630023120D7E431201120E347F107E271213C4
:100673001C751B24751220120E34751240120E3491
:10068300751280120E34751B40120D7E4312044303
:100693001280120E34751B45120D7E5312804312C5
:1006A30041120E34751B4F120D7E531280431241BB
:1006B300120E34121387751B16120D7E431210127D
:1006C3000E34751B03120D7E5312F0431207120EE4
:1006D30034751B0D120D7E53123F431280120E34DC
:1006E300751B55120D7E431280120E34751B561264
:1006F3000D7E431201431202431204120E34751B82
:1007030018120D7E5312FB120E34751B19120D7E37
:100713005312F8120E34751B35120D7E431201432A
:100723001208120E34751B34120D7E431204431249
:1007330010431220120E34751B40E4F5124312804D
:10074300431264120E34751B23120D7EE4F512431B
:100753001201431202431204431240120E34751B5A
:1007630050120D7E431201431202431204120E343F
:10077300751B51120D7E431270120E34751B22121B
:100783000D7E53123F431240120E34751B2D120D72
:100793007E431208431210120E34751B2E120D7E67
:1007A30053128043123C120E34751B2F120D7E53CD
:1007B300128043123C120E34021390C3E51F9400BF
:1007C30050030208BFE4F51FF5200535E535940510
:1007D300748094804003E4F535538C7F909101E05D
:1007E3004480F0538CFBE04404F0538CFDE044025E
:1007F300F0E53514603A14606314700302088B1437
:1008030070030208A5240460030208BF438C809090
:100813009101E0547FF0C297E53830E209438C023E
:10082300E054FDF0D291E53820E6030208BF804B87
:10083300438C04909101E054FBF0C292E53830E51B
:1008430009438C80E0547FF0D297E53830E46D4360
:100853008C02909101E054FDF0D29122438C0290DE
:100863009101E054FDF0C291E53830E109438C80F9
:10087300E0547FF0D297E53830E341438C04909104
:1008830001E054FBF0D29222438C04909101E05496
:10089300FBF0C292E53830E509438C80E0547FF0E9
:1008A300D297438C04909101E054FBF0C292E53857
:1008B30030E509438C80E0547FF0D29722EF600348
:1008C3000209A9C3E5149517E51395165007E51E0C
:1008D30070030209AEE4F51EF51AF528F513F514B5
:1008E300751B23120D1F5312FE120DDD751B2312F0
:1008F3000D7E5312FE120E34751BA4120D7E53127D
:10090300F7120E34C297C292C29153E17F438C20F7
:10091300438C40909101E054DFF0E054BFF0C29566
:10092300C296538CFEE04401F0538B7F909100E01C
:100933004480F0538BBFE04440F0538BDFE044200E
:10094300F053A27F75855A90902074A5F09090275C
:100953007418F0909020745AF0758750758701755C
:1009630087A0751B23120D7E431201120E34751BD3
:1009730023120D1F431201120DDD7F107E27121368
:100983001C43A280439D01538CDF538CBF90910184
:10099300E054DFF0E054BFF0E4F538F513F51475D7
:1009A300855A43E18022E4F508F50922758410781D
:1009B300FFE4F6D8FD9000007F007E01E4F0A3DFA2
:1009C300FCDEFA75813E90908074A5F090802074CF
:1009D3000093909082F07430909083F09090F0E0C8
:1009E3004480F0758AA0908027740093F58A9080E4
:1009F30026740093F589909080745AF0020A3D02A0
:100A03000B49E493A3F8E493A34003F68001F208AF
:100A1300DFF48029E493A3F85407240CC8C333C438
:100A2300540F4420C8834004F456800146F6DFE4A3
:100A3300800B0102040810204080900006E47E0130
:100A43009360BCA3FF543F30E509541FFEE493A316
:100A530060010ECF54C025E060A840B8E493A3FA28
:100A6300E493A3F8E493A3C8C582C8CAC583CAF0B4
:100A7300A3C8C582C8CAC583CADFE9DEE780BE90C2
:100A83009100E04440F0438E40C29E909184E05434
:100A9300BFF0909182E04440F0909180E04440F0B8
:100AA300909102E04401F0439101C298909185E056
:100AB3004401F0909182E04401F0909180E0440180
:100AC300F0909101E04408F0438F08C29B90918419
:100AD300E04408F0909182E04408F0909180E04473
:100AE30008F0D2E8909102E04402F0439102C299E7
:100AF300909185E04402F0909182E04402F090915D
:100B030080E04402F0438C80438C04438C02909138
:100B130001E0547FF0E054FBF0E054FDF0438B011F
:100B2300438B02438B04909100E054FEF0E054FDAC
:100B3300F0E054FBF0438C10A3E054EFF0C294C2F6
:100B430080C281C2822290902074A5F0A3E090001D
:100B5300FFF0E054F0F0E04402F0E0909021F090D8
:100B63009020745AF074A5F0A37402F0909020744E
:100B73005AF075A67C75A67C75A2C3439D01D2E984
:100B8300D2EFD2EF7F407E4212131C120A8212125E
:100B9300161204F2120661758420E4F51AF510F5B5
:100BA300117516277517107D01FFFE120FE88F15BB
:100BB30075855A20A10A751A01D294120F21800952
:100BC300E4F53BF53CC294F51A120BE4D3E5199412
:100BD30064E518940040D9E4F518F519120016805D
:100BE300CFE523606B309368E4F523D3E51D94B818
:100BF300E51C940B4020753D02751B21120D1F430C
:100C03001220120DDD751B21120D7E431220120ED0
:100C130034751E018035D3E51D9405E51C94004011
:100C23002AE51D94F4E51C94015020753D01E4F57B
:100C330010F511751B20120D1F431201120DDD75E6
:100C43001B20120D7E431201120E34E4F51CF51D18
:100C530022EF8DF0A4A8F0CF8CF0A428CE8DF0A4C1
:100C63002EFE22BC000BBE0029EF8DF084FFADF0F9
:100C730022E4CCF875F008EF2FFFEE33FEEC33FCE3
:100C8300EE9DEC984005FCEE9DFE0FD5F0E9E4CE19
:100C9300FD22EDF8F5F0EE8420D21CFEADF075F0E8
:100CA30008EF2FFFED33FD4007985006D5F0F222F1
:100CB300C398FD0FD5F0EA22C0E0C0F0C083C08224
:100CC300C0D075D000C000C001C002C003C004C0C2
:100CD30005C006C00730A8290519E51970020518D3
:100CE3000514E514700205130520E5207002051FA5
:100CF300E5236008051DE51D7002051C1207BEC231
:100D0300A8D007D006D005D004D003D002D001D09C
:100D130000D0D0D082D083D0F0D0E032E4F53212CC
:100D230011A27F78120E8B12109FEF600FC3E53272
:100D33009432748094805004053280E3AF1B120E0A
:100D43008B12109FEF600FC3E5329432748094804E
:100D53005004053280C91211A27F79120E8B121032
:100D63009FEF600FC3E53294327480948050040582
:100D73003280AC120F648F120212ECE4F5321211BE
:100D8300797F78120ED61210D9EF600FC3E5329433
:100D930032748094805004053280E3AF1B120ED668
:100DA3001210D9EF600FC3E53294327480948050EF
:100DB30004053280C91211797F79120ED61210D927
:100DC300EF600FC3E532943274809480500405328F
:100DD30080AC120FA68F12021304E4F5321211A293
:100DE3007F78120E8B12109FEF600FC3E53294329F
:100DF300748094805004053280E3AF1B120E8B1273
:100E0300109FEF600FC3E5329464748094805004A4
:100E1300053280C9AF12120E8B12109FEF600FC301
:100E2300E5329496748094805004053280AF0212A8
:100E3300ECE4F5321211797F78120ED61210D9EF45
:100E4300600FC3E53294327480948050040532807D
:100E5300E3AF1B120ED61210D9EF600FC3E5329425
:100E630064748094805004053280C9AF12120ED688
:100E73001210D9EF600FC3E53294967480948050BA
:100E830004053280AF0213048F33438B209091000B
:100E9300E054DFF0C284E4F534C3E534940874808D
:100EA3009480502EE53330E704D2858002C285E575
:100EB3003325E0F5337F037E0012131CD2847F03B6
:100EC3007E0012131CC2847F037E0012131C0534A0
:100ED30080C7228F33438C01909101E054FEF0C20E
:100EE30087E4F534C3E534940874809480502EE588
:100EF3003330E704D2908002C290E53325E0F53326
:100F03007F037E0012131CD2877F037E0012131C03
:100F1300C2877F037E0012131C053480C72253E16E
:100F2300E043E10A7FE87E0312131C43E14020C043
:100F33000575855A80F8AFE5753B008F3CE53C7538
:100F43003C00F53BAFE4EF253CF53CE4353BF53B9A
:100F5300C2C0FEAF3C7C017DF4120C668E3B8F3C1D
:100F630022E4F534538BDF909100E04420F0E4F564
:100F730033C3E5339408748094805021C2847F0383
:100F83007E0012131CD284E53425E0F5343085024B
:100F930005347F037E0012131C053380D412123AEA
:100FA300AF3422E4F534538CFE909101E04401F018
:100FB300E4F533C3E5339408748094805021C287E9
:100FC3007F037E0012131CD287E53425E0F534300D
:100FD300900205347F037E0012131C053380D41264
:100FE300125BAF34228E2F8F308D31751BA4120DFF
:100FF3007E5312FC431208E531600543120480035B
:101003005312FB120E34751BA5E530F512120E3484
:10101300751BA6E52FF512120E34751B99120D7E62
:10102300AF122253E1E043E10B7FE87E0312131C6E
:1010330043E14020C00575855A80F8AFE575390056
:101043008F3AE53A753A00F539AFE4EF253AF53AC8
:10105300E43539F539C2C0F536853A37FEAF3A2261
:10106300E4F52FF530751B30120D1F5312E04312B8
:1010730003120DDD751B31120D1F752F0085123004
:10108300751B32120D1FE512FEEE422FAE2FAF304D
:101093007C007D05120C548E2F8F3022E4F533D261
:1010A30085538BDF909100E04420F07F037E001294
:1010B300131CD2847F037E0012131C308513053367
:1010C300D3E53394FA7480948040F01212EC7F01DC
:1010D30022C2847F0022E4F533D290538CFE909198
:1010E30001E04401F07F037E0012131CD2877F03CB
:1010F3007E0012131C3090130533D3E53394FA7436
:1011030080948040F01213047F0122C2877F002263
:10111300121399751B40E4F51243128043125A12BD
:101123000DDD1213A2751B4F120D1F5312804312B4
:101133002D120DDD751B2E120D1F5312F0431201DC
:10114300020DDD121399751B40E4F512431280431F
:10115300123C120DDD1213A2751B4F120D1F5312F9
:101163008043121E120DDD751B2E120D1F5312F03C
:10117300431201020DDD438B80909100E0547FF018
:10118300438C01A3E054FEF0D290D2877F037E000C
:1011930012131CC2907F037E0012131CC2872243CA
:1011A3008B10909100E054EFF0438B20E054DFF07C
:1011B300D285D2847F037E0012131CC2857F037EF7
:1011C3000012131CC28422E4F52F751B19120D7E25
:1011D300531230E5125430FF7E0064207003432F16
:1011E30001EF64104E7003432F02AF2F22E4F52F5B
:1011F300751B19120D1F5312C0E51254C0FF7E0058
:1012030064807003432F01EF64404E7003432F0249
:10121300AF2F22909101E054DFF0E054BFF0538CE4
:10122300BF538CDF75EFEB43E18053E20F43E28062
:1012330075E33B75EFEB22C284438B20909100E072
:1012430054DFF0D2857F037E0012131CD2847F0308
:101253007E0012131CC28422C287438C0190910129
:10126300E054FEF0D2907F037E0012131CD2877FDE
:10127300037E0012131CC28722751B45120D7E5379
:10128300128043121E120E34751B2E120D7E531242
:10129300F0431201020E34751B45120D1F531280C9
:1012A30043121E120DDD751B2E120D1F5312F04338
:1012B3001201020DDD121399751B4B120D1F5312F0
:1012C3003F431240120DDDE4F512120D1F0213A26B
:1012D300C0E0E59830E309752301751C00751D0016
:1012E300753E01759800D0E032438B20909100E069
:1012F30054DFF0C285D2847F037E0012131CD28593
:1013030022438C01909101E054FEF0C290D2877F7A
:10131300037E0012131CD29022E4FDFCC3ED9FEC6C
:101323009E5008000DBD00010C80F175855A2212F4
:101333001387751B4B120D7E53123F431240120E3F
:1013430034021390121387751B4B120D7E53123FF9
:10135300120E34021390121399751B4B120D1F5367
:10136300123F120DDD0213A2E4FF751B1D120D7E49
:10137300E5125431FF22E4FF751B1D120D1FE51208
:1013830054F7FF22751B24751281020E34751BFF5F
:10139300E4F512020E34751B24751281020DDD75FE
:0813A3001BFFE4F512020DDD51
:00000001FF
