:10000000021280021D61752BA4121797431A020277
:1000100018A4320215FEE4F561F562752B30121753
:1000200038531AE0431A0312184D752B3112173842
:10003000756100851A62752B32121738E51AFEEECB
:100040004261AE61AF627C007D0512094B8E618F0B
:10005000622222020012E4F558F559F55AF55BF5D3
:100060005CF560F55FF55EF55DF51BF51C75212708
:10007000752210121DAA121DC2121C378F43121CAA
:100080005D8F44121B8E8F41121BBA8F4220860750
:100090001200168E5B8F5CAF4EAE4DAD4CAC4B126A
:1000A00008CA8E128F13E528602EE4FFFE7DC87CFF
:1000B00042AB4EAA4DA94CA84B1208135015050F80
:1000C000E50F7002050E94C8E50E9400400A120078
:1000D000068005E4F50EF50FE54430E01DAC5BADA0
:1000E0005CE4120891A804A905AA06AB07AF4EAEBE
:1000F0004DAD4CAC4B120578803DE54430E13FC33B
:10010000E55C9464E55B94005015050FE50F700203
:10011000050E940AE50E9400400A1200068005E4DC
:10012000F50EF50FAC5BAD5CE4120891AB4EAA4D39
:10013000A94CA84B12057C1208CA8E128F13851287
:1001400026851327AE12AF137C007D051209B28EEF
:10015000128F1312157B8F2F8E2E8D2D8C2C7F4A94
:100160007E0C7DAA7C40AB2FAA2EA92DA82C1208AC
:1001700013601A40187F197E047D037C42AB2FAABE
:100180002EA92DA82C1208135003E4F535E5417073
:1001900017E5427013E528700FE54364026009E536
:1001A00044640260030202DCE528700FE543640248
:1001B0006009E54464026003020256755802D3E503
:1001C000139400E512648094804008E4FDAF13AE00
:1001D000128019C3E512648094805013C3E4951310
:1001E000F513E49512F5127D01AF13FE121A897F03
:1001F000CB7EA17D657C40AB2FAA2EA92DA82C1209
:10020000081350030202A67F777E3E7D117C42AB2D
:100210002FAA2EA92DA82C12081360054003020254
:10022000A67F4A7E0C7DAA7C40AB2FAA2EA92DA8C2
:100230002C120813600250030202ED7F197E047D28
:10024000037C42AB2FAA2EA92DA82C120813400321
:100250000202ED0202D7E4F50EF50F755801C3E571
:1002600012648094805013C3E49513F513E495123F
:10027000F5127D01AF13FE121A897FA27E457D1E05
:100280007C40AB2FAA2EA92DA82C12081340177F53
:10029000487E617D5E7C42AB2FAA2EA92DA82C1230
:1002A00008136007400575350180427FDD7E247D9F
:1002B0003E7C40AB2FAA2EA92DA82C120813602D2E
:1002C000402B7FC37EF57D297C42AB2FAA2EA92D22
:1002D000A82C1208135016E4F5358011E4F50EF53C
:1002E0000F752BA4121797531AF71218A4E5413073
:1002F000E003435901E54230E703435902E5423048
:10030000E503435904E5596510607E855910E559A8
:1003100024FE601914602C14602114604324FE60D4
:100320005C24067064E53D6441605E8056E53E6491
:100330002D6056753E2D121B28804EE518641E60F8
:1003400048802FE53D64416006753D41120052E54D
:100350003E641E6034753E1EE4F518121B5B802956
:10036000E53D64416006753D41120052E518641E8A
:10037000601775181EE4F53E121E68800CE53D649A
:10038000416006753D41120052E5576401700AF55F
:1003900057F540F51EF51FF536121AF58E308F31E0
:1003A0007C007D0712094B8E308F318530398531C5
:1003B0003AE5356036752501E4F540AF36FED3EFFA
:1003C0009432748094804008753633E4F549801384
:1003D000EF4E7002F549E53675F00584E5F07003DF
:1003E0006349FF0536121DFF021DF0E4F536E525D1
:1003F00064017008F525121D29121D0B121E4D8F68
:10040000201214D1AC72AD73E4120891E4FBFA79B6
:10041000C8784212066DC004C005C006C007AC6CA7
:10042000AD6DE4120891A804A905AA06AB07D00790
:10043000D006D005D004120776E4FBFAF9783F1213
:10044000057C8F608E5F8D5E8C5D75290085202A0E
:100450001208CAAD581209F6E56FB56E1CE534B541
:100460002A17E4B52913E546B5730EE545B57209BB
:10047000E51D6519700302053785393B853A3C85D2
:100480002A34857245857346856E6F85191D7F49AF
:10049000121D5B7F3A121D5BAF27AE26121AC07F7A
:1004A0000D121D5B7F0A121D5B7F56121D5B7F3A8A
:1004B000121D5BAF3AAE39121AC07F0D121D5B7F61
:1004C0000A121D5B7F6D121D5B7F57121D5B7F3A09
:1004D000121D5BAF6DAE6C121AC07F0D121D5B7FDB
:1004E0000A121D5B7F6D121D5B7F57121D5B7F3AE9
:1004F000121D5BAF73AE72121AC07F0D121D5B7FAF
:100500000A121D5B7F44121D5B7F3A121D5BAF2AEE
:10051000AE29121AC07F20121D5BAF6E7E00121A28
:10052000C07F20121D5BAF197E00121AC07F0D1212
:100530001D5B7F0A121D5B30860830A005754701E0
:100540008003E4F547E5476004E528600AE51C45BB
:100550001B7004F51EF51FE5476004E528600CE5F7
:100560001C451B7006E55764027004E4FF80027F9F
:100570000112116622020936E86480F8E933E83393
:1005800060110460F0ED33EC337009E8FCE9FDEA3A
:10059000FEEBFF220460DED3EB9FEA9EE99DE8C2FA
:1005A000E78CF0C2F795F0400CE8CCF8E9CDF9EA19
:1005B000CEFAEBCFFB12090185D0F058047003206E
:1005C000D5B3E80470075002B2D502094092D5ECC9
:1005D0000460F7E4CCC0E0C398F8603B941860086E
:1005E000400DD0E0FB020918E4FBFAC9FC8028E8C2
:1005F00030E406E4C9FBE4CAFCE830E305E4C9CA18
:10060000CBFCE854076010F8C3E913F9EA13FAEBDE
:1006100013FBEC13FCD8F130F52FC3E49CFCEF9BEB
:10062000FFEE9AFEED99FDD0E0FBEF4E4D4C7012BF
:1006300022DB0302093DEC2CFCEF33FFEE33FEED31
:1006400033FDED30E7EB020918EF2BFFEE3AFEED3C
:1006500039FDD0E0FB50130BBB0003020940ED1342
:10066000FDEE13FEEF13FFEC13FC020918EC4D60D6
:1006700011E8497017ED33EC3304600DE4FCFFFE24
:10068000FD22E933E8330470F802093612090158F3
:10069000046009E4CC24815006285009020940284E
:1006A000400302093DC0E0EB4A7044B98006D0E047
:1006B000FB02092CEF4E701CBD8008EBFFEAFEE93F
:1006C000FD80EBE98DF0A4FEE5F0020756E9CDF9D7
:1006D000EAFEEBFFEF89F0A4FCE5F0CE89F0A42E52
:1006E000FFE435F0CD89F0A42DFEE435F08067EF0E
:1006F0004E7005BD80D780C3EF8BF0A4ACF0EE8BBD
:10070000F0A42CFCE435F0F8EF8AF0A42CE5F038E6
:10071000FCE433CB8DF0A42CFCE5F03BF8EE8AF042
:10072000A42CFCE5F038F8E433CF89F0A42CFCE5E8
:10073000F038CF3400CE89F0A42FFFE5F03EFEE480
:1007400033C98DF0A42EFEE5F039CD8AF0A42FFF39
:10075000E5F03EFEE43DFD33D0E0FB50070BBB006F
:100760000F020940EC2CFCEF33FFEE33FEED33FDBE
:10077000020918020940EC5D046005E859047003A1
:10078000020936120901580460F6EC4860F2EC7078
:1007900004FDFEFF22C860DB2481C85009C39860B5
:1007A00002500602093D9850CAF582E9294B4A7069
:1007B00005AB8202092C75F0007C1A7880C3EF9B90
:1007C000EE9AED99400DC3EF9BFFEE9AFEED99FD79
:1007D000E842F0DC23ACF0D0E0FFD0E0FED0E0FD5A
:1007E000AB8220E7101BEB60BAEC2CFCEF33FFEE82
:1007F00033FEED33FD020918E803F830E705C0F0D9
:1008000075F000EF2FFFEE33FEED33FD40B830E71B
:10081000C280AA74F8CC6480CCC86480C8F5820415
:10082000604FC3EB9FF5F0EA9E42F0E99D42F0E88D
:100830009C45F0603C501DE5825FFFE582D313CB01
:100840005BCBF42B5582FB50280ABA002409B9006F
:100850002008801DE5825BFBE582D313CF5FCFF4D8
:10086000C3132F5582FF50090EBE00050DBD0001B8
:100870000CC3EB9FF5F0EA9E42F0E99D42F0E89C44
:1008800045F06007CC4820E701B3EC2275F02080EA
:100890000E75F010800575F0087D007E007F003336
:1008A00092D530D5031209E8EC334010EF33FFEE58
:1008B00033FEED33FDEC33FCD5F0ED22E5F0247E84
:1008C000A2D513CC92E7CDCEFF22EDD2E7CD33EC0B
:1008D0003392D524814006E4FFFEFDFC22FCE4CFE8
:1008E000CECDCC24E0501174FF80EDC3CC13CCCD21
:1008F00013CDCE13CECF13CF0470F030D5DE020966
:10090000E8E9D2E7C933E833F892D5EDD2E7CD3341
:10091000EC33FC5002B2D522EC30E7100FBF000CD4
:100920000EBE00080DBD00040BEB6014A2D5EB1346
:10093000FCED92E7FD2274FFFCFDFEFF22E480F84F
:10094000A2D574FF13FC7D80E480EFEF8DF0A4A8A6
:10095000F0CF8CF0A428CE8DF0A42EFE22BC000B8C
:10096000BE0029EF8DF084FFADF022E4CCF875F0E5
:1009700008EF2FFFEE33FEEC33FCEE9DEC984005C4
:10098000FCEE9DFE0FD5F0E9E4CEFD22EDF8F5F08A
:10099000EE8420D21CFEADF075F008EF2FFFED3392
:1009A000FD4007985006D5F0F222C398FD0FD5F010
:1009B000EA22C2D5EC30E709B2D5E4C39DFDE49C40
:1009C000FCEE30E715B2D5E4C39FFFE49EFE1209AA
:1009D0005DC3E49DFDE49CFC800312095D30D507F6
:1009E000C3E49FFFE49EFE22C3E49FFFE49EFEE477
:1009F0009DFDE49CFC228F61E4F562F563F564EDF6
:100A000064026003020B11E5415420FB7A0070067A
:100A1000E54254A46003E4F540AF40EF6401600593
:100A2000EF64027019C3E5159410E5149427400E85
:100A3000751427751510E4F549754002FF22AF6162
:100A40007E00C3EF9464748094805003756201D378
:100A5000EF940AEE6480948050157519015349FB98
:100A60005349F75349EF434920434940020BB6D35A
:100A7000EF941EEE64809480501875190243490269
:100A80005349F75349EF43492043494075640302F2
:100A90000C08D3EF943CEE648094805018751903D1
:100AA0004349024349045349EF43492043494075B0
:100AB0006404020C08C3EF9463EE648094805018C1
:100AC00075190443490243490443490843492043F3
:100AD0004940756405020C087519054349024349EC
:100AE00004434908434910434920434940AF40EF7C
:100AF000600464037005E4F514F515EB4A700CE529
:100B00004254A47006754001020C08E4F540020C42
:100B100008C3E540940274809480400AED70077524
:100B20004003F549FF22E4F540752B15121738856F
:100B30001A63E56330E403121E0ED3E520940074BB
:100B4000809480504E75210B7522B8534920E4F5EE
:100B500019752B18121797E51A20E205E56330E4A2
:100B600015752B1585631A12184D752B21121797C1
:100B7000431A201218A4752B18121738E51A5409B5
:100B80006003121E1A751B00751C017564017562E5
:100B9000018075AF617E00D3EF940A748094805019
:100BA0001A7519015349FB5349F75349EF4349203B
:100BB000434940756201756402804DD3EF941EEE87
:100BC00064809480501175190243490243490453CB
:100BD00049F75349EF802BD3EF943CEE6480948027
:100BE00050117519034349024349044349085349C5
:100BF000EF800F75190443490243490443490843F0
:100C00004910434920434940E5626071E4F56205BB
:100C10000BE50B7002050AE564650C600885640C41
:100C2000E4F50AF50BAF647E00EF64017015D3E5BF
:100C30000B9402E50A94004044E4F50AF50B63497D
:100C400020803AD3E50B9405E50A9400402FE4F5A3
:100C50000AF50BEF64024E7005634902801FEF64D2
:100C6000034E70056349048014EF64044E700563FD
:100C700049088009EF64054E70036349107F012223
:100C8000752BFFE4F51A12184D752B2312173843F4
:100C90001A0112184D7F107E27121DDA752B24754C
:100CA0001A2012184D751A4012184D751A80121814
:100CB0004D752BFFE4F51A12184D752B25121738B8
:100CC000431A8012184D752B1512173812184D1231
:100CD0001E56752B08121738751ADC12184D752B15
:100CE00016121738431A1012184D752B03121738A5
:100CF000531AF0431A0712184D752B0D121738535B
:100D00001A3F431A8012184D752B32121738531A96
:100D1000FC431A0112184D752B55121738431A80CF
:100D200012184D752B56121738431A01431A0243F5
:100D30001A0412184D752B18121738531AE312188B
:100D40004D752B19E4F51A431A01431A08431A206A
:100D5000431A4012184D752B35121738431A0143A8
:100D60001A0812184D752B34121738431A04431AF7
:100D700010431A2012184D752B40E4F51A431A80BF
:100D8000431A6412184DE4F52B121738531A7F5387
:100D90001A8F431A1012184D752B01121738531A57
:100DA0003F12184D752B50121738431A01431A027F
:100DB000431A0412184D752B51121738431A70122A
:100DC000184D752B23121738E4F51A431A01431AEC
:100DD00002431A04431A4012184D752B2212173879
:100DE000531A3F431A4012184D752B2D12173843D2
:100DF0001A08431A1012184D752B2E121738531A51
:100E000080431A3C12184D752B2F121738531A8035
:100E1000431A3C12184D121E5F752B4012173843AF
:100E20001A02431A04431A8012184D752B461217E2
:100E300038751A9112184D752B47121738531AE04E
:100E4000431A0512184D752B45121738531A804353
:100E50001A2D12184D752B4F121738531A80431A3A
:100E60002D02184D752BFFE4F51A1218A4752B23CB
:100E7000121797431A011218A47F107E27121DDA49
:100E8000752B24751A201218A4751A401218A4750F
:100E90001A801218A4752BFFE4F51A1218A4752BEA
:100EA00025121797431A801218A4121E3B752B089F
:100EB000121797751ADC1218A4752B161217974380
:100EC0001A101218A4752B03121797531AF0431A0D
:100ED000071218A4E4F52B121797531A7F531A8F91
:100EE000431A101218A4752B0D121797531A3F436B
:100EF0001A801218A4752B4B121797531A3F431AD6
:100F0000401218A4752B55121797431A801218A473
:100F1000752B56121797431A01431A02431A0412EB
:100F200018A4752B18121797531AFB1218A4752BB7
:100F300019121797531AF8431A011218A4752B3572
:100F4000121797431A01431A081218A4752B34126A
:100F50001797431A04431A10431A201218A4752B2A
:100F600040E4F51A431A80431A641218A4752B231F
:100F7000121797E4F51A431A01431A02431A04435D
:100F80001A401218A4752B50121797431A01431ACE
:100F900002431A041218A4752B51121797431A70A2
:100FA0001218A4752B22121797531A3F431A401296
:100FB00018A4752B2D121797431A08431A101218EC
:100FC000A4752B2E121797531A80431A3C1218A49B
:100FD000752B2F121797531A80431A3C1218A4121C
:100FE0001E44752B40121797431A02431A04431AE2
:100FF000801218A4752B46121797751A911218A40F
:10100000752B47121797531AE0431A051218A47547
:101010002B45121797531A80431A411218A4752BA7
:101020004F121797531A80431A410218A490902028
:1010300074A5F0A3E09000FFF0E054F0F0E044026B
:10104000F0E0909021F0909020745AF074A5F0A3F5
:101050007402F0909020745AF075A67C75A67C7589
:10106000A2C3439D01D2E9D2EFD2EF7F407E42126C
:101070001DDA7F407E42121DDA121353121CA81291
:101080000C80120E64121C837F31121D5B7F3112A3
:101090001D5B7F31121D5B758420E4F528752127C7
:1010A00075221075855A1217F61216D7D3E52494B7
:1010B00064E523940040ECE4F523F52430A1030219
:1010C0001151121672AB4EAA4DA94CA84BAF52AE9D
:1010D00051AD50AC4F120578E4FBFA7948784312D1
:1010E00008135017E4FFFE7D487C42AB4EAA4DA981
:1010F0004CA84B1208135003754A01AB52AA51A9D0
:1011000050A84FAF4EAE4DAD4CAC4B120578E4FB42
:10111000FA794878431208135019E4FFFE7D167CD3
:1011200043AB4EAA4DA94CA84B12081360054003CF
:10113000E4F54A854E52854D51854C50854B4FE51F
:101140004A64016005752801D294752801D2948003
:101150000FE4F54AF54EF54DF54CF54BC294F528E4
:101160001200560210A3EF600302127AC3E51F9526
:1011700022E51E95215009E5576402600302127FA3
:10118000E4F549F540F547F51EF51FF536752BA436
:10119000121797531AF71218A4752B2312173853E6
:1011A0001AFE12184D752B23121797531AFE121898
:1011B000A4C297C292C291C28053E17F438C204364
:1011C0008C40909101E054DFF0E054BFF0C295C232
:1011D00096538CFEE04401F0538B7F909100E044E5
:1011E00080F0538BBFE04440F0538BDFE04420F0AD
:1011F00053A27F75855AE528700630860320A00C1F
:10120000E51C451B7006E5576402701B9090207426
:10121000A5F09090277418F0909020745AF075877C
:10122000507587017587A0E4F557F51BF51C7F64A1
:10123000FE121DDA752B23121797431A011218A4F8
:10124000752B23121738431A0112184DD2807F10C4
:101250007E27121DDA43A280439D01538CDF538CFD
:10126000BF909101E054DFF0E054BFF0E4F549F5A0
:101270001EF51F75855A43E18022E4F508F5092221
:1012800075841078FFE4F6D8FD9000007F007E01A1
:10129000E4F0A3DFFCDEFA75817A90908074A5F00B
:1012A000908020740093909082F07430909083F03E
:1012B0009090F0E04480F0758AA0908027740093AD
:1012C000F58A908026740093F589909080745AF086
:1012D00002130E02102DE493A3F8E493A34003F647
:1012E0008001F208DFF48029E493A3F85407240C6A
:1012F000C8C333C4540F4420C8834004F45680014B
:1013000046F6DFE4800B0102040810204080901EA6
:1013100031E47E019360BCA3FF543F30E509541FC4
:10132000FEE493A360010ECF54C025E060A840B84E
:10133000E493A3FAE493A3F8E493A3C8C582C8CACC
:10134000C583CAF0A3C8C582C8CAC583CADFE9DE9F
:10135000E780BE909100E04440F0438E40C29E90F2
:101360009184E054BFF0909182E04440F0909180ED
:10137000E04440F0909102E04401F0439101C298B2
:10138000909185E04401F0909182E04401F09091C9
:1013900080E04401F0909101E04408F0438F08C2DE
:1013A0009B909184E04408F0909182E04408F09092
:1013B0009180E04408F0D2E8909102E04402F043CA
:1013C0009102C299909185E04402F0909182E044AC
:1013D00002F0909180E04402F0438C80438C0443FF
:1013E0008C02909101E0547FF0E054FBF0E054FD5A
:1013F000F0438B01438B02438B04438B0890910095
:10140000E054FEF0E054FDF0E054FBF0E054F7F05F
:10141000438C10A3E054EFF0C294D280C281C28208
:10142000C28322C3E537940050030214D0E4F53799
:10143000F538538C7F909101E0547FF0538CFBE0A2
:10144000547FF0538CFDE0547FF00548E548940547
:10145000748094804003E4F548E5481460271460E4
:101460003A14605114605A24047065E54930E2056D
:10147000438C02D291E54930E605438C04D2924375
:101480008C80C29722E54930E505438C80D297E5F0
:101490004930E437438C02D2918030E54930E10590
:1014A000438C80D297E54930E305438C04D29243C4
:1014B0008C02C29122E54930E516438C80D2978098
:1014C0000AE54930E50A438C80D297438C04C292E6
:1014D00022E4F56CF56D752B86121797756C0085F7
:1014E0001A6D752B87121797E51AFEEE426CAC6CDD
:1014F000AD6DE41208917B9F7A1C79A378431206A4
:101500006D1208CA8E6C8F6DE4F572F573752B88B9
:10151000121797756A00851A6B752B8912179775C4
:101520007200851A73752B8A121797E51AFEEE4220
:1015300072AC6AAD6BE41208917B4C7A1A79A3788D
:101540003D12066DC004C005C006C007AC72AD7385
:10155000E41208917B327A7779A2784112066DD035
:1015600003D002D001D00012057C1208CA8E728FFF
:1015700073752B94121797851A6E22E4F561F56244
:10158000909101E054DFF0E054BFF0538CBF538CD6
:10159000DF75EFEB43E18053E20F43E22075E33B5D
:1015A00053E1E043E10B7FE87E03121DDA43E140A3
:1015B00020C00575855A80F8AFE5EFADE4F561ED23
:1015C000F562C2C0AC61E4120891E4FBFA794C7890
:1015D0004212066DC004C005C006C007C3E556959B
:1015E00062FDE5559561FCE4120891A804A905AADD
:1015F00006AB07D007D006D005D004020776C0E0BE
:10160000C0F0C083C082C0D075D000C000C001C08F
:1016100002C003C004C005C006C00730A8390524B5
:10162000E52470020523051FE51F7002051E05381D
:10163000E538700205370515E515700205140579C2
:10164000E57970020578E53F60080533E5337002FF
:101650000532121423C2A8D007D006D005D004D07A
:1016600003D002D001D000D0D0D082D083D0F0D02F
:10167000E032909101E054DFF0E054BFF0538CBFB2
:10168000538CDF75EFEB43E18053E20F43E280754B
:10169000E33B75EFEB53E1E043E10A7FE87E0312A1
:1016A0001DDA43E14020C00575855A80F8AFE5EFAB
:1016B000ADE4F553EDF554C2C0AC53E41208917B90
:1016C000AE7A477981783F12066D8F4E8E4D8D4CE4
:1016D0008C4BAE53AF5422E53F605C309359E4F538
:1016E0003FD3E5339410E532942740117557021229
:1016F0001E1A752B21121797431A208032D3E53317
:101700009405E5329400402AE53394F4E5329401DF
:101710005020755701E4F51EF51F752B2012173860
:10172000431A0112184D752B20121797431A0112F4
:1017300018A4E4F532F53322E4F565121C0F7F7826
:101740001218FB121A15EF600FC3E565943274800E
:1017500094805004056580E3AF2B1218FB121A1514
:10176000EF600FC3E5659432748094805004056582
:1017700080C9121C0F7F791218FB121A15EF600F27
:10178000C3E5659432748094805004056580AC1282
:1017900019918F1A021D7AE4F565121BE67F781203
:1017A0001946121A4FEF600FC3E5659402748094D6
:1017B000805004056580E3AF2B121946121A4FEFD3
:1017C000600FC3E5659402748094805004056580C1
:1017D000C9121BE67F79121946121A4FEF600FC328
:1017E000E5659402748094805004056580AC1219FC
:1017F000D38F1A021D92909101E054DFF0E054BFA4
:10180000F0538CBF538CDF75EFEB43E18053E20F55
:1018100043E22075E33B53E1E043E1117FE87E03BF
:10182000121DDA43E14020C00575855A80F8AFE506
:10183000EFADE4F555EDF556AE557802C333CE3332
:10184000CED8F9F5568E55C2C0E4FEFF22E4F56508
:10185000121C0F7F781218FB121A15EF600FC3E5E8
:10186000659432748094805004056580E3AF2B1238
:1018700018FB121A15EF600FC3E565946474809429
:10188000805004056580C9AF1A1218FB121A15EFB3
:10189000600FC3E56594967480948050040565805C
:1018A000AF021D7AE4F565121BE67F781219461225
:1018B0001A4FEF600FC3E565940274809480500462
:1018C000056580E3AF2B121946121A4FEF600FC364
:1018D000E5659402748094805004056580C9AF1A50
:1018E000121946121A4FEF600FC3E5659402748017
:1018F00094805004056580AF021D928F66438B2053
:10190000909100E054DFF0C284E4F567C3E567948A
:101910000874809480502EE56630E704D2858002FA
:10192000C285E56625E0F5667F037E00121DDAD2EA
:10193000847F037E00121DDAC2847F037E00121DA5
:10194000DA056780C7228F66438C01909101E054CD
:10195000FEF0C287E4F567C3E5679408748094805D
:10196000502EE56630E704D2908002C290E56625ED
:10197000E0F5667F037E00121DDAD2877F037E00CA
:10198000121DDAC2877F037E00121DDA056780C749
:1019900022E4F567538BDF909100E04420F0E4F5FA
:1019A00066C3E5669408748094805021C2847F03E6
:1019B0007E00121DDAD284E56725E0F567308502E6
:1019C00005677F037E00121DDA056680D4121CC9EC
:1019D000AF6722E4F567538CFE909101E04401F07B
:1019E000E4F566C3E5669408748094805021C2874C
:1019F0007F037E00121DDAD287E56725E0F56730A8
:101A0000900205677F037E00121DDA056680D412FE
:101A10001CEAAF6722E4F566D285538BDF90910014
:101A2000E04420F07F037E00121DDAD2847F037E23
:101A300000121DDA3085130566D3E56694FA7480CA
:101A4000948040F0121D7A7F0122C2847F0022E43C
:101A5000F566D290538CFE909101E04401F07F0333
:101A60007E00121DDAD2877F037E00121DDA3090CD
:101A7000130566D3E56694FA7480948040F0121DD5
:101A8000927F0122C2877F00228E618F628D6375F3
:101A90002BA4121797531AFC431A08E563600543F9
:101AA0001A048003531AFB1218A4752BA5E562F5DE
:101AB0001A1218A4752BA6E561540FF51A0218A482
:101AC000AB07AA067C277D1012095DEF2430FF12B8
:101AD0001D5B7C037DE8121D497D64121D477D0A54
:101AE000121D47AE02AF037C007D0A12095DED2492
:101AF00030FF021D5BE4F561F562752B301217971C
:101B0000531AE0431A021218A4752B311217977555
:101B10006100851A62752B32121797E51A540FFE71
:101B2000EE4261AE61AF6222121E56752B40E4F5A3
:101B30001A431A80431A5A12184D121E5F752B4F02
:101B4000121738531A80431A2D12184D752B2E1266
:101B50001738531AF0431A0102184D121E56752BEE
:101B600040E4F51A431A80431A3C12184D121E5FC6
:101B7000752B4F121738531A80431A1E12184D75C1
:101B80002B2E121738531AF0431A0102184DE4F5A0
:101B900061752B1D121797E51A5431F561752B2BC2
:101BA000121797851A68E51A30E403120E64752B34
:101BB0002C121797851A69AF6122E4F561752B1D08
:101BC000121738E51A54F7F561752B2B1217388563
:101BD0001A74E51A30E403120C80752B2C12173896
:101BE000851A75AF6122438B80909100E0547FF09D
:101BF000438C01A3E054FEF0D290D2877F037E0095
:101C0000121DDAC2907F037E00121DDAC2872243C2
:101C10008B10909100E054EFF0438B20E054DFF004
:101C2000D285D2847F037E00121DDAC2857F037EB7
:101C300000121DDAC28422E4F561752B1912179780
:101C4000531A30E51A5430FF7E006420700343615C
:101C500001EF64104E7003436102AF6122E4F5614D
:101C6000752B19121738531AC0E51A54C0FF7E009D
:101C700064807003436101EF64404E70034361026E
:101C8000AF6122D282909131E054F0F0E04402F052
:101C9000438B0475D50175D7027F227E00121E2664
:101CA000439F01D2EDD2EF22909101E054DFF0E0AA
:101CB00054BFF0538CBF538CDF75EFEB43E180537F
:101CC000E20F43E22075E33B22C284438B209091D4
:101CD00000E054DFF0D2857F037E00121DDAD2844B
:101CE0007F037E00121DDAC28422C287438C0190DA
:101CF0009101E054FEF0D2907F037E00121DDAD2F3
:101D0000877F037E00121DDAC28722752B281217E7
:101D100097531AFB531AF71218A4752B2E12179704
:101D2000531AF0431A020218A4752B2812173853BD
:101D30001AFB531AF712184D752B2E121738531A17
:101D4000F0431A0202184D7C00AF03AE0212095D87
:101D50007C007D0A12095DED2430FF30B9FD8FD97A
:101D600022C0E0E59830E309753F01753200753314
:101D700000757A01759800D0E032438B2090910075
:101D8000E054DFF0C285D2847F037E00121DDAD2D8
:101D90008522438C01909101E054FEF0C290D287DD
:101DA0007F037E00121DDAD29022752B2512179721
:101DB000E51A5480700B0571E57170020570120E02
:101DC0006422752B25121738E51A5480700B05779D
:101DD000E57770020576120C8022E4FDFCC3ED9FCE
:101DE000EC9E5008000DBD00010C80F175855A2253
:101DF000752B28121797431A04431A080218A47562
:101E00002B28121738431A04431A0802184D752B51
:101E1000A4121797431A010218A4752B2112173820
:101E2000431A2002184DAD07AC06ECFF8DD38FD4BA
:101E30002201490001430001440000752B24751A5A
:101E4000810218A4752BFFE4F51A0218A4752B99CA
:101E5000121797AF1A22752B24751A8102184D7527
:091E60002BFFE4F51A02184D22D3
:00000001FF
