:10000000020F06021972751F2812139F4313040270
:1000100014552202126A0203D7E86480F8E933E833
:100020003360110460F0ED33EC337009E8FCE9FD56
:10003000EAFEEBFF220460DED3EB9FEA9EE99DE837
:10004000C2E78CF0C2F795F0400CE8CCF8E9CDF9A6
:10005000EACEFAEBCFFB1203A285D0F0580470036E
:1000600020D5B3E80470075002B2D50203E192D55F
:10007000EC0460F7E4CCC0E0C398F8603B941860EF
:1000800008400DD0E0FB0203B9E4FBFAC9FC80286C
:10009000E830E406E4C9FBE4CAFCE830E305E4C95F
:1000A000CACBFCE854076010F8C3E913F9EA13FA65
:1000B000EB13FBEC13FCD8F130F52FC3E49CFCEF01
:1000C0009BFFEE9AFEED99FDD0E0FBEF4E4D4C709C
:1000D0001222DB030203DEEC2CFCEF33FFEE33FED7
:1000E000ED33FDED30E7EB0203B9EF2BFFEE3AFE07
:1000F000ED39FDD0E0FB50130BBB00030203E1ED33
:1001000013FDEE13FEEF13FFEC13FC0203B9EC4DED
:100110006011E8497017ED33EC3304600DE4FCFF27
:10012000FEFD22E933E8330470F80203D71203A27C
:1001300058046009E4CC248150062850090203E1E8
:100140002840030203DEC0E0EB4A7044B98006D0C9
:10015000E0FB0203CDEF4E701CBD8008EBFFEAFE12
:10016000E9FD80EBE98DF0A4FEE5F00201F7E9CDB1
:10017000F9EAFEEBFFEF89F0A4FCE5F0CE89F0A4EC
:100180002EFFE435F0CD89F0A42DFEE435F0806734
:10019000EF4E7005BD80D780C3EF8BF0A4ACF0EEBE
:1001A0008BF0A42CFCE435F0F8EF8AF0A42CE5F0F9
:1001B00038FCE433CB8DF0A42CFCE5F03BF8EE8A60
:1001C000F0A42CFCE5F038F8E433CF89F0A42CFC43
:1001D000E5F038CF3400CE89F0A42FFFE5F03EFEE5
:1001E000E433C98DF0A42EFEE5F039CD8AF0A42FBA
:1001F000FFE5F03EFEE43DFD33D0E0FB50070BBBD6
:10020000000F0203E1EC2CFCEF33FFEE33FEED3385
:10021000FD0203B90203E1EC5D046005E8590470D6
:10022000030203D71203A2580460F6EC4860F2EC14
:100230007004FDFEFF22C860DB2481C85009C3980A
:10024000600250060203DE9850CAF582E9294B4A43
:100250007005AB820203CD75F0007C1A7880C3EF85
:100260009BEE9AED99400DC3EF9BFFEE9AFEED9940
:10027000FDE842F0DC23ACF0D0E0FFD0E0FED0E0BF
:10028000FDAB8220E7101BEB60BAEC2CFCEF33FFD8
:10029000EE33FEED33FD0203B9E803F830E705C0A5
:1002A000F075F000EF2FFFEE33FEED33FD40B83078
:1002B000E7C280AA74F8CC6480CCC86480C8F58298
:1002C00004604FC3EB9FF5F0EA9E42F0E99D42F0D7
:1002D000E89C45F0603C501DE5825FFFE582D3134A
:1002E000CB5BCBF42B5582FB50280ABA002409B90A
:1002F000002008801DE5825BFBE582D313CF5FCF32
:10030000F4C3132F5582FF50090EBE00050DBD002A
:10031000010CC3EB9FF5F0EA9E42F0E99D42F0E844
:100320009C45F06007CC4820E701B3EC2275F02033
:10033000800E75F010800575F0087D007E007F004E
:100340003392D530D503120434EC334010EF33FF31
:10035000EE33FEED33FDEC33FCD5F0ED22E5F02479
:100360007EA2D513CC92E7CDCEFF22EDD2E7CD33DE
:10037000EC3392D524814006E4FFFEFDFC22FCE430
:10038000CFCECDCC24E0501174FF80EDC3CC13CC84
:10039000CD13CDCE13CECF13CF0470F030D5DE0207
:1003A0000434E9D2E7C933E833F892D5EDD2E7CD8A
:1003B00033EC33FC5002B2D522EC30E7100FBF0013
:1003C0000C0EBE00080DBD00040BEB6014A2D5EBB3
:1003D00013FCED92E7FD2274FFFCFDFEFF22E4809A
:1003E000F8A2D574FF13FC7D80E480EFEF8DF0A4BC
:1003F000A8F0CF8CF0A428CE8DF0A42EFE22C2D57A
:10040000EC30E709B2D5E4C39DFDE49CFCEE30E797
:1004100015B2D5E4C39FFFE49EFE120442C3E49DDF
:10042000FDE49CFC800312044230D507C3E49FFF27
:10043000E49EFE22C3E49FFFE49EFEE49DFDE49C57
:10044000FC22BC000BBE0029EF8DF084FFADF02232
:10045000E4CCF875F008EF2FFFEE33FEEC33FCEE42
:100460009DEC984005FCEE9DFE0FD5F0E9E4CEFD35
:1004700022EDF8F5F0EE8420D21CFEADF075F00808
:10048000EF2FFFED33FD4007985006D5F0F222C361
:1004900098FD0FD5F0EA22E4F543F544F545F5461D
:1004A000F547F514F515751927751A101219BB12B1
:1004B00019D312184B8F301218718F311217A28F67
:1004C0002E1217CE8F2F2086071216558E468F4775
:1004D000AF3DAE3CAD3BAC3A12036B8E488F49E565
:1004E0003130E01DAC46AD47E4120332A804A90543
:1004F000AA06AB07AF3DAE3CAD3BAC3A120019804B
:1005000018E53130E11AAC46AD47E4120332AB3D99
:10051000AA3CA93BA83A12001D12036B8E488F49D2
:10052000AE48AF497C007D051203FE8E488F49120C
:1005300011F38F238E228D218C207F4A7E0C7DAA81
:100540007C40AB23AA22A921A8201202B4601A4041
:10055000187F197E047D037C42AB23AA22A921A81F
:10056000201202B45003E4F526E52E7017E52F7033
:1005700013E51E700FE53064026009E53164026026
:10058000030206B1E51E700FE53064026009E53133
:1005900064026003020630754302D3E5499400E526
:1005A00048648094804008E4FDAF49AE488019C398
:1005B000E548648094805013C3E49549F549E49577
:1005C00048F5487D01AF49FE1217057FCB7EA17D1E
:1005D000657C40AB23AA22A921A8201202B45003B3
:1005E00002067B7F777E3E7D117C42AB23AA22A947
:1005F00021A8201202B460044002807F7F4A7E0C52
:100600007DAA7C40AB23AA22A921A8201202B460B3
:100610000250030206BD7F197E047D037C42AB239A
:10062000AA22A921A8201202B440030206BD807CA0
:10063000754301C3E548648094805013C3E4954931
:10064000F549E49548F5487D01AF49FE1217057F4D
:10065000A27E457D1E7C40AB23AA22A921A82012A0
:1006600002B440177F487E617D5E7C42AB23AA22A4
:10067000A921A8201202B460074005752601803D1B
:100680007FDD7E247D3E7C40AB23AA22A921A820C9
:100690001202B4602840267FC37EF57D297C42ABE0
:1006A00023AA22A921A8201202B45011E4F5268021
:1006B0000C751FA412139F5313F7121455AF307EFD
:1006C00000C3EF940274809480500BC3E531940210
:1006D00074809480407CC3EF9402EE6480948040E8
:1006E00022E5319402748094804018E50D60030285
:1006F000081C750D01E52B642D602B752B2D121731
:100700003C8023C3E5309402748094804021E50D41
:100710006401700302081C750D01E52B642D600651
:10072000752B2D12173C121A2B121A1F02081CC30C
:10073000E531940274809480500302081CE50D6436
:1007400002700302081C750D02120006121A37020D
:10075000081CE50D6009E4F50D121A1F121A37E5A1
:100760002E30E003434401E52F30E703434402E524
:100770002F30E50343440420A11EE52A641E6006D1
:10078000752A1E1218FAE52B641E700302081C75E8
:100790002B1E12193602081CE544650C607E854448
:1007A0000CE54424FE601914602C1460211460438D
:1007B00024FE605C24067064E52A6441605E805615
:1007C000E52B642D6056752B2D12173C804EE512DB
:1007D000641E6048802FE52A64416006752A411234
:1007E0000012E52B641E6034752B1EE4F5121217FF
:1007F0006F8029E52A64416006752A41120012E5DE
:1008000012641E601775121EE4F52B121A7A800C02
:10081000E52A64416006752A41120012E54264012E
:10082000700AF542F52DF516F517F527E526603621
:10083000751D01E4F52DAF27FED3EF94327480943B
:10084000804008752733E4F5398013EF4E7002F5C8
:1008500039E52775F00584E5F070036339FF052756
:10086000121A10021A01E4F527E51D64017008F55B
:100870001D121954121918121A5F8F18AD4312085D
:10088000BF30860830A0057532018003E4F532E5FB
:10089000326004E51E600AE51545147004F516F58E
:1008A00017E5326004E51E600CE51545147006E599
:1008B0004264027004E4FF80027F01120DFB228F6C
:1008C0004AE4F54BF54CEDFB7A0064026003020943
:1008D000ADAF2DEF64016005EF64027019C3E50F41
:1008E0009410E50E9427400E750E27750F10E4F551
:1008F00039752D02FF22AF4A7E00C3EF94647480E5
:1009000094805003754B01D3EF940CEE6480948077
:1009100050155339FB5339F75339EF4339204339D5
:1009200040754C02020A71D3EF9424EE64809480E7
:1009300050154339025339F75339EF4339204339BE
:1009400040754C03020A71D3EF9441EE64809480A9
:1009500050154339024339045339EF4339204339A1
:1009600040754C04020A71C3EF9463EE6480948076
:100970005015433902433904433908433920433978
:1009800040754C05020A7143390243390443390862
:10099000433910433920433940AF2DEF60046403DD
:1009A0007005E4F50EF50F752D01020A71C3E52DF2
:1009B000940274809480400BEB4A7007752D03F508
:1009C00039FF22E4F52DD3E54A94007480948050D9
:1009D0004675190B751AB8533920751F1812139FD5
:1009E000E51330E20C751F2112139F4313201214DC
:1009F00055751F18121340E5135409600C751F211B
:100A00001213404313201213FE751400751501755F
:100A10004C01754B01805AAF4A7E00D3EF940474A9
:100A200080948050084339025339FB8011D3EF94EE
:100A30000AEE64809480500E4339024339045339DE
:100A4000F75339EF8025D3EF9425EE6480948050DE
:100A50000E4339024339044339085339EF800C43BC
:100A600039024339044339084339104339204339A3
:100A700040E54B6063E4F54B050BE50B7002050A9E
:100A8000AF4C7E00EF64017015D3E50B9402E50ACC
:100A900094004044E4F50AF50B633920803AD3E52D
:100AA0000B9405E50A9400402FE4F50AF50BEF647A
:100AB000024E7005633902801FEF64034E700563B8
:100AC00039048014EF64044E70056339088009EF1F
:100AD00064054E70036339107F0122751FFFE4F532
:100AE000131213FE751F231213404313011213FE3A
:100AF0007F107E271219EB751F247513201213FE29
:100B00007513401213FE7513801213FE751FFFE458
:100B1000F5131213FE751F25121340431380121391
:100B2000FE751F401213404313044313801213FE3B
:100B3000751F4512134053138043132D1213FE7576
:100B40001F4F12134053138043132D1213FE121A1A
:100B500068751F081213407513FC1213FE751F16DB
:100B60001213404313101213FE751F031213405348
:100B700013F04313071213FE751F0D121340531386
:100B80003F4313801213FE751F5512134043138009
:100B90001213FE751F5612134043130143130243F1
:100BA00013041213FE751F181213405313E312138C
:100BB000FE751F19E4F5134313084313201213FEA7
:100BC000751F351213404313014313081213FE75AA
:100BD0001F34121340431304431310431320121302
:100BE000FE751F40E4F5134313804313641213FE94
:100BF000751F0112134053133F4313801213FE75E8
:100C00001F501213404313014313024313041213E2
:100C1000FE751F511213404313701213FE751F23EC
:100C2000121340E4F5134313014313024313044327
:100C300013401213FE751F2212134053133F431328
:100C4000401213FE751F2D12134043130843131057
:100C50001213FE751F2E12134053138043133C12C0
:100C600013FE751F2F12134053138043133C1213AE
:100C7000FE021A71751FFFE4F513121455751F2338
:100C800012139F4313011214557F107E271219EB84
:100C9000751F2475132012145575134012145575C1
:100CA0001380121455751FFFE4F513121455751FA8
:100CB0002512139F431380121455751F4012139F62
:100CC000431304431380121455751F4512139F5389
:100CD0001380431341121455751F4F12139F531362
:100CE00080431341121455121A4D751F0812139F99
:100CF0007513FC121455751F1612139F431310120F
:100D00001455751F0312139F5313F0431307121446
:100D100055751F0D12139F53133F43138012145523
:100D2000751F5512139F431380121455751F5612C9
:100D3000139F431301431302431304121455751FE9
:100D40001812139F5313FB121455751F1912139F7A
:100D50005313F8121455751F3512139F4313014393
:100D60001308121455751F3412139F4313044313B1
:100D700010431320121455751F40E4F513431380DC
:100D8000431364121455751F2312139FE4F5134384
:100D90001301431302431304431340121455751FE8
:100DA0005012139F431301431302431304121455AB
:100DB000751F5112139F431370121455751F221281
:100DC000139F53133F431340121455751F2D1213D5
:100DD0009F431308431310121455751F2E12139FAF
:100DE00053138043133C121455751F2F12139F5336
:100DF000138043133C121455021A56EF6003020F7E
:100E000000C3E517951AE51695195009E5426402E5
:100E10006003020F05E4F539F52DF542F51EF532B4
:100E2000F516F517F527751FA412139F5313F71224
:100E30001455751F231213405313FE1213FE751F12
:100E40002312139F5313FE121455C297C292C291DC
:100E5000C28053E17F438C20438C40909101E05449
:100E6000DFF0E054BFF0C295C296538CFEE044011F
:100E7000F0538B7F909100E04480F0538BBFE044AF
:100E800040F0538BDFE04420F053A27F75855A3049
:100E9000A12130861E30A01B90902074A5F0909068
:100EA000277418F0909020745AF075875075870158
:100EB0007587A07F647E001219EB751F2312139FA4
:100EC000431301121455751F2312134043130112CB
:100ED00013FED2807F107E271219EB43A280439D20
:100EE00001538CDF538CBF909101E054DFF0E0544C
:100EF000BFF0E4F539F516F51775855A43E1802200
:100F0000E4F508F5092275841078FFE4F6D8FD9021
:100F100000007F007E01E4F0A3DFFCDEFA7581585B
:100F200090908074A5F0908020740093909082F04F
:100F30007430909083F09090F0E04480F0758AA037
:100F4000908027740093F58A908026740093F58929
:100F5000909080745AF0020F94021157E493A3F812
:100F6000E493A34003F68001F208DFF48029E493C0
:100F7000A3F85407240CC8C333C4540F4420C883B7
:100F80004004F456800146F6DFE4800B01020408B9
:100F900010204080901A43E47E019360BCA3FF546C
:100FA0003F30E509541FFEE493A360010ECF54C007
:100FB00025E060A840B8E493A3FAE493A3F8E4938F
:100FC000A3C8C582C8CAC583CAF0A3C8C582C8CA97
:100FD000C583CADFE9DEE780BE909100E04440F0BF
:100FE000438E40C29E909184E054BFF0909182E085
:100FF0004440F0909180E04440F0909102E0440140
:10100000F0439101C298909185E04401F090918263
:10101000E04401F0909180E04401F0909101E044BF
:1010200008F0438F08C29B909184E04408F09091AF
:1010300082E04408F0909180E04408F0D2E890917A
:1010400002E04402F0439102C299909185E044028B
:10105000F0909182E04402F0909180E04402F043ED
:101060008C80438C04438C02909101E0547FF0E02B
:1010700054FBF0E054FDF0438B01438B02438B049F
:10108000438B08909100E054FEF0E054FDF0E054F2
:10109000FBF0E054F7F0438C10A3E054EFF0C2945F
:1010A000D280C281C282C28322C3E5289400500349
:1010B000021156E4F528F529538C7F909101E054F4
:1010C0007FF0538CFBE0547FF0538CFDE0547FF0B5
:1010D0000534E5349405748094804003E4F534E5E8
:1010E0003414602714603A14605114605A24047058
:1010F00065E53930E205438C02D291E53930E605E9
:10110000438C04D292438C80C29722E53930E505A6
:10111000438C80D297E53930E437438C02D29180FA
:1011200030E53930E105438C80D297E53930E3056D
:10113000438C04D292438C02C29122E53930E516E9
:10114000438C80D297800AE53930E50A438C80D2FF
:1011500097438C04C2922290902074A5F0A3E09053
:1011600000FFF0E054F0F0E04402F0E0909021F055
:10117000909020745AF074A5F0A37402F09090201F
:10118000745AF075A67C75A67C75A2C3439D01D2E6
:10119000E9D2EFD2EF7F407E421219EB7F407E42D0
:1011A0001219EB120FD9121897120ADB120C747570
:1011B0008420E4F51E751927751A1075855A1215C5
:1011C0008F20A10A751E01D2941214AC800DE4F593
:1011D0003DF53CF53BF53AC294F51E1212D6D3E527
:1011E0001C9464E51B940040D2E4F51BF51C12042A
:1011F0009780C8E4F54AF54B53E1E043E10B7FE803
:101200007E031219EB43E14020C00575855A80F832
:10121000AFE5754A008F4BE54B754B00F54AAFE4DF
:10122000EF424BE4C2C0AC4AAD4B120332E4FBFACE
:10123000794C784212010EC004C005C006C007C335
:10124000E541954BFDE540954AFCE4120332A804C4
:10125000A905AA06AB07D007D006D005D004120214
:10126000178F388E378D368C3522C0E0C0F0C083A2
:10127000C082C0D075D000C000C001C002C003C091
:1012800004C005C006C00730A831051CE51C70026B
:10129000051B0517E517700205160529E5297002DB
:1012A0000528050FE50F7002050EE52C60080525E1
:1012B000E525700205241210A9C2A8D007D006D0D7
:1012C00005D004D003D002D001D000D0D0D082D03D
:1012D00083D0F0D0E032E52C6065309362E4F52CE9
:1012E000D3E52594B8E524940B401A754202751F86
:1012F000211213404313201213FE751F2112139F56
:101300004313208032D3E5259405E5249400402A38
:10131000E52594F4E52494015020754201E4F51686
:10132000F517751F201213404313011213FE751F8A
:101330002012139F431301121455E4F524F52522BE
:10134000E4F54D1218237F781214F9121691EF600C
:101350000FC3E54D9432748094805004054D80E3B2
:10136000AF1F1214F9121691EF600FC3E54D9432BE
:10137000748094805004054D80C91218237F79121F
:1013800014F9121691EF600FC3E54D9432748094F6
:10139000805004054D80AC1215D18F1302198BE4D7
:1013A000F54D1217FA7F781215441216CBEF600F25
:1013B000C3E54D9402748094805004054D80E3AFE2
:1013C0001F1215441216CBEF600FC3E54D94027443
:1013D0008094805004054D80C91217FA7F79121548
:1013E000441216CBEF600FC3E54D940274809480D5
:1013F0005004054D80AC1216138F130219A3E4F5A7
:101400004D1218237F781214F9121691EF600FC352
:10141000E54D9432748094805004054D80E3AF1FF5
:101420001214F9121691EF600FC3E54D94647480A5
:1014300094805004054D80C9AF131214F91216910F
:10144000EF600FC3E54D9496748094805004054D71
:1014500080AF02198BE4F54D1217FA7F781215440C
:101460001216CBEF600FC3E54D9402748094805048
:1014700004054D80E3AF1F1215441216CBEF600F29
:10148000C3E54D9402748094805004054D80C9AF2B
:10149000131215441216CBEF600FC3E54D9402747E
:1014A0008094805004054D80AF0219A353E1E043BE
:1014B000E10A7FE87E031219EB43E14020C0057585
:1014C000855A80F8AFE5753E008F3FE53F753F00D8
:1014D000F53EAFE4EF423FE4C2C0AC3EAD3F120385
:1014E000327BA87AC679AB783F12010E8F3D8E3CD5
:1014F0008D3B8C3AAE3EAF3F228F4E438B20909176
:1015000000E054DFF0C284E4F54FC3E54F94087463
:10151000809480502EE54E30E704D2858002C2854B
:10152000E54E25E0F54E7F037E001219EBD2847F55
:10153000037E001219EBC2847F037E001219EB05B3
:101540004F80C7228F4E438C01909101E054FEF0F2
:10155000C287E4F54FC3E54F940874809480502E01
:10156000E54E30E704D2908002C290E54E25E0F5CA
:101570004E7F037E001219EBD2877F037E00121983
:10158000EBC2877F037E001219EB054F80C7225301
:10159000E1E043E1117FE87E031219EB43E14020D3
:1015A000C00575855A80F8AFE57540008F41E5416B
:1015B000754100F540AFE4EF4241AE40E5417802AD
:1015C000C333CE33CED8F9F5418E40C2C0E4FEFF1E
:1015D00022E4F54F538BDF909100E04420F0E4F5D6
:1015E0004EC3E54E9408748094805021C2847F03DA
:1015F0007E001219EBD284E54F25E0F54F308502CD
:10160000054F7F037E001219EB054E80D41218B8E7
:10161000AF4F22E4F54F538CFE909101E04401F06E
:10162000E4F54EC3E54E9408748094805021C2873F
:101630007F037E001219EBD287E54F25E0F54F308E
:101640009002054F7F037E001219EB054E80D412E5
:1016500018D9AF4F22E4F54AF54B751F30121340ED
:101660005313E04313031213FE751F311213407519
:101670004A0085134B751F32121340E513FEEE42EC
:101680004AAE4AAF4B7C007D051203EC8E4A8F4B6D
:1016900022E4F54ED285538BDF909100E04420F098
:1016A0007F037E001219EBD2847F037E001219EBB8
:1016B000308513054ED3E54E94FA7480948040F043
:1016C00012198B7F0122C2847F0022E4F54ED29052
:1016D000538CFE909101E04401F07F037E001219CB
:1016E000EBD2877F037E001219EB309013054ED3A7
:1016F000E54E94FA7480948040F01219A37F012281
:10170000C2877F00228E4A8F4B8D4C751FA4121307
:101710009F5313FC431308E54C60054313048003F7
:101720005313FB121455751FA5E54BF513121455F1
:10173000751FA6E54A540FF513021455121A687561
:101740001F40E4F51343138043135A1213FE121A79
:1017500071751F4F12134053138043132D1213FE44
:10176000751F2E1213405313F04313010213FE1280
:101770001A68751F40E4F51343138043133C12139A
:10178000FE121A71751F4F12134053138043131E1C
:101790001213FE751F2E1213405313F04313010250
:1017A00013FEE4F54A751F1D12139FE5135431F51E
:1017B0004A751F2B12139F851350E51330E4031253
:1017C0000C74751F2C12139F851351AF4A22E4F538
:1017D0004A751F1D121340E51354F7F54A751F2B68
:1017E000121340851354E51330E403120ADB751F0E
:1017F0002C121340851355AF4A22438B80909100E1
:10180000E0547FF0438C01A3E054FEF0D290D287E5
:101810007F037E001219EBC2907F037E001219EB4A
:10182000C28722438B10909100E054EFF0438B204D
:10183000E054DFF0D285D2847F037E001219EBC220
:10184000857F037E001219EBC28422E4F54A751FDE
:101850001912139F531330E5135430FF7E00642098
:101860007003434A01EF64104E7003434A02AF4ACB
:1018700022E4F54A751F191213405313C0E513549F
:10188000C0FF7E0064807003434A01EF64404E70E5
:1018900003434A02AF4A22909101E054DFF0E05442
:1018A000BFF0538CBF538CDF75EFEB43E18053E205
:1018B0000F43E22075E33B22C284438B20909100CA
:1018C000E054DFF0D2857F037E001219EBD2847FD3
:1018D000037E001219EBC28422C287438C019091CF
:1018E00001E054FEF0D2907F037E001219EBD28704
:1018F0007F037E001219EBC28722751F4512139FCA
:1019000053138043131E121455751F2E12139F5329
:1019100013F0431301021455751F2812139F53131C
:10192000FB5313F7121455751F2E12139F5313F008
:10193000431302021455751F45121340531380437D
:10194000131E1213FE751F2E1213405313F0431370
:10195000010213FE751F281213405313FB5313F794
:101960001213FE751F2E1213405313F0431302027D
:1019700013FEC0E0E59830E309752C01752400756D
:101980002500755801759800D0E032438B20909166
:1019900000E054DFF0C285D2847F037E001219EB91
:1019A000D28522438C01909101E054FEF0C290D286
:1019B000877F037E001219EBD29022751F25121328
:1019C0009FE5135480700B0553E5537002055212C6
:1019D0000C7422751F25121340E5135480700B05FB
:1019E00057E55770020556120ADB22E4FDFCC3EDF1
:1019F0009FEC9E5008000DBD00010C80F175855ACA
:101A000022751F2812139F43130443130802145511
:101A1000751F281213404313044313080213FE7565
:101A20001F2812139F5313FB021455751F281213FE
:101A3000404313040213FE751F281213405313FB77
:101A40000213FE01390001300001310000751F242E
:101A5000751381021455751FFFE4F51302145575B3
:101A60001F9912139FAF1322751F24751381021340
:0B1A7000FE751FFFE4F5130213FE22B9
:00000001FF
