:100000000213A1021FF4752A211218994319200224
:1000100019AE320217BBE4F564F565752A30121883
:10002000995319E04319031219AE752A3112189920
:10003000756400851965752A32121899E519FEEE66
:100040004264AE64AF657C007D051209688E648FE2
:10005000652222020012E4F55BF55CF55DF55EF5C4
:100060005FF563F562F561F560F51AF51B752027FC
:10007000752110121F29121F41121DCF8F42121D10
:10008000F58F43121D268F40121D528F4120860787
:100090001200168E5E8F5FAF50AE4FAD4EAC4D125C
:1000A00008E78E118F12E527602EE4FFFE7DC87CE5
:1000B00042AB50AA4FA94EA84D1208305015050E5C
:1000C000E50E7002050D94D0E50D9407400A121F4D
:1000D0008F8005E4F50DF50EE54320E00BD3E541F7
:1000E000940074809480401DAC5EAD5FE41208AE55
:1000F000A804A905AA06AB07AF50AE4FAD4EAC4D54
:10010000120595803DE54330E13FC3E55F9464E52A
:100110005E94005015050EE50E7002050D940AE57B
:100120000D9400400A121F8F8005E4F50DF50EAC0A
:100130005EAD5FE41208AEAB50AA4FA94EA84D12B7
:1001400005991208E78E118F12851125851226AEAA
:1001500011AF127C007D051209CF8E118F1212177C
:10016000388F2E8E2D8D2C8C2B7F4A7E0C7DAA7C79
:1001700040AB2EAA2DA92CA82B120830601A4018CB
:100180007F197E047D037C42AB2EAA2DA92CA82BBF
:100190001208305003E4F534E5407017E541701360
:1001A000E527700FE54264026009E54364026003DD
:1001B0000202E7E527700FE54264026009E5436447
:1001C000026003020261755B02D3E5129400E5113F
:1001D000648094804008E4FDAF12AE118019C3E53D
:1001E00011648094805013C3E49512F512E49511C4
:1001F000F5117D01AF12FE121C217FCB7EA17D6522
:100200007C40AB2EAA2DA92CA82B1208305003023B
:1002100002B17F777E3E7D117C42AB2EAA2DA92CA8
:10022000A82B120830600540030202B17F4A7E0C01
:100230007DAA7C40AB2EAA2DA92CA82B12083060D9
:100240000250030202F87F197E047D037C42AB2E2C
:10025000AA2DA92CA82B12083040030202F8020292
:10026000E2E4F50DF50E755B01C3E5116480948041
:100270005013C3E49512F512E49511F5117D01AF09
:1002800012FE121C217FA27E457D1E7C40AB2EAA51
:100290002DA92CA82B12083040177F487E617D5E67
:1002A0007C42AB2EAA2DA92CA82B12083060074047
:1002B0000575340180427FDD7E247D3E7C40AB2E7F
:1002C000AA2DA92CA82B120830602D402B7FC37EAD
:1002D000F57D297C42AB2EAA2DA92CA82B12083023
:1002E0005016E4F5348011E4F50DF50E752AA412CC
:1002F00018F85319F7121A05E54030E003435C0182
:10030000E54130E703435C02E54130E503435C042B
:10031000E55C650F607E855C0FE55C24FE6019146A
:10032000602C14602114604324FE605C2406706419
:10033000E53C6441605E8056E53D642D6056753D48
:100340002D121CC0804EE517641E6048802FE53CCE
:1003500064416006753C41120052E53D641E603404
:10036000753D1EE4F517121CF38029E53C644160DD
:1003700006753C41120052E517641E601775171E82
:10038000E4F53D121FFB800CE53C64416006753CC2
:1003900041120052121C8D8E2F8F307C007D07126F
:1003A00009688E2F8F30852F38853039E5346036D7
:1003B000752401E4F53FAF35FED3EF943274809499
:1003C000804008753533E4F5498013EF4E7002F52F
:1003D00049E53575F00584E5F070036349FF05359F
:1003E000121FAD021F80E4F535E52464017008F5A5
:1003F00024121EC1121EA3121FD98F1F1215F2AC98
:1004000075AD76E41208AEE4FBFA79C878421206BC
:100410008AC004C005C006C007AC6FAD70E4120806
:10042000AEA804A905AA06AB07D007D006D005D010
:1004300004120793E4FBFAF9783F1205998F638E53
:10044000628D618C60E4FFFE7D747C42AB63AA62C6
:10045000A961A86012083060234021E4FFFE7D48B6
:100460007C43AB50AA4FA94EA84D120830600D40F6
:100470000BE4F563F5627561C4756042752800850B
:100480001F29AF63AE62AD61AC601208E7AD5B12CD
:100490000A13E572B5711CE533B52917E4B52813C5
:1004A000E545B5760EE544B57509E51C651870039C
:1004B00002055485383A85393B852933857544854D
:1004C000764585717285181C7F49121EF37F3A129A
:1004D0001EF3AF26AE25121C587F0D121EF37F0AA5
:1004E000121EF37F56121EF37F3A121EF3AF39AE7F
:1004F00038121C587F0D121EF37F0A121EF37F6DF7
:10050000121EF37F57121EF37F3A121EF3AF70AE26
:100510006F121C587F0D121EF37F0A121EF37F6D9F
:10052000121EF37F57121EF37F3A121EF3AF76AE00
:1005300075121C587F0D121EF37F0A121EF37F44A2
:10054000121EF37F3A121EF3AF29AE28121C587FF9
:1005500020121EF330860830A0057546018003E4A2
:10056000F546E5466004E527600AE51B451A700478
:10057000F51DF51EE5466004E527600CE51B451AF0
:100580007006E55A64027004E4FF80027F011212D3
:100590002F22020953E86480F8E933E8336011043C
:1005A00060F0ED33EC337009E8FCE9FDEAFEEBFFA7
:1005B000220460DED3EB9FEA9EE99DE8C2E78CF05F
:1005C000C2F795F0400CE8CCF8E9CDF9EACEFAEBA9
:1005D000CFFB12091E85D0F05804700320D5B3E874
:1005E0000470075002B2D502095D92D5EC0460F7A1
:1005F000E4CCC0E0C398F8603B94186008400DD08C
:10060000E0FB020935E4FBFAC9FC8028E830E40687
:10061000E4C9FBE4CAFCE830E305E4C9CACBFCE862
:1006200054076010F8C3E913F9EA13FAEB13FBEC73
:1006300013FCD8F130F52FC3E49CFCEF9BFFEE9A3E
:10064000FEED99FDD0E0FBEF4E4D4C701222DB0326
:1006500002095AEC2CFCEF33FFEE33FEED33FDEDD7
:1006600030E7EB020935EF2BFFEE3AFEED39FDD016
:10067000E0FB50130BBB000302095DED13FDEE130D
:10068000FEEF13FFEC13FC020935EC4D6011E84955
:100690007017ED33EC3304600DE4FCFFFEFD22E93E
:1006A00033E8330470F802095312091E5804600934
:1006B000E4CC2481500628500902095D2840030239
:1006C000095AC0E0EB4A7044B98006D0E0FB020949
:1006D00049EF4E701CBD8008EBFFEAFEE9FD80EBA0
:1006E000E98DF0A4FEE5F0020773E9CDF9EAFEEB2F
:1006F000FFEF89F0A4FCE5F0CE89F0A42EFFE435ED
:10070000F0CD89F0A42DFEE435F08067EF4E700542
:10071000BD80D780C3EF8BF0A4ACF0EE8BF0A42C9F
:10072000FCE435F0F8EF8AF0A42CE5F038FCE43373
:10073000CB8DF0A42CFCE5F03BF8EE8AF0A42CFC69
:10074000E5F038F8E433CF89F0A42CFCE5F038CF9D
:100750003400CE89F0A42FFFE5F03EFEE433C98DCE
:10076000F0A42EFEE5F039CD8AF0A42FFFE5F03E8F
:10077000FEE43DFD33D0E0FB50070BBB000F020948
:100780005DEC2CFCEF33FFEE33FEED33FD0209355B
:1007900002095DEC5D046005E85904700302095329
:1007A00012091E580460F6EC4860F2EC7004FDFE7D
:1007B000FF22C860DB2481C85009C398600250063C
:1007C00002095A9850CAF582E9294B4A7005AB8252
:1007D00002094975F0007C1A7880C3EF9BEE9AED10
:1007E00099400DC3EF9BFFEE9AFEED99FDE842F0B4
:1007F000DC23ACF0D0E0FFD0E0FED0E0FDAB822007
:10080000E7101BEB60BAEC2CFCEF33FFEE33FEED90
:1008100033FD020935E803F830E705C0F075F00054
:10082000EF2FFFEE33FEED33FD40B830E7C280AA74
:1008300074F8CC6480CCC86480C8F58204604FC36F
:10084000EB9FF5F0EA9E42F0E99D42F0E89C45F00E
:10085000603C501DE5825FFFE582D313CB5BCBF498
:100860002B5582FB50280ABA002409B900200880C1
:100870001DE5825BFBE582D313CF5FCFF4C3132F5B
:100880005582FF50090EBE00050DBD00010CC3EBE3
:100890009FF5F0EA9E42F0E99D42F0E89C45F06049
:1008A00007CC4820E701B3EC2275F020800E75F0EC
:1008B00010800575F0087D007E007F003392D530F2
:1008C000D503120A05EC334010EF33FFEE33FEED93
:1008D00033FDEC33FCD5F0ED22E5F0247EA2D513F8
:1008E000CC92E7CDCEFF22EDD2E7CD33EC3392D5DB
:1008F00024814006E4FFFEFDFC22FCE4CFCECDCCFB
:1009000024E0501174FF80EDC3CC13CCCD13CDCEB9
:1009100013CECF13CF0470F030D5DE020A05E9D232
:10092000E7C933E833F892D5EDD2E7CD33EC33FCA9
:100930005002B2D522EC30E7100FBF000C0EBE0003
:10094000080DBD00040BEB6014A2D5EB13FCED9277
:10095000E7FD2274FFFCFDFEFF22E480F8A2D574BF
:10096000FF13FC7D80E480EFEF8DF0A4A8F0CF8C26
:10097000F0A428CE8DF0A42EFE22BC000BBE0029D0
:10098000EF8DF084FFADF022E4CCF875F008EF2F86
:10099000FFEE33FEEC33FCEE9DEC984005FCEE9D43
:1009A000FE0FD5F0E9E4CEFD22EDF8F5F0EE84205F
:1009B000D21CFEADF075F008EF2FFFED33FD4007C0
:1009C000985006D5F0F222C398FD0FD5F0EA22C266
:1009D000D5EC30E709B2D5E4C39DFDE49CFCEE30D4
:1009E000E715B2D5E4C39FFFE49EFE12097AC3E483
:1009F0009DFDE49CFC800312097A30D507C3E49F77
:100A0000FFE49EFE22C3E49FFFE49EFEE49DFDE41E
:100A10009CFC228F64E4F565F566F567ED64026081
:100A200003020B2EE5405420FB7A007006E541548A
:100A3000A46003E4F53FAF3FEF64016005EF64029B
:100A40007019C3E5149410E5139427400E7513270D
:100A5000751410E4F549753F02FF22AF647E00C3B0
:100A6000EF9464748094805003756501D3EF940A09
:100A7000EE6480948050157518015349FB5349F773
:100A80005349EF434920434940020BE5D3EF941EFD
:100A9000EE6480948050187518024349025349F758
:100AA0005349EF434920434940756703020C37D34C
:100AB000EF943CEE6480948050187518034349020B
:100AC0004349045349EF43492043494075670402B1
:100AD0000C37C3EF9463EE6480948050187518044B
:100AE0004349024349044349084349204349407567
:100AF0006705020C37751805434902434904434909
:100B000008434910434920434940AF3FEF60046424
:100B1000037005E4F513F514EB4A700CE54154A499
:100B20007006753F01020C37E4F53F020C37C3E550
:100B30003F940274809480400AED7007753F03F57E
:100B400049FF22E4F53F752A15121899851966E5C3
:100B50006630E415752AA41218F85319FC431908D5
:100B6000431904121A05121F9ED3E51F94007480C6
:100B70009480504E75200B7521B8534920E4F51828
:100B8000752A181218F8E51920E205E56630E41513
:100B9000752A158566191219AE752A211218F8439F
:100BA0001920121A05752A18121899E519540960A6
:100BB00003120006751A00751B0175670175650142
:100BC0008075AF647E00D3EF940A74809480501ACD
:100BD0007518015349FB5349F75349EF43492043E3
:100BE0004940756501756702804DD3EF941EEE6430
:100BF00080948050117518024349024349045349B7
:100C0000F75349EF802BD3EF943CEE6480948050EF
:100C1000117518034349024349044349085349EFF6
:100C2000800F751804434902434904434908434966
:100C300010434920434940E5656071E4F565050BC3
:100C4000E50B7002050AE567650C600885670CE432
:100C5000F50AF50BAF677E00EF64017015D3E50B65
:100C60009402E50A94004044E4F50AF50B63492038
:100C7000803AD3E50B9405E50A9400402FE4F50A89
:100C8000F50BEF64024E7005634902801FEF6403A9
:100C90004E70056349048014EF64044E7005634987
:100CA000088009EF64054E70036349107F012275C7
:100CB0002AFFE4F5191219AE752A2312189943195F
:100CC000011219AE7F107E27121F59752A2475193B
:100CD000201219AE7519401219AE7519801219AE8D
:100CE000752AFFE4F5191219AE752A2512189943D1
:100CF00019801219AE752A151218991219AE121F01
:100D0000E2752A081218997519DC1219AE752A169F
:100D10001218994319101219AE752A1B12189953FB
:100D2000193F4319801219AE752A031218995319E5
:100D3000F04319071219AE752A0D12189953193F6D
:100D40004319801219AE752A321218995319FC43AF
:100D500019011219AE752A551218994319801219E2
:100D6000AE752A5612189943190143190243190402
:100D70001219AE752A181218995319E31219AE7583
:100D80002A19E4F519431901431908431920431995
:100D9000401219AE752A35121899431901431908E2
:100DA0001219AE752A3412189943190443191043C5
:100DB00019201219AE752A40E4F519431980431918
:100DC000641219AEE4F52A12189953197F53198F3A
:100DD0004319101219AE752A0112189953193F12AE
:100DE00019AE752A50121899431901431902431973
:100DF000041219AE752A511218994319701219AEBE
:100E0000752A23121899E4F519431901431902436D
:100E100019044319401219AE752A22121899531950
:100E20003F4319401219AE752A2D1218994319081B
:100E30004319101219AE752A2E12189953198043AE
:100E4000193C1219AE752A2F12189953198043199B
:100E50003C1219AE121FEB752A4012189943190261
:100E60004319044319801219AE752A461218997550
:100E700019911219AE752A471218995319E043199E
:100E8000051219AE752A4512189953198043192D68
:100E90001219AE752A4F12189953198043192D0251
:100EA00019AE752AFFE4F519121A05752A231218CE
:100EB000F8431901121A057F107E27121F59752A4F
:100EC00024751920121A05751940121A0575198012
:100ED000121A05752AFFE4F519121A05752A25124A
:100EE00018F8431980121A05121FC7752A0812181C
:100EF000F87519DC121A05752A161218F84319101C
:100F0000121A05752A031218F85319F0431907121B
:100F10001A05E4F52A1218F853197F53198F43194B
:100F200010121A05752A0D1218F853193F4319802B
:100F3000121A05752A4B1218F853193F431940121B
:100F40001A05752A551218F8431980121A05752AC0
:100F5000561218F8431901431902431904121A05CD
:100F6000752A181218F85319FB121A05752A191246
:100F700018F85319F8431901121A05752A35121871
:100F8000F8431901431908121A05752A341218F882
:100F9000431904431910431920121A05752A40E415
:100FA000F519431980431964121A05752A2312187A
:100FB000F8E4F51943190143190243190443194090
:100FC000121A05752A501218F843190143190243E1
:100FD0001904121A05752A511218F8431970121AB9
:100FE00005752A221218F853193F431940121A05A1
:100FF000752A2D1218F8431908431910121A05758D
:101000002A2E1218F853198043193C121A05752A12
:101010002F1218F853198043193C121A05121FD0C9
:10102000752A401218F84319024319044319801213
:101030001A05752A461218F8751991121A05752A9B
:10104000471218F85319E0431905121A05752A4575
:101050001218F8531980431941121A05752A4F12B4
:1010600018F8531980431941021A0590902074A56D
:10107000F0A3E09000FFF0E054F0F0E04402F0E074
:10108000909021F0909020745AF074A5F0A374020F
:10109000F0909020745AF075A67C75A67C75A2C35A
:1010A000439D01D2E9D2EFD2EF7F407E42121F5919
:1010B0007F407E42121F59121474121E40752A235B
:1010C0001218994319011219AE7F107E27121F5969
:1010D000752A247519201219AE7519401219AE75AA
:1010E00019801219AE752AD97519201219AE751901
:1010F000401219AE7519801219AE752A247519207F
:10110000121A05751940121A05751980121A0575FB
:101110002AD9751920121A05751940121A05751960
:1011200080121A05120CAF120EA2121E1B7F311272
:101130001EF37F31121EF37F31121EF3758420E4FB
:10114000F52775202775211075855A121957121623
:101150009CD3E5239464E522940040ECE4F522F569
:101160002330A10302121A121834AB50AA4FA94E11
:10117000A84DAF54AE53AD52AC51120595E4FBFAF5
:10118000794878431208305017E4FFFE7D487C42CE
:10119000AB50AA4FA94EA84D1208305003754C0110
:1011A000AB54AA53A952A851AF50AE4FAD4EAC4D5F
:1011B000120595E4FBFA794878431208305019E497
:1011C000FFFE7D167C43AB50AA4FA94EA84D1208D6
:1011D0003060054003E4F54C855054854F53854EEF
:1011E00052854D51E54C6401600375270175270157
:1011F000E5346004C2948002D294E5596401602908
:10120000755901121FC7752A4B1218F853193F431D
:101210001940121A05121FD0800FE4F54CF550F555
:101220004FF54EF54DC294F527120056021148EFC6
:10123000600302139BC3E51E9521E51D952050090F
:10124000E55A640260030213A0E4F54AF54BF54940
:10125000F53FF546F51DF51EF535120006752A21F8
:101260001218F8431920121A05752AA41218F853F7
:1012700019F7121A05752A231218995319FE121913
:10128000AE752A231218F85319FE121A05C297C216
:1012900092C291C28053E17F438C20438C40909155
:1012A00001E054DFF0E054BFF0C295C296538CFECB
:1012B000E04401F0538B7F909100E04480F0538B29
:1012C000BFE04440F0538BDFE04420F053A27F7531
:1012D000855AE527700630860320A00CE51B451AC9
:1012E0007006E55A6402701EE4F55A90902074A5C9
:1012F000F09090277418F0909020745AF0758750F1
:101300007587017587A043A280439D0175855AE4C6
:10131000F55AF51AF51B7F107E27121F59752A23DF
:101320001218F8431901121A05752A231218994345
:1013300019011219AED2807F107E27121F59538CCB
:10134000DF538CBF909101E054DFF0E054BFF0E434
:10135000F549F51DF51E43E180752A247519201203
:1013600019AE7519401219AE7519801219AE752A89
:1013700024751920121A05751940121A057519805D
:10138000121A05752A201218994319011219AE75FF
:101390002A201218F8431901021A05E4F508F50984
:1013A0002275841078FFE4F6D8FD9000007F007E5F
:1013B00001E4F0A3DFFCDEFA75817E90908074A5D5
:1013C000F0908020740093909082F074309090831D
:1013D000F09090F0E04480F0758AA090802774002F
:1013E00093F58A908026740093F589909080745AC2
:1013F000F002142F02106BE493A3F8E493A34003CC
:10140000F68001F208DFF48029E493A3F85407245E
:101410000CC8C333C4540F4420C8834004F456801E
:101420000146F6DFE4800B010204081020408090A2
:101430001F6FE47E019360BCA3FF543F30E5095465
:101440001FFEE493A360010ECF54C025E060A840C6
:10145000B8E493A3FAE493A3F8E493A3C8C582C8BD
:10146000CAC583CAF0A3C8C582C8CAC583CADFE992
:10147000DEE780BE909100E04440F0438E40C29E83
:10148000909184E054BFF0909182E04440F09091BC
:1014900080E04440F0909102E04401F0439101C2A9
:1014A00098909185E04401F0909182E04401F090A1
:1014B0009180E04401F0909101E04408F0438F08EE
:1014C000C29B909184E04408F0909182E04408F03F
:1014D000909180E04408F0D2E8909102E04402F05C
:1014E000439102C299909185E04402F0909182E08C
:1014F0004402F0909180E04402F0438C80438C04DD
:10150000438C02909101E0547FF0E054FBF0E054F2
:10151000FDF0438B01438B02438B04438B08909176
:1015200000E054FEF0E054FDF0E054FBF0E054F72E
:10153000F0438C10A3E054EFF0C294D280C281C279
:1015400082C28322C3E536940050030215F1E4F50C
:1015500036F537538C7F909101E0547FF0538CFB2C
:10156000E0547FF0538CFDE0547FF00548E548944B
:1015700005748094804003E4F548E548146027141E
:10158000603A14605114605A24047065E54930E2F1
:1015900005438C02D291E54930E605438C04D29292
:1015A000438C80C29722E54930E505438C80D29771
:1015B000E54930E437438C02D2918030E54930E18F
:1015C00005438C80D297E54930E305438C04D292E1
:1015D000438C02C29122E54930E516438C80D297B4
:1015E000800AE54930E50A438C80D297438C04C2D7
:1015F0009222E4F56FF570752A861218F8756F005F
:10160000851970752A871218F8E519FEEE426FAC3D
:101610006FAD70E41208AE7B9F7A1C79A3784312F9
:10162000068A1208E78E6F8F70E4F575F576752AD5
:10163000881218F8756D0085196E752A891218F8C8
:10164000757500851976752A8A1218F8E519FEEE67
:101650004275AC6DAD6EE41208AE7B4C7A1A79A37C
:10166000783D12068AC004C005C006C007AC75AD3F
:1016700076E41208AE7B327A7779A2784112068A34
:10168000D003D002D001D0001205991208E78E7560
:101690008F76752A941218F885197122E55A64021A
:1016A0007020120006752A211218F8431920121A08
:1016B00005752AA41218F85319F7121A05E4F55AF9
:1016C0008037E55A64017031F55AF53FF535E53E4E
:1016D0007025753E01F531F532F547F51DF51E759E
:1016E0002A201218994319011219AE752A201218CE
:1016F000F8431901121A050547D3E53294DCE531A8
:101700009405502AC3E5479405748094804028E5E9
:101710005964026015755902121FC7752A4B1218B9
:10172000F853193F121A05121FD0E4F54722E4F5C9
:101730003EF531F532F54722E4F564F56590910107
:10174000E054DFF0E054BFF0538CBF538CDF75EFF3
:10175000EB43E18053E20F43E22075E33B53E1E0CA
:1017600043E10B7FE87E03121F5943E14020C0058F
:1017700075855A80F8AFE5EFADE4F564EDF565C227
:10178000C0AC64E41208AEE4FBFA794C784212066D
:101790008AC004C005C006C007C3E5589565FDE5CD
:1017A000579564FCE41208AEA804A905AA06AB0785
:1017B000D007D006D005D004020793C0E0C0F0C027
:1017C00083C082C0D075D000C000C001C002C00379
:1017D000C004C005C006C00730A83E0523E523703D
:1017E000020522051EE51E7002051D0537E537704E
:1017F0000205360514E514700205130579E57970C4
:101800000205780577121BEAE53E60080532E532ED
:1018100070020531121544C2A8D007D006D005D0F9
:1018200004D003D002D001D000D0D0D082D083D059
:10183000F0D0E032909101E054DFF0E054BFF0537B
:101840008CBF538CDF75EFEB43E18053E20F43E233
:101850008075E33B75EFEB53E1E043E10A7FE87EFF
:1018600003121F5943E14020C00575855A80F8AF27
:10187000E5EFADE4F555EDF556C2C0AC55E4120800
:10188000AE7BAE7A477981783F12068A8F508E4FB1
:101890008D4E8C4DAE55AF5622E4F568121DA77FD4
:1018A00078121A5C121B76EF600FC3E568943274ED
:1018B0008094805004056880E3AF2A121A5C121BE2
:1018C00076EF600FC3E5689432748094805004050D
:1018D0006880C9121DA77F79121A5C121B76EF600F
:1018E0000FC3E5689432748094805004056880AC1E
:1018F000121AF28F19021EF9E4F568121D7E7F7824
:10190000121AA7121BB0EF600FC3E568940274802F
:1019100094805004056880E3AF2A121AA7121BB006
:10192000EF600FC3E56894027480948050040568EA
:1019300080C9121D7E7F79121AA7121BB0EF600FAB
:10194000C3E5689402748094805004056880AC12EA
:101950001B348F19021F11909101E054DFF0E05405
:10196000BFF0538CBF538CDF75EFEB43E18053E244
:101970000F43E22075E33B53E1E043E1117FE87E52
:1019800003121F5943E14020C00575855A80F8AF06
:10199000E5EFADE4F557EDF558AE577802C333CE19
:1019A00033CED8F9F5588E57C2C0E4FEFF22E4F5D5
:1019B00068121DA77F78121A5C121B76EF600FC3A6
:1019C000E5689432748094805004056880E3AF2AFF
:1019D000121A5C121B76EF600FC3E5689464748082
:1019E00094805004056880C9AF19121A5C121B76E6
:1019F000EF600FC3E5689496748094805004056886
:101A000080AF021EF9E4F568121D7E7F78121AA7D6
:101A1000121BB0EF600FC3E568940274809480508D
:101A200004056880E3AF2A121AA7121BB0EF600FFB
:101A3000C3E5689402748094805004056880C9AF3F
:101A400019121AA7121BB0EF600FC3E56894027455
:101A50008094805004056880AF021F118F69438B0A
:101A600020909100E054DFF0C284E4F56AC3E56A97
:101A7000940874809480502EE56930E704D2858004
:101A800002C285E56925E0F5697F037E00121F59D2
:101A9000D2847F037E00121F59C2847F037E00120E
:101AA0001F59056A80C7228F69438C01909101E01C
:101AB00054FEF0C287E4F56AC3E56A940874809422
:101AC00080502EE56930E704D2908002C290E5692B
:101AD00025E0F5697F037E00121F59D2877F037EC0
:101AE00000121F59C2877F037E00121F59056A80AA
:101AF000C722E4F56A538BDF909100E04420F0E4C4
:101B0000F569C3E5699408748094805021C2847F8C
:101B1000037E00121F59D284E56A25E0F56A3085FC
:101B200002056A7F037E00121F59056980D4121EC8
:101B300061AF6A22E4F56A538CFE909101E04401A2
:101B4000F0E4F569C3E5699408748094805021C27B
:101B5000877F037E00121F59D287E56A25E0F56A68
:101B6000309002056A7F037E00121F59056980D4F8
:101B7000121E82AF6A22E4F569D285538BDF909101
:101B800000E04420F07F037E00121F59D2847F03BF
:101B90007E00121F593085130569D3E56994FA74E4
:101BA00080948040F0121EF97F0122C2847F0022BF
:101BB000E4F569D290538CFE909101E04401F07FEE
:101BC000037E00121F59D2877F037E00121F5930F7
:101BD00090130569D3E56994FA7480948040F012FB
:101BE0001F117F0122C2877F0022209315054BE53C
:101BF0004B7002054AD39410E54A94274022755A47
:101C00000222C3E54B9405E54A9400400ED3E54B10
:101C100094F4E54A94015003755A01E4F54AF54BF2
:101C2000228E648F658D66752AA41218F85319FCEC
:101C3000431908E566600543190480035319FB1234
:101C40001A05752AA5E565F519121A05752AA6E57E
:101C500064540FF519021A05AB07AA067C277D10FC
:101C600012097AEF2430FF121EF37C037DE8121E66
:101C7000E17D64121EDF7D0A121EDFAE02AF037C1F
:101C8000007D0A12097AED2430FF021EF3E4F564A8
:101C9000F565752A301218F85319E0431902121A23
:101CA00005752A311218F8756400851965752A3290
:101CB0001218F8E519540FFEEE4264AE64AF6522C7
:101CC000121FE2752A40E4F51943198043195A128C
:101CD00019AE121FEB752A4F121899531980431928
:101CE0002D1219AE752A2E1218995319F0431901A5
:101CF0000219AE121FE2752A40E4F5194319804318
:101D0000193C1219AE121FEB752A4F12189953196C
:101D10008043191E1219AE752A2E1218995319F004
:101D20004319010219AEE4F564752A1D1218F8E58D
:101D3000195431F564752A2B1218F885196BE519B9
:101D400030E403120EA2752A2C1218F885196CAF14
:101D50006422E4F564752A1D121899E51954F7F503
:101D600064752A2B12189985197BE51930E4031242
:101D70000CAF752A2C12189985197CAF6422438BFD
:101D800080909100E0547FF0438C01A3E054FEF07A
:101D9000D290D2877F037E00121F59C2907F037EAC
:101DA00000121F59C28722438B10909100E054EF1C
:101DB000F0438B20E054DFF0D285D2847F037E0095
:101DC000121F59C2857F037E00121F59C28422E46C
:101DD000F564752A191218F8531930E5195430FFB3
:101DE0007E0064207003436401EF64104E7003436F
:101DF0006402AF6422E4F564752A19121899531924
:101E0000C0E51954C0FF7E0064807003436401EF95
:101E100064404E7003436402AF6422D282909131D9
:101E2000E054F0F0E04402F0438B0475D50175D71F
:101E3000027F227E00121FBC439F01D2EDD2EF220F
:101E4000909101E054DFF0E054BFF0538CBF538C0D
:101E5000DF75EFEB43E18053E20F43E22075E33B94
:101E600022C284438B20909100E054DFF0D2857F22
:101E7000037E00121F59D2847F037E00121F59C2B5
:101E80008422C287438C01909101E054FEF0D290ED
:101E90007F037E00121F59D2877F037E00121F59D5
:101EA000C28722752A281218F85319FB5319F71202
:101EB0001A05752A2E1218F85319F0431902021A3E
:101EC00005752A281218995319FB5319F71219AEE0
:101ED000752A2E1218995319F04319020219AE7C73
:101EE00000AF03AE0212097A7C007D0A12097AED76
:101EF0002430FF30B9FD8FD922438B20909100E030
:101F000054DFF0C285D2847F037E00121F59D28530
:101F100022438C01909101E054FEF0C290D2877F61
:101F2000037E00121F59D29022752A251218F8E557
:101F3000195480700B0574E57470020573120EA2BB
:101F400022752A25121899E5195480700B057EE533
:101F50007E7002057D120CAF22E4FDFCC3ED9FEC08
:101F60009E5008000DBD00010C80F175855A2201BC
:101F70004700024A000001490001420001430000FD
:101F8000752A281218F8431904431908021A05750E
:101F90002AA41218F84319025319FE021A05752AC9
:101FA000A41218F84319015319FD021A05752A28BD
:101FB0001218994319044319080219AEAD07AC066B
:101FC000ECFF8DD38FD422752A24751981021A054E
:101FD000752AFFE4F519021A05752A991218F8AF47
:101FE0001922752A247519810219AE752AFFE4F5A4
:0C1FF000190219AE757A017598003222B2
:00000001FF
