:1000000002128F021E4F752B281218A043190402EA
:1000100019563202169AE4F570F571752B301218E4
:10002000415319E04319031218FF752B311218417F
:10003000757000851971752B32121841E519FEEEA5
:100040004270AE70AF717C007D051209B78E708F63
:10005000712222020012E4F56BF56CF56DF56EF578
:100060006FF51AF51B751F27752010121E98121EAA
:10007000B0121CE98F45121D0F8F46AD46AF4512D9
:100080001621121C408F43121C6C8F4420860712CD
:1000900000168E6E8F6FAF55AE54AD53AC52120931
:1000A000368E128F13E528602EE4FFFE7DC87C4259
:1000B000AB55AA54A953A85212087F5015050FE555
:1000C0000F7002050E940AE50E9400400A121F08F4
:1000D0008005E4F50EF50FE54630E01DAC6EAD6F22
:1000E000E41208FDA804A905AA06AB07AF55AE5453
:1000F000AD53AC521205E4803DE54630E13FC3E527
:100100006F9464E56E94005015050FE50F700205BD
:100110000E940AE50E9400400A121F088005E4F5CB
:100120000EF50FAC6EAD6FE41208FDAB55AA54A9E5
:1001300053A8521205E81209368E128F1385122623
:10014000851327AE12AF137C007D05120A1E8E1296
:100150008F1312158A8F2F8E2E8D2D8C2C7F4A7E19
:100160000C7DAA7C40AB2FAA2EA92DA82C12087FAB
:10017000601A40187F197E047D037C42AB2FAA2EA3
:10018000A92DA82C12087F5003E4F535E54370171C
:10019000E5447013E528700FE54564026009E54603
:1001A000640260030202DBE528700FE5456402602B
:1001B00009E54664026003020255756B02D3E5133C
:1001C0009400E512648094804008E4FDAF13AE1201
:1001D0008019C3E512648094805013C3E49513F52D
:1001E00013E49512F5127D01AF13FE121B3B7FCB7A
:1001F0007EA17D657C40AB2FAA2EA92DA82C1208CC
:100200007F50030202A57F777E3E7D117C42AB2F9B
:10021000AA2EA92DA82C12087F600540030202A572
:100220007F4A7E0C7DAA7C40AB2FAA2EA92DA82C3C
:1002300012087F600250030202EC7F197E047D03E6
:100240007C42AB2FAA2EA92DA82C12087F400302B6
:1002500002EC0202D6E4F50EF50F756B01C3E51250
:10026000648094805013C3E49513F513E49512F55C
:10027000127D01AF13FE121B3B7FA27E457D1E7CCB
:1002800040AB2FAA2EA92DA82C12087F40177F481B
:100290007E617D5E7C42AB2FAA2EA92DA82C120870
:1002A0007F6007400575350180427FDD7E247D3EFD
:1002B0007C40AB2FAA2EA92DA82C12087F602D40C0
:1002C0002B7FC37EF57D297C42AB2FAA2EA92DA8BA
:1002D0002C12087F5016E4F5358011E4F50EF50F69
:1002E000752BA41218A05319F7121956AF457E00AA
:1002F000C3EF940274809480500BC3E5469402745B
:10030000809480407CC3EF9402EE6480948040220D
:10031000E5469402748094804018E511600302045D
:1003200051751101E540642D602B75402D121BDACB
:100330008023C3E5459402748094804021E51164D4
:10034000017003020451751101E540642D600675CA
:10035000402D121BDA121F20121EFC020451C3E5AD
:10036000469402748094805003020451E5116402A3
:100370007003020451751102120006121F2C0204B0
:1003800051E5116009E4F511121EFC121F2CE54322
:1003900030E003436C01E54430E703436C02E5447D
:1003A00030E503436C04E5286401701EE53F641EDC
:1003B0006006753F1E121DBDE540641E70030204F9
:1003C0005175401E121DF9020451E56C6510700351
:1003D000020451856C10E56C24FE601914602C1425
:1003E000602114604324FE605C24067064E53F6471
:1003F00041605E8056E540642D605675402D121BAD
:10040000DA804EE518641E6048802FE53F64416045
:1004100006753F41120052E540641E603475401E6F
:10042000E4F518121C0D8029E53F64416006753F14
:1004300041120052E518641E601775181EE4F5405D
:10044000121F86800CE53F64416006753F41120033
:1004500052E55E6401700AF55EF542F51CF51DF586
:1004600038121BA78E308F317C007D071209B78EA2
:10047000308F3185303B85313CE53560367525015F
:10048000E4F542AF38FED3EF943274809480400894
:10049000753833E4F5508013EF4E7002F550E538AF
:1004A00075F00584E5F070036350FF0538121EED0A
:1004B000021EDEE4F538E52564017008F525121EFC
:1004C00017121DDB121F6B8F1E7529008F2AAD6B53
:1004D000120A621214E0E566B5650DE534652A700E
:1004E00002E52970030205A3852636852737853B5B
:1004F0003D853C3E852A34856947856A4885632168
:100500008564228565667F49121E497F3A121E491D
:10051000AF27AE26121B727F0D121E497F0A121ED4
:10052000497F56121E497F3A121E49AF3CAE3B121C
:100530001B727F0D121E497F0A121E497F6D121E0B
:10054000497F57121E497F3A121E49AF64AE6312AB
:100550001B727F0D121E497F0A121E497F6D121EEB
:10056000497F57121E497F3A121E49AF6AAE69127F
:100570001B727F0D121E497F0A121E497F44121EF4
:10058000497F3A121E49AF2AAE29121B727F2012F0
:100590001E49AF657E00121B727F0D121E497F0A35
:1005A000121E4930860830A0057549018003E4F524
:1005B00049E5496004E528600AE51B451A7004F521
:1005C0001CF51DE5496004E528600CE51B451A7023
:1005D00006E55E64027004E4FF80027F011211757B
:1005E000220209A2E86480F8E933E833601104606C
:1005F000F0ED33EC337009E8FCE9FDEAFEEBFF2295
:100600000460DED3EB9FEA9EE99DE8C2E78CF0C26E
:10061000F795F0400CE8CCF8E9CDF9EACEFAEBCF4B
:10062000FB12096D85D0F05804700320D5B3E8049F
:1006300070075002B2D50209AC92D5EC0460F7E421
:10064000CCC0E0C398F8603B94186008400DD0E03F
:10065000FB020984E4FBFAC9FC8028E830E406E4E4
:10066000C9FBE4CAFCE830E305E4C9CACBFCE854A2
:10067000076010F8C3E913F9EA13FAEB13FBEC1364
:10068000FCD8F130F52FC3E49CFCEF9BFFEE9AFE03
:10069000ED99FDD0E0FBEF4E4D4C701222DB0302D2
:1006A00009A9EC2CFCEF33FFEE33FEED33FDED300A
:1006B000E7EB020984EF2BFFEE3AFEED39FDD0E0C7
:1006C000FB50130BBB00030209ACED13FDEE13FE50
:1006D000EF13FFEC13FC020984EC4D6011E8497044
:1006E00017ED33EC3304600DE4FCFFFEFD22E9332B
:1006F000E8330470F80209A212096D58046009E495
:10070000CC248150062850090209AC284003020974
:10071000A9C0E0EB4A7044B98006D0E0FB0209981A
:10072000EF4E701CBD8008EBFFEAFEE9FD80EBE9AF
:100730008DF0A4FEE5F00207C2E9CDF9EAFEEBFF79
:10074000EF89F0A4FCE5F0CE89F0A42EFFE435F0AB
:10075000CD89F0A42DFEE435F08067EF4E7005BD25
:1007600080D780C3EF8BF0A4ACF0EE8BF0A42CFC10
:10077000E435F0F8EF8AF0A42CE5F038FCE433CB54
:100780008DF0A42CFCE5F03BF8EE8AF0A42CFCE5FF
:10079000F038F8E433CF89F0A42CFCE5F038CF34FE
:1007A00000CE89F0A42FFFE5F03EFEE433C98DF0C2
:1007B000A42EFEE5F039CD8AF0A42FFFE5F03EFE31
:1007C000E43DFD33D0E0FB50070BBB000F0209AC4A
:1007D000EC2CFCEF33FFEE33FEED33FD0209840217
:1007E00009ACEC5D046005E8590470030209A2122B
:1007F000096D580460F6EC4860F2EC7004FDFEFFF1
:1008000022C860DB2481C85009C3986002500602E8
:1008100009A99850CAF582E9294B4A7005AB8202B2
:10082000099875F0007C1A7880C3EF9BEE9AED99D9
:10083000400DC3EF9BFFEE9AFEED99FDE842F0DC20
:1008400023ACF0D0E0FFD0E0FED0E0FDAB8220E7AB
:10085000101BEB60BAEC2CFCEF33FFEE33FEED33F4
:10086000FD020984E803F830E705C0F075F000EFF9
:100870002FFFEE33FEED33FD40B830E7C280AA749F
:10088000F8CC6480CCC86480C8F58204604FC3EBA8
:100890009FF5F0EA9E42F0E99D42F0E89C45F06049
:1008A0003C501DE5825FFFE582D313CB5BCBF42B7D
:1008B0005582FB50280ABA002409B9002008801D7F
:1008C000E5825BFBE582D313CF5FCFF4C3132F55D3
:1008D00082FF50090EBE00050DBD00010CC3EB9F49
:1008E000F5F0EA9E42F0E99D42F0E89C45F0600791
:1008F000CC4820E701B3EC2275F020800E75F01093
:10090000800575F0087D007E007F003392D530D5DC
:1009100003120A54EC334010EF33FFEE33FEED3395
:10092000FDEC33FCD5F0ED22E5F0247EA2D513CC0E
:1009300092E7CDCEFF22EDD2E7CD33EC3392D52432
:10094000814006E4FFFEFDFC22FCE4CFCECDCC24AA
:10095000E0501174FF80EDC3CC13CCCD13CDCE137A
:10096000CECF13CF0470F030D5DE020A54E9D2E7BF
:10097000C933E833F892D5EDD2E7CD33EC33FC50F0
:1009800002B2D522EC30E7100FBF000C0EBE0008FB
:100990000DBD00040BEB6014A2D5EB13FCED92E748
:1009A000FD2274FFFCFDFEFF22E480F8A2D574FF57
:1009B00013FC7D80E480EFEF8DF0A4A8F0CF8CF0E5
:1009C000A428CE8DF0A42EFE22BC000BBE0029EF81
:1009D0008DF084FFADF022E4CCF875F008EF2FFF26
:1009E000EE33FEEC33FCEE9DEC984005FCEE9DFEF4
:1009F0000FD5F0E9E4CEFD22EDF8F5F0EE8420D23B
:100A00001CFEADF075F008EF2FFFED33FD400798A9
:100A10005006D5F0F222C398FD0FD5F0EA22C2D5D8
:100A2000EC30E709B2D5E4C39DFDE49CFCEE30E771
:100A300015B2D5E4C39FFFE49EFE1209C9C3E49D2D
:100A4000FDE49CFC80031209C930D507C3E49FFF75
:100A5000E49EFE22C3E49FFFE49EFEE49DFDE49C31
:100A6000FC228F70E4F571F572F573EDFB7A00648A
:100A7000026003020B52AF42EF64016005EF6402B3
:100A80007019C3E5159410E5149427400E751427CA
:100A9000751510E4F550754202FF22AF707E00C359
:100AA000EF9464748094805003757101D3EF9407C0
:100AB000EE6480948050155350FB5350F75350EF21
:100AC000435020435040757302020C2CD3EF94190D
:100AD000EE6480948050154350025350F75350EF0A
:100AE000435020435040757303020C2CD3EF9434D1
:100AF000EE6480948050154350024350045350EFED
:100B0000435020435040757304020C2CC3EF946390
:100B1000EE648094805015435002435004435008C3
:100B2000435020435040757305020C2C4350024340
:100B30005004435008435010435020435040AF42AC
:100B4000EF600464037005E4F514F51575420102C5
:100B50000C2CC3E542940274809480400BEB4A70E5
:100B600007754203F550FF22E4F542752B15121864
:100B700041851972E57230E403121F14D3E57094B5
:100B80000074809480504B751F0B7520B853502013
:100B9000752B181218A0E51920E205E57230E4154E
:100BA000752B158572191218FF752B211218A04389
:100BB0001920121956752B18121841E5195409609D
:100BC00003121F38751A00751B01757301757101C9
:100BD000805AAF707E00D3EF9404748094805008E4
:100BE0004350025350FB8011D3EF9416EE6480946F
:100BF00080500E4350024350045350F75350EF803F
:100C000025D3EF9436EE64809480500E4350024317
:100C100050044350085350EF800C4350024350049B
:100C2000435008435010435020435040E5716071D9
:100C3000E4F571050BE50B7002050AE573650C60C0
:100C40000885730CE4F50AF50BAF737E00EF6401C1
:100C50007015D3E50B9402E50A94004044E4F50ACC
:100C6000F50B635020803AD3E50B9405E50A940018
:100C7000402FE4F50AF50BEF64024E700563500255
:100C8000801FEF64034E70056350048014EF64040A
:100C90004E70056350088009EF64054E7003635081
:100CA000107F0122752BFFE4F5191218FF752B2315
:100CB0001218414319011218FF7F107E27121EC817
:100CC000752B247519201218FF7519401218FF751D
:100CD00019801218FF752BFFE4F5191218FF752BF8
:100CE000251218414319801218FF752B151218414F
:100CF0001218FF121F74752B081218417519DC1297
:100D000018FF752B161218414319101218FF752B76
:100D1000031218415319F04319071218FF752B0DD0
:100D200012184153193F4319801218FF752B5512A1
:100D300018414319801218FF752B56121841431998
:100D4000014319024319041218FF752B1812184198
:100D50005319E31218FF752B19E4F51943190143D0
:100D600019084319204319401218FF752B35121822
:100D7000414319014319081218FF752B3412184109
:100D80004319044319104319201218FF752B40E42E
:100D9000F5194319804319641218FF752B011218B5
:100DA0004153193F5319CF4319101218FF752B5097
:100DB0001218414319014319024319041218FF750F
:100DC0002B511218414319701218FF752B2312185A
:100DD00041E4F51943190143190243190443194029
:100DE0001218FF752B2212184153193F4319401254
:100DF00018FF752B2D1218414319084319101218AA
:100E0000FF752B2E12184153198043193C1218FFFD
:100E1000752B2F12184153198043193C1218FF12D9
:100E20001F7D752B401218414319024319044319C1
:100E3000801218FF752B461218417519911218FF70
:100E4000752B471218415319E04319051218FF7505
:100E50002B4512184153198043192D1218FF752B79
:100E60004F12184153198043192D0218FF752BFF9B
:100E7000E4F519121956752B231218A04319011203
:100E800019567F107E27121EC8752B247519201243
:100E90001956751940121956751980121956752B65
:100EA000FFE4F519121956752B251218A043198065
:100EB000121956121F59752B081218A07519DC1239
:100EC0001956752B161218A0431910121956752BA6
:100ED000031218A05319F0431907121956752B0164
:100EE0001218A05319CF431910121956752B0D1251
:100EF00018A053193F431980121956752B55121813
:100F0000A0431980121956752B561218A0431901C7
:100F1000431902431904121956752B181218A053BD
:100F200019FB121956752B191218A05319F84319E9
:100F300001121956752B351218A0431901431908CF
:100F4000121956752B341218A04319044319104373
:100F50001920121956752B40E4F5194319804319CD
:100F600064121956752B231218A0E4F519431901C0
:100F7000431902431904431940121956752B501294
:100F800018A0431901431902431904121956752B6D
:100F9000511218A0431970121956752B221218A05D
:100FA00053193F431940121956752B2D1218A0439F
:100FB0001908431910121956752B2E1218A053191F
:100FC0008043193C121956752B4E1218A053197FE5
:100FD000431910121956752B2F1218A0531980435C
:100FE000193C121956121F62752B401218A0431992
:100FF00002431904431980121956752B461218A082
:10100000751991121956752B471218A05319E04300
:101010001905121956752B451218A053198043193A
:1010200041121956752B4F1218A0531980431941BC
:1010300002195690902074A5F0A3E09000FFF0E014
:1010400054F0F0E04402F0E0909021F09090207491
:101050005AF074A5F0A37402F0909020745AF075C1
:10106000A67C75A67C75A2C3439D01D2E9D2EFD2BE
:10107000EF7F407E42121EC87F407E42121EC81281
:101080001362121D5A120CA4120E6D121D357F31FF
:10109000121E497F31121E497F31121E497584206C
:1010A000E4F528751F2775201075855A12177E12D2
:1010B00017E0D3E5249464E523940040ECE4F523A1
:1010C000F52430A10302116012170EAB55AA54A9E2
:1010D00053A852AF59AE58AD57AC561205E4E4FBD5
:1010E000FA7948784312087F5017E4FFFE7D487C68
:1010F00042AB55AA54A953A85212087F5003755108
:1011000001AB59AA58A957A856AF55AE54AD53AC28
:10111000521205E4E4FBFA7948784312087F50192B
:10112000E4FFFE7D167C43AB55AA54A953A8521286
:10113000087F60054003E4F551855559855458856D
:101140005357855256E5516401700EF555F554F527
:1011500053F552F528C2948016752801D294800F59
:10116000E4F551F555F554F553F552C294F52812AE
:1011700000560210A9EF6003021289C3E51D9520F5
:10118000E51C951F5009E55E6402600302128EE4BF
:10119000F550F542F549F51CF51DF538752BA412EF
:1011A00018A05319F7121956752B23121841531909
:1011B000FE1218FF752B231218A05319FE12195690
:1011C000C297C292C291C28053E17F438C20438C6C
:1011D00040909101E054DFF0E054BFF0C295C29618
:1011E000538CFEE04401F0538B7F909100E04480EB
:1011F000F0538BBFE04440F0538BDFE04420F053CA
:10120000A27F75855AE528700630860320A00CE57C
:101210001B451A7006E55E6402701B90902074A551
:10122000F09090277418F0909020745AF0758750C1
:101230007587017587A0E4F55EF51AF51B7F64FEDE
:10124000121EC8752B231218A043190112195675C6
:101250002B231218414319011218FFD2807F107EF0
:1012600027121EC843A280439D01538CDF538CBFBD
:10127000909101E054DFF0E054BFF0E4F550F51C2C
:10128000F51D75855A43E18022E4F508F5092275BC
:10129000841078FFE4F6D8FD9000007F007E01E422
:1012A000F0A3DFFCDEFA75817D90908074A5F0904C
:1012B0008020740093909082F07430909083F0902E
:1012C00090F0E04480F0758AA0908027740093F538
:1012D0008A908026740093F589909080745AF00269
:1012E000131D021033E493A3F8E493A34003F680A4
:1012F00001F208DFF48029E493A3F85407240CC812
:10130000C333C4540F4420C8834004F456800146BC
:10131000F6DFE4800B0102040810204080901F4F8C
:10132000E47E019360BCA3FF543F30E509541FFEE7
:10133000E493A360010ECF54C025E060A840B8E458
:1013400093A3FAE493A3F8E493A3C8C582C8CAC5DB
:1013500083CAF0A3C8C582C8CAC583CADFE9DEE76D
:1013600080BE909100E04440F0438E40C29E909138
:1013700084E054BFF0909182E04440F0909180E08E
:101380004440F0909102E04401F0439101C29890F2
:101390009185E04401F0909182E04401F0909180C9
:1013A000E04401F0909101E04408F0438F08C29BB3
:1013B000909184E04408F0909182E04408F090918C
:1013C00080E04408F0D2E8909102E04402F04391BA
:1013D00002C299909185E04402F0909182E044022B
:1013E000F0909180E04402F0438C80438C04438C65
:1013F00002909101E0547FF0E054FBF0E054FDF0E6
:10140000438B01438B02438B04438B08909100E094
:1014100054FEF0E054FDF0E054FBF0E054F7F043EC
:101420008C10A3E054EFF0C294D280C281C282C279
:101430008322C3E539940050030214DFE4F539F543
:101440003A538C7F909101E0547FF0538CFBE05431
:101450007FF0538CFDE0547FF0054BE54B94057411
:101460008094804003E4F54BE54B14602714603A08
:1014700014605114605A24047065E55030E205434D
:101480008C02D291E55030E605438C04D292438C15
:1014900080C29722E55030E505438C80D297E55015
:1014A00030E437438C02D2918030E55030E105437F
:1014B0008C80D297E55030E305438C04D292438C64
:1014C00002C29122E55030E516438C80D297800A03
:1014D000E55030E50A438C80D297438C04C29222B7
:1014E000E4F563F564752B861218A0756300851901
:1014F00064752B871218A0E519FEEE4263AC63AD4C
:1015000064E41208FD7B9F7A1C79A378431206D904
:101510001209368E638F64E4F569F56A752B8812BB
:1015200018A0756100851962752B891218A075695C
:101530000085196A752B8A1218A0E519FEEE42691A
:10154000AC61AD62E41208FD7B4C7A1A79A3783D58
:101550001206D9C004C005C006C007AC69AD6AE474
:101560001208FD7B327A7779A278411206D9D0032E
:10157000D002D001D0001205E81209368E698F6AB8
:10158000752B941218A085196522E4F570F57190F9
:101590009101E054DFF0E054BFF0538CBF538CDF77
:1015A00075EFEB43E18053E20F43E22075E33B53D9
:1015B000E1E043E10B7FE87E03121EC843E14020D7
:1015C000C00575855A80F8AFE57570008F71E571BB
:1015D000757100F570AFE4EF4271E4C2C0AC70AD5C
:1015E000711208FDE4FBFA794C78421206D9C00466
:1015F000C005C006C007C3E55D9571FDE55C95704B
:10160000FCE41208FDA804A905AA06AB07D007D080
:1016100006D005D0041207E28F4F8E4E8D4D8C4CB4
:10162000228F708D71E50D14602C1460632402709C
:1016300068E5704571FF6008E4F57BF57C750D0188
:10164000EF64037054752B211218A043192012194E
:1016500056121F388036C3E57C94F4E57B94015024
:1016600020E570457164037030752B211218A0437A
:101670001920121956121F38750D02E4F57BF57CFE
:1016800022D3E57C94F4E57B9401400D750D022294
:10169000E57045716003E4F50D22C0E0C0F0C08341
:1016A000C082C0D075D000C000C001C002C003C05D
:1016B00004C005C006C00730A8390524E52470021F
:1016C0000523051DE51D7002051C053AE53A70026B
:1016D00005390515E51570020514057CE57C7002D9
:1016E000057BE54160080533E533700205321214CD
:1016F00032C2A8D007D006D005D004D003D002D083
:1017000001D000D0D0D082D083D0F0D0E032909100
:1017100001E054DFF0E054BFF0538CBF538CDF7511
:10172000EFEB43E18053E20F43E28075E33B75EF5B
:10173000EB53E1E043E10A7FE87E03121EC843E178
:101740004020C00575855A80F8AFE5755A008F5B5B
:10175000E55B755B00F55AAFE4EF425BE4C2C0ACF9
:101760005AAD5B1208FD7BAE7A477981783F12064D
:10177000D98F558E548D538C52AE5AAF5B229091B7
:1017800001E054DFF0E054BFF0538CBF538CDF75A1
:10179000EFEB43E18053E20F43E22075E33B53E17B
:1017A000E043E1117FE87E03121EC843E14020C000
:1017B0000575855A80F8AFE5755C008F5DE55D7550
:1017C0005D00F55CAFE4EF425DAE5CE55D7802C3C1
:1017D00033CE33CED8F9F55D8E5CC2C0E4FEFF2275
:1017E000E541605C309359E4F541D3E5339410E56D
:1017F0003294274011755E02121F38752B21121882
:10180000A04319208032D3E5339405E5329400409B
:101810002AE53394F4E53294015020755E01E4F535
:101820001CF51D752B201218414319011218FF7564
:101830002B201218A0431901121956E4F532F53382
:1018400022E4F574121CC17F781219AD121AC7EF89
:10185000600FC3E5749432748094805004057480E2
:10186000E3AF2B1219AD121AC7EF600FC3E57494E2
:1018700032748094805004057480C9121CC17F7931
:101880001219AD121AC7EF600FC3E5749432748059
:1018900094805004057480AC121A438F19021E689C
:1018A000E4F574121C987F781219F8121B01EF608E
:1018B0000FC3E5749402748094805004057480E32F
:1018C000AF2B1219F8121B01EF600FC3E5749402DD
:1018D000748094805004057480C9121C987F79121A
:1018E00019F8121B01EF600FC3E574940274809421
:1018F000805004057480AC121A858F19021E80E492
:10190000F574121CC17F781219AD121AC7EF600F5F
:10191000C3E5749432748094805004057480E3AFFE
:101920002B1219AD121AC7EF600FC3E574946474DB
:101930008094805004057480C9AF191219AD121A31
:10194000C7EF600FC3E574949674809480500405CB
:101950007480AF021E68E4F574121C987F78121927
:10196000F8121B01EF600FC3E57494027480948039
:101970005004057480E3AF2B1219F8121B01EF60BD
:101980000FC3E5749402748094805004057480C978
:10199000AF191219F8121B01EF600FC3E57494021E
:1019A000748094805004057480AF021E808F75434C
:1019B0008B20909100E054DFF0C284E4F576C3E51B
:1019C00076940874809480502EE57530E704D285B3
:1019D0008002C285E57525E0F5757F037E00121E45
:1019E000C8D2847F037E00121EC8C2847F037E009B
:1019F000121EC8057680C7228F75438C0190910115
:101A0000E054FEF0C287E4F576C3E576940874806E
:101A10009480502EE57530E704D2908002C290E5A4
:101A20007525E0F5757F037E00121EC8D2877F03FF
:101A30007E00121EC8C2877F037E00121EC8057674
:101A400080C722E4F576538BDF909100E04420F0CC
:101A5000E4F575C3E5759408748094805021C284C0
:101A60007F037E00121EC8D284E57625E0F576302D
:101A7000850205767F037E00121EC8057580D4128C
:101A80001D7BAF7622E4F576538CFE909101E04405
:101A900001F0E4F575C3E5759408748094805021D5
:101AA000C2877F037E00121EC8D287E57625E0F547
:101AB0007630900205767F037E00121EC805758081
:101AC000D4121D9CAF7622E4F575D285538BDF903E
:101AD0009100E04420F07F037E00121EC8D2847F74
:101AE000037E00121EC83085130575D3E57594FA80
:101AF0007480948040F0121E687F0122C2847F00AF
:101B000022E4F575D290538CFE909101E04401F0EF
:101B10007F037E00121EC8D2877F037E00121EC87C
:101B20003090130575D3E57594FA7480948040F075
:101B3000121E807F0122C2877F00228E708F718DDE
:101B400072752BA41218A05319FC431908E5726092
:101B50000543190480035319FB121956752BA5E58B
:101B600071F519121956752BA6E570540FF5190267
:101B70001956AB07AA067C277D101209C9EF24303D
:101B8000FF121E497C037DE8121E377D64121E354C
:101B90007D0A121E35AE02AF037C007D0A1209C910
:101BA000ED2430FF021E49E4F570F571752B3012FB
:101BB00018A05319E0431902121956752B31121847
:101BC000A0757000851971752B321218A0E5195493
:101BD0000FFEEE4270AE70AF7122121F74752B4073
:101BE000E4F51943198043195A1218FF121F7D7525
:101BF0002B4F12184153198043192D1218FF752BC2
:101C00002E1218415319F04319010218FF121F74C4
:101C1000752B40E4F51943198043193C1218FF1243
:101C20001F7D752B4F12184153198043191E12182E
:101C3000FF752B2E1218415319F04319010218FF9A
:101C4000E4F570752B1D1218A0E5195431F5707567
:101C50002B2B1218A085195FE51930E403120E6DC5
:101C6000752B2C1218A0851960AF7022E4F57075E1
:101C70002B1D121841E51954F7F570752B2B12180E
:101C800041851977E51930E403120CA4752B2C1249
:101C90001841851978AF7022438B80909100E054F1
:101CA0007FF0438C01A3E054FEF0D290D2877F03F3
:101CB0007E00121EC8C2907F037E00121EC8C2871B
:101CC00022438B10909100E054EFF0438B20E054BE
:101CD000DFF0D285D2847F037E00121EC8C2857FCA
:101CE000037E00121EC8C28422E4F570752B1912FF
:101CF00018A0531930E5195430FF7E00642070039A
:101D0000437001EF64104E7003437002AF7022E421
:101D1000F570752B191218415319C0E51954C0FFFD
:101D20007E0064807003437001EF64404E70034393
:101D30007002AF7022D282909131E054F0F0E04412
:101D400002F0438B0475D50175D7027F227E001205
:101D50001F44439F01D2EDD2EF22909101E054DF66
:101D6000F0E054BFF0538CBF538CDF75EFEB43E1D1
:101D70008053E20F43E22075E33B22C284438B2071
:101D8000909100E054DFF0D2857F037E00121EC8E0
:101D9000D2847F037E00121EC8C28422C287438C75
:101DA00001909101E054FEF0D2907F037E00121E5C
:101DB000C8D2877F037E00121EC8C28722752B45BA
:101DC0001218A053198043191E121956752B2E1282
:101DD00018A05319F0431901021956752B2812182F
:101DE000A05319FB5319F7121956752B2E1218A070
:101DF0005319F0431902021956752B451218415315
:101E0000198043191E1218FF752B2E1218415319F1
:101E1000F04319010218FF752B281218415319FBC2
:101E20005319F71218FF752B2E1218415319F0434E
:101E300019020218FF7C00AF03AE021209C97C0030
:101E40007D0A1209C9ED2430FF30B9FD8FD922C0B7
:101E5000E0E59830E309754101753200753300758E
:101E60007D01759800D0E032438B20909100E054C2
:101E7000DFF0C285D2847F037E00121EC8D2852285
:101E8000438C01909101E054FEF0C290D2877F0311
:101E90007E00121EC8D29022752B251218A0E519BB
:101EA0005480700B0568E56870020567120E6D229C
:101EB000752B25121841E5195480700B057AE57AC7
:101EC00070020579120CA422E4FDFCC3ED9FEC9E88
:101ED0005008000DBD00010C80F175855A22752B4C
:101EE000281218A0431904431908021956752B2803
:101EF0001218414319044319080218FF752B2812C0
:101F000018A05319FB021956752BA41218A04319D7
:101F100002021956752BA41218A043190102195672
:101F2000752B281218414319040218FF752B28122B
:101F300018415319FB0218FF752B21121841431940
:101F4000200218FFAD07AC06ECFF8DD38FD4220121
:101F5000500001450001460000752B2475198102CF
:101F60001956752BFFE4F519021956752B9912189D
:101F7000A0AF1922752B247519810218FF752BFF4C
:071F8000E4F5190218FF222D
:00000001FF
