:10000000020EE9021955751F2812138243130402C8
:1000100014382202124D0203D7E86480F8E933E86D
:100020003360110460F0ED33EC337009E8FCE9FD56
:10003000EAFEEBFF220460DED3EB9FEA9EE99DE837
:10004000C2E78CF0C2F795F0400CE8CCF8E9CDF9A6
:10005000EACEFAEBCFFB1203A285D0F0580470036E
:1000600020D5B3E80470075002B2D50203E192D55F
:10007000EC0460F7E4CCC0E0C398F8603B941860EF
:1000800008400DD0E0FB0203B9E4FBFAC9FC80286C
:10009000E830E406E4C9FBE4CAFCE830E305E4C95F
:1000A000CACBFCE854076010F8C3E913F9EA13FA65
:1000B000EB13FBEC13FCD8F130F52FC3E49CFCEF01
:1000C0009BFFEE9AFEED99FDD0E0FBEF4E4D4C709C
:1000D0001222DB030203DEEC2CFCEF33FFEE33FED7
:1000E000ED33FDED30E7EB0203B9EF2BFFEE3AFE07
:1000F000ED39FDD0E0FB50130BBB00030203E1ED33
:1001000013FDEE13FEEF13FFEC13FC0203B9EC4DED
:100110006011E8497017ED33EC3304600DE4FCFF27
:10012000FEFD22E933E8330470F80203D71203A27C
:1001300058046009E4CC248150062850090203E1E8
:100140002840030203DEC0E0EB4A7044B98006D0C9
:10015000E0FB0203CDEF4E701CBD8008EBFFEAFE12
:10016000E9FD80EBE98DF0A4FEE5F00201F7E9CDB1
:10017000F9EAFEEBFFEF89F0A4FCE5F0CE89F0A4EC
:100180002EFFE435F0CD89F0A42DFEE435F0806734
:10019000EF4E7005BD80D780C3EF8BF0A4ACF0EEBE
:1001A0008BF0A42CFCE435F0F8EF8AF0A42CE5F0F9
:1001B00038FCE433CB8DF0A42CFCE5F03BF8EE8A60
:1001C000F0A42CFCE5F038F8E433CF89F0A42CFC43
:1001D000E5F038CF3400CE89F0A42FFFE5F03EFEE5
:1001E000E433C98DF0A42EFEE5F039CD8AF0A42FBA
:1001F000FFE5F03EFEE43DFD33D0E0FB50070BBBD6
:10020000000F0203E1EC2CFCEF33FFEE33FEED3385
:10021000FD0203B90203E1EC5D046005E8590470D6
:10022000030203D71203A2580460F6EC4860F2EC14
:100230007004FDFEFF22C860DB2481C85009C3980A
:10024000600250060203DE9850CAF582E9294B4A43
:100250007005AB820203CD75F0007C1A7880C3EF85
:100260009BEE9AED99400DC3EF9BFFEE9AFEED9940
:10027000FDE842F0DC23ACF0D0E0FFD0E0FED0E0BF
:10028000FDAB8220E7101BEB60BAEC2CFCEF33FFD8
:10029000EE33FEED33FD0203B9E803F830E705C0A5
:1002A000F075F000EF2FFFEE33FEED33FD40B83078
:1002B000E7C280AA74F8CC6480CCC86480C8F58298
:1002C00004604FC3EB9FF5F0EA9E42F0E99D42F0D7
:1002D000E89C45F0603C501DE5825FFFE582D3134A
:1002E000CB5BCBF42B5582FB50280ABA002409B90A
:1002F000002008801DE5825BFBE582D313CF5FCF32
:10030000F4C3132F5582FF50090EBE00050DBD002A
:10031000010CC3EB9FF5F0EA9E42F0E99D42F0E844
:100320009C45F06007CC4820E701B3EC2275F02033
:10033000800E75F010800575F0087D007E007F004E
:100340003392D530D503120434EC334010EF33FF31
:10035000EE33FEED33FDEC33FCD5F0ED22E5F02479
:100360007EA2D513CC92E7CDCEFF22EDD2E7CD33DE
:10037000EC3392D524814006E4FFFEFDFC22FCE430
:10038000CFCECDCC24E0501174FF80EDC3CC13CC84
:10039000CD13CDCE13CECF13CF0470F030D5DE0207
:1003A0000434E9D2E7C933E833F892D5EDD2E7CD8A
:1003B00033EC33FC5002B2D522EC30E7100FBF0013
:1003C0000C0EBE00080DBD00040BEB6014A2D5EBB3
:1003D00013FCED92E7FD2274FFFCFDFEFF22E4809A
:1003E000F8A2D574FF13FC7D80E480EFEF8DF0A4BC
:1003F000A8F0CF8CF0A428CE8DF0A42EFE22C2D57A
:10040000EC30E709B2D5E4C39DFDE49CFCEE30E797
:1004100015B2D5E4C39FFFE49EFE120442C3E49DDF
:10042000FDE49CFC800312044230D507C3E49FFF27
:10043000E49EFE22C3E49FFFE49EFEE49DFDE49C57
:10044000FC22BC000BBE0029EF8DF084FFADF02232
:10045000E4CCF875F008EF2FFFEE33FEEC33FCEE42
:100460009DEC984005FCEE9DFE0FD5F0E9E4CEFD35
:1004700022EDF8F5F0EE8420D21CFEADF075F00808
:10048000EF2FFFED33FD4007985006D5F0F222C361
:1004900098FD0FD5F0EA22E4F543F544F545F5461D
:1004A000F547F514F515751927751A1012199E12CE
:1004B00019B612182E8F301218548F311217858FDB
:1004C0002E1217B18F2F2086071216388E468F47AF
:1004D000AF3DAE3CAD3BAC3A12036B8E488F49E565
:1004E0003130E01DAC46AD47E4120332A804A90543
:1004F000AA06AB07AF3DAE3CAD3BAC3A120019804B
:1005000018E53130E11AAC46AD47E4120332AB3D99
:10051000AA3CA93BA83A12001D12036B8E488F49D2
:10052000AE48AF497C007D051203FE8E488F49120C
:1005300011D68F238E228D218C207F4A7E0C7DAA9E
:100540007C40AB23AA22A921A8201202B4601A4041
:10055000187F197E047D037C42AB23AA22A921A81F
:10056000201202B45003E4F526E52E7017E52F7033
:1005700013E51E700FE53064026009E53164026026
:10058000030206B1E51E700FE53064026009E53133
:1005900064026003020630754302D3E5499400E526
:1005A00048648094804008E4FDAF49AE488019C398
:1005B000E548648094805013C3E49549F549E49577
:1005C00048F5487D01AF49FE1216E87FCB7EA17D3C
:1005D000657C40AB23AA22A921A8201202B45003B3
:1005E00002067B7F777E3E7D117C42AB23AA22A947
:1005F00021A8201202B460044002807F7F4A7E0C52
:100600007DAA7C40AB23AA22A921A8201202B460B3
:100610000250030206BD7F197E047D037C42AB239A
:10062000AA22A921A8201202B440030206BD807CA0
:10063000754301C3E548648094805013C3E4954931
:10064000F549E49548F5487D01AF49FE1216E87F6B
:10065000A27E457D1E7C40AB23AA22A921A82012A0
:1006600002B440177F487E617D5E7C42AB23AA22A4
:10067000A921A8201202B460074005752601803D1B
:100680007FDD7E247D3E7C40AB23AA22A921A820C9
:100690001202B4602840267FC37EF57D297C42ABE0
:1006A00023AA22A921A8201202B45011E4F5268021
:1006B0000C751FA41213825313F7121438AF307E37
:1006C00000C3EF940274809480500BC3E531940210
:1006D00074809480407CC3EF9402EE6480948040E8
:1006E00022E5319402748094804018E50D60030285
:1006F000081C750D01E52B642D602B752B2D121731
:100700001F8023C3E5309402748094804021E50D5E
:100710006401700302081C750D01E52B642D600651
:10072000752B2D12171F121A0E121A0202081CC363
:10073000E531940274809480500302081CE50D6436
:1007400002700302081C750D02120006121A1A022A
:10075000081CE50D6009E4F50D121A02121A1AE5DB
:100760002E30E003434401E52F30E703434402E524
:100770002F30E50343440420A11EE52A641E6006D1
:10078000752A1E1218DDE52B641E700302081C7505
:100790002B1E12191902081CE544650C607E854465
:1007A0000CE54424FE601914602C1460211460438D
:1007B00024FE605C24067064E52A6441605E805615
:1007C000E52B642D6056752B2D12171F804EE512F8
:1007D000641E6048802FE52A64416006752A411234
:1007E0000012E52B641E6034752B1EE4F5121217FF
:1007F000528029E52A64416006752A41120012E5FB
:1008000012641E601775121EE4F52B121A5D800C1F
:10081000E52A64416006752A41120012E54264012E
:10082000700AF542F52DF516F517F527E526603621
:10083000751D01E4F52DAF27FED3EF94327480943B
:10084000804008752733E4F5398013EF4E7002F5C8
:1008500039E52775F00584E5F070036339FF052756
:100860001219F30219E4E4F527E51D64017008F597
:100870001D1219371218FB121A428F18AD431208B5
:10088000BF30860830A0057532018003E4F532E5FB
:10089000326004E51E600AE51545147004F516F58E
:1008A00017E5326004E51E600CE51545147006E599
:1008B0004264027004E4FF80027F01120DFB228F6C
:1008C0004AE4F54BF54CEDFB7A0064026003020943
:1008D000ADAF2DEF64016005EF64027019C3E50F41
:1008E0009410E50E9427400E750E27750F10E4F551
:1008F00039752D02FF22AF4A7E00C3EF94647480E5
:1009000094805003754B01D3EF940CEE6480948077
:1009100050155339FB5339F75339EF4339204339D5
:1009200040754C02020A71D3EF9424EE64809480E7
:1009300050154339025339F75339EF4339204339BE
:1009400040754C03020A71D3EF9441EE64809480A9
:1009500050154339024339045339EF4339204339A1
:1009600040754C04020A71C3EF9463EE6480948076
:100970005015433902433904433908433920433978
:1009800040754C05020A7143390243390443390862
:10099000433910433920433940AF2DEF60046403DD
:1009A0007005E4F50EF50F752D01020A71C3E52DF2
:1009B000940274809480400BEB4A7007752D03F508
:1009C00039FF22E4F52DD3E54A94007480948050D9
:1009D0004675190B751AB8533920751F18121382F2
:1009E000E51330E20C751F211213824313201214F9
:1009F00038751F18121323E5135409600C751F2155
:100A00001213234313201213E17514007515017599
:100A10004C01754B01805AAF4A7E00D3EF940474A9
:100A200080948050084339025339FB8011D3EF94EE
:100A30000AEE64809480500E4339024339045339DE
:100A4000F75339EF8025D3EF9425EE6480948050DE
:100A50000E4339024339044339085339EF800C43BC
:100A600039024339044339084339104339204339A3
:100A700040E54B6063E4F54B050BE50B7002050A9E
:100A8000AF4C7E00EF64017015D3E50B9402E50ACC
:100A900094004044E4F50AF50B633920803AD3E52D
:100AA0000B9405E50A9400402FE4F50AF50BEF647A
:100AB000024E7005633902801FEF64034E700563B8
:100AC00039048014EF64044E70056339088009EF1F
:100AD00064054E70036339107F0122751FFFE4F532
:100AE000131213E1751F231213234313011213E191
:100AF0007F107E271219CE751F247513201213E163
:100B00007513401213E17513801213E1751FFFE492
:100B1000F5131213E1751F251213234313801213CB
:100B2000E1751F401213234313044313801213E192
:100B3000751F4512132353138043132D1213E175B0
:100B40001F4F12132353138043132D1213E1121A54
:100B50004B751F081213237513FC1213E1751F1632
:100B60001213234313101213E1751F03121323539F
:100B700013F04313071213E1751F0D1213235313C0
:100B80003F4313801213E1751F5512132343138043
:100B90001213E1751F56121323431301431302432B
:100BA00013041213E1751F181213235313E31213C6
:100BB000E1751F19E4F5134313084313201213E1E1
:100BC000751F351213234313014313081213E175E4
:100BD0001F3412132343130443131043132012131F
:100BE000E1751F40E4F5134313804313641213E1CE
:100BF000751F0112132353133F4313801213E17522
:100C00001F501213234313014313024313041213FF
:100C1000E1751F511213234313701213E1751F2343
:100C2000121323E4F5134313014313024313044344
:100C300013401213E1751F2212132353133F431362
:100C4000401213E1751F2D12132343130843131091
:100C50001213E1751F2E12132353138043133C12FA
:100C600013E1751F2F12132353138043133C1213E8
:100C7000E1021A54751FFFE4F513121438751F238F
:100C80001213824313011214387F107E271219CEDB
:100C9000751F2475132012143875134012143875FB
:100CA0001380121438751FFFE4F513121438751FE2
:100CB00025121382431380121438751F40121382B9
:100CC000431304431380121438751F4512138253C3
:100CD0001380431341121438751F4F12138253139C
:100CE00080431341121438121A30751F08121382F0
:100CF0007513FC121438751F161213824313101249
:100D00001438751F031213825313F0431307121480
:100D100038751F0D12138253133F4313801214387A
:100D2000751F55121382431380121438751F561203
:100D30001382431301431302431304121438751F23
:100D4000181213825313FB121438751F19121382D1
:100D50005313F8121438751F3512138243130143CD
:100D60001308121438751F341213824313044313EB
:100D700010431320121438751F40E4F513431380F9
:100D8000431364121438751F23121382E4F51343BE
:100D90001301431302431304431340121438751F05
:100DA00050121382431301431302431304121438E5
:100DB000751F51121382431370121438751F2212BB
:100DC000138253133F431340121438751F2D12130F
:100DD00082431308431310121438751F2E12138206
:100DE00053138043133C121438751F2F1213825370
:100DF000138043133C121438021A39EF6003020EB9
:100E0000E3C3E517951AE51695195009E542640202
:100E10006003020EE8E4F539F52DF542F51EF532D2
:100E2000F516F517F527751FA41213825313F71241
:100E30001438751F231213235313FE1213E1751F69
:100E4000231213825313FE121438C297C292C29116
:100E5000C28053E17F438C20438C40909101E05449
:100E6000DFF0E054BFF0C295C296538CFEE044011F
:100E7000F0538B7F909100E04480F0538BBFE044AF
:100E800040F0538BDFE04420F053A27F75855AE495
:100E9000F558E55860FC7F647E001219CE751F235B
:100EA000121382431301121438751F2312132343A4
:100EB00013011213E1D2807F107E271219CE43A2B4
:100EC00080439D01538CDF538CBF909101E054DF30
:100ED000F0E054BFF0E4F539F516F51775855A437F
:100EE000E18022E4F508F5092275841078FFE4F624
:100EF000D8FD9000007F007E01E4F0A3DFFCDEFA65
:100F000075815890908074A5F09080207400939023
:100F10009082F07430909083F09090F0E04480F0F4
:100F2000758AA0908027740093F58A9080267400BB
:100F300093F589909080745AF0020F7702113AE489
:100F400093A3F8E493A34003F68001F208DFF48052
:100F500029E493A3F85407240CC8C333C4540F44A2
:100F600020C8834004F456800146F6DFE4800B017C
:100F700002040810204080901A26E47E019360BC91
:100F8000A3FF543F30E509541FFEE493A360010E14
:100F9000CF54C025E060A840B8E493A3FAE493A33B
:100FA000F8E493A3C8C582C8CAC583CAF0A3C8C55C
:100FB00082C8CAC583CADFE9DEE780BE909100E03F
:100FC0004440F0438E40C29E909184E054BFF09024
:100FD0009182E04440F0909180E04440F090910292
:100FE000E04401F0439101C298909185E04401F002
:100FF000909182E04401F0909180E04401F0909162
:1010000001E04408F0438F08C29B909184E04408BB
:10101000F0909182E04408F0909180E04408F0D292
:10102000E8909102E04402F0439102C299909185C8
:10103000E04402F0909182E04402F0909180E0441C
:1010400002F0438C80438C04438C02909101E05465
:101050007FF0E054FBF0E054FDF0438B01438B0242
:10106000438B04438B08909100E054FEF0E054FD64
:10107000F0E054FBF0E054F7F0438C10A3E054EFA1
:10108000F0C294D280C281C282C28322C3E5289476
:10109000005003021139E4F528F529538C7F909113
:1010A00001E0547FF0538CFBE0547FF0538CFDE063
:1010B000547FF00534E5349405748094804003E453
:1010C000F534E53414602714603A14605114605A02
:1010D00024047065E53930E205438C02D291E5398C
:1010E00030E605438C04D292438C80C29722E539C6
:1010F00030E505438C80D297E53930E437438C02E4
:10110000D2918030E53930E105438C80D297E539C2
:1011100030E305438C04D292438C02C29122E5391C
:1011200030E516438C80D297800AE53930E50A43D2
:101130008C80D297438C04C2922290902074A5F0A8
:10114000A3E09000FFF0E054F0F0E04402F0E09003
:101150009021F0909020745AF074A5F0A37402F0DE
:10116000909020745AF075A67C75A67C75A2C34336
:101170009D01D2E9D2EFD2EF7F407E421219CE7F9D
:10118000407E421219CE120FBC12187A120ADB12DC
:101190000C74758420E4F51E751927751A10758571
:1011A0005A12157220A10A751E01D29412148F8052
:1011B0000DE4F53DF53CF53BF53AC294F51E1212EF
:1011C000B9D3E51C9464E51B940040D2E4F51BF50B
:1011D0001C12049780C8E4F54AF54B53E1E043E163
:1011E0000B7FE87E031219CE43E14020C0057585D0
:1011F0005A80F8AFE5754A008F4BE54B754B00F50B
:101200004AAFE4EF424BE4C2C0AC4AAD4B120332EA
:10121000E4FBFA794C784212010EC004C005C00606
:10122000C007C3E541954BFDE540954AFCE4120338
:1012300032A804A905AA06AB07D007D006D005D06E
:10124000041202178F388E378D368C3522C0E0C0DD
:10125000F0C083C082C0D075D000C000C001C00201
:10126000C003C004C005C006C00730A831051CE596
:101270001C7002051B0517E517700205160529E508
:101280002970020528050FE50F7002050EE52C6098
:10129000080525E5257002052412108CC2A8D00788
:1012A000D006D005D004D003D002D001D000D0D0D9
:1012B000D082D083D0F0D0E032E52C6065309362EC
:1012C000E4F52CD3E52594B8E524940B401A754237
:1012D00002751F211213234313201213E1751F21DE
:1012E0001213824313208032D3E5259405E524941C
:1012F00000402AE52594F4E524940150207542012C
:10130000E4F516F517751F2012132343130112136A
:10131000E1751F20121382431301121438E4F524DF
:10132000F52522E4F54D1218067F781214DC12160A
:1013300074EF600FC3E54D943274809480500405BF
:101340004D80E3AF1F1214DC121674EF600FC3E57B
:101350004D9432748094805004054D80C912180653
:101360007F791214DC121674EF600FC3E54D9432CE
:10137000748094805004054D80AC1215B48F130214
:10138000196EE4F54D1217DD7F781215271216AE8F
:10139000EF600FC3E54D9402748094805004054DB6
:1013A00080E3AF1F1215271216AEEF600FC3E54D95
:1013B0009402748094805004054D80C91217DD7F1B
:1013C000791215271216AEEF600FC3E54D94027423
:1013D0008094805004054D80AC1215F68F130219CD
:1013E00086E4F54D1218067F781214DC121674EF9D
:1013F000600FC3E54D9432748094805004054D8095
:10140000E3AF1F1214DC121674EF600FC3E54D94A6
:1014100064748094805004054D80C9AF131214DCAD
:10142000121674EF600FC3E54D949674809480504B
:1014300004054D80AF02196EE4F54D1217DD7F787B
:101440001215271216AEEF600FC3E54D940274809B
:1014500094805004054D80E3AF1F1215271216AE7D
:10146000EF600FC3E54D9402748094805004054DE5
:1014700080C9AF131215271216AEEF600FC3E54DEA
:101480009402748094805004054D80AF02198653F5
:10149000E1E043E10A7FE87E031219CE43E14020F8
:1014A000C00575855A80F8AFE5753E008F3FE53F72
:1014B000753F00F53EAFE4EF423FE4C2C0AC3EAD45
:1014C0003F1203327BA87AC679AB783F12010E8FA8
:1014D0003D8E3C8D3B8C3AAE3EAF3F228F4E438BD0
:1014E00020909100E054DFF0C284E4F54FC3E54F53
:1014F000940874809480502EE54E30E704D28580A5
:1015000002C285E54E25E0F54E7F037E001219CE1E
:10151000D2847F037E001219CEC2847F037E001224
:1015200019CE054F80C7228F4E438C01909101E068
:1015300054FEF0C287E4F54FC3E54F9408748094DD
:1015400080502EE54E30E704D2908002C290E54EE6
:1015500025E0F54E7F037E001219CED2877F037EF1
:10156000001219CEC2877F037E001219CE054F806C
:10157000C72253E1E043E1117FE87E031219CE4315
:10158000E14020C00575855A80F8AFE57540008FB1
:1015900041E541754100F540AFE4EF4241AE40E521
:1015A000417802C333CE33CED8F9F5418E40C2C064
:1015B000E4FEFF22E4F54F538BDF909100E04420DE
:1015C000F0E4F54EC3E54E9408748094805021C237
:1015D000847F037E001219CED284E54F25E0F54FBB
:1015E000308502054F7F037E001219CE054E80D450
:1015F00012189BAF4F22E4F54F538CFE909101E0FF
:101600004401F0E4F54EC3E54E9408748094805094
:1016100021C2877F037E001219CED287E54F25E0D5
:10162000F54F309002054F7F037E001219CE054E14
:1016300080D41218BCAF4F22E4F54AF54B751F3029
:101640001213235313E04313031213E1751F3112D6
:101650001323754A0085134B751F32121323E513AC
:10166000FEEE424AAE4AAF4B7C007D051203EC8E83
:101670004A8F4B22E4F54ED285538BDF909100E0E8
:101680004420F07F037E001219CED2847F037E00B7
:101690001219CE308513054ED3E54E94FA7480941A
:1016A0008040F012196E7F0122C2847F0022E4F58F
:1016B0004ED290538CFE909101E04401F07F037E66
:1016C000001219CED2877F037E001219CE309013FC
:1016D000054ED3E54E94FA7480948040F01219863A
:1016E0007F0122C2877F00228E4A8F4B8D4C751F4F
:1016F000A41213825313FC431308E54C60054313F3
:101700000480035313FB121438751FA5E54BF51322
:10171000121438751FA6E54A540FF5130214381237
:101720001A4B751F40E4F51343138043135A1213E9
:10173000E1121A54751F4F12132353138043132DB4
:101740001213E1751F2E1213235313F043130102DA
:1017500013E1121A4B751F40E4F513431380431332
:101760003C1213E1121A54751F4F121323531380A6
:1017700043131E1213E1751F2E1213235313F0434C
:1017800013010213E1E4F54A751F1D121382E513DC
:101790005431F54A751F2B121382851350E513300F
:1017A000E403120C74751F2C121382851351AF4A77
:1017B00022E4F54A751F1D121323E51354F7F54A69
:1017C000751F2B121323851354E51330E403120AFB
:1017D000DB751F2C121323851355AF4A22438B80D0
:1017E000909100E0547FF0438C01A3E054FEF0D2CE
:1017F00090D2877F037E001219CEC2907F037E00B5
:101800001219CEC28722438B10909100E054EFF062
:10181000438B20E054DFF0D285D2847F037E001218
:1018200019CEC2857F037E001219CEC28422E4F550
:101830004A751F19121382531330E5135430FF7E7B
:101840000064207003434A01EF64104E7003434A62
:1018500002AF4A22E4F54A751F191213235313C02D
:10186000E51354C0FF7E0064807003434A01EF64B7
:10187000404E7003434A02AF4A22909101E054DF88
:10188000F0E054BFF0538CBF538CDF75EFEB43E1B6
:101890008053E20F43E22075E33B22C284438B2056
:1018A000909100E054DFF0D2857F037E001219CEC4
:1018B000D2847F037E001219CEC28422C287438C59
:1018C00001909101E054FEF0D2907F037E00121946
:1018D000CED2877F037E001219CEC28722751F45A4
:1018E00012138253138043131E121438751F2E12C5
:1018F00013825313F0431301021438751F28121377
:10190000825313FB5313F7121438751F2E121382D0
:101910005313F0431302021438751F451213235357
:10192000138043131E1213E1751F2E12132353133A
:10193000F04313010213E1751F281213235313FB05
:101940005313F71213E1751F2E1213235313F04391
:1019500013020213E1C0E0E59830E309752C01752C
:101960002400752500755801759800D0E032438B2E
:1019700020909100E054DFF0C285D2847F037E0086
:101980001219CED28522438C01909101E054FEF0D1
:10199000C290D2877F037E001219CED29022751F8B
:1019A00025121382E5135480700B0553E553700222
:1019B0000552120C7422751F25121323E51354804F
:1019C000700B0557E55770020556120ADB22E4FD3D
:1019D000FCC3ED9FEC9E5008000DBD00010C80F192
:1019E00075855A22751F2812138243130443130866
:1019F000021438751F2812132343130443130802DB
:101A000013E1751F281213825313FB021438751F3C
:101A1000281213234313040213E1751F2812132302
:101A20005313FB0213E101390001300001310000C2
:101A3000751F24751381021438751FFFE4F5130216
:101A40001438751F99121382AF1322751F24751352
:0E1A5000810213E1751FFFE4F5130213E1227A
:00000001FF
