:10000000021092021B7B75232812153D4317040230
:1000100015F332021408E4F553F554752330121425
:10002000DE5317E043170312159C7523311214DEBB
:100030007553008517547523321214DEE517FEEE52
:100040004253AE53AF547C007D0512094D8E538F41
:10005000542222020012E4F54EF54FF550F551F509
:1000600052F518F519751D27751E10121BC4121BA9
:10007000DC121A158F3B121A3B8F3C12196C8F3908
:100080001219988F3A2086071200168E518F52AFA0
:1000900048AE47AD46AC451208CC8E108F11E52214
:1000A000602EE4FFFE7DC87C42AB48AA47A946A863
:1000B000451208155015050DE50D7002050C940A42
:1000C000E50C9400400A121C348005E4F50CF50D93
:1000D000E53C30E01DAC51AD52E4120893A804A9F0
:1000E00005AA06AB07AF48AE47AD46AC4512057A48
:1000F000803DE53C30E13FC3E5529464E551940016
:100100005015050DE50D7002050C940AE50C9400E0
:10011000400A121C348005E4F50CF50DAC51AD52CB
:10012000E4120893AB48AA47A946A84512057E12D7
:1001300008CC8E108F11E511B52F15E510B52E10D6
:10014000E534B5290BE533B52806E52C651C606A56
:1001500085102E85112F852833852934851C2C7F09
:1001600049121B757F3A121B75AF11AE1012189E03
:100170007F0D121B757F0A121B757F20121B757F66
:1001800056121B757F3A121B75AF29AE2812189EA6
:100190007F0D121B757F0A121B757F20121B757F46
:1001A00044121B757F3A121B75AF1C7E0012189EFD
:1001B0007F0D121B757F0A121B75AE10AF117C00EC
:1001C0007D051209B48E108F111213918F278E2680
:1001D0008D258C247F4A7E0C7DAA7C40AB27AA26E5
:1001E000A925A824120815601A40187F197E047DDD
:1001F000037C42AB27AA26A925A824120815500380
:10020000E4F52DE5397017E53A7013E522700FE536
:100210003B64026009E53C64026003020352E5228C
:10022000700FE53B64026009E53C64026003020272
:10023000CC754E02D3E5119400E5106480948040A3
:1002400008E4FDAF11AE108019C3E51064809480FE
:100250005013C3E49511F511E49510F5107D01AF2D
:1002600011FE1218677FCB7EA17D657C40AB27AA6B
:1002700026A925A824120815500302031C7F777EA7
:100280003E7D117C42AB27AA26A925A82412081579
:100290006005400302031C7F4A7E0C7DAA7C40ABB4
:1002A00027AA26A925A824120815600250030203D4
:1002B000637F197E047D037C42AB27AA26A925A86B
:1002C00024120815400302036302034DE4F50CF504
:1002D0000D754E01C3E510648094805013C3E495FE
:1002E00011F511E49510F5107D01AF11FE1218679C
:1002F0007FA27E457D1E7C40AB27AA26A925A82487
:1003000012081540177F487E617D5E7C42AB27AAAC
:1003100026A925A82412081560074005752D01801F
:10032000427FDD7E247D3E7C40AB27AA26A925A8FE
:1003300024120815602D402B7FC37EF57D297C4259
:10034000AB27AA26A925A8241208155016E4F52DD6
:100350008011E4F50CF50D7523A412153D5317F724
:100360001215F3AF3B7E00C3EF940274809480506B
:100370000BC3E53C940274809480407CC3EF9402EC
:10038000EE648094804022E53C9402748094804026
:1003900018E50F60030204C2750F01E536642D6095
:1003A0002B75362D1219068023C3E53B9402748009
:1003B00094804021E50F640170030204C2750F01AF
:1003C000E536642D600675362D121906121C4C1286
:1003D0001C280204C2C3E53C94027480948050033C
:1003E0000204C2E50F640270030204C2750F021218
:1003F0000006121C580204C2E50F6009E4F50F1252
:100400001C28121C58E53930E003434F01E53A300F
:10041000E703434F02E53A30E503434F0420A11EB2
:10042000E535641E600675351E121AE9E536641E50
:1004300070030204C275361E121B250204C2E54F6A
:10044000650E607E854F0EE54F24FE601914602C0A
:1004500014602114604324FE605C24067064E5355A
:100460006441605E8056E536642D605675362D1207
:100470001906804EE516641E6048802FE5356441FC
:100480006006753541120052E536641E60347536DB
:100490001EE4F5161219398029E5356441600675A8
:1004A0003541120052E516641E601775161EE4F5FC
:1004B00036121CA6800CE535644160067535411284
:1004C0000052E54D6401700AF54DF538F51AF51B3B
:1004D000F5301218D38E288F297C007D0712094D24
:1004E0008E288F29E52D6036752101E4F538AF306F
:1004F000FED3EF9432748094804008753033E4F575
:10050000448013EF4E7002F544E53075F00584E544
:10051000F070036344FF0530121C19021C0AE4F555
:1005200030E52164017008F521121B43121B0712EC
:100530001C8B8F1CAD4E1209F830860830A0057553
:100540003D018003E4F53DE53D6004E522600AE5F8
:100550001945187004F51AF51BE53D6004E52260A5
:100560000CE51945187006E54D64027004E4FF803F
:10057000027F01120F8722020938E86480F8E9330C
:10058000E83360110460F0ED33EC337009E8FCE906
:10059000FDEAFEEBFF220460DED3EB9FEA9EE99DBD
:1005A000E8C2E78CF0C2F795F0400CE8CCF8E9CD52
:1005B000F9EACEFAEBCFFB12090385D0F0580470AC
:1005C0000320D5B3E80470075002B2D50209429265
:1005D000D5EC0460F7E4CCC0E0C398F8603B941815
:1005E0006008400DD0E0FB02091AE4FBFAC9FC8068
:1005F00028E830E406E4C9FBE4CAFCE830E305E49B
:10060000C9CACBFCE854076010F8C3E913F9EA1330
:10061000FAEB13FBEC13FCD8F130F52FC3E49CFC90
:10062000EF9BFFEE9AFEED99FDD0E0FBEF4E4D4CB7
:10063000701222DB0302093FEC2CFCEF33FFEE3398
:10064000FEED33FDED30E7EB02091AEF2BFFEE3A3A
:10065000FEED39FDD0E0FB50130BBB000302094255
:10066000ED13FDEE13FEEF13FFEC13FC02091AEC81
:100670004D6011E8497017ED33EC3304600DE4FC74
:10068000FFFEFD22E933E8330470F802093812094D
:100690000358046009E4CC2481500628500902095B
:1006A0004228400302093FC0E0EB4A7044B980068B
:1006B000D0E0FB02092EEF4E701CBD8008EBFFEA74
:1006C000FEE9FD80EBE98DF0A4FEE5F0020758E9B4
:1006D000CDF9EAFEEBFFEF89F0A4FCE5F0CE89F05E
:1006E000A42EFFE435F0CD89F0A42DFEE435F08092
:1006F00067EF4E7005BD80D780C3EF8BF0A4ACF0E0
:10070000EE8BF0A42CFCE435F0F8EF8AF0A42CE595
:10071000F038FCE433CB8DF0A42CFCE5F03BF8EE94
:100720008AF0A42CFCE5F038F8E433CF89F0A42C4F
:10073000FCE5F038CF3400CE89F0A42FFFE5F03E81
:10074000FEE433C98DF0A42EFEE5F039CD8AF0A485
:100750002FFFE5F03EFEE43DFD33D0E0FB50070BFC
:10076000BB000F020942EC2CFCEF33FFEE33FEED31
:1007700033FD02091A020942EC5D046005E85904E0
:100780007003020938120903580460F6EC4860F25D
:10079000EC7004FDFEFF22C860DB2481C85009C351
:1007A000986002500602093F9850CAF582E9294B29
:1007B0004A7005AB8202092E75F0007C1A7880C35E
:1007C000EF9BEE9AED99400DC3EF9BFFEE9AFEED85
:1007D00099FDE842F0DC23ACF0D0E0FFD0E0FED0A1
:1007E000E0FDAB8220E7101BEB60BAEC2CFCEF3392
:1007F000FFEE33FEED33FD02091AE803F830E7059A
:10080000C0F075F000EF2FFFEE33FEED33FD40B882
:1008100030E7C280AA74F8CC6480CCC86480C8F584
:100820008204604FC3EB9FF5F0EA9E42F0E99D42DF
:10083000F0E89C45F0603C501DE5825FFFE582D307
:1008400013CB5BCBF42B5582FB50280ABA0024094A
:10085000B9002008801DE5825BFBE582D313CF5FE2
:10086000CFF4C3132F5582FF50090EBE00050DBDF6
:1008700000010CC3EB9FF5F0EA9E42F0E99D42F0C7
:10088000E89C45F06007CC4820E701B3EC2275F006
:1008900020800E75F010800575F0087D007E007FC9
:1008A000003392D530D5031209EAEC334010EF3310
:1008B000FFEE33FEED33FDEC33FCD5F0ED22E5F039
:1008C000247EA2D513CC92E7CDCEFF22EDD2E7CD88
:1008D00033EC3392D524814006E4FFFEFDFC22FC7C
:1008E000E4CFCECDCC24E0501174FF80EDC3CC1307
:1008F000CCCD13CDCE13CECF13CF0470F030D5DED8
:100900000209EAE9D2E7C933E833F892D5EDD2E734
:10091000CD33EC33FC5002B2D522EC30E7100FBFE0
:10092000000C0EBE00080DBD00040BEB6014A2D538
:10093000EB13FCED92E7FD2274FFFCFDFEFF22E4C9
:1009400080F8A2D574FF13FC7D80E480EFEF8DF07A
:10095000A4A8F0CF8CF0A428CE8DF0A42EFE22BC4B
:10096000000BBE0029EF8DF084FFADF022E4CCF83F
:1009700075F008EF2FFFEE33FEEC33FCEE9DEC98A4
:100980004005FCEE9DFE0FD5F0E9E4CEFD22EDF82A
:10099000F5F0EE8420D21CFEADF075F008EF2FFFCD
:1009A000ED33FD4007985006D5F0F222C398FD0FB5
:1009B000D5F0EA22C2D5EC30E709B2D5E4C39DFDFB
:1009C000E49CFCEE30E715B2D5E4C39FFFE49EFE45
:1009D00012095FC3E49DFDE49CFC800312095F30B3
:1009E000D507C3E49FFFE49EFE22C3E49FFFE49E7D
:1009F000FEE49DFDE49CFC228F53E4F554F555F58F
:100A000056EDFB7A0064026003020AE8AF38EF6437
:100A1000016005EF64027019C3E5139410E51294A8
:100A200027400E751227751310E4F544753802FF40
:100A300022AF537E00C3EF9464748094805003759A
:100A40005401D3EF9407EE6480948050155344FB17
:100A50005344F75344EF4344204344407556020245
:100A60000BD0D3EF9419EE64809480501543440268
:100A70005344F75344EF4344204344407556030224
:100A80000BD0D3EF9434EE6480948050154344022D
:100A90004344045344EF4344204344407556040206
:100AA0000BD0C3EF9463EE648094805015434402EE
:100AB00043440443440843442043444075560502DC
:100AC0000BD043440243440443440843441043448A
:100AD00020434440AF38EF600464037005E4F5122E
:100AE000F513753801020BD0C3E538940274809475
:100AF00080400BEB4A7007753803F544FF22E4F59C
:100B0000387523151214DE851755E55530E40312A8
:100B10001C40D3E5539400748094804005E5553023
:100B2000E454751D0B751EB8534420752318121517
:100B30003DE51720E205E55530E41575231585558B
:100B40001712159C75232112153D4317201215F31A
:100B50007523181214DEE5175409600C7523211251
:100B600014DE43172012159C75180075190175566F
:100B700001755401805AAF537E00D3EF9404748002
:100B8000948050084344025344FB8011D3EF9416E1
:100B9000EE64809480500E4344024344045344F76F
:100BA0005344EF8025D3EF9436EE64809480500E4A
:100BB0004344024344044344085344EF800C4344F9
:100BC0000243440443440843441043442043444004
:100BD000E5546063E4F554050BE50B7002050AAFBC
:100BE000567E00EF64017015D3E50B9402E50A947C
:100BF000004044E4F50AF50B634420803AD3E50B4A
:100C00009405E50A9400402FE4F50AF50BEF640221
:100C10004E7005634402801FEF64034E7005634409
:100C2000048014EF64044E70056344088009EF6487
:100C3000054E70036344107F01227523FFE4F5170E
:100C400012159C7523231214DE43170112159C7F85
:100C5000107E27121BF475232475172012159C751E
:100C6000174012159C75178012159C7523FFE4F52B
:100C70001712159C7523251214DE43178012159C3C
:100C80007523151214DE12159C7523401214DE43D1
:100C9000170243170443178012159C75234612143C
:100CA000DE75179612159C7523471214DE5317E054
:100CB00043170512159C7523451214DE5317804304
:100CC000172D12159C75234F1214DE5317804317EE
:100CD0002D12159C121C947523161214DE43171046
:100CE00012159C7523031214DE5317F043170712D5
:100CF000159C75230D1214DE53173F4317801215F0
:100D00009C7523551214DE43178012159C752356CB
:100D10001214DE43170143170243170412159C7582
:100D200023181214DE5317E312159C752319E4F5EA
:100D30001743170843172012159C7523351214DE2C
:100D400043170143170812159C7523341214DE4310
:100D5000170443171043172012159C752340E4F520
:100D60001743178043176412159C7523011214DE74
:100D700053173F43178012159C7523501214DE43FE
:100D8000170143170243170412159C7523511214BF
:100D9000DE43177012159C7523231214DEE4F51739
:100DA00043170143170243170443174012159C755C
:100DB00023221214DE53173F43174012159C75234C
:100DC0002D1214DE43170843171012159C75232E9D
:100DD0001214DE53178043173C12159C75232F12F3
:100DE00014DE53178043173C12159C021C9D75237B
:100DF000FFE4F5171215F375232312153D43170170
:100E00001215F37F107E27121BF47523247517200B
:100E10001215F37517401215F37517801215F37537
:100E200023FFE4F5171215F375232512153D43171B
:100E3000801215F375234012153D43170243170422
:100E40004317801215F375234612153D7517961238
:100E500015F375234712153D5317E0431705121577
:100E6000F375234512153D5317804317411215F3AF
:100E700075234F12153D5317804317411215F31276
:100E80001C7975231612153D4317101215F375239F
:100E90000312153D5317F04317071215F375230D71
:100EA00012153D53173F4317801215F37523551242
:100EB000153D4317801215F375235612153D431740
:100EC000014317024317041215F375231812153D39
:100ED0005317FB1215F375231912153D5317F8120A
:100EE00015F375233512153D4317014317081215E5
:100EF000F375233412153D4317044317104317208D
:100F00001215F3752340E4F5174317804317641255
:100F100015F375232312153DE4F517431701431705
:100F2000024317044317401215F375235012153D61
:100F30004317014317024317041215F37523511287
:100F4000153D4317701215F375232212153D5317E3
:100F50003F4317401215F375232D12153D43170813
:100F60004317101215F375232E12153D53178043A6
:100F7000173C1215F375232F12153D531780431795
:100F80003C1215F3021C82EF600302108CC3E51BB8
:100F9000951EE51A951D5009E54D64026003021087
:100FA00091E4F544F538F54DF522F53DF51AF51BBC
:100FB000F5307523A412153D5317F71215F3752359
:100FC000231214DE5317FE12159C75232312153DB0
:100FD0005317FE1215F3C297C292C291C28053E119
:100FE0007F438C20438C40909101E054DFF0E0542B
:100FF000BFF0C295C296538CFEE04401F0538B7F44
:10100000909100E04480F0538BBFE04440F0538B5C
:10101000DFE04420F053A27F75855A30A12130864D
:101020001E30A01B90902074A5F09090277418F0AB
:10103000909020745AF07587507587017587A07F4E
:10104000647E00121BF475232312153D4317011211
:1010500015F37523231214DE43170112159CD28059
:101060007F107E27121BF443A280439D01538CDF27
:10107000538CBF909101E054DFF0E054BFF0E4F5F1
:1010800044F51AF51B75855A43E18022E4F508F50D
:10109000092275841078FFE4F6D8FD9000007F00E7
:1010A0007E01E4F0A3DFFCDEFA758162909080742B
:1010B000A5F0908020740093909082F0743090900E
:1010C00083F09090F0E04480F0758AA090802774BF
:1010D0000093F58A908026740093F589909080742F
:1010E0005AF0021120021235E493A3F8E493A340CE
:1010F00003F68001F208DFF48029E493A3F8540793
:10110000240CC8C333C4540F4420C8834004F4568D
:10111000800146F6DFE4800B0102040810204080C5
:10112000901C6FE47E019360BCA3FF543F30E5093F
:10113000541FFEE493A360010ECF54C025E060A8C5
:1011400040B8E493A3FAE493A3F8E493A3C8C58258
:10115000C8CAC583CAF0A3C8C582C8CAC583CADFC6
:10116000E9DEE780BE909100E04440F0438E40C24B
:101170009E909184E054BFF0909182E04440F090C2
:101180009180E04440F0909102E04401F0439101ED
:10119000C298909185E04401F0909182E04401F082
:1011A000909180E04401F0909101E04408F0438F79
:1011B00008C29B909184E04408F0909182E044083A
:1011C000F0909180E04408F0D2E8909102E044026F
:1011D000F0439102C299909185E04402F09091828F
:1011E000E04402F0909180E04402F0438C80438C14
:1011F00004438C02909101E0547FF0E054FBF0E056
:1012000054FDF0438B01438B02438B04438B0890C6
:101210009100E054FEF0E054FDF0E054FBF0E054A7
:10122000F7F0438C10A3E054EFF0C294D280C28157
:10123000C282C2832290902074A5F0A3E09000FFA8
:10124000F0E054F0F0E04402F0E0909021F0909053
:1012500020745AF074A5F0A37402F0909020745A90
:10126000F075A67C75A67C75A2C3439D01D2E9D218
:10127000EFD2EF7F407E42121BF47F407E42121B72
:10128000F4121165121A86120C3A120DEE121A613E
:101290007F31121B757F31121B757F31121B7575E3
:1012A0008420E4F522751D27751E1075855A1217C6
:1012B0002D20A10A752201D29412164A800DE4F560
:1012C00048F547F546F545C294F522121474D3E566
:1012D000209464E51F940040D2E4F51FF52012002D
:1012E0005680C8C3E53194005003021390E4F531F1
:1012F000F532538C7F909101E0547FF0538CFBE0EA
:10130000547FF0538CFDE0547FF0053FE53F94059A
:10131000748094804003E4F53FE53F146027146037
:101320003A14605114605A24047065E54430E205B3
:10133000438C02D291E54430E605438C04D29243BB
:101340008C80C29722E54430E505438C80D297E536
:101350004430E437438C02D2918030E54430E105DB
:10136000438C80D297E54430E305438C04D292430A
:101370008C02C29122E54430E516438C80D29780DE
:101380000AE54430E50A438C80D297438C04C2922C
:1013900022E4F553F55453E1E043E10B7FE87E038B
:1013A000121BF443E14020C00575855A80F8AFE573
:1013B0007553008F54E554755400F553AFE4EF4274
:1013C00054E4C2C0AC53AD54120893E4FBFA794C18
:1013D000784212066FC004C005C006C007C3E54CC2
:1013E0009554FDE54B9553FCE4120893A804A90518
:1013F000AA06AB07D007D006D005D0041207788F15
:10140000438E428D418C4022C0E0C0F0C083C08238
:10141000C0D075D000C000C001C002C003C004C06D
:1014200005C006C00730A8310520E5207002051F61
:10143000051BE51B7002051A0532E5327002053105
:101440000513E51370020512E5376008052BE52B3F
:101450007002052A1212E3C2A8D007D006D005D028
:1014600004D003D002D001D000D0D0D082D083D01D
:10147000F0D0E032E5376065309362E4F537D3E5CC
:101480002B94B8E52A940B401A754D02752321124E
:1014900014DE43172012159C75232112153D4317A6
:1014A000208032D3E52B9405E52A9400402AE52BD1
:1014B00094F4E52A94015020754D01E4F51AF51BCA
:1014C0007523201214DE43170112159C7523201278
:1014D000153D4317011215F3E4F52AF52B22E4F527
:1014E000571219ED7F781216971217F3EF600FC39A
:1014F000E5579432748094805004055780E3AF23FD
:101500001216971217F3EF600FC3E55794327480E9
:1015100094805004055780C91219ED7F79121697EF
:101520001217F3EF600FC3E5579432748094805024
:1015300004055780AC12176F8F17021B94E4F55700
:101540001219C47F781216E212182DEF600FC3E54E
:10155000579402748094805004055780E3AF23129F
:1015600016E212182DEF600FC3E5579402748094B1
:10157000805004055780C91219C47F791216E212EF
:10158000182DEF600FC3E5579402748094805004C7
:10159000055780AC1217B18F17021BACE4F5571238
:1015A00019ED7F781216971217F3EF600FC3E55706
:1015B0009432748094805004055780E3AF23121650
:1015C000971217F3EF600FC3E5579464748094800B
:1015D0005004055780C9AF171216971217F3EF6022
:1015E0000FC3E5579496748094805004055780AFDC
:1015F000021B94E4F5571219C47F781216E21218F0
:101600002DEF600FC3E55794027480948050040559
:101610005780E3AF231216E212182DEF600FC3E5D7
:10162000579402748094805004055780C9AF1712F4
:1016300016E212182DEF600FC3E5579402748094E0
:10164000805004055780AF021BAC53E1E043E10A30
:101650007FE87E03121BF443E14020C00575855AE4
:1016600080F8AFE57549008F4AE54A754A00F549AB
:10167000AFE4EF424AE4C2C0AC49AD4A1208937BE2
:10168000A87AC679AB783F12066F8F488E478D4691
:101690008C45AE49AF4A228F58438B20909100E091
:1016A00054DFF0C284E4F559C3E55994087480947A
:1016B00080502EE55830E704D2858002C285E55877
:1016C00025E0F5587F037E00121BF4D2847F037E51
:1016D00000121BF4C2847F037E00121BF4055980A4
:1016E000C7228F58438C01909101E054FEF0C287CD
:1016F000E4F559C3E559940874809480502EE55858
:1017000030E704D2908002C290E55825E0F5587F7A
:10171000037E00121BF4D2877F037E00121BF4C2EB
:10172000877F037E00121BF4055980C72253E1E036
:1017300043E1117FE87E03121BF443E14020C00522
:1017400075855A80F8AFE5754B008F4CE54C754CAC
:1017500000F54BAFE4EF424CAE4BE54C7802C3339F
:10176000CE33CED8F9F54C8E4BC2C0E4FEFF22E456
:10177000F559538BDF909100E04420F0E4F558C315
:10178000E5589408748094805021C2847F037E00C1
:10179000121BF4D284E55925E0F55930850205592C
:1017A0007F037E00121BF4055880D4121AA7AF598C
:1017B00022E4F559538CFE909101E04401F0E4F5E8
:1017C00058C3E5589408748094805021C2877F03E1
:1017D0007E00121BF4D287E55925E0F559309002BE
:1017E00005597F037E00121BF4055880D4121AC8D5
:1017F000AF5922E4F558D285538BDF909100E04435
:1018000020F07F037E00121BF4D2847F037E00123F
:101810001BF43085130558D3E55894FA74809480EE
:1018200040F0121B947F0122C2847F0022E4F5580D
:10183000D290538CFE909101E04401F07F037E0032
:10184000121BF4D2877F037E00121BF43090130525
:1018500058D3E55894FA7480948040F0121BAC7F02
:101860000122C2877F00228E538F548D557523A489
:1018700012153D5317FC431708E55560054317043F
:1018800080035317FB1215F37523A5E554F51712C2
:1018900015F37523A6E553540FF5170215F3AB079F
:1018A000AA067C277D1012095FEF2430FF121B75FA
:1018B0007C037DE8121B637D64121B617D0A121B91
:1018C00061AE02AF037C007D0A12095FED2430FF98
:1018D000021B75E4F553F55475233012153D53176B
:1018E000E04317021215F375233112153D755300AD
:1018F00085175475233212153DE517540FFEEE423D
:1019000053AE53AF5422121C94752340E4F5174391
:10191000178043175A12159C121C9D75234F1214E1
:10192000DE53178043172D12159C75232E1214DEDB
:101930005317F043170102159C121C94752340E4C1
:10194000F51743178043173C12159C121C9D7523F5
:101950004F1214DE53178043171E12159C75232E49
:101960001214DE5317F043170102159CE4F553756A
:10197000231D12153DE5175431F55375232B121510
:101980003D85175AE51730E403120DEE75232C122E
:10199000153D85175BAF5322E4F55375231D1214D3
:1019A000DEE51754F7F55375232B1214DE85175E09
:1019B000E51730E403120C3A75232C1214DE851758
:1019C0005FAF5322438B80909100E0547FF0438CB3
:1019D00001A3E054FEF0D290D2877F037E00121B59
:1019E000F4C2907F037E00121BF4C28722438B1047
:1019F000909100E054EFF0438B20E054DFF0D2856B
:101A0000D2847F037E00121BF4C2857F037E001206
:101A10001BF4C28422E4F55375231912153D5317A4
:101A200030E5175430FF7E0064207003435301EF0C
:101A300064104E7003435302AF5322E4F5537523F1
:101A4000191214DE5317C0E51754C0FF7E006480DE
:101A50007003435301EF64404E7003435302AF538E
:101A600022D282909131E054F0F0E04402F0438BB6
:101A70000475D50175D7027F227E00121C64439F36
:101A800001D2EDD2EF22909101E054DFF0E054BF9B
:101A9000F0538CBF538CDF75EFEB43E18053E20FC3
:101AA00043E22075E33B22C284438B20909100E007
:101AB00054DFF0D2857F037E00121BF4D2847F03B3
:101AC0007E00121BF4C28422C287438C01909101D4
:101AD000E054FEF0D2907F037E00121BF4D2877F89
:101AE000037E00121BF4C2872275234512153D5355
:101AF000178043171E1215F375232E12153D531729
:101B0000F04317010215F375232812153D5317FBF7
:101B10005317F71215F375232E12153D5317F04383
:101B200017020215F37523451214DE53178043176D
:101B30001E12159C75232E1214DE5317F043170145
:101B400002159C7523281214DE5317FB5317F71246
:101B5000159C75232E1214DE5317F043170202153D
:101B60009C7C00AF03AE0212095F7C007D0A120963
:101B70005FED2430FF30B9FD8FD922C0E0E5983009
:101B8000E309753701752A00752B00756201759898
:101B900000D0E032438B20909100E054DFF0C2850A
:101BA000D2847F037E00121BF4D28522438C0190E5
:101BB0009101E054FEF0C290D2877F037E00121B99
:101BC000F4D2902275232512153DE5175480700B31
:101BD000055DE55D7002055C120DEE227523251290
:101BE00014DEE5175480700B0561E5617002056035
:101BF000120C3A22E4FDFCC3ED9FEC9E5008000D50
:101C0000BD00010C80F175855A2275232812153DFF
:101C10004317044317080215F37523281214DE43F3
:101C2000170443170802159C75232812153D5317F6
:101C3000FB0215F37523A412153D4317020215F399
:101C40007523A412153D4317010215F375232812BD
:101C500014DE43170402159C7523281214DE531753
:101C6000FB02159CAD07AC06ECFF8DD38FD422018F
:101C70004400013B00013C000075232475178102DC
:101C800015F37523FFE4F5170215F3752399121563
:101C90003DAF172275232475178102159C7523FF0C
:071CA000E4F51702159C2278
:00000001FF
