:1000000002132C021EC2752B281218BC431A0402BC
:1000100019C932021723E4F561F562752B30121805
:100020005D531AE0431A03121972752B3112185DD1
:10003000756100851A62752B3212185DE51AFEEEA5
:100040004261AE61AF627C007D05120A1B8E618F3A
:10005000622222020012E4F558F559F55AF55BF5D3
:100060005CF560F55FF55EF55DF51BF51C75212708
:10007000752210121F0B121F23121D5C8F43121DBD
:10008000828F44AD44AF431216AA121CB38F4112A3
:100090001CDF8F422086071200168E5B8F5CAF4EEE
:1000A000AE4DAD4CAC4B12099A8E128F13E5286001
:1000B0002EE4FFFE7DC87C42AB4EAA4DA94CA84B56
:1000C0001208E35015050FE50F7002050E940AE5BE
:1000D0000E9400400A121F7B8005E4F50EF50FE533
:1000E0004430E01DAC5BAD5CE4120961A804A905D5
:1000F000AA06AB07AF4EAE4DAD4CAC4B12064880D6
:100100003DE54430E13FC3E55C9464E55B94005019
:1001100015050FE50F7002050E940AE50E940040D8
:100120000A121F7B8005E4F50EF50FAC5BAD5CE4B5
:10013000120961AB4EAA4DA94CA84B12064C1209EC
:100140009A8E128F13851226851327AE12AF137C59
:10015000007D05120A828E128F131216278F2F8EA2
:100160002E8D2D8C2C7F4A7E0C7DAA7C40AB2FAA35
:100170002EA92DA82C1208E3601A40187F197E04BE
:100180007D037C42AB2FAA2EA92DA82C1208E35088
:1001900003E4F535E5417017E5427013E528700F6B
:1001A000E54364026009E544640260030202E3E59A
:1001B00028700FE54364026009E5446402600302AD
:1001C000025D755802D3E5139400E51264809480B3
:1001D0004008E4FDAF13AE128019C3E512648094A9
:1001E000805013C3E49513F513E49512F5127D01C5
:1001F000AF13FE121BAE7FCB7EA17D657C40AB2F83
:10020000AA2EA92DA82C1208E350030202AD7F7775
:100210007E3E7D117C42AB2FAA2EA92DA82C120860
:10022000E3600540030202AD7F4A7E0C7DAA7C405C
:10023000AB2FAA2EA92DA82C1208E36002500302AE
:1002400002F47F197E047D037C42AB2FAA2EA92DD8
:10025000A82C1208E340030202F40202DEE4F50EC9
:10026000F50F755801C3E512648094805013C3E400
:100270009513F513E49512F5127D01AF13FE121BD1
:10028000AE7FA27E457D1E7C40AB2FAA2EA92DA855
:100290002C1208E340177F487E617D5E7C42AB2FC5
:1002A000AA2EA92DA82C1208E36007400575350178
:1002B00080427FDD7E247D3E7C40AB2FAA2EA92D7F
:1002C000A82C1208E3602D402B7FC37EF57D297C8E
:1002D00042AB2FAA2EA92DA82C1208E35016E4F544
:1002E000358011E4F50EF50F752BA41218BC531AC6
:1002F000F71219C9AF437E00C3EF94027480948053
:10030000500BC3E544940274809480407CC3EF9406
:1003100002EE648094804022E544940274809480CC
:100320004018E5116003020459751101E53E642D82
:10033000602B753E2D121C4D8023C3E5439402743F
:100340008094804021E51164017003020459751105
:1003500001E53E642D6006753E2D121C4D121F9363
:10036000121F6F020459C3E54494027480948050B4
:1003700003020459E5116402700302045975110265
:10038000120006121F9F020459E5116009E4F511DD
:10039000121F6F121F9FE54130E003435901E542F0
:1003A00030E703435902E54230E503435904E528A9
:1003B0006401701EE53D641E6006753D1E121E3010
:1003C000E53E641E7003020459753E1E121E6C0247
:1003D0000459E55965107003020459855910E5590F
:1003E00024FE601914602C14602114604324FE6004
:1003F0005C24067064E53D6441605E8056E53E64C1
:100400002D6056753E2D121C4D804EE518641E6001
:1004100048802FE53D64416006753D41120052E57C
:100420003E641E6034753E1EE4F518121C8080295F
:10043000E53D64416006753D41120052E518641EB9
:10044000601775181EE4F53E121FF9800CE53D6437
:10045000416006753D41120052E5576401700AF58E
:1004600057F540F51EF51FF536121C1A8E308F31E8
:100470007C007D07120A1B8E308F31853039853123
:100480003AE5356036752501E4F540AF36FED3EF29
:100490009432748094804008753633E4F5498013B3
:1004A000EF4E7002F549E53675F00584E5F070030E
:1004B0006349FF0536121F60021F51E4F536E5253A
:1004C00064017008F525121E8A121E4E121FDE8F5F
:1004D0002012157DAC72AD73E4120961E4FBFA7968
:1004E000C8784212073DC004C005C006C007AC6C06
:1004F000AD6DE4120961A804A905AA06AB07D007EF
:10050000D006D005D004120846E4FBFAF9783F1271
:10051000064C8F608E5F8D5E8C5D75290085202A6C
:1005200012099AAD58120AC6E56FB56E1CE534B5CE
:100530002A17E4B52913E546B5730EE545B57209EA
:10054000E51D6519700302060785393B853A3C8530
:100550002A34857245857346856E6F85191D7F49DE
:10056000121EBC7F3A121EBCAF27AE26121BE57FBF
:100570000D121EBC7F0A121EBC7F56121EBC7F3A93
:10058000121EBCAF3AAE39121BE57F0D121EBC7FA6
:100590000A121EBC7F6D121EBC7F57121EBC7F3A12
:1005A000121EBCAF6DAE6C121BE57F0D121EBC7F20
:1005B0000A121EBC7F6D121EBC7F57121EBC7F3AF2
:1005C000121EBCAF73AE72121BE57F0D121EBC7FF4
:1005D0000A121EBC7F44121EBC7F3A121EBCAF2AF8
:1005E000AE29121BE57F20121EBCAF6E7E00121BCF
:1005F000E57F20121EBCAF197E00121BE57F0D1295
:100600001EBC7F0A121EBC30860830A0057547014B
:100610008003E4F547E5476004E528600AE51C45EA
:100620001B7004F51EF51FE5476004E528600CE526
:100630001C451B7006E55764027004E4FF80027FCE
:100640000112121222020A06E86480F8E933E83344
:1006500060110460F0ED33EC337009E8FCE9FDEA69
:10066000FEEBFF220460DED3EB9FEA9EE99DE8C229
:10067000E78CF0C2F795F0400CE8CCF8E9CDF9EA48
:10068000CEFAEBCFFB1209D185D0F05804700320CD
:10069000D5B3E80470075002B2D5020A1092D5EC27
:1006A0000460F7E4CCC0E0C398F8603B941860089D
:1006B000400DD0E0FB0209E8E4FBFAC9FC8028E821
:1006C00030E406E4C9FBE4CAFCE830E305E4C9CA47
:1006D000CBFCE854076010F8C3E913F9EA13FAEB0E
:1006E00013FBEC13FCD8F130F52FC3E49CFCEF9B1B
:1006F000FFEE9AFEED99FDD0E0FBEF4E4D4C7012EF
:1007000022DB03020A0DEC2CFCEF33FFEE33FEED8F
:1007100033FDED30E7EB0209E8EF2BFFEE3AFEED9B
:1007200039FDD0E0FB50130BBB0003020A10ED13A0
:10073000FDEE13FEEF13FFEC13FC0209E8EC4D6035
:1007400011E8497017ED33EC3304600DE4FCFFFE53
:10075000FD22E933E8330470F8020A061209D15881
:10076000046009E4CC24815006285009020A1028AC
:100770004003020A0DC0E0EB4A7044B98006D0E0A5
:10078000FB0209FCEF4E701CBD8008EBFFEAFEE99E
:10079000FD80EBE98DF0A4FEE5F0020826E9CDF935
:1007A000EAFEEBFFEF89F0A4FCE5F0CE89F0A42E81
:1007B000FFE435F0CD89F0A42DFEE435F08067EF3D
:1007C0004E7005BD80D780C3EF8BF0A4ACF0EE8BEC
:1007D000F0A42CFCE435F0F8EF8AF0A42CE5F03816
:1007E000FCE433CB8DF0A42CFCE5F03BF8EE8AF072
:1007F000A42CFCE5F038F8E433CF89F0A42CFCE518
:10080000F038CF3400CE89F0A42FFFE5F03EFEE4AF
:1008100033C98DF0A42EFEE5F039CD8AF0A42FFF68
:10082000E5F03EFEE43DFD33D0E0FB50070BBB009E
:100830000F020A10EC2CFCEF33FFEE33FEED33FD1C
:100840000209E8020A10EC5D046005E8590470032F
:10085000020A061209D1580460F6EC4860F2EC7006
:1008600004FDFEFF22C860DB2481C85009C39860E4
:10087000025006020A0D9850CAF582E9294B4A70C7
:1008800005AB820209FC75F0007C1A7880C3EF9BEF
:10089000EE9AED99400DC3EF9BFFEE9AFEED99FDA8
:1008A000E842F0DC23ACF0D0E0FFD0E0FED0E0FD89
:1008B000AB8220E7101BEB60BAEC2CFCEF33FFEEB1
:1008C00033FEED33FD0209E8E803F830E705C0F038
:1008D00075F000EF2FFFEE33FEED33FD40B830E74B
:1008E000C280AA74F8CC6480CCC86480C8F5820445
:1008F000604FC3EB9FF5F0EA9E42F0E99D42F0E8BD
:100900009C45F0603C501DE5825FFFE582D313CB30
:100910005BCBF42B5582FB50280ABA002409B9009E
:100920002008801DE5825BFBE582D313CF5FCFF407
:10093000C3132F5582FF50090EBE00050DBD0001E7
:100940000CC3EB9FF5F0EA9E42F0E99D42F0E89C73
:1009500045F06007CC4820E701B3EC2275F0208019
:100960000E75F010800575F0087D007E007F003365
:1009700092D530D503120AB8EC334010EF33FFEEB6
:1009800033FEED33FDEC33FCD5F0ED22E5F0247EB3
:10099000A2D513CC92E7CDCEFF22EDD2E7CD33EC3A
:1009A0003392D524814006E4FFFEFDFC22FCE4CF17
:1009B000CECDCC24E0501174FF80EDC3CC13CCCD50
:1009C00013CDCE13CECF13CF0470F030D5DE020A94
:1009D000B8E9D2E7C933E833F892D5EDD2E7CD33A1
:1009E000EC33FC5002B2D522EC30E7100FBF000C04
:1009F0000EBE00080DBD00040BEB6014A2D5EB1376
:100A0000FCED92E7FD2274FFFCFDFEFF22E480F87E
:100A1000A2D574FF13FC7D80E480EFEF8DF0A4A8D5
:100A2000F0CF8CF0A428CE8DF0A42EFE22BC000BBB
:100A3000BE0029EF8DF084FFADF022E4CCF875F014
:100A400008EF2FFFEE33FEEC33FCEE9DEC984005F3
:100A5000FCEE9DFE0FD5F0E9E4CEFD22EDF8F5F0B9
:100A6000EE8420D21CFEADF075F008EF2FFFED33C1
:100A7000FD4007985006D5F0F222C398FD0FD5F03F
:100A8000EA22C2D5EC30E709B2D5E4C39DFDE49C6F
:100A9000FCEE30E715B2D5E4C39FFFE49EFE120AD8
:100AA0002DC3E49DFDE49CFC8003120A2D30D50784
:100AB000C3E49FFFE49EFE22C3E49FFFE49EFEE4A6
:100AC0009DFDE49CFC228F61E4F562F563F564ED25
:100AD000FB7A0064026003020BC2AF40EF64016066
:100AE00005EF64027019C3E5159410E514942740CE
:100AF0000E751427751510E4F549754002FF22AFF5
:100B0000617E00C3EF946474809480500375620129
:100B1000D3EF940AEE6480948050157519015349FF
:100B2000FB5349F75349EF434920434940020C68BE
:100B3000D3EF941EEE6480948050187519024349D7
:100B4000025349F75349EF43492043494075640331
:100B5000020CBAD3EF943CEE64809480501875195F
:100B6000034349024349045349EF43492043494061
:100B7000756404020CBAC3EF9463EE6480948050F1
:100B8000187519044349024349044349084349205D
:100B9000434940756405020CBA751905434902437F
:100BA0004904434908434910434920434940AF4061
:100BB000EF600464037005E4F514F5157540010257
:100BC0000CBAC3E540940274809480400BEB4A70E9
:100BD00007754003F549FF22E4F540752B151218FF
:100BE0005D851A63E56330E403121F87D3E56194E2
:100BF0000074809480504E75210B7522B8534920A3
:100C0000E4F519752B181218BCE51A20E205E56306
:100C100030E415752B1585631A121972752B211284
:100C200018BC431A201219C9752B1812185DE51A41
:100C300054096003121FAB751B00751C017564011C
:100C40007562018075AF617E00D3EF940A74809461
:100C500080501A7519015349FB5349F75349EF4323
:100C60004920434940756201756402804DD3EF9479
:100C70001EEE648094805011751902434902434965
:100C8000045349F75349EF802BD3EF943CEE648033
:100C9000948050117519034349024349044349089C
:100CA0005349EF800F7519044349024349044349EE
:100CB00008434910434920434940E5626071E4F527
:100CC00062050BE50B7002050AE564650C6008859A
:100CD000640CE4F50AF50BAF647E00EF6401701557
:100CE000D3E50B9402E50A94004044E4F50AF50BC1
:100CF000634920803AD3E50B9405E50A9400402F20
:100D0000E4F50AF50BEF64024E7005634902801F9B
:100D1000EF64034E70056349048014EF64044E7061
:100D2000056349088009EF64054E70036349107F2D
:100D30000122752BFFE4F51A121972752B23121874
:100D40005D431A011219727F107E27121F3B752B0B
:100D500024751A20121972751A40121972751A80A8
:100D6000121972752BFFE4F51A121972752B2512E0
:100D7000185D431A80121972752B1512185D12191D
:100D800072121FE7752B0812185D751ADC121972A2
:100D9000752B1612185D431A10121972752B031257
:100DA000185D531AF0431A07121972752B0D121899
:100DB0005D531A3F431A80121972752B5512185D34
:100DC000431A80121972752B5612185D431A01438B
:100DD0001A02431A04121972752B1812185D531A4D
:100DE000E3121972752B19E4F51A431A01431A0814
:100DF000431A20431A40121972752B3512185D439D
:100E00001A01431A08121972752B3412185D431A0D
:100E100004431A10431A20121972752B40E4F51A74
:100E2000431A80431A64121972E4F52B12185D53A9
:100E30001A7F531A8F121972752B0112185D531AEB
:100E40003F531ACF431A10121972752B5012185DA6
:100E5000431A01431A02431A04121972752B5112D4
:100E6000185D431A70121972752B2312185DE4F580
:100E70001A431A01431A02431A04431A4012197200
:100E8000752B2212185D531A3F431A4012197275BE
:100E90002B2D12185D431A08431A10121972752B64
:100EA0002E12185D531A80431A3C121972752B2F9B
:100EB00012185D531A80431A3C121972121FF075F2
:100EC0002B4012185D431A02431A04431A80121968
:100ED00072752B4612185D751A91121972752B478F
:100EE00012185D531AE0431A05121972752B451238
:100EF000185D531A80431A2D121972752B4F121850
:100F00005D531A80431A2D021972752BFFE4F51AEE
:100F10001219C9752B231218BC431A011219C97F63
:100F2000107E27121F3B752B24751A201219C975C4
:100F30001A401219C9751A801219C9752BFFE4F5E8
:100F40001A1219C9752B251218BC431A801219C917
:100F5000121FCC752B081218BC751ADC1219C97532
:100F60002B161218BC431A101219C9752B0312182C
:100F7000BC531AF0431A071219C9E4F52B1218BC16
:100F8000531A7F531A8F1219C9752B011218BC53AB
:100F90001ACF431A101219C9752B0D1218BC531A07
:100FA0003F431A801219C9752B551218BC431A8079
:100FB0001219C9752B561218BC431A01431A024361
:100FC0001A041219C9752B181218BC531AFB1219DE
:100FD000C9752B191218BC531AF8431A011219C9F2
:100FE000752B351218BC431A01431A081219C9751A
:100FF0002B341218BC431A04431A10431A20121936
:10100000C9752B40E4F51A431A80431A641219C9B2
:10101000752B231218BCE4F51A431A01431A024334
:101020001A04431A401219C9752B501218BC431ADE
:1010300001431A02431A041219C9752B511218BC24
:10104000431A701219C9752B221218BC531A3F4348
:101050001A401219C9752B2D1218BC431A08431ACD
:10106000101219C9752B2E1218BC531A80431A3C42
:101070001219C9752B2F1218BC531A80431A3C122F
:1010800019C9121FD5752B401218BC431A02431AF6
:1010900004431A801219C9752B461218BC751A918F
:1010A0001219C9752B471218BC531AE0431A0512BE
:1010B00019C9752B451218BC531A80431A411219CD
:1010C000C9752B4F1218BC531A80431A410219C913
:1010D00090902074A5F0A3E09000FFF0E054F0F0B1
:1010E000E04402F0E0909021F0909020745AF07467
:1010F000A5F0A37402F0909020745AF075A67C7548
:10110000A67C75A2C3439D01D2E9D2EFD2EF7F4006
:101110007E42121F3B7F407E42121F3B1213FF1282
:101120001DCD120D32120F0A121DA87F31121EBCE6
:101130007F31121EBC7F31121EBC758420E4F5285D
:1011400075212775221075855A12191B1217FCD3A9
:10115000E5249464E523940040ECE4F523F5243081
:10116000A1030211FD121797AB4EAA4DA94CA84B33
:10117000AF52AE51AD50AC4F120648E4FBFA79487D
:1011800078431208E35017E4FFFE7D487C42AB4EE3
:10119000AA4DA94CA84B1208E35003754A01AB5263
:1011A000AA51A950A84FAF4EAE4DAD4CAC4B120654
:1011B00048E4FBFA794878431208E35019E4FFFE4B
:1011C0007D167C43AB4EAA4DA94CA84B1208E36098
:1011D000054003E4F54A854E52854D51854C5085B6
:1011E0004B4FE54A6401700EF54EF54DF54CF54B4D
:1011F000F528C2948016752801D294800FE4F54A30
:10120000F54EF54DF54CF54BC294F52812005602FB
:101210001146EF6003021326C3E51F9522E51E95D4
:10122000215009E5576402600302132BE4F549F5E8
:1012300040F547F51EF51FF536752BA41218BC5363
:101240001AF71219C9752B2312185D531AFE1219B9
:1012500072752B231218BC531AFE1219C9C297C2F9
:1012600092C291C28053E17F438C20438C40909185
:1012700001E054DFF0E054BFF0C295C296538CFEFB
:10128000E04401F0538B7F909100E04480F0538B59
:10129000BFE04440F0538BDFE04420F053A27F7561
:1012A000855AE528700630860320A00CE51C451BF6
:1012B0007006E5576402701B90902074A5F0909022
:1012C000277418F0909020745AF075875075870134
:1012D0007587A0E4F557F51BF51C7F64FE121F3BD4
:1012E000752B231218BC431A011219C9752B23122E
:1012F000185D431A01121972D2807F107E27121FC7
:101300003B43A280439D01538CDF538CBF909101DE
:10131000E054DFF0E054BFF0E4F549F51EF51F7529
:10132000855A43E18022E4F508F509227584107896
:10133000FFE4F6D8FD9000007F007E01E4F0A3DF1B
:10134000FCDEFA75817A90908074A5F0908020740C
:101350000093909082F07430909083F09090F0E041
:101360004480F0758AA0908027740093F58A90805D
:1013700026740093F589909080745AF00213BA0293
:1013800010D0E493A3F8E493A34003F68001F2089D
:10139000DFF48029E493A3F85407240CC8C333C4B2
:1013A000540F4420C8834004F456800146F6DFE41D
:1013B000800B0102040810204080901FC2E47E01CF
:1013C0009360BCA3FF543F30E509541FFEE493A390
:1013D00060010ECF54C025E060A840B8E493A3FAA2
:1013E000E493A3F8E493A3C8C582C8CAC583CAF02E
:1013F000A3C8C582C8CAC583CADFE9DEE780BE903C
:101400009100E04440F0438E40C29E909184E054AD
:10141000BFF0909182E04440F0909180E04440F031
:10142000909102E04401F0439101C298909185E0CF
:101430004401F0909182E04401F0909180E04401F9
:10144000F0909101E04408F0438F08C29B90918492
:10145000E04408F0909182E04408F0909180E044EC
:1014600008F0D2E8909102E04402F0439102C29960
:10147000909185E04402F0909182E04402F09091D6
:1014800080E04402F0438C80438C04438C029091B2
:1014900001E0547FF0E054FBF0E054FDF0438B0199
:1014A000438B02438B04438B08909100E054FEF081
:1014B000E054FDF0E054FBF0E054F7F0438C10A34F
:1014C000E054EFF0C294D280C281C282C28322C3B0
:1014D000E5379400500302157CE4F537F538538C5A
:1014E0007F909101E0547FF0538CFBE0547FF053E8
:1014F0008CFDE0547FF00548E548940574809480A5
:101500004003E4F548E54814602714603A1460513C
:1015100014605A24047065E54930E205438C02D218
:1015200091E54930E605438C04D292438C80C29702
:1015300022E54930E505438C80D297E54930E43710
:10154000438C02D2918030E54930E105438C80D252
:1015500097E54930E305438C04D292438C02C29153
:1015600022E54930E516438C80D297800AE5493060
:10157000E50A438C80D297438C04C29222E4F56C36
:10158000F56D752B861218BC756C00851A6D752B60
:10159000871218BCE51AFEEE426CAC6CAD6DE4121D
:1015A00009617B9F7A1C79A3784312073D12099A3F
:1015B0008E6C8F6DE4F572F573752B881218BC75FF
:1015C0006A00851A6B752B891218BC757200851A12
:1015D00073752B8A1218BCE51AFEEE4272AC6AAD26
:1015E0006BE41209617B4C7A1A79A3783D12073DAE
:1015F000C004C005C006C007AC72AD73E412096137
:101600007B327A7779A2784112073DD003D002D09D
:1016100001D00012064C12099A8E728F73752B94AA
:101620001218BC851A6E22E4F561F562909101E012
:1016300054DFF0E054BFF0538CBF538CDF75EFEBF9
:1016400043E18053E20F43E22075E33B53E1E04383
:10165000E10B7FE87E03121F3B43E14020C005758C
:10166000855A80F8AFE5EFADE4F561EDF562C2C0F3
:10167000AC61E4120961E4FBFA794C784212073D4F
:10168000C004C005C006C007C3E5569562FDE55518
:101690009561FCE4120961A804A905AA06AB07D06C
:1016A00007D006D005D0040208468F618D62E50D93
:1016B00014602C14606324027068E5614562FF6069
:1016C00008E4F578F579750D01EF64037054752B16
:1016D000211218BC431A201219C9121FAB8036C33D
:1016E000E57994F4E57894015020E561456264035E
:1016F0007030752B211218BC431A201219C9121F01
:10170000AB750D02E4F578F57922D3E57994F4E52B
:10171000789401400D750D0222E56145626003E495
:10172000F50D22C0E0C0F0C083C082C0D075D000EB
:10173000C000C001C002C003C004C005C006C0078D
:1017400030A8390524E52470020523051FE51F7024
:1017500002051E0538E538700205370515E51570D8
:101760000205140579E57970020578E53F60080502
:1017700033E533700205321214CFC2A8D007D00669
:10178000D005D004D003D002D001D000D0D0D08278
:10179000D083D0F0D0E032909101E054DFF0E054FB
:1017A000BFF0538CBF538CDF75EFEB43E18053E206
:1017B0000F43E28075E33B75EFEB53E1E043E10A51
:1017C0007FE87E03121F3B43E14020C00575855A28
:1017D00080F8AFE5EFADE4F553EDF554C2C0AC537E
:1017E000E41209617BAE7A477981783F12073D8F19
:1017F0004E8E4D8D4C8C4BAE53AF5422E53F605C0A
:10180000309359E4F53FD3E5339410E53294274003
:1018100011755702121FAB752B211218BC431A20E9
:101820008032D3E5339405E5329400402AE53394C1
:10183000F4E53294015020755701E4F51EF51F754B
:101840002B2012185D431A01121972752B201218E1
:10185000BC431A011219C9E4F532F53322E4F565E7
:10186000121D347F78121A20121B3AEF600FC3E565
:10187000659432748094805004056580E3AF2B1228
:101880001A20121B3AEF600FC3E5659432748094FE
:10189000805004056580C9121D347F79121A201208
:1018A0001B3AEF600FC3E565943274809480500456
:1018B000056580AC121AB68F1A021EDBE4F56512BC
:1018C0001D0B7F78121A6B121B74EF600FC3E56556
:1018D0009402748094805004056580E3AF2B121A43
:1018E0006B121B74EF600FC3E565940274809480E3
:1018F0005004056580C9121D0B7F79121A6B121BEB
:1019000074EF600FC3E56594027480948050040501
:101910006580AC121AF88F1A021EF3909101E05400
:10192000DFF0E054BFF0538CBF538CDF75EFEB4317
:10193000E18053E20F43E22075E33B53E1E043E1F2
:10194000117FE87E03121F3B43E14020C0057585EF
:101950005A80F8AFE5EFADE4F555EDF556AE5578A4
:1019600002C333CE33CED8F9F5568E55C2C0E4FE4D
:10197000FF22E4F565121D347F78121A20121B3AFB
:10198000EF600FC3E5659432748094805004056560
:1019900080E3AF2B121A20121B3AEF600FC3E565EC
:1019A0009464748094805004056580C9AF1A121A3B
:1019B00020121B3AEF600FC3E56594967480948003
:1019C0005004056580AF021EDBE4F565121D0B7F38
:1019D00078121A6B121B74EF600FC3E565940274E2
:1019E0008094805004056580E3AF2B121A6B121BA4
:1019F00074EF600FC3E56594027480948050040511
:101A00006580C9AF1A121A6B121B74EF600FC3E521
:101A1000659402748094805004056580AF021EF3C3
:101A20008F66438B20909100E054DFF0C284E4F590
:101A300067C3E567940874809480502EE56630E7AC
:101A400004D2858002C285E56625E0F5667F037EC7
:101A500000121F3BD2847F037E00121F3BC2847F93
:101A6000037E00121F3B056780C7228F66438C01EF
:101A7000909101E054FEF0C287E4F567C3E56794F6
:101A80000874809480502EE56630E704D29080027E
:101A9000C290E56625E0F5667F037E00121F3BD20B
:101AA000877F037E00121F3BC2877F037E00121FC9
:101AB0003B056780C722E4F567538BDF909100E018
:101AC0004420F0E4F566C3E5669408748094805081
:101AD00021C2847F037E00121F3BD284E56725E08C
:101AE000F56730850205677F037E00121F3B0566A0
:101AF00080D4121DEEAF6722E4F567538CFE9091FF
:101B000001E04401F0E4F566C3E56694087480944E
:101B1000805021C2877F037E00121F3BD287E5677A
:101B200025E0F56730900205677F037E00121F3BBA
:101B3000056680D4121E0FAF6722E4F566D2855386
:101B40008BDF909100E04420F07F037E00121F3B6A
:101B5000D2847F037E00121F3B3085130566D3E5D8
:101B60006694FA7480948040F0121EDB7F0122C2DA
:101B7000847F0022E4F566D290538CFE909101E0C0
:101B80004401F07F037E00121F3BD2877F037E005B
:101B9000121F3B3090130566D3E56694FA74809467
:101BA0008040F0121EF37F0122C2877F00228E61E7
:101BB0008F628D63752BA41218BC531AFC431A084C
:101BC000E5636005431A048003531AFB1219C975B3
:101BD0002BA5E562F51A1219C9752BA6E561540FFC
:101BE000F51A0219C9AB07AA067C277D10120A2D27
:101BF000EF2430FF121EBC7C037DE8121EAA7D6418
:101C0000121EA87D0A121EA8AE02AF037C007D0A38
:101C1000120A2DED2430FF021EBCE4F561F5627559
:101C20002B301218BC531AE0431A021219C9752B33
:101C3000311218BC756100851A62752B321218BCFE
:101C4000E51A540FFEEE4261AE61AF6222121FE749
:101C5000752B40E4F51A431A80431A5A121972126E
:101C60001FF0752B4F12185D531A80431A2D12194D
:101C700072752B2E12185D531AF0431A0102197255
:101C8000121FE7752B40E4F51A431A80431A3C12E1
:101C90001972121FF0752B4F12185D531A80431AD8
:101CA0001E121972752B2E12185D531AF0431A0169
:101CB000021972E4F561752B1D1218BCE51A543136
:101CC000F561752B2B1218BC851A68E51A30E403F0
:101CD000120F0A752B2C1218BC851A69AF6122E409
:101CE000F561752B1D12185DE51A54F7F561752B1A
:101CF0002B12185D851A74E51A30E403120D327543
:101D00002B2C12185D851A75AF6122438B80909140
:101D100000E0547FF0438C01A3E054FEF0D290D257
:101D2000877F037E00121F3BC2907F037E00121F3D
:101D30003BC28722438B10909100E054EFF0438B1D
:101D400020E054DFF0D285D2847F037E00121F3B57
:101D5000C2857F037E00121F3BC28422E4F56175B9
:101D60002B191218BC531A30E51A5430FF7E006448
:101D7000207003436101EF64104E7003436102AFB2
:101D80006122E4F561752B1912185D531AC0E51A2A
:101D900054C0FF7E0064807003436101EF64404ED5
:101DA0007003436102AF6122D282909131E054F01E
:101DB000F0E04402F0438B0475D50175D7027F2211
:101DC0007E00121FB7439F01D2EDD2EF2290910106
:101DD000E054DFF0E054BFF0538CBF538CDF75EF5D
:101DE000EB43E18053E20F43E22075E33B22C284E0
:101DF000438B20909100E054DFF0D2857F037E007A
:101E0000121F3BD2847F037E00121F3BC28422C27A
:101E100087438C01909101E054FEF0D2907F037EC5
:101E200000121F3BD2877F037E00121F3BC2872216
:101E3000752B451218BC531A80431A1E1219C97506
:101E40002B2E1218BC531AF0431A010219C9752B14
:101E5000281218BC531AFB531AF71219C9752B2EE6
:101E60001218BC531AF0431A020219C9752B4512F5
:101E7000185D531A80431A1E121972752B2E1218F0
:101E80005D531AF0431A01021972752B2812185D5E
:101E9000531AFB531AF7121972752B2E12185D5331
:101EA0001AF0431A020219727C00AF03AE02120A42
:101EB0002D7C007D0A120A2DED2430FF30B9FD8FF4
:101EC000D922C0E0E59830E309753F01753200750D
:101ED0003300757A01759800D0E032438B209091E1
:101EE00000E054DFF0C285D2847F037E00121F3BE6
:101EF000D28522438C01909101E054FEF0C290D231
:101F0000877F037E00121F3BD29022752B2512186B
:101F1000BCE51A5480700B0571E5717002057012F2
:101F20000F0A22752B2512185DE51A5480700B05D7
:101F300077E57770020576120D3222E4FDFCC3EDE1
:101F40009FEC9E5008000DBD00010C80F175855A74
:101F500022752B281218BC431A04431A080219C907
:101F6000752B2812185D431A04431A08021972755A
:101F70002B281218BC531AFB0219C9752BA412186E
:101F8000BC431A020219C9752BA41218BC431A01CA
:101F90000219C9752B2812185D431A0402197275AB
:101FA0002B2812185D531AFB021972752B21121877
:101FB0005D431A20021972AD07AC06ECFF8DD38F7A
:101FC000D42201490001430001440000752B24750F
:101FD0001A810219C9752BFFE4F51A0219C9752B6C
:101FE000991218BCAF1A22752B24751A8102197226
:0A1FF000752BFFE4F51A02197222A6
:00000001FF
